:020000040000FA
:10000000004400201112010001C9011001C90110B2
:1000100001C9011001C9011001C9011001C9011074
:1000200001C9011001C9011001C9011001C9011064
:1000300001C9011001C901103FC9011000000000F1
:1000400000000000000000000000000000000000B0
:1000500000000000000000000000000000000000A0
:100060000000000000000000000000000000000090
:100070000000000000000000000000000000000080
:10100000B41200001810000015AB0110FDB3011060
:101010006DC00110FDAE011099B501100000000077
:10102000000000002D000000B01200003C10000085
:10103000B1C00110A9BF011067C0011069B801104B
:10104000000000000000000030000000B0120000AE
:1010500060100000BDC00110CDB30110D9BD01105A
:101060006DB301100000000000000000310000001E
:10107000000000001C080020040000000000000028
:1010800000000000200000004409010030000000C2
:10109000281000003C0800200400000000000000B0
:1010A000000000000C0000004811010018000000C2
:1010B0004C10000044080020040000000000000064
:1010C0000000000024000000601101001800000072
:1010D0000000000084080020040000000000000060
:1010E0000000000010000000140A01002C000000A5
:1010F00000100000A0080020040000000000000014
:101100000000000020000000940D010024000000F9
:10111000FFFFFFFFA80800200400000000000000FF
:101120000000000028000000B80D010024000000AD
:10113000FFFFFFFFD00800200400000000000000B7
:1011400000000000140000007811010018000000E9
:10115000FFFFFFFFD808002004000000000000008F
:1011600000000000580000001807010034000000D3
:10117000FFFFFFFFE0080020040000000000000067
:101180000000000010000000901101001800000095
:10119000FFFFFFFFE808002004000000000000003F
:1011A000000000001C000000DC0D01002400000015
:1011B000FFFFFFFFF0080020040000000000000017
:1011C0000000000038000000540C0100280000005E
:1011D000FFFFFFFF5809002004000000000000008E
:1011E0000000000054000000A00401003C000000CA
:1011F00001000000C01301000100000000000E000B
:1012000000000F0032000000010000002408002050
:10121000000200000000000001C9011000000000F1
:101220000000000008000000000022004C08002020
:10123000000000000000000008000000B0080020CE
:101240000000000000000000080000000000000096
:10125000000000000000000000000000010000008D
:10126000F8080020060000000100000060090020CE
:10127000000000000000000000020000000000006C
:10128000290001002500300031002D00010001007F
:10129000040000008C1201000000000000000000AB
:1012A000000001000000030013C4011005C8000085
:1012B000B8120000B81200000000000094080020DE
:1012C00091C6000020000000281201007C0C0100E3
:1012D00029C10110D77D00004F840000A1C7011073
:1012E000A3C70110000000008A9A0000F00101006D
:1012F00008020100D80101000200090001000000FD
:1013000001000000210C0100F50B0100111001008B
:10131000B90701001309010021020100C5F700000F
:10132000A911010009C6000049C800004DC800000D
:1013300070B500230646DFF8800B00EB831000F148
:101340003C04B4F90050B54204D10D0006D0E47855
:101350000C4203D15B1C082BEDD3002070BD2DE99E
:101360007043064614461D4601F053FA6EB1D6E9A5
:101370000A2322432B43C6E90A23D6E9088948EA0F
:10138000040449EA0505C6E90845BDE8704301F0D3
:1013900059BA10B50129044698BF012101F0ABFAF2
:1013A0002046BDE8104001F0A8BA38B504460D4605
:1013B00001F003F8A04231BF241A641E241A641CF1
:1013C000A40805F57A70A04238BFB4F1405F05D299
:1013D000641B012C98BF0124204632BD002032BD81
:1013E000F8B50446DFF8800A40690025F0B1C3680B
:1013F000197B012501F00F01022914D10069DFF8E2
:101400006C6AC168408A96F862704118192298681F
:1014100002FB0711FFF7C9FFDFF8A01A20600A6876
:10142000B0FBF2F002E00023236000E020602846D9
:10143000F2BDDFF88C1A0A680020D30705D5DFF863
:10144000840A0068C00900F001007047F8B500F098
:1014500024F90546002C1CBFA07A00282AD094F954
:1014600009600127FFF7E5FF07FA06F658B194F97E
:101470000900DFF8541A4A68113007FA00F0C04337
:1014800002404A6008600020A07220722060606004
:10149000C4E90400DFF8341AA06194F909000A785D
:1014A0008740174388780F7008B1401E8870F0B2EB
:1014B00000F0E0F82846BDE8F24001F0C3B9032887
:1014C00004DADFF8A81901EB4010704700207047DC
:1014D0002DE9F0410025DFF89489DFF8EC69012758
:1014E000E8B2FFF7ECFF040034D0A07A012831D134
:1014F00094F90900113007FA00F0C14331607268B5
:101500001043706094F9090007FA00F0C0B200F0CF
:10151000A5F8002104F1100000F0BFFE812809D1D8
:10152000A06920B1002100F0B8FE812802D102207C
:10153000A0720FE081280DD098F8610094F909207D
:1015400011219140084388F861000021DFF8680B01
:1015500001F027FA6D1C032DC2D3BDE8F08138B528
:1015600004281BD1DFF8004904F1DC05284601F00E
:10157000B6F998B1284601F0B0F9DFF8741C0A6892
:101580005043B0F5967F09D2284601F0B8F90520FE
:1015900001F076FB0120607300F002F8002032BDFC
:1015A000042104F13C0001F0FCB938B5DFF80C4B24
:1015B000DFF8B4586069002161610022E068E160F1
:1015C00005F170000FF2F54101F030F9002001F053
:1015D00093FEDFF8200C01680A6B9047696B81422B
:1015E00031BF401A401E401A401CA9684FF0FF321C
:1015F000A2EB10328A4234BF4FF0FF3001EB1030C3
:10160000A860287B20B1A86BA968C00288421ED2BE
:10161000FFF70FFFB8B1DFF8840B40F60901018036
:1016200000224280417B01F0F00141F00101417351
:10163000017B01F0F00101734260E26120604188AA
:1016400011F4406FFBD0012000212873A96001F044
:10165000CDFDDFF8A01C0020086031BD10B500F002
:101660001CF8DFF804180A7C14430C74BDE8104021
:1016700001F0E8B838B500F010F80546DFF8E807E3
:10168000017C21EA04040474027C110703D40821BC
:101690003C3001F086F900F080BF044601F0B9B893
:1016A0002DE9F84F0546002129606846FFF798FEAE
:1016B000044600264FF0FF3A0027DFF80098DFF8D5
:1016C000ACB7DFF8A487F8B2FFF7F9FE00281CBF1B
:1016D000817A002917D0017A0126022922D0D8F870
:1016E0003020D168528A9BF8623040695118192223
:1016F00002FB0311FFF759FED9F80010B0FBF1F01F
:10170000504598BF82467F1C032FDCD330460CE047
:10171000296002E008B1C5F800A0204318BF0120ED
:10172000BDE8F28F01204FF0000A002CF2D0002813
:101730000099EDD05145EBD95146E9E77CB5DFF88A
:1017400028472178022903D1192001F06DF873BDD3
:10175000217801291BD001F05CF805466846FFF7A7
:101760009FFF04F1DC0660B1009820B101463046CD
:10177000FFF70FFE08E0304601F0C1F8FFF710FF59
:1017800002E0304601F0BBF8284601F05BF873BD7B
:101790007CB5DFF8D4566C69686A002848D1002C03
:1017A00041D06846FFF71CFE00281CBF00980028A7
:1017B00003D00820FFF75EFF73BD0820FFF74EFF40
:1017C00005F1140001F0A4FD6862D4E90601C243EA
:1017D000DFF8F456AA60A9680142FBD1EA68D4E9AF
:1017E00006010243EA60D4E90623DB432B606E68FE
:1017F000D4E906010E436E60E468204601F0E9FC7E
:10180000208840F60201401A08D041F21E01401A19
:1018100004D041F6E671401A012809D8214601207A
:1018200000F01EF973BD022105F13C0001F0B9F88A
:1018300073BDDFF83406016B8A6801F1200350683C
:1018400030B1984218BF0246F9D101E0002070473C
:10185000507B10F00F0F02BF488C40F60901884200
:10186000F4D101207047F8B5DFF8FC65DFF83C0BD8
:10187000756A01F015FD0446DFF8340B026807684D
:1018800002F02002224018BF002D07F460270BD081
:101890001346B56200222846FFF761FD4FF48041F0
:1018A00006F13C0001F07DF83C400ED0DFF8BC05AD
:1018B00090F8611041EA544480F8614006F18C00D0
:1018C000BDE8F440002101F06CB8F1BD2DE9F8430A
:1018D000DFF8988598F86100002448B1002698F850
:1018E00061000121B14008420ED1761C032EF6D3CF
:1018F00098F8610030B1BDE8F4430021DFF8B80783
:1019000001F04FB8BDE8F18398F861001021B140B3
:10191000084218BF012400F07CFF98F861101122E2
:10192000B240914388F8611000F08CFFF0B2FFF7ED
:10193000C6FD02001CBF907A0028D9D092F9099008
:10194000DFF88C1B01EB8901002C0F6816685568C5
:1019500004BF107A022803D1D2E90401C3000CD4D9
:101960001046FFF773FD44B10020009000224FF0B5
:10197000007349463046A847BAE7009700224FF067
:101980000063F6E738B5DFF8E054686A70B36A6A56
:10199000D2E9060101F014FC0446686A22460023DD
:1019A000FFF7DDFCA00718D56A6ADFF8043A9C68E7
:1019B000D2E9060120F0020084439C606A6A1C6838
:1019C000D2E906018C431C6005F11C00696A01F034
:1019D000B1FC00206862022104E03CB1686AA862A0
:1019E0004FF4804105F13C0000F0DBFFFFF770FD94
:1019F000BDE83140CCE6DFF87004B0F92C10B0F946
:101A00002E00814204BF0820FFF734BE70472DE945
:101A1000F042074689463E6E14461D4606B1B04761
:101A2000D7E9160104400D4008BF002C16D08021D4
:101A30004846FFF77DFCC7E91A4538B1D0E90823CD
:101A4000A243AB43C0E90823396E816000203866A9
:101A500007F13800BDE8F04201F0EBBCBDE8F082D0
:101A600038B50A46DFF80C1B4B681C001CBF8968A0
:101A7000014207D0DFF8F0530146286B01B0BDE802
:101A80003040184731BD0000704780B500F080FF3E
:101A9000DFF8D4230146106B5268BDE808401047B8
:101AA000DFF8C4030FF229424168914208BFFFF7F3
:101AB00045BE04213C3000F074BF000038B54FF043
:101AC000FF3001F07DFBDFF8A0530FF20541044623
:101AD000686888420FD10022DFF8C81A05F170004B
:101AE00000F0A4FE02202870FFF7A3FE18B9FFF74C
:101AF000EFFCFFF74DFEDFF8380B044207D005F18D
:101B00003C00BDE834404FF0005100F04ABF31BD09
:101B1000F8B5D54DEC6924B3E168082040F603031D
:101B200040F6040619B3C2B20AB30A889A421EBF2D
:101B3000B2424968401EF5D114E0086818B9BDE802
:101B4000F240002057E710F1010F0AD0DFF8A0168D
:101B50000A68B0FBF2F105F58070BDE8F440FFF7CC
:101B600018BCF1BD20691822203001F091FCD4E9A5
:101B70000A230026C4E90A66A06858B1B4F93C10EB
:101B80002069A66813F0E2471CBF02F0000203F0D0
:101B9000E243B04700F03DFE0646E88D401CC0F32E
:101BA0000B00E885002084F83F0005F11C0001F0DF
:101BB000AFFB00F0FFFBB5F92E00B5F92C10884201
:101BC000CFD1296B91F870000028B6D0002281F89F
:101BD0007020B4E738B50D46A807A34C0ED5FFF723
:101BE00097FFE06938B145F0020104F13C00BDE81F
:101BF000344000F0D6BEBDE831409FE5680747D5C8
:101C0000DFF8F0150A68106B80476063606908B1FF
:101C100000692063206B4168DFF8280A0A780260B7
:101C2000022001F02DF8112001F03FF80121DFF82A
:101C300044292170907810B90E2001F036F8206BFD
:101C4000DFF8782441688868002804BFC868002845
:101C500004D00021D161DFF8F00910600721DFF81E
:101C60009436196000215069516190699161506901
:101C70000FF2210140F0804040F0020050616160AD
:101C80001A2000F0C8FDBDE83240192000F0C3BDA5
:101C900031BD00002DE9FF410646880040F1CC80AF
:101CA000714C206B41684868D1F80880CF6801000A
:101CB00018BF80475FEA080008BF002FDFF8FC5319
:101CC0000ED0E8690028FCD00021E9615FEA080035
:101CD00018BFC04707B1B847DFF82C0A01F079FAFE
:101CE0000020E8610120DFF8241A296040F602078D
:101CF00001F002FBDFF8A42440F60A031380002061
:101D00005080117B01F0F00111735060517B01F0A4
:101D1000F00141F0010151730021D6F80880707C78
:101D2000A8F80210B8F80010C91B1DD041F21E0718
:101D3000C91B19D041F6E677C91B012928D8B8F884
:101D400018704FF6FF310F40A8F8187028B14FF601
:101D50000F403840A8F818001AE02D20394660F3EB
:101D60000911A8F8181013E0B8F810704FF6FF31F9
:101D70000F40A8F8107028B14FF60F403840A8F86F
:101D8000100005E02D20394660F30911A8F8101065
:101D9000002070744746786800281EBF0188994269
:101DA0000746F8D14AE0308CA8B1002171847162F5
:101DB00006F12C004378017803F0F00301F0F00104
:101DC00043F001030170437006F120005060517B25
:101DD00001F0F00151736946404601F067FA684628
:101DE00001F072FAE8690028FCD00021E9610FF2E5
:101DF000E102607B626030B101F0D0F80028FBD0D6
:101E000001F0DDF810E0DFF808190A681368012016
:101E10009847012808D0787B00F0F00040F00100DE
:101E200078730FF24D0060600021E961C5F8008011
:101E300041460120FFF714FEBDE8FF817A60787B00
:101E400000F0F000787360690028ACD0C0680088AA
:101E500040F6030188421CBF40F604039842A2D119
:101E600000206063B7E700009C1A00205813002090
:101E7000DFF8A008014200D17047DFF89418012074
:101E800010B50A68DFF8904813689847012808D110
:101E90000FF23D00C14A606000218848C1610260C4
:101EA00010BDD3490A683220B0FBF2F104F1DC0026
:101EB000BDE81040FFF76DBA58110020FC1D00204E
:101EC000402108400000044008100440B8130020DE
:101ED0002DE9FC4704460E467004DFF83C782BD50C
:101EE00000F097FCBD6A15B3D5E90A2302F00A0495
:101EF00013F0E04108BF002C19D1D5E90A48D5E913
:101F00000A23A24323EA0803C5E90A2300F09AFC46
:101F1000A86870B1B8F1000F08BF002C09D0B5F95E
:101F20003C1028692246AC684346A04701E000F017
:101F300089FC26F48046B6E0B00051D5DFF8B4A2A3
:101F400000F067FCDAF854100A68804604209047D5
:101F500000281CBF207C002822D0786B00B381466B
:101F6000DAF80000E568016B8847814531BFA0EBD6
:101F70000909401EA0EB090000F101094FEA1930E0
:101F8000A842E06002D205446D08E56040F2D171DC
:101F9000E068A0F5FA70884224BF40F6C410E06003
:101FA000404600F04FFCFFF744FC78B1D4F81880AD
:101FB00000224FF000736FF480712046C0477869AB
:101FC00010B1FFF7BBFB01E046F002062046646952
:101FD00000224FF080630021A04726F0005662E007
:101FE000B00707D5FFF794FDF86900285BD126F00C
:101FF000020658E0300756D5397C08074FD4397CA3
:1020000008064CD46846FFF74BFB10B10098002837
:1020100045D0DFF8081791F8610000283FD100246F
:10202000E0B2FFF74CFA00281CBF817A002908D0E3
:102030000122827290F9090002FA00F1C8B2FFF79A
:1020400019FB641C022CEBD90320387007F5807053
:1020500000F055FCFFF7A9FA00210220FFF700FD70
:10206000022000F0A8FD112000F0BBFD787C18B91B
:10207000386B383001F0DDF9DFF8F814887810B9E2
:102080000E2000F0AEFD787B20B100217973052091
:1020900000F091FDDFF88806786000213970FFF7C5
:1020A0004DFB26F0080626B1314607F13C0000F052
:1020B00078FCBDE8F3870000281B002000100440D6
:1020C00038B584B000F0DCFCDFF85806DFF8A45423
:1020D0000168DFF8444641F002010160684600F003
:1020E0002CFC6878DFF8401602906A4604F13C0048
:1020F00000F02BFC6A46DFF8341604F18C0000F087
:1021000024FC684600F096FB2878DFF8242601902E
:102110006B46192104F1700000F059FB6B46DFF8A3
:1021200014261A2104F1C00000F051FB0023002204
:10213000DFF8041604F1DC0000F0A9FB0023002204
:10214000DFF8F81504F5807000F0A1FB0023DFF83C
:10215000F025042104F5927000F01BFDA8780128F9
:1021600004BF0E2000F0A1FD04F11C0001F0C5F831
:1021700004F1140001F0C1F800202070A081A060DB
:102180000721DFF8982582F8601005216063A163BC
:10219000207405B0DFF88815616030BDD41B0020C5
:1021A0002DE9F041DFF870556C699046002600E09B
:1021B0002468CCB18C42FBD1B4B1276800224FF027
:1021C00080532046FFF7CBF8214605F1140001F0BB
:1021D000C7F8214605F11C0001F0ACF8761C5FEA57
:1021E000080018BF3C46E7D13046BDE8F08100004A
:1021F000FC1D00208C0100102DE9FC4E8246164685
:1022000003273000ADF800101D4614BF4FF0804981
:102210004FF0005900F0FDFA8346BDF90000DFF8E9
:10222000F84410F1010F05D1606A00280CBF606905
:10223000606A02E00021FFF77BF840B390F83F109E
:102240000A0623D5616A884212D100224B46FFF765
:1022500086F8002E14BFDFF8EC04DFF8EC0400F081
:10226000B8FF8DB161692A465046FFF799FF0BE030
:1022700001462A465046FFF793FF38B120780128DF
:1022800002D00221FFF78DF9832700E0042758468A
:1022900000F0D8FA3846BDE8F68E10B50C46DFF8E7
:1022A00078140A78022A0BD100F093FF04B1206061
:1022B00000F0FF00012801D1812010BD022010BDD7
:1022C000012010BDF8B504460D46164600F0A1FAEF
:1022D0000746DFF84404016B8C4218BF032404D185
:1022E00031462846FFF7D9FF0446384600F0AAFADF
:1022F0002046F2BD00000460F0B50746DFF84C044C
:1023000087B00E001546006818BF002D1C4649D046
:102310003178C840C20745D50021284600F093FF18
:102320007E60BD6000F075FADFF8EC530646687C0D
:10233000002835D1FFF7C4FE687C401C687400F0AB
:1023400039F834B968460FF22C411C2201F0A0F88C
:102350006C46206838600120218A78747982606830
:10236000002812BF002140F6C41001213974F86022
:10237000DFF8DC13E0680A4600B10146B961A068E5
:1023800000B102467A61582107F1200001F0E0F81F
:10239000002107F1380001F016F82F63384602E0FB
:1023A00000F008F8002007B0F0BD000020000E008B
:1023B0000C100440304600F045BAF8B500F029FA98
:1023C000DFF854130A78022A05D1DFF888130C6865
:1023D00000F038FA18E000F035FADFF87C03DFF897
:1023E0007C4301680A6B904710F5003041F1000111
:1023F000A4FB0067DFF8682304FB01771169002064
:10240000341847EB01052C462046F2BD2DE9FE4F5E
:1024100081460E4693469A4600F0FBF980466FF0DF
:1024200001040020DFF83C1301EB801191F83F30EC
:102430001A0603D5401C0828F4D341E0DDE90C4519
:1024400001960091DFF8D06206F5807000F057FA2F
:10245000B08D401CC0F30B00B0850098019900F1CD
:10246000080779602021009800F13E02DFF8F802A9
:1024700082F800B0C7F800A02040B38DBB86C7F833
:102480000890294040F00200C7E904010023002021
:10249000C7E90600FB62B8624FF0FF313963802064
:1024A000507089F8703006F11400009900F042FF76
:1024B00070690099884208BFFFF740F9B7F93440C6
:1024C000404600F0BFF92046BDE8FE8F0000000046
:1024D000943004402DE9F04107460E463000144682
:1024E0001D4601D5002010E000F050FA8046802102
:1024F0003046FEF71DFF060003D096F83F000106A8
:1025000005D4404600F04FFA022000212FE0D6E922
:10251000080144F00A0445F0E0452040294008BF86
:1025200000280FD0404600F03EFAD6E908012040CE
:102530002940C7E91A01D6E9082382438B43C6E93B
:10254000082312E0B168DFF82402814202D0B368A8
:102550003B66B060C7E91645404600F024FA4FF0EC
:10256000FF3107F1380000F05BFFD7E91A01BDE841
:10257000F081000008F70000DCB5DDE90667CDE971
:1025800000670446FFF742FF0146204602B0BDE85F
:10259000D0400A224FF0E0439CE72846BDE8324095
:1025A00000F050B985190000530803F0010300E062
:1025B000012302F001021FE60FF2B8111C2200F005
:1025C00067BF00E000BF00227CE680B56A46DFF806
:1025D000A011FFF777FE812803D1009800020016B2
:1025E00002BD6FF07F0002BD70B50E46154600F0CB
:1025F00010F98324484A1EB1022E0DD007D312E0F1
:10260000516A11B1516A8A8F04E080240CE0434979
:1026100091F860202A8007E0117802290CBF01217F
:102620000021297000E0032400F00CF9204670BD61
:102630000200004080B508468021FEF779FE00B117
:10264000C06802BDD0210840510007062DE9F843BB
:10265000054689461646832400F0DBF8B9F1080FD9
:1026600080462D4F48D8DFE809F005080E471114C1
:10267000202F4200306828603FE001216974E8683B
:102680006030E86039E03068688236E03168B9630C
:1026900033E0306818B98020FEF7E0FF2DE0012814
:1026A0002AD18020FEF7E6FF27E03878002804BF13
:1026B0007869002819D13168192000F0B9F831681B
:1026C0001A2000F0B5F818E03878002804BF7869BF
:1026D00000280AD1316807F13C0000F066F9316842
:1026E00007F18C0000F061F907E0002405E0307884
:1026F0000A4981F8600000E00324404600F0A2F897
:102700002046BDE8F28300000100070601010E0427
:10271000E0010010040000209C1A00205813002043
:10272000D51B0000002009408B1A0000CD180000C6
:10273000BD1A000067180000A11A0000F719000078
:102740005F1500000100020401000104D4210840CB
:10275000891A0000043004408C01001000093D007B
:10276000D41B002058110020FFEFFF9F0F1A00001C
:1027700001000304FFFFFFFF000000000000000055
:10278000000000003A01000000000000000000000E
:10279000DFF800F085BF0110DFF800F061C0011024
:1027A000DFF800F079BF0110DFF800F0A9C00110D8
:1027B000DFF800F089AF0110DFF800F055BC011020
:1027C00020B1082330220021FFF7EABF7047F8B597
:1027D0001C008CB005460E46174603D1002300F0BE
:1027E000C7FE0CE06846FFF7EBFF206805906B46DC
:1027F000606808903A4600F004F800F0B9FE0DB0A9
:10280000F0BD207AADF81800314628467047FFF732
:10281000CBBFFFF7BDBFFFF7CBBF80B500F0C8FE51
:10282000401E8041C00F02BD00F0C8BE00F0D0BE07
:10283000FFF7C2BF002101604FF0FF320123426069
:1028400003727047FFF7A8BFDFF800F0C1BF0110A7
:10285000DFF800F0B9BA0110DFF800F0E5C00110B0
:10286000DFF800F01FBE0110DFF800F069B20110C0
:10287000DFF800F0DDC00110DFF800F091BE0110BC
:1028800020B1082324220021FFF7DEBF7047F0B5F6
:102890001C0089B005460E46174603D10023FFF7FA
:1028A000E3FF0FE06846FFF7EBFFA16806916B4678
:1028B0002278ADF810203A466068059031462846E7
:1028C000FFF7D2FF0F48104A01681160284609B08F
:1028D000F0BDFFF7CDBFFFF7CFBF00F081BE80B5E1
:1028E00000F095FE00B10120C0B202BD0021816060
:1028F000017041607047FFF7AFBFFFF7B1BFFFF74F
:10290000A7BF0000BC130100FC1D0020DFF800F091
:1029100011BF0110DFF800F005B30110DFF800F07F
:1029200015C00110DFF800F015C1011020B1082317
:1029300028220021FFF7F2BF7047002101604160AB
:10294000C1604FF0FF318160704770B514008AB0EC
:1029500005460E4603D1002200F060FE0CE06846FA
:10296000FFF7E4FF206804906A46606805903146EE
:1029700000F004F800F052FE0AB070BDE068079065
:10298000A068069028467047FFF7CCBFFFF7BEBF90
:1029900000F050BE80B500F00BFE012818BF0020EB
:1029A00002BD00F051BEFFF7B5BF00F05DBEF0B450
:1029B0000246106895681318506803EB5004C0076E
:1029C0001DD54D441BE013F8017B05F8017B491E22
:1029D000F9D1A0B1B60813F8011B06F00306032EC7
:1029E00008BF13F8016B01EB06214942801C294402
:1029F00005D011F8016B05F8016B401EF9D1A34217
:102A00000ED013F8016B16F0030104BF13F8011B7D
:102A1000C91C30090F28DAD113F8010B0F30D6E7A3
:102A2000F0BC02F10C00704770B5DFF83847DFF8F2
:102A300038072568EE68002301223421B04700B131
:102A40000120C0B270BDDFF82407806870470246DD
:102A50000020022904D1012A06D140F2EE2070475D
:102A6000012A08BF4FF47A707047DFF8001791F819
:102A7000E60020B1D1F81001002818BF00477047C8
:102A80002DE9FE43DFF8E48608F1E106B07900287D
:102A90007CD1DFF8DC16DFF8DC760868DFF8D85682
:102AA000DFF8D896800900F00100F0710120B071C4
:102AB000F87C707168467968C8F81011FFF716FF46
:102AC00000210191002202918DF800206B460FF247
:102AD000F54108F10C00FFF7DAFE6B4600220FF219
:102AE000C55108F13000FFF7D2FE6B4600220FF20D
:102AF000095108F15400FFF7CAFEB9680120884760
:102B0000DFF87C0602786868C0F38154387D20B114
:102B1000032C02D10120307003E0032C18BF022CDB
:102B20000DD1022000F0ACF8032CD9F800100CBF36
:102B30004FF47A7042F21070B0FBF1F118E0012C02
:102B400002D100F040FA1BE0D4B9022000F098F85E
:102B500000F082FA9847012803D1002000F033FAF0
:102B60000EE0D9F800003221B1FBF0F1B1FBF0F139
:102B700008F15400FFF7BFFE08F15400FFF7BDFE57
:102B8000286840075CBF002000F07AF80020BDE80C
:102B9000FE8338B5002408B1150002D16FF002049D
:102BA00007E08160C26003610146DFF8C00500F004
:102BB000C1FB204632BD10B50446FFF72AFEDFF800
:102BC000AC150A1992F8E9305B1E82F8E930DBB2E5
:102BD00033B98A68012303FA04F422EA04048C60FE
:102BE0005FE0F8B50546FFF714FE0446DFF87C15F4
:102BF000481990F8F020521E80F8F020D2B27ABB2B
:102C0000DFF88005DFF8807500EB850210F82550AD
:102C10005688280615D539680A6A304690473968BB
:102C20008A6A3046904739680A6B30469047DFF829
:102C30005C15DFF85C250120086010688007FCD572
:102C400007E06A0611D501EB86010020D1F80421C6
:102C5000904705F03F05132DBCBF2846FFF7C1FF85
:102C60002046FFF7EFFD0020F2BD39688A69304643
:102C7000904739684A6B304690470228F9D1E8E717
:102C800010B50446FFF7C5FDDFF8E0148A6801239C
:102C9000A3401A438A60214491F8E920521C81F82C
:102CA000E920FFF7CFFD002010BD2DE9F0410646D9
:102CB000FFF7AFFD0446DFF8B454A81990F8F01000
:102CC0004A1C80F8F02081BBDFF8B88418F8260091
:102CD00000F03F001328B8BFFFF7E7FF08EB8600BE
:102CE000478818F82600DFF8A064010615D5326879
:102CF000D169384688473268516A38468847326811
:102D0000D16A38468847DFF88424DFF8841401202C
:102D1000106008688007FCD507E041060BD505EB7D
:102D200087020120D2F8041188472046FFF78AFD68
:102D30000020BDE8F08131684A6938469047316823
:102D40004A6B384690470128F9D1EEE72DE9FE4F4E
:102D50000746DFF81C04DFF81494016800260024FD
:102D60004A06A24609F1DC0504D5297B11B92020C9
:102D700000F079F9012F18BF6FF0010857D12868CA
:102D8000012852D10221296000F0FBFC012000F053
:102D90006AF95FEA00084BD1FFF7F8FDDFF8F81396
:102DA000DFF8E47301900C600120B96A0A6890476B
:102DB000012803D1002000F0A9F90124DFF8DC1379
:102DC000DFF8D0230E6009F1FF011368887808B19D
:102DD0004FF0010A487808B14AF0020A087808B1B1
:102DE0004AF0040AE87F20B139680A6B4FF480602A
:102DF0009047A87F20B139680A6B4FF481609047F3
:102E0000DFF88813DFF898B3012008604AF020004B
:102E10003A6891698847DFF88C230120106099F89F
:102E20000800C10709D501261BE06FF004087CE00B
:102E30000120286000F0AEFC77E0396A8A685846C5
:102E400090470428F9D00128009004D13A6A5368C9
:102E5000032158469847DFF8500301688908890024
:102E60000160002000F0B6FCDFF82893D9F80000DC
:102E700039688A6B90476EB90098012804D13A6A84
:102E80005368012158469847DFF81C03016841F058
:102E9000030101600120DFF80413086050463A681E
:102EA00053699847E87F20B13968CA6A4FF4806057
:102EB0009047A87F20B13968CA6A4FF48160904773
:102EC000B249B84B0120086000221A600320286034
:102ED00039684A6B504690470128F9D1D9F800006B
:102EE000042000F0C0F80646AB4901200860D9F87C
:102EF00000209F4800688106FBD514B1012000F036
:102F000005F900F0C1FD082000F0ADF806430120EE
:102F100028600198FFF747FD9648008A00F033FDCE
:102F200000F038FC0EB14FF0FF384046BDE8FE8F90
:102F300038B50446FFF76DFC054621468B4800F086
:102F40000FFA2846BDE83240FFF77CBC3EB50024AE
:102F5000012804D020D303281CD017D31CE06846D6
:102F6000FFF7C4FC814D914901948DF80040029413
:102F70006B46012205F17800FFF789FC00238C4A9B
:102F80002C2105F19C00FFF722FC05E000F098FDE4
:102F9000044601E000F054FE20463EBD38B5FFF780
:102FA00038FC7249054691F8E000012410B1FFF7A2
:102FB0003BFD04462846FFF745FC204632BD002075
:102FC00070E000007047F8B50326664C664D009629
:102FD0001C23266877684FF0405200212846B847E6
:102FE0000120009028462468656809234FF4007288
:102FF0000021A847F1BD000010B500F02DF898475A
:10300000022818BF032805D1FFF7DDFFBDE81040F7
:103010000220D0E5012802D1BDE81040D3E7654881
:103020000168C1F38150032808BF4FF47A7004D0BF
:1030300002280CBF41F28830322050494B4C0A68BC
:10304000B0FBF2F104F15400FFF755FC04F1540019
:10305000BDE81040FFF751BC57490A6813680420C7
:1030600070470020704738B50546404804685CB199
:10307000A068284205D02269E368002128469847C5
:1030800020B92468002CF3D1002032BD4FF0FF306E
:1030900032BD4A49012807BF0720086000220A60A4
:1030A0000020704770B5FFF7B4FB304D314E044639
:1030B00095F8E00050B1287A410613D4FFF7B4FC2C
:1030C00080B100F052FF002085F8E0000220B568D2
:1030D000A84706461020FFF7C6FF012E11D1032096
:1030E000A8470EE025490A683220B0FBF2F101B989
:1030F000012105F13000FFF7FEFB05F13000FFF77D
:10310000FCFB2046BDE87040FFF79CBB38B50128AA
:1031100023D129490A681368984701281DD000F077
:1031200017FF124D297A012085F8E000880616D491
:10313000124A10683221B1FBF0F404B9012405F100
:103140003000FFF7DCFB214605F13000FFF7D3FB31
:1031500005F13000FFF7D1FB01E000F02CFF00206B
:1031600032BD0000A401001000A00C40E0090020C6
:1031700014100940F0F60000B03F0050FC1D002084
:10318000051F002044010100B8010010282008603C
:10319000282008402C2009400C400940000222430E
:1031A000004003408001044324220840913D000078
:1031B0001D3B0000B43F0050E0010010000004601F
:1031C00044490A681040C2430A600A680242FAD1C0
:1031D0007047414A11680029FCD10023D361106077
:1031E000D0690028FCD0D161506870473B48016825
:1031F00021F0020141F4007101600321384881602F
:1032000041F2300141610121C16050214161012140
:10321000C1604FF4CA6141610121C1600160704722
:1032200030B50446002000E0401C984209DA54F80A
:10323000205015F1010F04D015408D42F4D1C0B2D9
:1032400030BDFF2030BDD0B584B00188B1F5C15F7D
:1032500024D142690092002781690191C0690290DE
:1032600020480168C1F303665DF8274084B1052357
:103270004FF0FF321C492046FFF7D2FF042807DC3D
:1032800054F8201021F4702141EA064144F820103E
:103290007F1C032FE8DB002004B0D0BD0120FBE73A
:1032A00012490A681040C2430A6070471048026819
:1032B0000A6082684A60C2688A60406B20F0784089
:1032C00040F08050C860704701461022094800F065
:1032D000CFB800001010044000100440000004604B
:1032E00000410440541300500200F8440810044008
:1032F0004C13005018000021704710B50446FFF72A
:1033000088FA002161602160BDE81040FFF79ABA99
:1033100038B50546FFF77DFA2C683CB12168296075
:10332000216800291ABF00224A606960FFF78AFA03
:10333000204632BD38B500F00FF8002129606268E0
:103340006A606168002914BF0D6025606560FFE751
:10335000BDE83240FFF776BA04460D46FFF759BA8A
:1033600038B5FFF7F9FF29686A6800290CBF626069
:103370004A6069682A6800290CBF22600A60E7E792
:10338000DFF800F009C00110DFF800F0D1B2011041
:10339000DFF800F0059B0110DFF800F0E1A3011059
:1033A000DFF800F05DB40110DFF800F009C1011092
:1033B000DFF800F00DC1011020B108232422002104
:1033C000FFF7DEBF704730B589B004460D4600F008
:1033D0000BF801218DF818106A4629462046FFF7A0
:1033E000DFFF204609B030BD6846E5E718B589B073
:1033F0000446FFF7F9FF01218DF818102046034A13
:103400006946FFF7C1FF0AB010BD0000FC070020AD
:1034100080B500906846FFF7C7FF01BDFFF7C8BF42
:1034200080B5FFF7B5FF10B94FF0FF3002BD0020A7
:1034300002BDFFF7B1BF02460229107803D15178CF
:1034400000EB01207047032906D15178927800EBF8
:10345000012000EB02407047042908D1517893788D
:1034600000EB0120D17800EB034000EB01607047D6
:1034700062B38B0708D0521E11F8013B00F8013BE4
:1034800000F024808B07F6D1830740F0208000BF36
:10349000103A07D330B4B1E83810103AA0E8381029
:1034A000F9D230BC530724BFB1E80810A0E80810D7
:1034B00044BF51F8043B40F8043BD20724BF31F825
:1034C000022B20F8022B44BF0B7803707047121FA9
:1034D00017D35B0009D151F8043B20F8023B1B0CC9
:1034E000121F20F8023BF6D20BE051F8043B00F823
:1034F000013B1B0A20F8023B1B0C121F00F8013B8A
:10350000F3D238BF121D521E24BF11F8013B00F840
:10351000013BF8D8704730B4002513E050F8042B75
:10352000D30744BFA9F101039A18091F042942F8DF
:10353000045BFAD213468C0744BF15809B1CC90755
:1035400048BF1D7050F8041B0029E7D130BC7047FC
:10355000002200F077BD01700A0A0B0C090E4270C0
:103560008370C170001D7047DFF800F0BDAA011024
:10357000F8B504460B480C4F0668F8690D4650F83C
:103580002510B1420AD10948009029462046FFF78C
:10359000EBFFF86950F82510B14201D10020F2BDCF
:1035A0002046F2BD1812000044010020FC07002054
:1035B0000148007D704700BFA4010020102803D3FC
:1035C00002491038C1F8000F704700BF00E000E06A
:1035D0008160426070470000DFF800F09DB201108A
:1035E00070B5044600F03CFD0646A08A002501287F
:1035F00008D1FFF7F1FF0546E068A168451BA94225
:1036000038BF0025304600F02CFD284670BD808A6A
:1036100070470000DFF800F079AD011010B50446E6
:10362000034BFFF7F7FFA06800B1204610BD00BFB5
:10363000FC07002001488068704700BFC8010020D7
:10364000DFF800F011B0011038B504460D4600F067
:1036500015FD616A0D43656200F011FD2046BDE86D
:103660003240FFF7EDBFFF7F70B50D4615F1010F3A
:10367000044608BF052500F001FD06460120A840CC
:10368000A06165612946054A506900F0F5FCA06219
:103690003046BDE8704000F0F2BC00BFC801002019
:1036A000DFF800F031BF0110DFF800F0F5B70110CE
:1036B00030BF7047FCE738B500F0E2F900F092F94E
:1036C000FFF7C1F9054605F00C000C2853D0680738
:1036D00029D400F0FBFC044601210120FFF7B7F9D3
:1036E000314A116801FB04F398421CD2F025B5FB66
:1036F000F1F1641A2D49887C18B1C868A04238BF1E
:1037000004462B4D214605F10C00FFF7A5F805F105
:103710000C00FFF7A5F80120FFF718FB05F10C00DE
:10372000FFF796F829E0280725D4224C2248216A81
:103730008A6890470428F8D0EA06204900D420B9C6
:10374000086840F00100086003E00A68520852006F
:103750000A601B481B4D016841F0030101602020F5
:10376000226891698847286821688A6B9047012000
:103770002860296801E0FFF79DFFBDE8314000F0B7
:1037800083B910B5104CFFF78BFF2060FFF7BEF830
:10379000606010BD10B50C4C6068FFF7BBF8206886
:1037A000BDE81040FFF780BFBC130100F0F6000039
:1037B000E0090020B8010010004003408C210840BF
:1037C000242208402C200940FC1C00201628A8BFF9
:1037D000203870472DE9F84F80469948DFF8649209
:1037E0000168994E8A0705D50820B0719748C9F835
:1037F0000000C6E0964801680A68904700900027DC
:103800009448046825176D1CA00209D40098C0F1E3
:103810003E00C0100828C8BF08208542B8BF054632
:103820008D480168C1F30460FFF7D0FF82468B48E2
:103830000168C1F30440FFF7C9FF5544152D024646
:10384000C8BF152504DC6FF009008542B8BF0546E6
:1038500005F01F00824940F4F8500880814908684B
:10386000009910F0030F18BF0127400748BF47F029
:1038700002075FEA080096F9070018BF47F004073F
:10388000091A042902DCB1798F4260D0009B0F3BFA
:103890004FF0000CE04607F0010007F00401DFF8EC
:1038A000C8E127D403EB03134FEA2328B8F1070F2D
:1038B00088BF4FF00708C446BCF1070F0EF1040A99
:1038C00028BF4FF0060C5AF82CB05EF82CA0ABEBDA
:1038D0000A0A0AF0FF0C19B1E346CAF3072CDC44CC
:1038E0005FEA877B03D5E346CAF3074CDC4408B1A3
:1038F0000CEB1A6C5EF828E00EF0FF0A11B1CEF363
:1039000007218A44B90744BFCEF307418A4408B16E
:103910000AEB1E6A551BA3EB082303FB0CF3803351
:10392000002DD8BF0125342004F0FF0445430AEBE5
:1039300013216C43B4FBF1F04FF6FF71884288BF4E
:103940000846B080B771009800F30700F07147484F
:103950000168B088316000211F2804D21F20B08088
:1039600004E04008491CB0F5007FFAD20F38000986
:1039700041EAC0013E480143C9F800100020C9F8DF
:103980000400BDE8F18F38B505463A480468A4B292
:103990003CB32F4801680A6890472B4991F90720EA
:1039A000904205DA6FF07F029042B8BF1046C871AE
:1039B000A542888834BF651B0125854210D32B4A58
:1039C00013680A689A1A921C1F2A88BF1F222D1A90
:1039D0005208D5402D18B5F5803F28BF4FF6FF752A
:1039E0008D8031BD24480068002800D1704730B573
:1039F00022498A6802F04063B3F1406F1FD0104B38
:103A00001C68A5071BD44C68A50718D41C68096856
:103A1000C1F303511C31090114F0050F04D0884291
:103A20000DD224F0050409E0814208D2100158BFEC
:103A300044F00104500158BF44F004041C6030BD40
:103A40000000094030100940141E0020FDFDA400B4
:103A5000EC010010B43F0050B81200503C1100506F
:103A60006E620840242208409C1300500820094040
:103A700000E7A4803410094028500940AC3F0050B2
:103A8000EFF3108072B67047EFF3108062B67047A4
:103A90000138FDD17047704710B50C18FFF7F0FFE3
:103AA000411E8941C90FDFF8642410680028FCD04A
:103AB00024680120106009B1FFF7E6FF204610BD21
:103AC00038B5DFF84C5428780024002802BFDFF80E
:103AD0004414487D00281FD0FEF79BFEA9780029DA
:103AE00006BF0122AA700124FEF7ACFEA4B9022091
:103AF000FFF7C6F80E20FFF7D8F8DFF81C140868A7
:103B000008B1012032BDDFF814044022C260026017
:103B10000120C86100216970002032BD2DE9FC41FF
:103B2000DFF8F81300200860DFF8F41301F1D8047F
:103B3000A07A002843D00128DFF8E853DFF8E82313
:103B400031D1DFF8E81316684BF2F52046430868D8
:103B5000360AC0F3814001280BD1A86C0168884760
:103B600000F041FA00F05AFA3509C010454306EB5F
:103B7000E536607B10B10021617306E0DFF8B00329
:103B8000006820F07F4036187608DFF8A803DFF8D9
:103B9000842306600121360C46608160507D002838
:103BA00049D005210AE002280AD11568284600F00C
:103BB00012F9A5F2FF55032D3DD3082121733CE0F6
:103BC00003283AD1106801F1B806A0F5C060316849
:103BD000F061002948BF4942002848BF4042814265
:103BE000A8BF002026DA7068D34F80B20090082367
:103BF000D5F800C0DCF804804FF47F42302138460D
:103C0000C047B06880B200901223D5F800C0DCF83D
:103C100004804FF4F80204213846C047B06980B2EE
:103C200000900A232D686E684FF4406220213846C8
:103C3000B047012020700B202073BDE8F34100BF86
:103C40002DE9F843DFF8D882BC4EDFF8EC92BC4C8B
:103C5000BC4FB24808F1E105E9784A1E0B2A00F290
:103C60008D80DFE802F0063041596E41596E4159AE
:103C7000757B31680A68202090470F20E06041F68C
:103C80001D512161022000900723D6F804C0DCF802
:103C900004404FF4C07200214846A0477668484669
:103CA000D6F80C9007234FF4C0720021C8470120BA
:103CB00038600221E97008F17800BDE8F243FEF7B0
:103CC0001CBEBDE8F1830121E161287800281DBFF9
:103CD0000021396103200620E870002103202060C4
:103CE000796078688107E6D4E878032806D1022154
:103CF000009100F044F8C847042009E0002000903B
:103D000000F03DF8C847E87806280CBF07200A20D5
:103D1000E87001207860CEE7042903D12021A16159
:103D2000012105E001220A29A2610CBF0321022121
:103D30006970082200212160C260026001202060B9
:103D4000BFE705290CBF06200920E8700020E1E745
:103D50000020386078600C22EA70ACE70021016036
:103D600001206D4A10600E20FEF73BFF0220FEF797
:103D700022FF01200021E870A970A2E7FEE7484673
:103D80007668D6F804900523602200217047000071
:103D900063496C4891F8E420921E0A2A1AD8DFE899
:103DA00002F0060A0E190A0E190A0E19120001680D
:103DB0008A07FCD544E741688A07FCD4FAE74168E2
:103DC0008A07FCD5F6E701688A07FCD441688A07B0
:103DD000FCD4EFE7FEE7F8B50446574D30212846FE
:103DE000FFF75AFE4E4F07F1B806C0F30720706088
:103DF00004212846FFF750FEC0F38440B060202124
:103E00002846FFF749FEC0F38120B4F5C064B061D5
:103E1000346003D1002087F8D800F1BD316997F8EC
:103E2000D80028B97068B269B168F0607261F46155
:103E3000F06900284CBF6FF00102022200EB400045
:103E40001018421000EB927001EBA0017268F26052
:103E5000002914DC7069032807D10120153188423C
:103E6000A8BF0121002272611EE001200B318842AF
:103E7000A8BF0121521E48BF0022F26007E01E29A0
:103E800012DD706928B915391E29C8BF1E2103200B
:103E900009E00B391E29C8BF1E21521C3F2AC8BF8A
:103EA0003F22F260002070611E4CF068316180B2E8
:103EB000009008232768D7F804C04FF47F423021D0
:103EC0002846E0470120009011232768D7F804C056
:103ED0004FF4003204212846E047306980B2009058
:103EE00012232768D7F804C04FF4F80204212846AB
:103EF000E047706980B200902846246865680A230C
:103F00004FF440622021A847F1BD000000800C4022
:103F1000C10A0020F0F6000004800C402C500C4038
:103F2000E0090020A401001008400C40B43F0050FC
:103F3000102009403C600C4000A00C40A001001083
:103F400000400C4034600C403748006800F0D6B8A0
:103F500010B5374C626D53680121032098472068E3
:103F6000C16A88473349886010BD70B5304C616DB7
:103F70000A680120904701281BD0A5692B48EE68EC
:103F8000002301223421B047A0B1FFF7DDFF2068F4
:103F9000C16A8847274B9A6827491C68D860A4EBF8
:103FA0009404801A4843000C1860A04238BF204691
:103FB0001860012070BD38B51D4C626D536800213A
:103FC00003209847616D0A680120904708B1FFF708
:103FD000BBFF2068174DC16A88476860206E016882
:103FE0008847286131BD10B501461448144B02685A
:103FF0001B68100400161B394843C01000EB224018
:10400000120601FB01F412161B06624361431B16E4
:1040100000EBA220594300EBA14010BD00FB00F1D2
:10402000C0EBA15000B270478000001000A00C400F
:104030008C010010001E002040420F009013005021
:10404000A41000504018491C1CBFB1F1010100F838
:10405000012DF9D170470040DFF800F079BB011065
:1040600000E006E0EFF31180202181F31188704712
:10407000000080F311887047FFF7EEBFF2E7F8E722
:10408000F0E7F6E70D49C20744BF01230B60820742
:1040900044BF4FF480730B60400744BF4FF480323D
:1040A0000A60704710B5064AC30748BF116084070D
:1040B00048BF5160400748BF916010BD04200940CF
:1040C00018200940DFF800F0E1BE011070B5FFF7DD
:1040D000C7FF094E0446B0680021FFF7F3FF05460D
:1040E0007069B169451BA94238BF00252046FFF71A
:1040F000B8FF284670BD00BF7801002070B50446A7
:10410000FFF7BEFC451EAD41ED0F064E306800289E
:10411000FCD0A047012131601DB1BDE87040FFF720
:10412000B3BC70BD00800C40DFF800F021C001106E
:10413000DFF800F0F99B0110DFF800F055A4011042
:10414000DFF800F019AE01102DE9FC4DDFF8305A10
:104150000F469046002440F2013B6B782979EA78BB
:1041600095F800A0B0EB0B0640F67B4C32D0761EE3
:1041700037D0761E3CD0B61E41D0761E00F07B8034
:10418000761E00F07E80761E00F08E80761E00F097
:10419000A280761E00F0A780761E00F0AC80761E0E
:1041A00000F0B280761E00F0B780F61E00F0BC80F2
:1041B000761E00F0C180761E00F0C680761E00F0EC
:1041C000CB80761E00F0D080761F00F0D880B61E1F
:1041D0002BD0EEE0102F0CD11022414605F1A400A7
:1041E0008FE0102F05D11022414605F1B40088E080
:1041F000042F40F0DC80D8F80000E862E8E0012FEE
:104200006AD1012935D098F80000E87032B1002851
:10421000F4D1022B18D0052BF0D115E00028EDD0F9
:10422000012B22D0042B1ED11FE0012F54D1012AD3
:104230001FD098F80000287171B100280BD1032B12
:104240001CBF072B052B06D100F0C1FA0246DFF890
:10425000341900F03BFCBBE00028FCD0012B1CBF54
:10426000042B062B01D0052B02D1012000F082FC8B
:10427000AEE01224ACE0022F2ED1B8F80000A883E3
:10428000A6E0202F34DA05F1CC041F21204600F0EF
:104290009BFC00F0A4F86F7100F099FA6979009125
:1042A00002460194012311E0202F21DA05F1EC04EC
:1042B0001F21204600F088FC00F091F8AF7100F05B
:1042C00086FAA9790091024601940023DFF8B81814
:1042D00000F0CBF979E0012F69D198F800000428AB
:1042E00065DCE87174E0012F61D198F800000428C2
:1042F0005DDA28726CE0062F59D10622414605F599
:104300008670FFF7B5F863E0012F50D198F80000F0
:1043100007284CDC68725BE0012F48D198F8000058
:10432000042844DAA87253E0012F40D198F8000025
:1043300006283CDA28744BE000F04DF837D1811F95
:10434000614534D2688243E000F045F82FD1811FE7
:1043500061452CD2A8823BE000F03DF827D1B0F5B2
:10436000FA7F24DAE88233E000F035F81FD1A0F1BB
:104370000A0140F67742914219D2288328E0012FA2
:1043800004BF98F80000012811D105F1800000F069
:1043900062FC50B905F1100100F09BFB040017D13D
:1043A00005F15C0000F05EFC12E0162410E0182419
:1043B0000EE02C280BDC022F09D1B8F80030DFF812
:1043C000CC170246102001F058F9044600E0022400
:1043D000E0B2BDE8F68DB8F80000022F70473A460B
:1043E00041462046FFF744B870B50D4600244FF40F
:1043F00040730246D11ADFF8880736D0491E37D0FD
:10440000491E39D0491E3BD0491E3CD0491E3ED0E2
:10441000491E40D0491E40D0491E42D0491E44D0BA
:10442000491E44D0491E44D0491E46D0491E46D09C
:10443000491E46D0891E46D0491E46D0491E46D048
:10444000491E46D0491E46D0491E46D0491E4BD073
:10445000491E4BD0491E4CD0891E4ED0491E18D043
:10446000491E48D0491E4BD04DE086782E7051E051
:10447000102200F1A40133E0102200F1B4012FE07A
:10448000C06A286046E0062200F1C40128E0C07836
:1044900034E0017935E0808B39E0427900F1CC01DC
:1044A0001EE0827900F1EC011AE0C07926E0017A81
:1044B00027E0062200F5867112E0407A1EE0817A3C
:1044C0001FE0C08B23E0017C11E0408A1FE0818A5D
:1044D0000DE0C08A1BE0018B09E0062200F58A711D
:1044E0002846FEF7C5FF15E0008C10E0418C2980BE
:1044F00010E0808C0BE0C17A03E04078287009E07E
:10450000017B297006E02C2A03DC00F0DEFA28800B
:1045100000E00224204670BD38B5DFF864466178BB
:1045200084B0B9B900B12063217800F051F9024696
:1045300004F1A40304F12C0104F1B40001930391EC
:1045400002900025A378DFF84816009500F08DF85A
:10455000002000E0112005B030BD1CB5DFF820467A
:104560006078062818BF07280CD1217800F030F9B0
:10457000132100910246E38BDFF8181600F075F85E
:10458000C0B216BD122016BD00B58FB008233C2264
:1045900000216846FFF7C8FDDFF8FC0500F1500177
:1045A0004FF4DC7203230791089206936A460023B6
:1045B0000FF2C101FFF7C4FD0FB000BD7CB5DFF8FD
:1045C000C04504F12801204600F0F5FD4FF6FF70CC
:1045D00001210022E08301916270009200230FF21A
:1045E000E555294604F1380000F0FEFA022000F0FB
:1045F00034F804F15C0000F0F7FA042000F02DF824
:1046000004F1800000F0F0FA0420A070002104F111
:10461000A40000220023002580E82E0004F1B40548
:10462000002685E84E00E271E16207222172627283
:10463000A17200901023DFF86465022200F014F8E4
:1046400000951023032200F00FF804F12C000090D5
:104650000423042200F008F873BD002101900091AA
:1046600000230022294670473146102001F005B88A
:10467000000000002DE9F84386B0FFF79FFFDFF848
:104680000055DFF81C75DFF81C85DFF81C9505F177
:104690008006A86ADFF814254FF0FF330021FFF7EA
:1046A00047FD0400F5D00020029002AA01A90DF1F7
:1046B000060000F0BBFD00283DD1BDF80600102823
:1046C00002BF9DF804002978884230D10298018801
:1046D0004FF6FF7291420BD14088410427D505F176
:1046E0002C000090042304224946FFF7BEFF1EE081
:1046F0000178A22904D0D02908BF00F06CF816E098
:104700004279132A13D10089012804BF687B02284B
:1047100005D1304600F0A6FAFFF71FFF07E005229B
:10472000414600F0D3F981B2304600F084FA029895
:1047300008B100F066FDE0072FD52879E97801433C
:104740002BD018B103208DF80C000CE0E879297A01
:104750008DF80C008DF80D10062205F586710DF10F
:104760000E00FEF785FE687A29788DF81400A87A85
:104770008DF8150000F02CF8024603AB39461020E6
:1047800000F07BFF00281FBF08206870286B0028FE
:1047900003D0016809B108208847A00704D505F1B6
:1047A0001001002000F095F9600706D5697B01290A
:1047B00004D0022908BFFFF7D0FE6AE7012000906D
:1047C0002B8BEA8AA98A688A00F0BBF961E7514617
:1047D000502000F039BF2DE9FF410546DFF8A04326
:1047E000AB7822796178DFF8A063180004F58A7746
:1047F00004F1800815D0022B4AD0032B18BF042BDC
:1048000071D0052B00F09280062B00F0C480072B9E
:1048100000F0E7800F2B00F0FF80112B00F00381E8
:1048200034E06878010026D104F1A4000090102340
:10483000DFF8747302223946FFF717FF04F1B40161
:104840000091102303223946FFF70FFF0622E91CCF
:1048500004F1C400FEF70CFE0120607050202178A6
:1048600000F0F2FE02466179009104F1CC00019063
:104870000123FFF7F9FEC0B208B108206070206B79
:1048800000281FBF0168002960788847BDE8FF81C4
:10489000687810BBE87868B12178FFF799FFA279B2
:1048A000009204F1EC01019102460023FFF7DCFEC7
:1048B000687012E0022918BF07290ED0062902D11C
:1048C000012A0AD101E0032907D004F1380000F0E1
:1048D000C2F910B9012000F04DF968780028D5D050
:1048E00008216170CBE768780028C6D1E078032BF7
:1048F00008D1062908BF0720C0D000280CBF03201C
:104900000220BBE7A18B31B1024309D004F138008A
:1049100000F091F904E0012806BF0020E070217149
:104920006078072814BF04200620A7E7687858BBE2
:104930000622291D3846FEF79BFD6889E083062183
:104940006170E8892084298A6184688AA084207C37
:10495000E978E172012818BF02280AD11F2200F06D
:10496000B4F880B24FF47A71414304F15C0000F076
:1049700062F9042001902B1D698900911020EA78CA
:104980008B4900F07AFE7AE731287FF476AF002079
:10499000E0700421A5E7AA88864900F097F806216F
:1049A000384600F011F9002020846084A08404F1CE
:1049B0005C00A979217300F055F9404600F052F9E6
:1049C0004FF6FF712079E18308B1032189E7A879C7
:1049D00008280CBF052004206070012000F0CAF8F0
:1049E0004DE7404600F03EF96878002813D1E8888A
:1049F0002084298961846889A08404F15C0000F026
:104A00002AF9002807D1636B002B04D0A28C618C9B
:104A1000208C1B68984739E7AA886749052310202E
:104A200000F02BFE32E7217CA888ADF800000529B4
:104A300003D100208DF80A0041E001208DF80A0022
:104A400004F15C0000F00EF9207C012818BF042856
:104A50001AD1608AE988814228BF0846ADF8020071
:104A6000A18A2889884238BF0846ADF80400E18A47
:104A70006889884238BF0846ADF80600218BA889AE
:104A800088421AD2084618E0032818BF02280AD123
:104A9000608AADF80200A08AADF80400E08AADF8A3
:104AA0000600208B09E0E888ADF802002889ADF8FF
:104AB00004006889ADF80600A889ADF808003F49F0
:104AC0006A46102000F0D9FDE0E63649102000F0DB
:104AD000D4BDFEB50F462A4D79880446288C8842FD
:104AE00024BFBA88824207D3688CF988884202BF03
:104AF000A88C3B89984221D00522FFF7E6FF0646A5
:104B0000E88BADF800006A467988ADF80210B888E5
:104B10002B49ADF80400F888ADF806003889ADF8E7
:104B20000800102000F0A9FD0746C0B238B96C7328
:104B3000B1B205F1800000F07EF800E01827F8B26D
:104B4000FEBD3EB50E4D6C78062C01D014203EBD46
:104B5000ADF80200ADF80410ADF80620ADF808304D
:104B600005F15C00069C00F07DF869462046FFF7E1
:104B7000B0FF3EBD01460248806AFFF7DDBA000083
:104B8000C4040020994501100945011055D50000C5
:104B90005D060100E5140110500D0020158F000086
:104BA00059440110FDF30000538F000007000080FE
:104BB00025E8000029DD0000C117011005160110CD
:104BC0007D150110D6E70A05002200F0E3BD0000C4
:104BD000DFF800F0A1B60110DFF800F035BD0110DC
:104BE000DFF800F019BD01102DE9F04389B08046CF
:104BF000894617461D46109C119E08232422002139
:104C00006846FDF721FE464906964FF47A700A6819
:104C1000B0FBF2F14D4305954F43ADF810406B46A4
:104C20003A4649464046FDF71FFE404609B0BDE8FA
:104C3000F083FDF715BE38B504460D46FEF7E7FCD8
:104C400010B12046FDF704FE00F00EF82046BDE846
:104C50003240FDF705BE80B5FEF7D9FC00B101205A
:104C6000C0B202BDFDF7F4BD2D4A10684FF47A7151
:104C7000B1FBF0F0454329462046FDF7EDBD10B5E8
:104C800004460021FFF7A4FF204610BD70B505467D
:104C90000C4616460C2000F046FB01000BD08E603F
:104CA0002846FFF799FF24B14FF080412046FFF7D7
:104CB00043FA012070BD304600F036FB002070BD85
:104CC00010B50446FFF78CFFA04204D0846800F0C2
:104CD0002BFB204610BD002010BD0000F0B585B0B4
:104CE0000446684610A11422FEF7D2FB0D48302579
:104CF000782605704670831CA21D062112F8015DFE
:104D00002D09491E1DF8056003F8016B177807F09F
:104D10000F071DF8075003F8015BEFD105B0F0BD98
:104D2000BC130100BC190020303132333435363722
:104D3000383941424344454600000000DFF800F0A6
:104D40002DB40110DFF800F0CDAC0110DFF800F059
:104D50002DC00110DFF800F0FDB1011020B10823D3
:104D60003C220021FFF7E0B9704780B5FDF7CEFD8A
:104D7000ADF80000FDF70CFDADF80200009802BD93
:104D800001B5BDF80200FDF707FDBDF80000BDE864
:104D90000240FDF7BFBD38B5DFF8B84920780128DB
:104DA0002CD001212170DFF8B029DFF8B019890873
:104DB0008900521AA26161610A4602E0002342F8AA
:104DC000043BA3695D18AA42F8D39B0801EB830258
:104DD000002042F8040CE8230B60A06980088000E2
:104DE000EC38C1F8E800E831A160002000F007F8D5
:104DF000E060A1696069A060091F216131BDF8B55B
:104E000000240026051D15F003001CBF291D0D1AE6
:104E1000FFF7ABFFDFF83C2901465160112D34BF8D
:104E20009368D3681868002803D580F000400026F6
:104E300019E0370013D02768D3F800C06744AF42A9
:104E4000276010D33846ECB1401B042811D36051C1
:104E500045F00040206013695D1B156111E0A84218
:104E600014D201261C46034418680028DBD1002414
:104E700008E0136920681B1A1361226842F000429F
:104E80002260241D00F04DFA2046F2BD1C46DAE7F0
:104E900010B50446FFF769FFDFF8B818486054F80A
:104EA000042C22F0004244F8042C0B69D2180A6149
:104EB000221F8B689A4238BF8A60BDE810405FE7C6
:104EC0002DE9F041FFF751FFDFF88818CA68486004
:104ED00000240025002600270AE00E46012514467E
:104EE00005E02B00F9D02368CB1823608E190A4403
:104EF0001168B046BE4238BFB846002905D0F0D58B
:104F000081F0004100254746F1E7FFF739FF4046B1
:104F1000BDE8F08110B50446DFF8380881692160EA
:104F200000696060FFF7CCFF09282CBF083800201B
:104F3000A06010BDDFF81C180A69121A332A28BFB6
:104F4000FFF75DBF0020704780B5FFF724FF4BF6E9
:104F5000BE2002BD084652E7084699E702B56846FA
:104F6000FFF7D8FF01BD0120704738B50446FFF7B1
:104F7000FCFE00220C23DFF8E8175343CD18A96C80
:104F800021B18C4206D0521C032AF3D3FFF7F8FE5E
:104F9000002032BDFFF7F4FE05F1480032BD70B5C8
:104FA0000546FFF7E2FE044600210C22DFF8B007B9
:104FB0004A438618B06C48B1854210D0491C032979
:104FC000F3D32046FFF7DCFE002070BD3065B564EA
:104FD0000021FFF7B3FEF06408B900F0F9FB2046AA
:104FE000FFF7CEFE06F1480070BD38B50446FFF766
:104FF000BCFE0025DFF868270C216943515A21B116
:105000008C4206D06D1C062DF6D3FFF7B9FEFF20AB
:1050100032BD15E310B504462088FFF7E6FFFF28F0
:1050200002D14FF0FF3010BD0C21DFF83427484388
:105030001044816811B96FF0010010BD2046BDE831
:105040001040084702460FF24070104738B5002064
:105050000C21DFF80C270024002501FB00F313448A
:10506000401C03289C641D65F7D30020002301FB2E
:1050700000F4401C13530628F9D3BDE831408AE6FA
:105080002DE9F8478FB081468846FEF709FB0546B3
:105090000027DFF8D06647451FD26846FFF75EFE5F
:1050A00009EB07114A6806928A68089200220B6889
:1050B0000493C868059069463046FFF743FE040034
:1050C00011D0FFF752FE82462046FFF768FF50B12D
:1050D0005046FFF755FE7F1CDDE72846FEF7E4FA51
:1050E00010B0BDE8F08700F073FB00BFF8B568466C
:1050F000052141604FF47A728260DFF86C16DFF8A8
:105100006C260091C2600121FFF7BAFF05B000BD17
:1051100038B504460D46FFF728FE002145F80C1C63
:10512000226812B9256006E00A4652F80C1C0029D4
:10513000FAD142F80C5CBDE8324021E680B5FFF7B9
:1051400005FEFFF712FF10B96FF0040002BD816881
:1051500009B9022002BD4068AFE006280ADA0C2235
:10516000DFF8FC355043185A00281CBF4FF6F87280
:10517000904202D14FF0FF30704708800020704706
:1051800030B5DFF8EC552A680C464FF47A71A1FB74
:105190000001002300F020FB002902D8B0F1004FED
:1051A00002D36FF0020030BD2060002030BD014608
:1051B000886849680847F8B505460E46FFF7C6FDFA
:1051C000FFF7EDFE04000DD0FFF7CFFD01460022F2
:1051D0000C27DFF88C3557433B44188820B1521C0C
:1051E000062AF5D300F0F4FA4FF6F870002718807D
:1051F0005C609F602A706068306000F092F8002068
:10520000F2BD0C3844E670B5044615461E46084605
:10521000FFF7EBFE0146FF2902D14FF0FF3070BDD2
:1052200033462A462046BDE8704080E07CB50546FE
:10523000164600F09EF8040010D128886946C0B2D6
:10524000FFF78BFF28B13068FFF7DBFF6FF0050039
:1052500076BDBDF800002880FFF770FF204676BDC0
:1052600038B50546FFF772FDFFF77FFE0446FEF7EF
:105270009FF9002818BF012800D014B96FF004006E
:1052800032BD65B900200090009B60684FF000427D
:105290000021FEF74DFF401E8041C00F32BD15F1C9
:1052A000010F08BF4FF0FF30EDD069462846FFF7E9
:1052B00067FF0028E8D032BD80B54FF00041FEF70F
:1052C0003BFF002002BD2DE9F843054600F095F9AB
:1052D000FFF765FE04006FF0020920D0FFF745FDDF
:1052E000014600220C23DFF8780453430344188856
:1052F00040B1854211D0521C062AF3D300F068FA5F
:10530000BDE8F2831D805C609E603A706068C8F8FA
:10531000000000F006F80020F2E700F002F848462E
:10532000EEE708462CE56AE5B2E503E6F2E52DE98D
:10533000F8430D46062DBCBF04460628164699467E
:105340006FF0020806DAFFF710FD00F0FBF919B95B
:10535000FFF716FD40460AE0FFF712FD00F0E8F9FE
:10536000786840684FF00041FEF7E6FE0020BDE897
:10537000F2832DE9F04106460F469046FFF7E6FC22
:10538000FFF7F3FD050008BF6FF004001BD0FFF727
:10539000ECFCA968002441B10C46A4F10C010023E7
:1053A0000A68AA60FF250B608D72FFF7E9FC0CB953
:1053B000022008E0A4F10C000179317040793870C6
:1053C000C8F800400020BDE8F081DFF8A813087895
:1053D00000B1FEE77047FEF7FFB850B5DFF8906305
:1053E00032686FF00044A4FB020100234FF47A728C
:1053F00000F0F2F9002902D8B0F1004F00D32046A6
:1054000050BD7CB50C4615461E466946FFF7B8FEF2
:1054100030B9009833462A46214600F002F80020B1
:1054200076BD2DE9F0431D4689B02C6880460E46B6
:1054300017462CBB0C20FFF7E2FC04006FF00309B9
:1054400018D00823242200216846FDF7FDF900202A
:10545000ADF810000590069400236A464146DFF837
:105460001803FFF777FC206030B9FFF7AEFF204646
:10547000FFF70EFD484617E06660A7602C600BE062
:10548000DFF8F8623068804705462068FDF7E0F9EC
:10549000A76028467168884720684146FDF7DCF917
:1054A0002068FDF7DDF9002009B0BDE8F083002891
:1054B0001CBF0068FDF7CCB97047E0B58DF804005B
:1054C000684600F039FA9DF805000EBDE0B5019080
:1054D000684600F067FA0EBDE0B50190684600F03E
:1054E0006BFA0EBD2DE9F84384B0044600F085F850
:1054F000FFF73BFD054600200290FEF759F8002813
:1055000018BF012800D015B96FF0040072E044B94B
:1055100000200190FEF760F8814601980124814443
:1055200025E014F1010F08BF4FF0FF30F1D001A9C1
:105530002046FFF725FE0028ECD05BE0039902A887
:10554000FFF7E6FD68684FF00051FEF7F5FD0198A2
:10555000012410F1010F18BF002808D0FEF73CF815
:10556000B9EB000031D0019981422ED30190019B0B
:1055700068684FF000520021FEF7DAFD28B303AA55
:1055800069460DF10100FFF7F4FE0400DFD19DF83C
:1055900001000DF10201FFF7E0FD0028CED1039AD2
:1055A0009DF80010BDF80200B0470028C6D017B122
:1055B000BDF802003880B8F1000F1CBF9DF8001044
:1055C00088F800100C9803990160FFF7B7FD029E60
:1055D000FFF7CBFB014656B1324600E0024652F8D7
:1055E0000C0C0028FAD1A86842F80C0CAE60FFF74A
:1055F00098FE204605B0BDE8F0830E461746984653
:10560000FFF7A4BB38B5FFF7A1FB0446FDF7D0FFB9
:10561000002818BF012811D0FFF7A7FB0025504A2A
:105620000C236B43D15A39B1D11849680B68A34296
:1056300006D06D1C062DF3D3FFF7A2FBFF2032BD71
:10564000FFF79EFBE8B232BDE0B5ADF800008DF883
:10565000061000204A490A68ADF8020068469047E3
:1056600010B99DF807000EBDFF200EBD107842282E
:1056700001D101207047002070470CB478B5044672
:105680000E4687B0FDF794FF0CAD002814BF01282B
:10569000FFF79BFE14200021FF22ADF810000291BD
:1056A0008DF8122006960595FFF7ACFF05AB032297
:1056B0002146FFF7A8FD002001A9019000910023D9
:1056C0000022304941F28830FFF70CFF012805D055
:1056D00020B9019820B1FFF794FD01E0FFF775FEB6
:1056E0000598006808B070BC5DF80CFB2DE9F84324
:1056F0000D46062DBCBF04460628164699466FF097
:10570000020806DAFFF731FB00F01CF819B9FFF7C1
:1057100037FB40460AE0FFF733FB00F009F87868F2
:1057200040684FF00051FEF707FD0020BDE8F2830E
:10573000A9F1080004704570867049467868083001
:10574000FFF7E6BC0C22064B02FB05F7DF19796870
:1057500070470000C4160020FF3F0020131F0020E8
:10576000581600204550000081070100B4040020B5
:10577000BC1301003F0D0020AF5100008C0400203D
:10578000940400206D560000155000006B4D000081
:10579000814D000000B500BF1300964694461039B5
:1057A00028BFA0E80C50FAD85FEA417C28BF0CC0A3
:1057B00048BF40F8042BC90728BF20F8022B48BF78
:1057C00000F8012B00BD0000DFF800F01D9A011069
:1057D0000120FFF7F9BF0000D3BBD9B1B2F5803F7C
:1057E0005BD2022A1ED98C46B1FBF2F102FB11C337
:1057F0001B0443EA1043B3FBF2FC02FB1C3380B2F0
:1058000040EA0343B3FBF2F002FB103240EA0C40E3
:1058100000237047022A05D98446B0FBF2F002FB50
:1058200010C270474AB105D100F0010249085FEA91
:105830003000704700220023704700F0CDB80B0005
:105840000200002100207047F7D300220023704798
:10585000904271EB030CF2D370B5B1FA81F4B3FA54
:1058600083F52C1BA340C4F1200532FA05F633431F
:10587000A2405FF00046E64002E05B085FEA3202C9
:10588000841A71EB030524BF204629467641F4D3E0
:1058900002000B003000002170BD70B5B1FA81F438
:1058A000B2FA82F5C4F120046419B4F12006DAD307
:1058B000B2405FF00044F440002502E052085FEA85
:1058C0003303C61A71EB020E24BF304671466441A1
:1058D0006D41F3D302000B002000290070BD0201CE
:1058E00010B5044601E0FDF7CBF9B4FA84F0C0B27C
:1058F000202806D000F018F8F5DB401FFDF7D5F999
:10590000F3E710BD10B5044601E0FDF754F9B4FA11
:1059100084F0C0B2202806D000F006F8F5DB401F66
:10592000FDF75FF9F3E710BDC0F11F00C0B2012120
:1059300081404C400528704738B50446012060710D
:10594000244D2079A8B1FFF710FA04462878FF28E3
:1059500005D12046FFF714FA6FF0060032BD401C57
:105960002870C0B2012804BF6868FFF7B9FF20465D
:1059700014E0FFF7FAF9297821B9FFF701FA6FF07F
:10598000070032BD491E2970C9B239B9FFF7F8F9CD
:105990006868FFF7B7FF0020607101E0FFF7F0F9DA
:1059A000002032BD80B5406810F07F4F00D00DE080
:1059B000FFF796FF002002BD80B5406810F07F4FD2
:1059C00000D003E0FFF79EFF002002BD6FF0020051
:1059D00002BD00009C0400207047000050F8382FE2
:1059E00011430160704750F8382F22EA010101602D
:1059F0007047817DFF291CBFC07DFF2801D0012099
:105A000070470020704738B50446FCF702FF054692
:105A1000207820B90220FDF733F9012020700BE037
:105A200038B50446FCF7F5FE0546207820B1022083
:105A3000FDF7C1F8002020702846BDE83240FCF791
:105A400001BF4068CC30FDF7F4BC4068E830FDF79A
:105A5000F0BC70B5456886680C466CB12A6A30683F
:105A6000117800F010FD38B1286A411C686A29627B
:105A7000401C641E6862F0E7204670BD70B5456842
:105A800086680C467CB1306800F0F3FC10F1010F21
:105A900009D0296B0870641E286B421C686B2A634E
:105AA000401C6863EEE7204670BD70B545688668A7
:105AB0000C4664B1306800F0DCFC10F1010F06D038
:105AC000C1B205F13C0000F011FD641EF1E7204673
:105AD00070BD70B5466806F582750C462846FCF721
:105AE0000EFFDFF8B0180A68307F717F0818C01DFC
:105AF0004443DFF8A408B1694443B4FBF1F1511801
:105B00006331B1FBF2F1491C2846FCF7F4FE28464C
:105B1000BDE87040FCF7F1BE10B5426880680168CE
:105B200051F8180F000713D5DFF8683818684FF4DC
:105B3000FA71B1FBF0F1012902F5827498BF0121DD
:105B40002046FCF7D8FE2046BDE81040FCF7D5BE45
:105B5000BDE81040022102F19800FCF722BF70B5A9
:105B600004460D46FCF755FE0646286800F007F986
:105B70003046FCF767FE297D206E012200F0C3FE4F
:105B8000297D206E012200F0D8FE297D206E0022A2
:105B900000F000FFA97D206E002200F0FBFEA0783F
:105BA000012805D1296851F8180F0007FAD405E03B
:105BB0004FF0FF3104F1CC00FDF732FC00F0FCFBAC
:105BC0002846FFF716FF30B1A97D206EBDE8704072
:105BD000112200F0DFBE70BD2DE9F84F8246002093
:105BE000DAF808B0DBF80020DAF8045002F14001DE
:105BF00002F144030E681E6005F130073B697C69C1
:105C0000B96816F4F06FA3EB040805F1980941D0C8
:105C1000730514D52029CCBF20270F463946C7F17C
:105C2000200752F8044F106004F00F0400F078F8D9
:105C30004745C8BF474639461DE0491EB960B968A7
:105C400000296BD0012100F06BF8DBF8001051F84F
:105C5000040F002200F00F000A600028B968ECD0A1
:105C6000044638687B68421E5B1E3A607B6029B937
:105C700000F058F841465046FFF717FFEC775046C2
:105C800000F0DAFADBF82420002A31D02146504611
:105C900090472DE070060FD5002925D000F040F880
:105CA000B86095F82D0010B10021B96001E0B86826
:105CB000F0B900F037F81BE0F00619D5A1B19BF858
:105CC00021100FF25470445C05F13000641E8168AD
:105CD0008C4288BF0C46214600F022F8B868041BAD
:105CE000BC6005D100F01EF841465046FFF7DDFECE
:105CF000B00611D5AE6A7EB131465046FFF7A9FE17
:105D0000A86248B99BF820200FF20471885C8119C1
:105D10005046BDE8F44FDCE6BDE8F18F0446A7E746
:105D20005046ABE601214846FCF73BBEF8B50546B8
:105D3000FCF72EFE07466C68AE68F8070BD504F535
:105D40009470FFF76DFE626B206BE3685142014473
:105D5000216328469847B8070FD504F22910FFF7AA
:105D60005FFE00F00BF800F0C0F9626A206A236958
:105D7000514201442162284680E2F1BD3068202171
:105D800031E64068002101707047F8B5064684B0DE
:105D90007468B5680F46FCF73CFD2178012940D0B6
:105DA00001212170FCF74EFD387860707978A17080
:105DB00078686060B968A160F868E060396921615D
:105DC000387D2075797D6175B87DA075B969A1614F
:105DD000387F2077797F61770021B87FA0772162B3
:105DE00004F12C00416061628160A162C1600170B8
:105DF000417004F59470017041706868FCF755FFBC
:105E0000304600F043FA304600F08AFA68B9286854
:105E100000F01EFB6868FCF7E4FEFCF7FAFC0021CA
:105E20002170FCF70FFD00204DE06846FCF702FDF5
:105E300000966B46287BDFF86425019004F17C0016
:105E4000A968FCF7C4FC6846FCF777FD00966A4633
:105E50002869DFF84C15029004F19800FCF775FDF5
:105E6000A07838B9002104F1CC00FDF7ACFADFF8D6
:105E700034052061607838B9002104F1E800FDF7AD
:105E8000A2FADFF82405E0606846FCF72FFD002049
:105E900001908DF8000002966B460A22DFF80C157F
:105EA00004F58270FCF7F3FCEA69A96904F13C008F
:105EB00000F0F6FA33460FF20D52042104F16800A7
:105EC000FCF767FE304605B0F0BD70B50646746855
:105ED000B568206E00F00AFD286840F2F271FFF705
:105EE00082FD00202070304600F0C4F8304600F0FB
:105EF000A3F9296801F12C00026822F01002026067
:105F000051F8303FDFF8A80403400B606868FCF7E5
:105F100068FE04F17C00FCF77AFC04F19800FCF7C1
:105F200033FDA07818B904F1CC00FDF777FA60785A
:105F300018B904F1E800FDF771FA04F58270FCF776
:105F4000C8FC04F16800BDE87040FCF7F1BF70B513
:105F5000446820296FF0010208D022D3222909D0F9
:105F60003EBF002084F82D0000221AE0012084F8B2
:105F70002D0015E08568FCF74CFC0646286800F00B
:105F800078FA10F1010FF9D104F13800002182688C
:105F9000C160521E0261416101603046FCF752FC53
:105FA0000022104670BD2DE9F04706467468B568BA
:105FB0000F469146FCF72DFC296830318046096870
:105FC000207808B1C80502D500F02FF949E004F5A2
:105FD0008270FCF794FC0020E0776062276204F294
:105FE0002917286850F8301F41F48071016000F0D3
:105FF0001CF93846FFF707FD49463046FFF729FDF3
:10600000A06204F1CC0860B949463046FFF761FD53
:10601000A07800282AD1A1684046FDF701FA18B3FC
:1060200014E0FCF7F6FB824628682021FFF7D6FC37
:106030005046FCF707FCA078C0B9A1684046FDF7C0
:10604000EFF988B149463046FFF743FD00201021A3
:10605000A062E17720462946FFF781FD3846FFF729
:10606000DFFC4FF0FF3002E0606A00E00020BDE896
:10607000F087DEE0F8B504466568A668FCF7C9FB62
:106080000746A86A58B9306800F1180109680A077C
:1060900005D430300068C10501D43846F2E005F57A
:1060A0008270FCF72CFC0020A8623846FCF7CAFB83
:1060B0003046FFF79EFC18B131462846FFF74FFDEA
:1060C000FCF7A7FB0746FFF759FE00F00EF838462D
:1060D000FCF7B8FB05F22910FFF7A2FC6A6A286AF0
:1060E0002B69514201442962C7E0306850F8301FE3
:1060F00021F48071016070472DE9F843054614468C
:106100006E68D5F80890307818B106F13007B86895
:1061100010B14FF0FF3086E0F077396000217960F0
:106120000CE000F082F839689DF800000870641EE9
:106130003A687868531C401C3B607860002C66D03D
:10614000FCF767FB8046694606F13C0000F0B1F9B8
:106150000028E6D5BC6006F59474D9F8000000F17B
:1061600030010A6842F400720A604FF4FA61FFF7E6
:1061700035FC00F05AF82046FFF745FC707868BB04
:10618000FCF747FB96F82D1000291CBF7968002901
:1061900009D0B96839B10022BA60FCF753FB204638
:1061A000FFF73EFC3EE0FCF74DFB06F1E8057168A9
:1061B0002846FDF735F9A8B30020B860002128462D
:1061C000FDF72EF970B32046FFF72AFC796838688E
:1061D0004942014439601022F27723E0FCF719FBB1
:1061E00096F82D1000291CBF796800290BD0B968DA
:1061F00049B10022BA60FCF725FB012106F19800A5
:10620000FCF7CFFB01E0FCF71DFB00200BE07A68F8
:1062100038685142014439607378012B02D1F36828
:10622000284698477868BDE8F2834046FCF70ABBE9
:1062300000BF4FF0FF307047F8B504466568A768A7
:10624000FCF7E7FA064638684FF4FA61FFF7CBFB34
:1062500005F59470FFF7E4FBA86B08B9304611E030
:106260000020A863686B296B4042084428633046CD
:10627000FCF7E8FA6A6B296BEB68204601B0BDE8D1
:10628000F0401847BDE8F240FCF7DCBA7CB5846802
:106290004568206800F0DCF840F2F276206831466C
:1062A000FFF7A1FB216800BF55A201F14400066081
:1062B00094F8203012F8036094F8213052A2D05C98
:1062C000064341F8346F6846FCF705FB41A0297F7F
:1062D00050F8213043A0697F50F8210043A2A97FE4
:1062E000034352F82100AA6901990343206800F092
:1062F00097F8206800F12C010A6842F010020A6049
:1063000050F8301F41F0010101602046FFF771FB9A
:1063100028B1206850F8301F41F44041016073BD3E
:10632000F0B585B085684468687D224E40F0004035
:1063300000902846297D314301910827FFF759FB3A
:1063400038B1A87D40F0004002901027E87D064358
:106350000396FE204DF80700694604F1540000F052
:1063600051FA2066A0B1697D0F2200F013FB00F006
:1063700023F82846FFF73DFB48B1A97D206E112286
:1063800000F008FBE97D206E122200F003FB0120E3
:1063900005B0F0BDFC1D002040420F00D95B00009D
:1063A0002D5D0000435A00004B5A0000195B0000AD
:1063B000FEFCFFFF0000C0A0297D206E102200F02F
:1063C000E9BA000080B5042804BF1046FFF75EFF5D
:1063D000002002BD0000000020000000400000007E
:1063E0006000000000000000080000000000000045
:1063F000060000000200000086000000820000008D
:106400000000010203040000100008101820000022
:1064100004040810181C000010040810181C0000C8
:10642000F8B504460D4616461F4600F011F8ED007B
:10643000B5FBF6F0401C400804F12402810911600C
:1064400000F03F0004F12801086044F82C7FF1BD02
:1064500000F118010A681307FCD400F12C010A6846
:1064600022F010020A6050F8303F0C490B400360E4
:10647000704700F118010A68D30601D4006870471C
:106480004FF0FF30704710B500F1180213689C06FA
:1064900002D40160012010BD002010BDFEFCFFFFF2
:1064A000016042600021521E8160C2600161416151
:1064B000704738B500F016F8A16801B92FE02168DF
:1064C00022698B5C2B7021696268491CB1FBF2F375
:1064D00002FB13112161A168491EA160FCF7B2F90A
:1064E000A06832BD04460D46FCF793B938B5FFF7F6
:1064F000F9FF6168A2688A4211D0E268521CB2FBBF
:10650000F1F301FB132122685554E160A16862692F
:10651000491CA160914238BF11466161DEE7FCF77A
:1065200091F94FF0FF3032BD90FAA0F0B0FA80F050
:10653000704770B5FCF72CFA05460026DFF8884452
:106540000EE025FA06F0C00709D5211DF2B251F878
:10655000220020B1026811001CBFF1B29047761CE6
:106560002068F1B28842ECD270BDDFF86004DFF839
:1065700060240168DFF85C041160FCF712BA2DE9B1
:10658000F84F5FEA01085FFA88FA44BF88F02041BB
:1065900081F4C048DFF8401401EB8A0104460A6820
:1065A000DFF8380404EA080688EA0203A24306403A
:1065B0002340324304F4E0201B0EB0F5E02F03F03B
:1065C000010302D1D00105D411E014F4E02F08BF7B
:1065D000002B0CD002F4E020B0F5A02F04D0B0F5D1
:1065E000C02F04D1052000E0062060F312420126EE
:1065F000DFF8DC93DFF8E85306FA0AF6C9F8006022
:106600000A600AF180402F6827FA0AF700F5083A75
:1066100017F001074FEA985000F0010B03D1600218
:1066200048BF8AF800B021020CD5FCF7F2F82968BF
:106630005FEA08224CBF32460022B1431143296071
:10664000FCF700F91FB1600248BF8AF800B0C9F832
:106650000060BDE8F18FDFF8802302EB80020029A3
:10666000106848BF0021800901F03F0141EA801114
:10667000116070472DE9F84787B08146FCF700FAB2
:10668000DFF86403DFF86463017800F0DDF90024CB
:1066900000281CBF01280C284FF0000A07D00D2845
:1066A0000DD00E2802BF052030621F240AE000F042
:1066B000AFF9022806D101203062012402E0032054
:1066C00030620724DFF82803C2680121C2F3815237
:1066D000012A04D10068000E01FA00F00443DFF83B
:1066E0000423DFF8E4721368326A03F07F039B1817
:1066F0005B1E3B600020FF253554401C8342FBD2CB
:10670000D44659F82C0000F0FF05FE2D3AD000F0D9
:10671000FF08B8F1FF0F0ED0AB4228BF95423FD320
:1067200024FA00F85FEAC8783AD401FA00F006F8D3
:1067300005C040EA0A0A0CF1010CE2E72AFA05F06A
:10674000C00759BF05F0FF0141F4C041715D59F820
:1067500021104046FFF713FF4FF0FF31E8B2FFF77B
:106760007AFF391D002041F825006D1C3868A842C9
:1067700018D324FA05F0C107E0D5391D042241F8E9
:106780002520F2E70920FCF790FAC7F88090012154
:1067900007F1B800FCF717FE0025DFF85882E5E79F
:1067A00002202CE06846FCF745F8DFF84C42DFF8A1
:1067B0004C22207801906B46102106F12400FCF752
:1067C00006F803A8FCF7B9F8616805910022069263
:1067D00007F1840003AADFF82812FCF7B6F8DFF807
:1067E0002402DFF82432016821F47C5141F4005185
:1067F00001600120DFF8141208601860002008B062
:10680000BDE8F0872DE9F04104000D4614BF002DCE
:10681000002034D0DFF8B06106F1B80800F039F894
:10682000002115F82100FE282BD0FF2808D032685F
:1068300082422CD31F282ADA321D52F8200030BBA6
:10684000491CEEE7FF2811D01F280FDA311D41F84F
:1068500020400121626801FA00F010436060204688
:1068600055F82720DFF88C1100F07DF87F1C15F813
:106870002700FE28E6D14046FCF7DBFD2046BDE8B8
:10688000F081002020606060A0600027EFE7002416
:10689000F1E74FF0FF314046FCF7C2BD38B50C467A
:1068A00010B3416821FA04F2D3071DD50122A2409A
:1068B00091434160204644494C4D0A1D002342F853
:1068C00020302A5C4B48FF2A0EBF44F02041D1F80B
:1068D000801051F82210FFF752FE4FF0FF31204692
:1068E000FFF7B9FE002032BD022032BD10B50446CC
:1068F00005E0FFF719FEC1B22046FFF7CFFF606841
:106900000028F6D110BD38B50D462F4914460A6847
:10691000AA4204D301EB85014A68824201D00220D9
:1069200032BDFBF776FF2E490A680123AB409A433C
:1069300004FA05F515430D6041E010B5224B1C68C3
:106940008C4204D303EB81035C68844201D00220B3
:1069500010BD01F18041100001F5083118BF012080
:106960000870002010BD38B5174C25680B4611463D
:1069700001F0FF02954206D31F2A04D204EB8202E3
:106980005468844201D0022032BD1846FFF7F7FD5B
:10699000002032BD0B4610B511460B4A14689C42CC
:1069A00006D31F2B04DA02EB83025468844201D021
:1069B000022010BD1846FFF74EFE002010BDFBF769
:1069C00041FF002032BD0000E81B0020E020024013
:1069D000E02002606C1C002000100840007F077F50
:1069E000D020024044130050051F0020BC1C002092
:1069F000A83F0050007FC767E8F600006B65000005
:106A00003365000000300940080009400C4009408F
:106A100015480068000C00F00700062828BF4FF05A
:106A2000FF30704711490A68C2F30F324BF69A13D0
:106A30009A424FF0FF3006D10868000F0B2801D1B1
:106A4000032070470020704710B5FFF7EBFF0649A1
:106A500009684FF0FF34032802BFC1F3033009284F
