:020000040000FA
:10000000004400208D29010001C9011001C901101F
:1000100001C9011001C9011001C9011001C9011074
:1000200001C9011001C9011001C9011001C9011064
:1000300001C9011001C901103FC90110DFF800F02A
:1000400085BF0110DFF800F061C00110DFF800F09B
:1000500079BF0110DFF800F0A9C00110DFF800F04F
:1000600089AF0110DFF800F055BC011020B1082362
:1000700030220021FFF7EABF7047F8B51C008CB0B2
:1000800005460E46174603D1002300F0FBFA0CE0AC
:100090006846FFF7EBFF206805906B4660680890A4
:1000A0003A4600F004F800F0EDFA0DB0F0BD207A09
:1000B000ADF81800314628467047FFF7CBBFFFF771
:1000C000BDBFFFF7CBBF80B500F0FCFA401E8041FA
:1000D000C00F02BD00F0FCBA00F004BBFFF7C2BFC6
:1000E000002101604FF0FF3201234260037270472C
:1000F000FFF7A8BFDFF800F0C1BF0110DFF800F084
:10010000B9BA0110DFF800F0E5C00110DFF800F027
:100110001FBE0110DFF800F0DDC00110DFF800F0B5
:1001200069B20110DFF800F091BE011020B1082380
:1001300024220021FFF7DEBF7047F0B51C0089B014
:1001400005460E46174603D10023FFF7E7FF0FE0F1
:100150006846FFF7EBFFA16806916B462278ADF881
:1001600010203A466068059031462846FFF7D6FFD2
:100170000F48104A01681160284609B0F0BDFFF72A
:10018000C9BFFFF7CFBF00F0B5BA80B500F0C9FA1C
:1001900000B10120C0B202BD002181600170416048
:1001A0007047FFF7AFBFFFF7B1BFFFF7A7BF000072
:1001B000F42A0100141B0020DFF800F011BF011029
:1001C000DFF800F005B30110DFF800F015C00110F2
:1001D000DFF800F015C1011020B10823282200210A
:1001E000FFF7F2BF7047002101604160C1604FF02E
:1001F000FF318160704770B514008AB005460E4625
:1002000003D1002200F094FA0CE06846FFF7E4FF07
:10021000206804906A4660680590314600F004F852
:1002200000F086FA0AB070BDE0680790A0680690FA
:1002300028467047FFF7CCBFFFF7BEBF00F084BA77
:1002400080B500F03FFA012818BF002002BD00F081
:1002500085BAFFF7B5BF00F091BAF0B40246106856
:1002600095681318506803EB5004C0071DD54D4422
:100270001BE013F8017B05F8017B491EF9D1A0B101
:10028000B60813F8011B06F00306032E08BF13F887
:10029000016B01EB06214942801C294405D011F86D
:1002A000016B05F8016B401EF9D1A3420ED013F883
:1002B000016B16F0030104BF13F8011BC91C3009C0
:1002C0000F28DAD113F8010B0F30D6E7F0BC02F19A
:1002D0000C00704744490A681040C2430A600A682B
:1002E0000242FAD17047414A11680029FCD100232B
:1002F000D3611060D0690028FCD0D161506870478C
:100300003B48016821F0020141F4007101600321C2
:100310003848816041F2300141610121C1605021C2
:1003200041610121C1604FF4CA6141610121C16095
:100330000160704730B50446002000E0401C984240
:1003400009DA54F8205015F1010F04D015408D4200
:10035000F4D1C0B230BDFF2030BDD0B584B001882B
:10036000B1F5C15F24D142690092002781690191F2
:10037000C069029020480168C1F303665DF8274018
:1003800084B105234FF0FF321C492046FFF7D2FF0E
:10039000042807DC54F8201021F4702141EA0641BA
:1003A00044F820107F1C032FE8DB002004B0D0BDF0
:1003B0000120FBE712490A681040C2430A607047F7
:1003C000104802680A6082684A60C2688A60406BAE
:1003D00020F0784040F08050C860704701461022FD
:1003E000094800F0CFB8000010100440001004408D
:1003F0000000046000410440541300500200F8441F
:10040000081004404C13005018000021704710B52C
:100410000446FFF754FE002161602160BDE81040F2
:10042000FFF766BE38B50546FFF749FE2C683CB1BC
:1004300021682960216800291ABF00224A6069608A
:10044000FFF756FE204632BD38B500F00FF8002108
:10045000296062686A606168002914BF0D602560C8
:100460006560FFE7BDE83240FFF742BE04460D4637
:10047000FFF725BE38B5FFF7F9FF29686A6800293C
:100480000CBF62604A6069682A6800290CBF22605C
:100490000A60E7E7DFF800F009C00110DFF800F0BC
:1004A000D1B20110DFF800F0059B0110DFF800F079
:1004B000E1A30110DFF800F05DB40110DFF800F0F7
:1004C00009C10110DFF800F00DC1011020B10823AF
:1004D00024220021FFF7DEBF704730B589B0044603
:1004E0000D4600F00BF801218DF818106A462946D8
:1004F0002046FFF7DFFF204609B030BD6846E5E73C
:1005000018B589B00446FFF7F9FF01218DF81810DE
:100510002046034A6946FFF7C1FF0AB010BD00003C
:10052000E803002080B500906846FFF7C7FF01BDD3
:10053000FFF7C8BF80B5FFF7B5FF10B94FF0FF3028
:1005400002BD002002BDFFF7B1BF024602291078AC
:1005500003D1517800EB01207047032906D151786F
:10056000927800EB012000EB02407047042908D18B
:100570005178937800EB0120D17800EB034000EB39
:100580000160704762B38B0708D0521E11F8013B1F
:1005900000F8013B00F024808B07F6D1830740F080
:1005A000208000BF103A07D330B4B1E83810103AB9
:1005B000A0E83810F9D230BC530724BFB1E80810C6
:1005C000A0E8081044BF51F8043B40F8043BD207B0
:1005D00024BF31F8022B20F8022B44BF0B780370A4
:1005E0007047121F17D35B0009D151F8043B20F864
:1005F000023B1B0C121F20F8023BF6D20BE051F815
:10060000043B00F8013B1B0A20F8023B1B0C121FA5
:1006100000F8013BF3D238BF121D521E24BF11F85F
:10062000013B00F8013BF8D8704730B4002513E0D7
:1006300050F8042BD30744BFA9F101039A18091FEE
:10064000042942F8045BFAD213468C0744BF158094
:100650009B1CC90748BF1D7050F8041B0029E7D137
:1006600030BC7047002203F031B901700A0A0B0C4C
:10067000090E42708370C170001D7047DFF800F0F2
:10068000BDAA0110F8B504460B480C4F0668F8697E
:100690000D4650F82510B1420AD10948009029466C
:1006A0002046FFF7EBFFF86950F82510B14201D161
:1006B0000020F2BD2046F2BD1812000044010020C7
:1006C000E80300200148007D704700BFA40100201E
:1006D000102803D302491038C1F8000F704700BF3B
:1006E00000E000E08160426070470000DFF800F049
:1006F0009DB2011070B5044603F0F6F80646A08AD4
:100700000025012808D1FFF7F1FF0546E068A16840
:10071000451BA94238BF0025304603F0E6F82846BD
:1007200070BD808A70470000DFF800F079AD0110DD
:1007300010B50446034BFFF7F7FFA06800B1204651
:1007400010BD00BFE803002001488068704700BF6B
:10075000C8010020DFF800F011B0011038B50446E0
:100760000D4603F0CFF8616A0D43656203F0CBF8E4
:100770002046BDE83240FFF7EDBFFF7F70B50D4664
:1007800015F1010F044608BF052503F0BBF8064626
:100790000120A840A06165612946054A506903F01F
:1007A000AFF8A0623046BDE8704003F0ACB800BFBF
:1007B000C80100200A00000080B50B46002100910E
:1007C000182202490EF010FB02BD00BFF55F0110B8
:1007D00038B50D460446287902280CD1E86810B1D6
:1007E000072100F01FF800902B46062203492046FF
:1007F0000EF0FAFA32BD022032BD00BF255D0110B5
:1008000038B50D460446A86810B1052100F00AF875
:1008100000902B461622024920460EF0E5FA32BD22
:10082000755F011038B504460D4600F011F868B147
:100830006D42611900F10803994221BF00F10805DA
:1008400080882818884201D3084632BD204632BD30
:1008500038B505460B48016888470B4A14685CB1F7
:1008600004F10802954221BF04F10803A2889A18F6
:10087000AA4238BF2468F2D304490A689047204648
:1008800032BD00BF240300205C1B00202803002091
:10089000DFF800F0FD1E0110DFF800F029F1001074
:1008A000DFF800F095280110DFF800F0452C01106A
:1008B000DFF800F06523011070B5524C2368014643
:1008C0008AB0102203F1480007F014FC2068C178B8
:1008D00000250A0722D50179052903D10EF044FC31
:1008E00000208CE0012914BF0629002300F17005C7
:1008F00006D083682978CB4003F0010343F08003DE
:1009000002A9009100F14802686800F12001A8687E
:10091000FFF7C6FF050007D0082070E000F148018E
:1009200002AA08300EF05AFC206800F138011022AB
:1009300002A807F0E9FB01285FD12068C1780A0707
:1009400042D5017901291FD0062900F1700613D183
:1009500001AA00920021019100F1480300F1280250
:100960007068B1682030FFF79FFF2068019AC08847
:100970000321FFF78DFF41E03078401C3070206884
:1009800090F87010142902D10EF0EEFB36E0102121
:1009900028300DF0B9FD206800F1700400F1180155
:1009A000009183682278A168D34000F12802606832
:1009B00003F0010343F080032030FFF771FFFFF7DE
:1009C0006BFFD8B1082519E000F1280200F14801B9
:1009D00006AB0830FFF76CFF50B90DF099FD0090A1
:1009E00000232068C088002206A90EF06DFC00B12B
:1009F000082521680620487000E0042528460AB032
:100A000070BD00BF304F002012000110073C1C00D9
:100A100020AC170020B004C20001C0052001010075
:100A200000E41618520001100708020020E4040038
:100A3000200111C3010001129C182104830100014F
:100A4000A10CD00398050020000152C814200234E4
:100A500001002004523C0422000150026CDC020020
:100A600001500354040020030D0006F7C500003DAB
:100A7000C60000F301010001200214050020171236
:100A8000000100020802002000020800000003002C
:100A900000520001520001000000000000000000B0
:100AA0000000000000000000000000000000000046
:100AB0000000000000000000000000000000000036
:100AC0000000000000000000000000000000000026
:100AD0000000000000000000000000000000000016
:10100000B41200001810000015AB0110FDB3011060
:101010006DC00110FDAE011099B501100000000077
:10102000000000002D000000B01200003C10000085
:10103000B1C00110A9BF011067C0011069B801104B
:10104000000000000000000030000000B0120000AE
:1010500060100000BDC00110CDB30110D9BD01105A
:101060006DB301100000000000000000310000001E
:101070000000000008040020040000000000000040
:101080000000000020000000D0210100300000001E
:1010900028100000280400200400000000000000C8
:1010A000000000000C000000E4280100180000000F
:1010B0004C1000003004002004000000000000007C
:1010C0000000000024000000FC28010018000000BF
:1010D0000000000070040020040000000000000078
:1010E0000000000010000000302201002C00000071
:1010F000001000008C04002004000000000000002C
:101100000000000020000000142501002400000061
:10111000FFFFFFFF94040020040000000000000017
:101120000000000028000000382501002400000015
:10113000FFFFFFFFBC0400200400000000000000CF
:101140000000000014000000142901001800000035
:10115000FFFFFFFFC40400200400000000000000A7
:101160000000000058000000601E01003400000074
:10117000FFFFFFFFCC04002004000000000000007F
:1011800000000000100000002C29010018000000E1
:10119000FFFFFFFFD4040020040000000000000057
:1011A000000000001C0000005C250100240000007D
:1011B000FFFFFFFFDC04002004000000000000002F
:1011C0000000000038000000D423010028000000C7
:1011D000FFFFFFFF440500200400000000000000A6
:1011E0000000000054000000A01B01003C000000B3
:1011F00001000000F82A01000100000000000E00BC
:1012000000000F0032000000010000001004002068
:10121000000200000000000001C9011000000000F1
:101220000000000008000000000022003804002038
:101230000000000000000000080000009C040020E6
:101240000000000000000000080000000000000096
:10125000000000000000000000000000010000008D
:10126000E404002006000000010000004C050020FE
:10127000000000000000000000020000000000006C
:10128000290001002500300031002D00010001007F
:1012900004000000E0290100000000000000000040
:1012A000000001000000030013C4011051C600003B
:1012B000B8120000B81200000000000080040020F6
:1012C000DDC4000020000000A4290100FC2301006F
:1012D00029C101104BD0000047D50000A1C7011063
:1012E000A3C70110000000008F120000C416010007
:1012F000DC160100AC16010002000900010000002C
:1013000001120001A123010075230100AD27010096
:10131000791F01009F210100F51601000509010058
:101320004529010055C4000095C6000099C600007B
:1013300070B500230646DFF8800B00EB831000F148
:101340003C04B4F90050B54204D10D0006D0E47855
:101350000C4203D15B1C082BEDD3002070BD2DE99E
:101360007043064614461D46FEF7A9FE6EB1D6E947
:101370000A2322432B43C6E90A23D6E9088948EA0F
:10138000040449EA0505C6E90845BDE87043FEF7CF
:10139000AFBE10B50129044698BF0121FEF701FF39
:1013A0002046BDE81040FEF7FEBE38B504460D46A7
:1013B00001F003F8A04231BF241A641E241A641CF1
:1013C000A40805F57A70A04238BFB4F1405F05D299
:1013D000641B012C98BF0124204632BD002032BD81
:1013E000F8B50446DFF8800A40690025F0B1C3680B
:1013F000197B012501F00F01022914D10069DFF8E2
:101400006C6AC168408A96F862704118192298681F
:1014100002FB0711FFF7C9FFDFF8A01A20600A6876
:10142000B0FBF2F002E00023236000E020602846D9
:10143000F2BDDFF88C1A0A680020D30705D5DFF863
:10144000840A0068C00900F001007047F8B500F098
:1014500024F90546002C1CBFA07A00282AD094F954
:1014600009600127FFF7E5FF07FA06F658B194F97E
:101470000900DFF8541A4A68113007FA00F0C04337
:1014800002404A6008600020A07220722060606004
:10149000C4E90400DFF8341AA06194F909000A785D
:1014A0008740174388780F7008B1401E8870F0B2EB
:1014B00000F0E0F82846BDE8F240FEF719BE032828
:1014C00004DADFF8A81901EB4010704700207047DC
:1014D0002DE9F0410025DFF89489DFF8EC69012758
:1014E000E8B2FFF7ECFF040034D0A07A012831D134
:1014F00094F90900113007FA00F0C14331607268B5
:101500001043706094F9090007FA00F0C0B200F0CF
:10151000A5F8002104F1100000F0BFFE812809D1D8
:10152000A06920B1002100F0B8FE812802D102207C
:10153000A0720FE081280DD098F8610094F909207D
:1015400011219140084388F861000021DFF8680B01
:10155000FEF77DFE6D1C032DC2D3BDE8F08138B5CA
:1015600004281BD1DFF8004904F1DC052846FEF70A
:101570000CFE98B12846FEF706FEDFF8741C0A68D8
:101580005043B0F5967F09D22846FEF70EFE05209F
:1015900001F02AFA0120607300F002F8002032BD49
:1015A000042104F13C00FEF752BE38B5DFF80C4BC5
:1015B000DFF8B4586069002161610022E068E160F1
:1015C00005F170000FF2F541FEF786FD0020FEF7F1
:1015D0001DFFDFF8200C01680A6B9047696B8142A0
:1015E00031BF401A401E401A401CA9684FF0FF321C
:1015F000A2EB10328A4234BF4FF0FF3001EB1030C3
:10160000A860287B20B1A86BA968C00288421ED2BE
:10161000FFF70FFFB8B1DFF8840B40F60901018036
:1016200000224280417B01F0F00141F00101417351
:10163000017B01F0F00101734260E26120604188AA
:1016400011F4406FFBD0012000212873A960FEF740
:1016500057FEDFF8A01C0020086031BD10B500F077
:101660001CF8DFF804180A7C14430C74BDE8104021
:10167000FEF73EBD38B500F010F80546DFF8E80784
:10168000017C21EA04040474027C110703D40821BC
:101690003C30FEF7DCFD00F080BF0446FEF70FBDD6
:1016A0002DE9F84F0546002129606846FFF798FEAE
:1016B000044600264FF0FF3A0027DFF80098DFF8D5
:1016C000ACB7DFF8A487F8B2FFF7F9FE00281CBF1B
:1016D000817A002917D0017A0126022922D0D8F870
:1016E0003020D168528A9BF8623040695118192223
:1016F00002FB0311FFF759FED9F80010B0FBF1F01F
:10170000504598BF82467F1C032FDCD330460CE047
:10171000296002E008B1C5F800A0204318BF0120ED
:10172000BDE8F28F01204FF0000A002CF2D0002813
:101730000099EDD05145EBD95146E9E77CB5DFF88A
:1017400028472178022903D11920FEF7C3FC73BD75
:10175000217801291BD0FEF7B2FC05466846FFF749
:101760009FFF04F1DC0660B1009820B101463046CD
:10177000FFF70FFE08E03046FEF717FDFFF710FFFA
:1017800002E03046FEF711FD2846FEF7B1FC73BDBE
:101790007CB5DFF8D4566C69686A002848D1002C03
:1017A00041D06846FFF71CFE00281CBF00980028A7
:1017B00003D00820FFF75EFF73BD0820FFF74EFF40
:1017C00005F11400FEF72EFE6862D4E90601C2435B
:1017D000DFF8F456AA60A9680142FBD1EA68D4E9AF
:1017E00006010243EA60D4E90623DB432B606E68FE
:1017F000D4E906010E436E60E4682046FEF773FDEF
:10180000208840F60201401A08D041F21E01401A19
:1018100004D041F6E671401A012809D8214601207A
:1018200000F01EF973BD022105F13C00FEF70FFD2B
:1018300073BDDFF83406016B8A6801F1200350683C
:1018400030B1984218BF0246F9D101E0002070473C
:10185000507B10F00F0F02BF488C40F60901884200
:10186000F4D101207047F8B5DFF8FC65DFF83C0BD8
:10187000756AFEF79FFD0446DFF8340B02680768BF
:1018800002F02002224018BF002D07F460270BD081
:101890001346B56200222846FFF761FD4FF48041F0
:1018A00006F13C00FEF7D3FC3C400ED0DFF8BC054F
:1018B00090F8611041EA544480F8614006F18C00D0
:1018C000BDE8F4400021FEF7C2BCF1BD2DE9F843AC
:1018D000DFF8988598F86100002448B1002698F850
:1018E00061000121B14008420ED1761C032EF6D3CF
:1018F00098F8610030B1BDE8F4430021DFF8B80783
:10190000FEF7A5BCBDE8F18398F861001021B14055
:10191000084218BF0124FEF7D2FB98F8611011228B
:10192000B240914388F86110FEF7E2FBF0B2FFF796
:10193000C6FD02001CBF907A0028D9D092F9099008
:10194000DFF88C1B01EB8901002C0F6816685568C5
:1019500004BF107A022803D1D2E90401C3000CD4D9
:101960001046FFF773FD44B10020009000224FF0B5
:10197000007349463046A847BAE7009700224FF067
:101980000063F6E738B5DFF8E054686A70B36A6A56
:10199000D2E90601FEF79EFC0446686A224600234F
:1019A000FFF7DDFCA00718D56A6ADFF8043A9C68E7
:1019B000D2E9060120F0020084439C606A6A1C6838
:1019C000D2E906018C431C6005F11C00696AFEF730
:1019D0003BFD00206862022104E03CB1686AA86215
:1019E0004FF4804105F13C00FEF731FCFFF770FD3C
:1019F000BDE83140CCE6DFF87004B0F92C10B0F946
:101A00002E00814204BF0820FFF734BE70472DE945
:101A1000F042074689463E6E14461D4606B1B04761
:101A2000D7E9160104400D4008BF002C16D08021D4
:101A30004846FFF77DFCC7E91A4538B1D0E90823CD
:101A4000A243AB43C0E90823396E816000203866A9
:101A500007F13800BDE8F042FEF775BDBDE8F08241
:101A600038B50A46DFF80C1B4B681C001CBF8968A0
:101A7000014207D0DFF8F0530146286B01B0BDE802
:101A80003040184731BD0000704780B5FEF7D6FBE7
:101A9000DFF8D4230146106B5268BDE808401047B8
:101AA000DFF8C4030FF229424168914208BFFFF7F3
:101AB00045BE04213C30FEF7CABB000038B54FF0EC
:101AC000FF30FEF707FCDFF8A0530FF20541044694
:101AD000686888420FD10022DFF8C81A05F170004B
:101AE000FEF7FAFA02202870FFF7A3FE18B9FFF7F5
:101AF000EFFCFFF74DFEDFF8380B044207D005F18D
:101B00003C00BDE834404FF00051FEF7A0BB31BDB2
:101B1000F8B5D54DEC6924B3E168082040F603031D
:101B200040F6040619B3C2B20AB30A889A421EBF2D
:101B3000B2424968401EF5D114E0086818B9BDE802
:101B4000F240002057E710F1010F0AD0DFF8A0168D
:101B50000A68B0FBF2F105F58070BDE8F440FFF7CC
:101B600018BCF1BD206918222030FEF71BFDD4E916
:101B70000A230026C4E90A66A06858B1B4F93C10EB
:101B80002069A66813F0E2471CBF02F0000203F0D0
:101B9000E243B047FEF793FA0646E88D401CC0F3D7
:101BA0000B00E885002084F83F0005F11C00FEF7DB
:101BB00039FC00F0FFFBB5F92E00B5F92C10884276
:101BC000CFD1296B91F870000028B6D0002281F89F
:101BD0007020B4E738B50D46A807A34C0ED5FFF723
:101BE00097FFE06938B145F0020104F13C00BDE81F
:101BF0003440FEF72CBBBDE831409FE5680747D570
:101C0000DFF8F0150A68106B80476063606908B1FF
:101C100000692063206B4168DFF8280A0A780260B7
:101C2000022000F0E1FE112000F0F3FE0121DFF8B8
:101C300044292170907810B90E2000F0EAFE206B44
:101C4000DFF8782441688868002804BFC868002845
:101C500004D00021D161DFF8F00910600721DFF81E
:101C60009436196000215069516190699161506901
:101C70000FF2210140F0804040F0020050616160AD
:101C80001A20FEF71EFABDE832401920FEF719BAF5
:101C900031BD00002DE9FF410646880040F1CC80AF
:101CA000714C206B41684868D1F80880CF6801000A
:101CB00018BF80475FEA080008BF002FDFF8FC5319
:101CC0000ED0E8690028FCD00021E9615FEA080035
:101CD00018BFC04707B1B847DFF82C0AFEF703FB6F
:101CE0000020E8610120DFF8241A296040F602078D
:101CF000FEF78CFBDFF8A42440F60A0313800020D3
:101D00005080117B01F0F00111735060517B01F0A4
:101D1000F00141F0010151730021D6F80880707C78
:101D2000A8F80210B8F80010C91B1DD041F21E0718
:101D3000C91B19D041F6E677C91B012928D8B8F884
:101D400018704FF6FF310F40A8F8187028B14FF601
:101D50000F403840A8F818001AE02D20394660F3EB
:101D60000911A8F8181013E0B8F810704FF6FF31F9
:101D70000F40A8F8107028B14FF60F403840A8F86F
:101D8000100005E02D20394660F30911A8F8101065
:101D9000002070744746786800281EBF0188994269
:101DA0000746F8D14AE0308CA8B1002171847162F5
:101DB00006F12C004378017803F0F00301F0F00104
:101DC00043F001030170437006F120005060517B25
:101DD00001F0F001517369464046FEF7F1FA68469A
:101DE000FEF7FCFAE8690028FCD00021E9610FF257
:101DF000E102607B626030B100F084FF0028FBD01C
:101E000000F091FF10E0DFF808190A68136801205C
:101E10009847012808D0787B00F0F00040F00100DE
:101E200078730FF24D0060600021E961C5F8008011
:101E300041460120FFF714FEBDE8FF817A60787B00
:101E400000F0F000787360690028ACD0C0680088AA
:101E500040F6030188421CBF40F604039842A2D119
:101E600000206063B7E70000B4170020500D002089
:101E7000DFF8A008014200D17047DFF89418012074
:101E800010B50A68DFF8904813689847012808D110
:101E90000FF23D00C14A606000218848C1610260C4
:101EA00010BDD3490A683220B0FBF2F104F1DC0026
:101EB000BDE81040FFF76DBA500B0020141B002046
:101EC000402108400000044008100440B00D0020EC
:101ED0002DE9FC4704460E467004DFF83C782BD50C
:101EE000FEF7EDF8BD6A15B3D5E90A2302F00A043E
:101EF00013F0E04108BF002C19D1D5E90A48D5E913
:101F00000A23A24323EA0803C5E90A23FEF7F0F8EF
:101F1000A86870B1B8F1000F08BF002C09D0B5F95E
:101F20003C1028692246AC684346A04701E0FEF712
:101F3000DFF826F48046B6E0B00051D5DFF8B4A251
:101F4000FEF7BDF8DAF854100A688046042090477E
:101F500000281CBF207C002822D0786B00B381466B
:101F6000DAF80000E568016B8847814531BFA0EBD6
:101F70000909401EA0EB090000F101094FEA1930E0
:101F8000A842E06002D205446D08E56040F2D171DC
:101F9000E068A0F5FA70884224BF40F6C410E06003
:101FA0004046FEF7A5F8FFF744FC78B1D4F8188056
:101FB00000224FF000736FF480712046C0477869AB
:101FC00010B1FFF7BBFB01E046F002062046646952
:101FD00000224FF080630021A04726F0005662E007
:101FE000B00707D5FFF794FDF86900285BD126F00C
:101FF000020658E0300756D5397C08074FD4397CA3
:1020000008064CD46846FFF74BFB10B10098002837
:1020100045D0DFF8081791F8610000283FD100246F
:10202000E0B2FFF74CFA00281CBF817A002908D0E3
:102030000122827290F9090002FA00F1C8B2FFF79A
:1020400019FB641C022CEBD90320387007F5807053
:10205000FEF7ABF8FFF7A9FA00210220FFF700FD19
:10206000022000F05CFC112000F06FFC787C18B9B5
:10207000386B3830FEF767FADFF8F814887810B953
:102080000E2000F062FC787B20B1002179730520DE
:1020900000F045FCDFF88806786000213970FFF712
:1020A0004DFB26F0080626B1314607F13C00FEF74D
:1020B000CEF8BDE8F387000040180020001004406F
:1020C00038B584B000F090FBDFF85806DFF8A45470
:1020D0000168DFF8444641F0020101606846FEF7FE
:1020E00082F86878DFF8401602906A4604F13C00F6
:1020F000FEF781F86A46DFF8341604F18C00FEF72B
:102100007AF86846FDF7ECFF2878DFF8242601907E
:102110006B46192104F17000FDF7AFFF6B46DFF845
:1021200014261A2104F1C000FDF7A7FF00230022A6
:10213000DFF8041604F1DC00FDF7FFFF00230022A6
:10214000DFF8F81504F58070FDF7F7FF0023DFF8DE
:10215000F025042104F5927000F0CFFBA878012847
:1021600004BF0E2000F055FC04F11C00FEF74FF9EF
:1021700004F11400FEF74BF900202070A081A0604C
:102180000721DFF8982582F8601005216063A163BC
:10219000207405B0DFF88815616030BDEC180020B0
:1021A0002DE9F041DFF870556C699046002600E09B
:1021B0002468CCB18C42FBD1B4B1276800224FF027
:1021C00080532046FFF7CBF8214605F11400FEF7B7
:1021D00051F9214605F11C00FEF736F9761C5FEA3D
:1021E000080018BF3C46E7D13046BDE8F08100004A
:1021F000141B00208C0100102DE9FC4E824616466F
:1022000003273000ADF800101D4614BF4FF0804981
:102210004FF00059FDF753FF8346BDF90000DFF88A
:10222000F84410F1010F05D1606A00280CBF606905
:10223000606A02E00021FFF77BF840B390F83F109E
:102240000A0623D5616A884212D100224B46FFF765
:1022500086F8002E14BFDFF8EC04DFF8EC04FEF77C
:1022600042F88DB161692A465046FFF799FF0BE0AD
:1022700001462A465046FFF793FF38B120780128DF
:1022800002D00221FFF78DF9832700E0042758468A
:10229000FDF72EFF3846BDE8F68E10B50C46DFF888
:1022A00078140A78022A0BD1FEF71DF804B12060D9
:1022B00000F0FF00012801D1812010BD022010BDD7
:1022C000012010BDF8B504460D461646FDF7F7FE91
:1022D0000746DFF84404016B8C4218BF032404D185
:1022E00031462846FFF7D9FF04463846FDF700FF80
:1022F0002046F2BD00000460F0B50746DFF84C044C
:1023000087B00E001546006818BF002D1C4649D046
:102310003178C840C20745D500212846FEF71DF890
:102320007E60BD60FDF7CBFEDFF8EC530646687CAF
:10233000002835D1FFF7C4FE687C401C687400F0AB
:1023400039F834B968460FF22C411C22FEF72AF9FD
:102350006C46206838600120218A78747982606830
:10236000002812BF002140F6C41001213974F86022
:10237000DFF8DC13E0680A4600B10146B961A068E5
:1023800000B102467A61582107F12000FEF76AF990
:10239000002107F13800FEF7A0F82F63384602E06D
:1023A00000F008F8002007B0F0BD000020000E008B
:1023B0000C1004403046FDF79BBEF8B5FDF77FFEDC
:1023C000DFF854130A78022A05D1DFF888130C6865
:1023D000FDF78EFE18E0FDF78BFEDFF87C03DFF8DB
:1023E0007C4301680A6B904710F5003041F1000111
:1023F000A4FB0067DFF8682304FB01771169002064
:10240000341847EB01052C462046F2BD2DE9FE4F5E
:1024100081460E4693469A46FDF751FE80466FF080
:1024200001040020DFF83C1301EB801191F83F30EC
:102430001A0603D5401C0828F4D341E0DDE90C4519
:1024400001960091DFF8D06206F58070FDF7ADFED1
:10245000B08D401CC0F30B00B0850098019900F1CD
:10246000080779602021009800F13E02DFF8F802A9
:1024700082F800B0C7F800A02040B38DBB86C7F833
:102480000890294040F00200C7E904010023002021
:10249000C7E90600FB62B8624FF0FF313963802064
:1024A000507089F8703006F114000099FDF7CCFFE8
:1024B00070690099884208BFFFF740F9B7F93440C6
:1024C0004046FDF715FE2046BDE8FE8F00000000E7
:1024D000943004402DE9F04107460E463000144682
:1024E0001D4601D5002010E0FDF7A6FE80468021A4
:1024F0003046FEF71DFF060003D096F83F000106A8
:1025000005D44046FDF7A5FE022000212FE0D6E9C4
:10251000080144F00A0445F0E0452040294008BF86
:1025200000280FD04046FDF794FED6E90801204070
:102530002940C7E91A01D6E9082382438B43C6E93B
:10254000082312E0B168DFF82402814202D0B368A8
:102550003B66B060C7E916454046FDF77AFE4FF08E
:10256000FF3107F13800FDF7E5FFD7E91A01BDE8B3
:10257000F081000014070100DCB5DDE90667CDE954
:1025800000670446FFF742FF0146204602B0BDE85F
:10259000D0400A224FF0E0439CE72846BDE8324095
:1025A000FDF7A6BD85190000530803F0010300E004
:1025B000012302F001021FE60FF2B8111C22FDF701
:1025C000F1BF00E000BF00227CE680B56A46DFF87C
:1025D000A011FFF777FE812803D1009800020016B2
:1025E00002BD6FF07F0002BD70B50E461546FDF7C7
:1025F00066FD8324484A1EB1022E0DD007D312E097
:10260000516A11B1516A8A8F04E080240CE0434979
:1026100091F860202A8007E0117802290CBF01217F
:102620000021297000E00324FDF762FD204670BD03
:102630000200004080B508468021FEF779FE00B117
:10264000C06802BDD0210840510007062DE9F843BB
:102650000546894616468324FDF731FDB9F1080F7A
:1026600080462D4F48D8DFE809F005080E471114C1
:10267000202F4200306828603FE001216974E8683B
:102680006030E86039E03068688236E03168B9630C
:1026900033E0306818B98020FEF7E0FF2DE0012814
:1026A0002AD18020FEF7E6FF27E03878002804BF13
:1026B0007869002819D131681920FDF70FFD3168BC
:1026C0001A20FDF70BFD18E03878002804BF786960
:1026D00000280AD1316807F13C00FDF7BCFD3168E4
:1026E00007F18C00FDF7B7FD07E0002405E0307826
:1026F0000A4981F8600000E003244046FDF7F8FC39
:102700002046BDE8F28300000100070601010E0427
:10271000E001001004000020B4170020500D00203C
:10272000D51B0000002009408B1A0000CD180000C6
:10273000BD1A000067180000A11A0000F719000078
:102740005F1500000100020401000104D4210840CB
:10275000891A0000043004408C01001000093D007B
:10276000EC180020500B0020FFEFFF9F0F1A000015
:1027700001000304FFFFFFFF000000000000000055
:10278000000000003A01000000000000000000000E
:1027900070B5DFF83847DFF838072568EE680023A2
:1027A00001223421B04700B10120C0B270BDDFF872
:1027B00024078068704702460020022904D1012ABC
:1027C00006D140F2EE207047012A08BF4FF47A701C
:1027D0007047DFF8001791F8E60020B1D1F810013A
:1027E000002818BF004770472DE9FE43DFF8E48654
:1027F00008F1E106B07900287CD1DFF8DC16DFF8BB
:10280000DC760868DFF8D856DFF8D896800900F043
:102810000100F0710120B071F87C70716846796830
:10282000C8F81011FDF7B8FC0021019100220291B7
:102830008DF800206B460FF2F54108F10C00FDF712
:102840007CFC6B4600220FF2C55108F13000FDF709
:1028500074FC6B4600220FF2095108F15400FDF799
:102860006CFCB96801208847DFF87C06027868684C
:10287000C0F38154387D20B1032C02D10120307087
:1028800003E0032C18BF022C0DD1022000F0ACF89D
:10289000032CD9F800100CBF4FF47A7042F210707C
:1028A000B0FBF1F118E0012C02D100F040FA1BE07E
:1028B000D4B9022000F098F800F082FA9847012875
:1028C00003D1002000F033FA0EE0D9F800003221E5
:1028D000B1FBF0F1B1FBF0F108F15400FDF761FC40
:1028E00008F15400FDF75FFC286840075CBF00203A
:1028F00000F07AF80020BDE8FE8338B5002408B166
:10290000150002D16FF0020407E08160C26003612C
:102910000146DFF8C005FDF797FD204632BD10B532
:102920000446FDF7CCFBDFF8AC150A1992F8E93044
:102930005B1E82F8E930DBB233B98A68012303FAFF
:1029400004F422EA04048C605FE0F8B50546FDF764
:10295000B6FB0446DFF87C15481990F8F020521EAB
:1029600080F8F020D2B27ABBDFF88005DFF88075FE
:1029700000EB850210F825505688280615D53968D1
:102980000A6A3046904739688A6A30469047396803
:102990000A6B30469047DFF85C15DFF85C250120B4
:1029A000086010688007FCD507E06A0611D501EBC6
:1029B00086010020D1F80421904705F03F05132D32
:1029C000BCBF2846FFF7C1FF2046FDF791FB002062
:1029D000F2BD39688A693046904739684A6B30469B
:1029E00090470228F9D1E8E710B50446FDF767FBE8
:1029F000DFF8E0148A680123A3401A438A60214467
:102A000091F8E920521C81F8E920FDF771FB0020C4
:102A100010BD2DE9F0410646FDF751FB0446DFF8F5
:102A2000B454A81990F8F0104A1C80F8F02081BB2B
:102A3000DFF8B88418F8260000F03F001328B8BF6C
:102A4000FFF7E7FF08EB8600478818F82600DFF855
:102A5000A064010615D53268D169384688473268C6
:102A6000516A384688473268D16A38468847DFF865
:102A70008424DFF884140120106008688007FCD5E6
:102A800007E041060BD505EB87020120D2F80411BF
:102A900088472046FDF72CFB0020BDE8F081316817
:102AA0004A693846904731684A6B38469047012852
:102AB000F9D1EEE72DE9FE4F0746DFF81C04DFF8F9
:102AC00014940168002600244A06A24609F1DC0598
:102AD00004D5297B11B9202000F079F9012F18BF06
:102AE0006FF0010857D12868012852D102212960CE
:102AF00000F08BFA012000F06AF95FEA00084BD180
:102B0000FDF79AFBDFF8F813DFF8E47301900C602F
:102B10000120B96A0A689047012803D1002000F01B
:102B2000A9F90124DFF8DC13DFF8D0230E6009F1E6
:102B3000FF011368887808B14FF0010A487808B19E
:102B40004AF0020A087808B14AF0040AE87F20B186
:102B500039680A6B4FF480609047A87F20B13968CC
:102B60000A6B4FF481609047DFF88813DFF898B361
:102B7000012008604AF020003A6891698847DFF830
:102B80008C230120106099F80800C10709D501269F
:102B90001BE06FF004087CE00120286000F03EFAA2
:102BA00077E0396A8A68584690470428F9D00128A6
:102BB000009004D13A6A5368032158469847DFF8D9
:102BC00050030168890889000160002000F046FA7E
:102BD000DFF82893D9F8000039688A6B90476EB9FE
:102BE0000098012804D13A6A536801215846984751
:102BF000DFF81C03016841F0030101600120DFF8E8
:102C00000413086050463A6853699847E87F20B13A
:102C10003968CA6A4FF480609047A87F20B139684C
:102C2000CA6A4FF481609047B249B84B01200860EE
:102C300000221A600320286039684A6B504690478A
:102C40000128F9D1D9F80000042000F0C0F80646A8
:102C5000AB4901200860D9F800209F480068810630
:102C6000FBD514B1012000F005F900F051FB08205C
:102C700000F0ADF80643012028600198FDF7E9FA5D
:102C80009648008A00F0C3FA00F0C8F90EB14FF080
:102C9000FF384046BDE8FE8F38B50446FDF70FFA11
:102CA000054621468B48FDF7E5FB2846BDE8324046
:102CB000FDF71EBA3EB50024012804D020D3032816
:102CC0001CD017D31CE06846FDF766FA814D914988
:102CD00001948DF8004002946B46012205F17800C2
:102CE000FDF72BFA00238C4A2C2105F19C00FDF7FF
:102CF000C4F905E000F028FB044601E000F0E4FB25
:102D000020463EBD38B5FDF7DAF97249054691F81F
:102D1000E000012410B1FFF73BFD04462846FDF713
:102D2000E7F9204632BD002070E000007047F8B59A
:102D30000326664C664D00961C23266877684FF084
:102D4000405200212846B8470120009028462468B8
:102D5000656809234FF400720021A847F1BD000007
:102D600010B500F02DF89847022818BF032805D1A8
:102D7000FFF7DDFFBDE810400220D0E5012802D1B9
:102D8000BDE81040D3E765480168C1F381500328CE
:102D900008BF4FF47A7004D002280CBF41F288308B
:102DA000322050494B4C0A68B0FBF2F104F1540058
:102DB000FDF7F7F904F15400BDE81040FDF7F3B951
:102DC00057490A681368042070470020704738B5D7
:102DD0000546404804685CB1A068284205D02269D5
:102DE000E36800212846984720B92468002CF3D1D5
:102DF000002032BD4FF0FF3032BD4A49012807BFE5
:102E00000720086000220A600020704770B5FDF7B7
:102E100056F9304D314E044695F8E00050B1287A0D
:102E2000410613D4FFF7B4FC80B100F0E2FC0020AF
:102E300085F8E0000220B568A84706461020FFF795
:102E4000C6FF012E11D10320A8470EE025490A68CC
:102E50003220B0FBF2F101B9012105F13000FDF79C
:102E6000A0F905F13000FDF79EF92046BDE870405D
:102E7000FDF73EB938B5012823D129490A681368FE
:102E8000984701281DD000F0A7FC124D297A012097
:102E900085F8E000880616D4124A10683221B1FB8A
:102EA000F0F404B9012405F13000FDF77EF9214664
:102EB00005F13000FDF775F905F13000FDF773F904
:102EC00001E000F0BCFC002032BD0000A4010010B5
:102ED00000A00C40CC05002014100940FC060100A5
:102EE000B03F0050141B0020471C0020CC150100EF
:102EF000B801001028200860282008402C20094034
:102F00000C4009400002224300400340800104437A
:102F10002422084019360000A5330000B43F0050B9
:102F2000E001001000000460DFF800F031BF011084
:102F3000DFF800F0F5B7011030BF7047FCE738B597
:102F400000F0E2F900F092F9FFF731FC054605F0D8
:102F50000C000C2853D0680729D400F0FBFC044671
:102F600001210120FFF727FC314A116801FB04F31E
:102F700098421CD2F025B5FBF1F1641A2D49887CEA
:102F800018B1C868A04238BF04462B4D214605F150
:102F90000C00FDF7B7F805F10C00FDF7B7F80120BC
:102FA000FFF788FD05F10C00FDF7A8F829E02807D8
:102FB00025D4224C2248216A8A6890470428F8D0F8
:102FC000EA06204900D420B9086840F001000860F2
:102FD00003E00A68520852000A601B481B4D016852
:102FE00041F0030101602020226891698847286828
:102FF00021688A6B904701202860296801E0FFF76B
:103000009DFFBDE8314000F083B910B5104CFFF7CB
:103010008BFF2060FDF7D0F8606010BD10B50C4C40
:103020006068FDF7CDF82068BDE81040FFF780BF6D
:10303000F42A0100FC060100CC050020B8010010B4
:10304000004003408C210840242208402C200940E5
:10305000141A00201628A8BF203870472DE9F84F11
:1030600080469948DFF864920168994E8A0705D531
:103070000820B0719748C9F80000C6E0964801687A
:103080000A689047009000279448046825176D1C33
:10309000A00209D40098C0F13E00C0100828C8BFA3
:1030A00008208542B8BF05468D480168C1F3046019
:1030B000FFF7D0FF82468B480168C1F30440FFF759
:1030C000C9FF5544152D0246C8BF152504DC6FF015
:1030D00009008542B8BF054605F01F00824940F44B
:1030E000F850088081490868009910F0030F18BF54
:1030F0000127400748BF47F002075FEA080096F93A
:10310000070018BF47F00407091A042902DCB17947
:103110008F4260D0009B0F3B4FF0000CE04607F061
:10312000010007F00401DFF8C8E127D403EB031323
:103130004FEA2328B8F1070F88BF4FF00708C446AD
:10314000BCF1070F0EF1040A28BF4FF0060C5AF825
:103150002CB05EF82CA0ABEB0A0A0AF0FF0C19B1F8
:10316000E346CAF3072CDC445FEA877B03D5E346DA
:10317000CAF3074CDC4408B10CEB1A6C5EF828E08B
:103180000EF0FF0A11B1CEF307218A44B90744BFFC
:10319000CEF307418A4408B10AEB1E6A551BA3EB24
:1031A000082303FB0CF38033002DD8BF0125342006
:1031B00004F0FF0445430AEB13216C43B4FBF1F028
:1031C0004FF6FF71884288BF0846B080B7710098FB
:1031D00000F30700F07147480168B08831600021B2
:1031E0001F2804D21F20B08004E04008491CB0F51D
:1031F000007FFAD20F38000941EAC0013E4801437E
:10320000C9F800100020C9F80400BDE8F18F38B5F6
:1032100005463A480468A4B23CB32F4801680A68DE
:1032200090472B4991F90720904205DA6FF07F0211
:103230009042B8BF1046C871A542888834BF651B4C
:103240000125854210D32B4A13680A689A1A921CEA
:103250001F2A88BF1F222D1A5208D5402D18B5F5F8
:10326000803F28BF4FF6FF758D8031BD2448006830
:10327000002800D1704730B522498A6802F04063C7
:10328000B3F1406F1FD0104B1C68A5071BD44C68CE
:10329000A50718D41C680968C1F303511C31090142
:1032A00014F0050F04D088420DD224F0050409E083
:1032B000814208D2100158BF44F00104500158BFA8
:1032C00044F004041C6030BD000009403010094087
:1032D0002C1B0020FDFDA400EC010010B43F0050A9
:1032E000B81200503C1100506E6208402422084081
:1032F0009C1300500820094000E7A48034100940C6
:1033000028500940AC3F0050EFF3108072B6704770
:10331000EFF3108062B670470138FDD170477047F7
:1033200010B50C18FFF7F0FF411E8941C90FDFF8F7
:10333000642410680028FCD024680120106009B1C2
:10334000FFF7E6FF204610BD38B5DFF84C5428786B
:103350000024002802BFDFF84414487D00281FD055
:10336000FCF7ADFEA978002906BF0122AA7001244E
:10337000FCF7BEFEA4B90220FFF736FB0E20FFF7D4
:1033800048FBDFF81C14086808B1012032BDDFF8E3
:1033900014044022C26002600120C86100216970EB
:1033A000002032BD2DE9FC41DFF8F8130020086051
:1033B000DFF8F41301F1D804A07A002843D00128E3
:1033C000DFF8E853DFF8E82331D1DFF8E8131668B7
:1033D0004BF2F52046430868360AC0F381400128C5
:1033E0000BD1A86C0168884700F041FA00F05AFA46
:1033F0003509C010454306EBE536607B10B100216E
:10340000617306E0DFF8B003006820F07F403618F3
:103410007608DFF8A803DFF8842306600121360C64
:1034200046608160507D002849D005210AE00228CD
:103430000AD11568284600F012F9A5F2FF55032DB0
:103440003DD3082121733CE003283AD1106801F1F3
:10345000B806A0F5C0603168F061002948BF494254
:10346000002848BF40428142A8BF002026DA706889
:10347000D34F80B200900823D5F800C0DCF8048058
:103480004FF47F4230213846C047B06880B2009088
:103490001223D5F800C0DCF804804FF4F8020421B0
:1034A0003846C047B06980B200900A232D686E6824
:1034B0004FF4406220213846B047012020700B2095
:1034C0002073BDE8F34100BF2DE9F843DFF8D8824F
:1034D000BC4EDFF8EC92BC4CBC4FB24808F1E105A1
:1034E000E9784A1E0B2A00F28D80DFE802F00630F0
:1034F00041596E41596E4159757B31680A682020E7
:1035000090470F20E06041F61D512161022000909C
:103510000723D6F804C0DCF804404FF4C072002141
:103520004846A04776684846D6F80C9007234FF4E3
:10353000C0720021C847012038600221E97008F1FB
:103540007800BDE8F243FCF72EBEBDE8F18301210F
:10355000E161287800281DBF002139610320062081
:10356000E870002103202060796078688107E6D444
:10357000E878032806D10221009100F044F8C847FA
:10358000042009E00020009000F03DF8C847E878EA
:1035900006280CBF07200A20E87001207860CEE7DB
:1035A000042903D12021A161012105E001220A297A
:1035B000A2610CBF03210221697008220021216051
:1035C000C260026001202060BFE705290CBF062011
:1035D0000920E8700020E1E70020386078600C22C4
:1035E000EA70ACE70021016001206D4A10600E20F6
:1035F000FFF7ABF90220FFF792F901200021E870F4
:10360000A970A2E7FEE748467668D6F8049005233D
:10361000602200217047000063496C4891F8E42063
:10362000921E0A2A1AD8DFE802F0060A0E190A0EBC
:10363000190A0E19120001688A07FCD544E741688F
:103640008A07FCD4FAE741688A07FCD5F6E70168E7
:103650008A07FCD441688A07FCD4EFE7FEE7F8B597
:103660000446574D30212846FFF75AFE4E4F07F1CA
:10367000B806C0F30720706004212846FFF750FE0B
:10368000C0F38440B06020212846FFF749FEC0F314
:103690008120B4F5C064B061346003D1002087F8A4
:1036A000D800F1BD316997F8D80028B97068B269BF
:1036B000B168F0607261F461F06900284CBF6FF08E
:1036C0000102022200EB40001018421000EB927041
:1036D00001EBA0017268F260002914DC7069032814
:1036E00007D1012015318842A8BF01210022726153
:1036F0001EE001200B318842A8BF0121521E48BFA5
:103700000022F26007E01E2912DD706928B9153920
:103710001E29C8BF1E21032009E00B391E29C8BF7E
:103720001E21521C3F2AC8BF3F22F2600020706158
:103730001E4CF068316180B2009008232768D7F8EA
:1037400004C04FF47F4230212846E047012000901A
:1037500011232768D7F804C04FF40032042128460B
:10376000E047306980B2009012232768D7F804C080
:103770004FF4F80204212846E047706980B20090B7
:103780002846246865680A234FF440622021A84730
:10379000F1BD000000800C40AD060020FC060100D9
:1037A00004800C402C500C40CC050020A4010010DB
:1037B00008400C40B43F0050102009403C600C40D1
:1037C00000A00C40A001001000400C4034600C40F0
:1037D0003748006800F0D6B810B5374C626D5368B2
:1037E0000121032098472068C16A884733498860CF
:1037F00010BD70B5304C616D0A68012090470128FA
:103800001BD0A5692B48EE68002301223421B04764
:10381000A0B1FFF7DDFF2068C16A8847274B9A688F
:1038200027491C68D860A4EB9404801A4843000C14
:103830001860A04238BF20461860012070BD38B51E
:103840001D4C626D5368002103209847616D0A6822
:103850000120904708B1FFF7BBFF2068174DC16AF0
:1038600088476860206E01688847286131BD10B5BF
:1038700001461448144B02681B68100400161B39DB
:103880004843C01000EB2240120601FB01F412165F
:103890001B06624361431B1600EBA220594300EB59
:1038A000A14010BD00FB00F1C0EBA15000B2704779
:1038B0008000001000A00C408C010010181B00209C
:1038C00040420F0090130050A41000504018491CB3
:1038D0001CBFB1F1010100F8012DF9D17047004082
:1038E000DFF800F079BB011000E006E0EFF3118093
:1038F000202181F311887047000080F31188704700
:10390000FFF7EEBFF2E7F8E7F0E7F6E70D49C20789
:1039100044BF01230B60820744BF4FF480730B60E8
:10392000400744BF4FF480320A60704710B5064A22
:10393000C30748BF1160840748BF5160400748BFB4
:10394000916010BD0420094018200940DFF800F004
:10395000E1BE011070B5FFF7C7FF094E0446B0681D
:103960000021FFF7F3FF05467069B169451BA942C5
:1039700038BF00252046FFF7B8FF284670BD00BFBE
:103980007801002070B50446FFF7BEFC451EAD412E
:10399000ED0F064E30680028FCD0A04701213160B1
:1039A0001DB1BDE87040FFF7B3BC70BD00800C4096
:1039B000DFF800F021C00110DFF800F019AE0110AF
:1039C000DFF800F0F99B0110DFF800F055A40110BA
:1039D000DFF800F04FBF0110DFF800F005840110A0
:1039E000DFF800F08984011000B58FB008233C2275
:1039F00000216846FFF7DCFFDFF83C0C00F15001C6
:103A00004FF4587201230791089206936A460023E7
:103A10000FF29911FFF7D0FF0FB000BD3EB5DFF8F0
:103A20001C4C04F12401204601F0FFF904F174005C
:103A300001F03AFDA06200230020019000904FF4B5
:103A40007A720FF67531DFF8F85B04F12C0001F0A3
:103A5000E7FC002001900090002341F288320FF62D
:103A60004D3104F1500001F0DBFC0FF6593001F04C
:103A700079FD00214FF0804001F0D4FD206200214B
:103A80004FF6FF70E081216108208DF800006A4642
:103A9000012140F2044001F025FE4FF47A63022236
:103AA000294600F03AFC4FF47A630322294600F0DD
:103AB00034FC0FF61830DFF88C1BDFF88C5B0090BD
:103AC00015230022102001F012FC01218DF80810AE
:103AD0000122002102A8ADF806108DF805208DF80E
:103AE0000410009001234FF4806200F05BF80DF1A8
:103AF00007000090012340F2024200F053F80DF15C
:103B000006000090012340F2034200F04BF80DF153
:103B100005000090012340F2064200F043F801A89E
:103B2000009001234FF4836200F03CF8DFF81C1B87
:103B3000102001F0DCFB00F031F80246DFF8101B2A
:103B400000F01DFA4FF0FF32DFF8081B00F017FA03
:103B50004FF0FF32DFF8001B00F011FA04F1800093
:103B600001F0A6FD04F18402DFF8F01A00F007FA74
:103B700000F014F80246DFF8E81A00F000FA00F04E
:103B80000DF80246DFF8DC1A00F0F9F9206A0FF6AA
:103B900010330022002101F079FD37BD217850203B
:103BA00001F08CBB2946102001F0A1BB2DE9FF419B
:103BB000FFF734FF0FF62C26DFF8AC8ADFF87C7AAB
:103BC00019E0B86A01F091FC040004D000F07DF81F
:103BD000204601F0E3F9B86AFFF7FAFE0028F0D0BA
:103BE0002EE04FF6FE7001F0B5FD386A334600F066
:103BF0008EFB002038714FF0FF33786ADFF86C2AB3
:103C00000021FFF7DDFE0500F5D00020029002AA9A
:103C100001A90DF1060001F043F978B9BDF80600DD
:103C2000102802BF9DF804003978884204BF02982A
:103C300000F01FF8029808B101F01DF96800CAD41D
:103C4000E90713D5002078833883F8820121797140
:103C5000B88B011FADF80C105020397801F02EFB05
:103C6000009003ABBA8A414600F04CFBA807C2D5CE
:103C7000B7E780B50178912909D0B02904D0D029BF
:103C800022D1BDE8024098E0BDE8024054E341780B
:103C90000E2902D0102911D001BD828841F20541C0
:103CA0008A4211D180680FF6644390F90310DFF85F
:103CB0008C09006A009100F08EFB01BDBDE8044054
:103CC0000021082001F0D0BE01BD7CB5DFF86C19E1
:103CD00004462288086A012A08D0022A0ED0042A43
:103CE00010D0082A26D0102A4CD073BD6068FFF788
:103CF000C0FF6068BDE8764001F0BDB8A178BDE8BE
:103D00007C4049E1646862884FF6FF70824253D07C
:103D1000012300F000FB00284ED02188606801F0EC
:103D2000A6FB6288DFF8481902B0BDE87040102099
:103D300001F0DDBA6168A2780978130008BF0FF6B8
:103D4000D83314D0012A07D111B90FF6DC330EE0B5
:103D500000910FF6E43310E0022A03D139BB0FF6CD
:103D6000EC3304E0032A22D121B90FF6F03300F03E
:103D700009F91CE000910FF6F8330022022101F04E
:103D800085FC14E062688D8A1178DFF8E86831B14B
:103D9000009600220FF6F033042101F077FC009624
:103DA00000232A46DFF8D018102001F0A0FA60683E
:103DB000BDE8764001F0F2B873BD2DE9F843DFF8B5
:103DC0007C480FF6F4090FF66C180546206AA978AE
:103DD0004FF0FF374FF6FE7661B1012944D0052937
:103DE00065D0062900F09780072900F0BA800D29D8
:103DF00011D0BEE06A89A283E81C01F083FB034670
:103E0000206A0022012101F041FC206A0FF69C0388
:103E100000F0B8F89CE0287B29690200E9D008444A
:103E2000421E00E001449142E3D211F8010B002848
:103E3000F9D00C78022C18BF032CF3D1491C401E7A
:103E4000C0B2012840F39780914280F094800C78B2
:103E5000F02C07BF4C78FF2C891C801EF0D12979EB
:103E6000681DBDE8F44350E3697889B96278E17070
:103E7000009202210FF64C03002201F007FC60784B
:103E800020B1206A0FF6500300F052FAA7705FE0ED
:103E9000122902D10FF6500306E00C2902D10FF6C9
:103EA0005C0301E00FF668030022032154E004F1F3
:103EB000500001F0ECFA6878F0B90221217101217B
:103EC0006889A0822172608B18B904F12C0001F07E
:103ED000CCFA206A0FF6400300F054F8281D01F0D8
:103EE00011FB00F023FAA28ADFF8901700F047F8E0
:103EF000BDE8F44308214FE000202071A6826071E4
:103F00000022206A0FF61C03022101F0BFFB687833
:103F100000F03CF82BE000202071A68260716083E5
:103F20002072A77004206072A88800F058FA206AF6
:103F30000FF60C0300F026F8A87900F027F801F03E
:103F4000A5FB00F0DAF9206A0022062101F096FBB9
:103F5000206A4B460022052101B0BDE8F04301F084
:103F600095BBE9780FF2E87300910022022101F07D
:103F70008DFBBDE8F183012800D1491C53E71020D7
:103F800001F0B5B90022022101F080BB0090434648
:103F9000206A002203217047002000BF2DE9F8416C
:103FA000DFF89846DFF8D86694F809E0206A94F9BB
:103FB00002C0E2780FF2AC770B4621791D0785B07D
:103FC0004FF0FF385FD500290FF2B4752FD1002ACA
:103FD00040F090810CF10103A37059B294F801E014
:103FE00071450EDB84F802803B46022101F04EFB56
:103FF000206A3B4600F09CF90FF2BC6300220521C9
:1040000060E1491C009102210FF25C7301F03EFB5C
:1040100094F90210B01C00EBC10001F073FA00F03B
:1040200085F9206A0FF24C7300F07CF927E0022931
:104030004DD1BEF1040F0CBF4FF0000E0EF1010E7A
:1040400084F809E01022072101F018FB617A206A48
:10405000042914D8DFE801F00306090C0F000FF261
:1040600030730AE00FF23C7307E00FF24C7304E088
:104070000FF25C7301E00FF26C7300F053F92B4602
:10408000002206211EE1DB0621D5002943D11CF1C7
:10409000010F1DD1002A1AD10121E17062700221A5
:1040A0000FF2507301F0F2FA206A3B4600F040F93B
:1040B00000F02BF900F034F9206A3B46002206217B
:1040C00001F0E4FA00220121032001F084FB11E158
:1040D000711CB01C00EBCC0511F83C600120207174
:1040E00004F1500001F0C1F92B46324600210020B6
:1040F00001F03FFB206A0FF20C73FFF743FF2846E5
:1041000001F000FA00F012F900F0F7F800206070FA
:1041100084F80280EEE00229FCD1A68ABEF1040FE9
:10412000F8D8DFE80EF003467F8BD300618B0029BF
:10413000F0D0207A0028EDD1E07920B300230122CD
:1041400012213046FFF748FC002802901AD0618BFC
:10415000A079ADF8041001220299ADF8062008708C
:104160000022ADF80C2000F0CCF9009001ABA28A3F
:10417000DFF8101500F0C6F8C0B290B1122101A806
:10418000FFF72EFCB6E0ADF8041000F0BAF900908D
:1041900001ABA28ADFF8F01400F0B4F8C0B2002836
:1041A00006D101202072E179481E8041C00FE071E4
:1041B000A0E0304600F02FF970BB0123324600F03A
:1041C000AAF80028F4D0304600F025F905004FF495
:1041D0007A7704D0686801F05AF92F8017E0E089F7
:1041E0004FF6FF71884216D1242000F0D6FE002839
:1041F000206110D0002101910022009200230FF2D3
:10420000054101F00DF9E68104F10C05A78139465D
:10421000686801F02CF96DE0304600F0E0F80FF22C
:10422000F0534DE04FF41670009000234FF44872A5
:104230004FF4C871304601F0BBFA5BE0122000F089
:10424000ACFE05003AD02B460022DFF8401400F007
:1042500064F828680FF2C85300900022206A0721F2
:1042600001F014FAA8880FF2CC5300900022206AC3
:10427000082101F00BFAB5F807000FF2D0530290B5
:104280000022697A01910921A8790090206A01F041
:10429000FDF9A87A0FF2D45304900022E97A039131
:1042A000287B0290697B01910A21A87B0090206AFB
:1042B00001F0ECF9284600F071FE1BE0DFF8D03386
:1042C00000220421206A01F0E1F913E003202071AB
:1042D000304601F03FFA206A0FF2AC53FFF752FE6E
:1042E000206A3B4600F024F800F00FF800F018F8C0
:1042F0000020607206B0BDE8F081206A002204212F
:1043000001F0BCB9102000F0F2BF206A3B46002249
:10431000042101F0BBB9DFF87C13102000F0E7BFE7
:10432000206A3B460022052101F0B0B90346206A0D
:104330000022032101F0AAB938B5C04D04462879FE
:10434000022841D16278286A2179162A03D1009186
:104350000FF2445330E00B2908D001290CD1217A07
:104360000A2916D1217B0FF2445317E0E1680FF2BE
:104370004C530A78009207E0132911D1A9790FF262
:104380005C5300914A1CAA7100F025F800202872A5
:104390001AE0122913D1217B0FF230530091F3E779
:1043A0007E2903D1217A0FF2445304E07F2906D1FC
:1043B00021890FF24853009100F00DF804E068796C
:1043C00010B1204600F030F8217904F10800BDE872
:1043D0003440FFF705BB0022042101F057B938B57E
:1043E000044600F018F8A0B14068944D01F04FF871
:1043F000E889A0420BD1286930B1FBF78BFE286910
:1044000000F0CCFD002028614FF6FF71E98100200B
:1044100032BD122032BD8949CA89824202D101F1DE
:104420000C0070470020704730B5844C6179012939
:1044300087B019D10079032861D10FF25C500FF2D7
:10444000BC430088ADF808001725206A0095FFF7E7
:10445000C2FF0221617100F054F801900220A28A8B
:104460008D49009002AB2CE0022930D10179072957
:104470002AD1018951B1C1680A784B7802EB032235
:10448000E2828A78C97802EB0122228340781A28D6
:1044900035D1E08A98B3032161710222218BADF8F6
:1044A00006108DF80820F1218DF80910ADF80400F0
:1044B000FF228DF80A2000F024F8A28A77490090A4
:1044C00001ABFFF71FFF1AE0012918D1E1E703292B
:1044D00015D10179092910D1018971B1C0680FF294
:1044E000BC43C178007901EB002161830022206A7E
:1044F000022101F0CBF8002020720021617107B089
:1045000030BD5020217800F0D9BE2DE9F0474B4D49
:104510006C78A246BAF1080F814688461CDA00265C
:10452000574F00E0761CF0B2A04209D2BB1C03EB4F
:10453000C0010622484601F033FB0028F2D10BE00F
:10454000B81C0622494600EBCA00FCF71BF8791C90
:10455000641C01F83A806C70BDE8F08780B50246B3
:104560000021012000F054F8401E8041C00F02BD20
:1045700038B50C461546012000F00FFD30B121463C
:1045800005700246BDE83840082041E031BD10B555
:104590001C46012000F001FD30B104700246BDE868
:1045A00010400021102033E010BD00002348406A75
:1045B0000221FFF709BA00002048406A0121FFF7F5
:1045C00003BA000001460022022021E053696D7009
:1045D0006C652043656E7472616C00000000000021
:1045E00000000000436F6E6E2E2045737461626C94
:1045F000697368656D656E742054696D656F757457
:10460000000000000D4901EBC0020C320021042023
:1046100070B504460D461646082000F0BEFC50B1A9
:104620000480857046600246BDE87040034B596ABD
:10463000986A00F040BF70BDE41200205C030020C7
:1046400051D50000FD81000025D200005507010072
:10465000792A0100A52501006527010049280100EC
:104660005188011031810110AD1F0100030000C00D
:1046700025AB001040E20100D11E010095AE0010F4
:1046800094160020292B0100252B0100F10C0100BC
:1046900084170100B17F0110A50E0100C12A01009D
:1046A000424C452043656E7472616C00496E6974BA
:1046B00069616C697A656400446973636F766572D9
:1046C000202D3E004465766963657320466F756EE4
:1046D00064202564000000003C2D20546F205365A9
:1046E0006C65637400000000494E56414C494420FB
:1046F000504152414D45544552530000434F4D4D9A
:10470000414E4420444953414C4C4F5745440000CE
:104710004552524F52000000436F6E6E65637465E0
:1047200064000000436F6E6E656374204661696CBF
:1047300065640000526561736F6E3A202564000065
:10474000446973636F6E6E65637465640000000096
:10475000506172616D205570646174653A20256402
:1047600000000000000000004465766963652025B4
:1047700064000000436F6E6E656374202D3E000080
:104780003C2D204E657874204F7074696F6E000068
:104790004741545420526561642F577269746520F3
:1047A0002D3E0000546F67676C6520526561642080
:1047B00052535349202D3E00436F6E6E65637469FA
:1047C0006F6E20557064617465202D3E00000000FE
:1047D000436F6E6E656374696F6E20496E666F20FD
:1047E0002D3E0000446973636F6E6E656374202D07
:1047F0003E000000446973636F766572696E672ED0
:104800002E2E0000436F6E6E656374696E67000044
:10481000525353492043616E63656C6C65640000BC
:10482000416363657373416464726573733A2030E6
:1048300078257800436F6E6E656374696F6E2049EA
:104840006E74657276616C3A20256400486F70560C
:10485000616C3A25642C206E787443683A25642C88
:10486000206D5343413A2564000000004368616EA7
:104870004D61703A202225783A25783A25783A25F4
:10488000783A257822000000446973636F6E6E6584
:104890006374696E670000004154542052737020A5
:1048A00064726F70706564202564000052656164F5
:1048B000204572726F7220256400000052656164A9
:1048C000207273703A2025640000000057726974EA
:1048D00065204572726F72202564000057726974FA
:1048E000652073656E743A202564000046432056A7
:1048F000696F6C617465643A202564004D545520DD
:1049000053697A653A2025640000000052535349E8
:104910002064423A2025640050616972696E672004
:10492000737461727465640050616972696E6720A6
:10493000737563636573730050616972696E672094
:104940006661696C3A20256400000000426F6E6465
:10495000696E67207375636365737300426F6E647D
:10496000207361766520737563636573730000005F
:10497000426F6E642073617665206661696C656460
:104980003A2025640000000050617373636F646512
:104990003A20256400000000F0FF000053696D70AC
:1049A0006C652053766320466F756E6400000000CE
:1049B000DFF800F02DB40110DFF800F0CDAC0110ED
:1049C000DFF800F02DC00110DFF800F0FDB101109C
:1049D00020B108233C220021FEF7EABF704780B5D2
:1049E000FBF7EAFBADF80000FBF728FBADF802008F
:1049F000009802BD01B5BDF80200FBF723FBBDF82E
:104A00000000BDE80240FBF7DBBB38B5DFF8B84972
:104A1000207801282CD001212170DFF8B029DFF89F
:104A2000B01989088900521AA26161610A4602E040
:104A3000002342F8043BA3695D18AA42F8D39B08FF
:104A400001EB8302002042F8040CE8230B60A0690C
:104A500080088000EC38C1F8E800E831A16000204F
:104A600000F007F8E060A1696069A060091F21619A
:104A700031BDF8B500240026051D15F003001CBF4C
:104A8000291D0D1AFFF7ABFFDFF83C2901465160E5
:104A9000112D34BF9368D3681868002803D580F0BF
:104AA0000040002619E0370013D02768D3F800C073
:104AB0006744AF42276010D33846ECB1401B04284E
:104AC00011D3605145F00040206013695D1B1561F2
:104AD00011E0A84214D201261C460344186800289D
:104AE000DBD1002408E0136920681B1A13612268D7
:104AF00042F000422260241D00F04DFA2046F2BD33
:104B00001C46DAE710B50446FFF769FFDFF8B8186E
:104B1000486054F8042C22F0004244F8042C0B693D
:104B2000D2180A61221F8B689A4238BF8A60BDE89A
:104B300010405FE72DE9F041FFF751FFDFF88818DB
:104B4000CA68486000240025002600270AE00E46B7
:104B50000125144605E02B00F9D02368CB1823600B
:104B60008E190A441168B046BE4238BFB8460029C3
:104B700005D0F0D581F0004100254746F1E7FFF769
:104B800039FF4046BDE8F08110B50446DFF838082B
:104B90008169216000696060FFF7CCFF09282CBFA4
:104BA00008380020A06010BDDFF81C180A69121A2E
:104BB000332A28BFFFF75DBF0020704780B5FFF79D
:104BC00024FF4BF6BE2002BD084652E7084699E78F
:104BD00002B56846FFF7D8FF01BD0120704738B520
:104BE0000446FFF7FCFE00220C23DFF8E8175343CE
:104BF000CD18A96C21B18C4206D0521C032AF3D3E4
:104C0000FFF7F8FE002032BDFFF7F4FE05F1480083
:104C100032BD70B50546FFF7E2FE044600210C22C6
:104C2000DFF8B0074A438618B06C48B1854210D00F
:104C3000491C0329F3D32046FFF7DCFE002070BD9A
:104C40003065B5640021FFF7B3FEF06408B900F0E9
:104C5000BBFF2046FFF7CEFE06F1480070BD38B519
:104C60000446FFF7BCFE0025DFF868270C216943E6
:104C7000515A21B18C4206D06D1C062DF6D3FFF798
:104C8000B9FEFF2032BD15E310B504462088FFF7BA
:104C9000E6FFFF2802D14FF0FF3010BD0C21DFF8F6
:104CA000342748431044816811B96FF0010010BDEA
:104CB0002046BDE81040084702460FF240701047FA
:104CC00038B500200C21DFF80C270024002501FB5B
:104CD00000F31344401C03289C641D65F7D3002097
:104CE000002301FB00F4401C13530628F9D3BDE850
:104CF00031408AE62DE9F8478FB081468846FEF7B5
:104D000013F905460027DFF8D06647451FD26846ED
:104D1000FFF75EFE09EB07114A6806928A6808925F
:104D200000220B680493C868059069463046FFF777
:104D300043FE040011D0FFF752FE82462046FFF7E3
:104D400068FF50B15046FFF755FE7F1CDDE728464F
:104D5000FEF7EEF810B0BDE8F08700F035FF00BFB9
:104D6000F8B56846052141604FF47A728260DFF839
:104D70006C16DFF86C260091C2600121FFF7BAFFC4
:104D800005B000BD38B504460D46FFF728FE0021EA
:104D900045F80C1C226812B9256006E00A4652F854
:104DA0000C1C0029FAD142F80C5CBDE8324021E627
:104DB00080B5FFF705FEFFF712FF10B96FF0040092
:104DC00002BD816809B9022002BD4068AFE0062833
:104DD0000ADA0C22DFF8FC355043185A00281CBFB1
:104DE0004FF6F872904202D14FF0FF3070470880C2
:104DF0000020704730B5DFF8EC552A680C464FF4B8
:104E00007A71A1FB0001002300F0E2FE002902D824
:104E1000B0F1004F02D36FF0020030BD20600020DF
:104E200030BD0146886849680847F8B505460E4612
:104E3000FFF7C6FDFFF7EDFE04000DD0FFF7CFFD35
:104E4000014600220C27DFF88C3557433B44188875
:104E500020B1521C062AF5D300F0B6FE4FF6F870CA
:104E6000002718805C609F602A706068306000F0E6
:104E700092F80020F2BD0C3844E670B504461546A1
:104E80001E460846FFF7EBFE0146FF2902D14FF010
:104E9000FF3070BD33462A462046BDE8704080E0B2
:104EA0007CB50546164600F09EF8040010D128880F
:104EB0006946C0B2FFF78BFF28B13068FFF7DBFF10
:104EC0006FF0050076BDBDF800002880FFF770FF89
:104ED000204676BD38B50546FFF772FDFFF77FFE29
:104EE0000446FBF7EFFB002818BF012800D014B9D7
:104EF0006FF0040032BD65B900200090009B60682F
:104F00004FF000420021FEF75BFD401E8041C00FC4
:104F100032BD15F1010F08BF4FF0FF30EDD06946EB
:104F20002846FFF767FF0028E8D032BD80B54FF074
:104F30000041FEF749FD002002BD2DE9F84305467A
:104F400000F095F9FFF765FE04006FF0020920D02C
:104F5000FFF745FD014600220C23DFF87804534398
:104F60000344188840B1854211D0521C062AF3D35D
:104F700000F02AFEBDE8F2831D805C609E603A70FE
:104F80006068C8F8000000F006F80020F2E700F0C2
:104F900002F84846EEE708462CE56AE5B2E503E686
:104FA000F2E52DE9F8430D46062DBCBF0446062860
:104FB000164699466FF0020806DAFFF710FD00F07A
:104FC000FBF919B9FFF716FD40460AE0FFF712FD9D
:104FD00000F0E8F9786840684FF00041FEF7F4FC13
:104FE0000020BDE8F2832DE9F04106460F469046C9
:104FF000FFF7E6FCFFF7F3FD050008BF6FF00400C4
:105000001BD0FFF7ECFCA968002441B10C46A4F1C9
:105010000C0100230A68AA60FF250B608D72FFF760
:10502000E9FC0CB9022008E0A4F10C000179317010
:1050300040793870C8F800400020BDE8F081DFF802
:10504000A813087800B1FEE77047FBF74FBB50B5D7
:10505000DFF8906332686FF00044A4FB0201002384
:105060004FF47A7200F0B4FD002902D8B0F1004F7D
:1050700000D3204650BD7CB50C4615461E466946F9
:10508000FFF7B8FE30B9009833462A46214600F0B3
:1050900002F8002076BD2DE9F0431D4689B02C684A
:1050A00080460E4617462CBB0C20FFF7E2FC04009E
:1050B0006FF0030918D00823242200216846FBF76B
:1050C00019F80020ADF810000590069400236A46F8
:1050D0004146DFF81803FFF777FC206030B9FFF78F
:1050E000AEFF2046FFF70EFD484617E06660A7605A
:1050F0002C600BE0DFF8F8623068804705462068D6
:10510000FAF7FCFFA7602846716888472068414687
:10511000FAF7F8FF2068FAF7F9FF002009B0BDE8B8
:10512000F08300281CBF0068FAF7E8BF7047E0B5BD
:105130008DF80400684600F0FBFD9DF805000EBDEB
:10514000E0B50190684600F029FE0EBDE0B5019083
:10515000684600F02DFE0EBD2DE9F84384B00446EC
:1051600000F085F8FFF73BFD054600200290FBF7B5
:10517000A9FA002818BF012800D015B96FF0040063
:1051800072E044B900200190FBF7B0FA8146019823
:105190000124814425E014F1010F08BF4FF0FF30D6
:1051A000F1D001A92046FFF725FE0028ECD05BE0F6
:1051B000039902A8FFF7E6FD68684FF00051FEF77B
:1051C00003FC0198012410F1010F18BF002808D03A
:1051D000FBF78CFAB9EB000031D0019981422ED354
:1051E0000190019B68684FF000520021FEF7E8FB38
:1051F00028B303AA69460DF10100FFF7F4FE04008D
:10520000DFD19DF801000DF10201FFF7E0FD00285C
:10521000CED1039A9DF80010BDF80200B0470028D7
:10522000C6D017B1BDF802003880B8F1000F1CBF1E
:105230009DF8001088F800100C9803990160FFF7A2
:10524000B7FD029EFFF7CBFB014656B1324600E0A8
:10525000024652F80C0C0028FAD1A86842F80C0C4F
:10526000AE60FFF798FE204605B0BDE8F0830E461D
:1052700017469846FFF7A4BB38B5FFF7A1FB0446D5
:10528000FBF720FA002818BF012811D0FFF7A7FB71
:105290000025504A0C236B43D15A39B1D1184968C3
:1052A0000B68A34206D06D1C062DF3D3FFF7A2FBBB
:1052B000FF2032BDFFF79EFBE8B232BDE0B5ADF88E
:1052C00000008DF8061000204A490A68ADF8020077
:1052D0006846904710B99DF807000EBDFF200EBD2F
:1052E0001078422801D101207047002070470CB48B
:1052F00078B504460E4687B0FBF7E4F90CAD0028FC
:1053000014BF0128FFF79BFE14200021FF22ADF8F7
:10531000100002918DF8122006960595FFF7ACFF5C
:1053200005AB03222146FFF7A8FD002001A901904B
:10533000009100230022304941F28830FFF70CFF32
:10534000012805D020B9019820B1FFF794FD01E0B4
:10535000FFF775FE0598006808B070BC5DF80CFB9F
:105360002DE9F8430D46062DBCBF04460628164617
:1053700099466FF0020806DAFFF731FB00F01CF8DF
:1053800019B9FFF737FB40460AE0FFF733FB00F09F
:1053900009F8786840684FF00051FEF715FB0020CF
:1053A000BDE8F283A9F10800047045708670494693
:1053B00078680830FFF7E6BC0C22064B02FB05F7C5
:1053C000DF19796870470000C0120020FF3F0020FD
:1053D000571C002054120020B94C0000411F01004E
:1053E0004C030020F42A010042090020234E000053
:1053F000240300202C030020E1520000894C00000F
:10540000DF490000F5490000DFF800F0A1B6011007
:10541000DFF800F035BD0110DFF800F019BD011014
:105420002DE9F04389B08046894617461D46109CF9
:10543000119E0823242200216846FAF75BFE4249A8
:1054400006964FF47A700A68B0FBF2F14D43059569
:105450004F43ADF810406B463A4649464046FAF78E
:105460005DFE404609B0BDE8F083FAF74FBE38B59F
:1054700004460D46FBF755F910B12046FAF73EFEFB
:1054800000F007F82046BDE83240FAF73FBEFAF7D1
:1054900035BE2D4A10684FF47A71B1FBF0F04543E8
:1054A00029462046FAF72EBE10B504460021FFF724
:1054B000ABFF204610BD70B505460C4616460C20C5
:1054C000FFF76BFD01000BD08E602846FFF7A0FFB1
:1054D00024B14FF080412046FEF776FA012070BDDE
:1054E0003046FFF75BFD002070BD10B50446FFF7A6
:1054F00093FFA04204D08468FFF750FD204610BD02
:10550000002010BDF0B585B00446684610A11422F5
:10551000FBF748F80D483025782605704670831C47
:10552000A21D062112F8015D2D09491E1DF8056016
:1055300003F8016B177807F00F071DF8075003F801
:10554000015BEFD105B0F0BDF42A0100D4160020B4
:1055500030313233343536373839414243444546A9
:10556000000000003EB50446294D05F1300105F16B
:105570003C0000F09BFDA8600FF2510100F04FFECF
:10558000A868244A4FF4E02100F04FFEA868224AA0
:105590004FF4E02100F049FEA868204A4FF0C051C6
:1055A00000F043FEA8681E4A4FF0C05100F03DFED7
:1055B0000020019000900023C8220FF2450105F160
:1055C0000C00FFF72DFF6C6037BD000010B5104CCC
:1055D000002121700D2000F0EAFD18B9207840F07C
:1055E000080020700E2000F0E2FD18B9207840F08D
:1055F0001000207004F10C00BDE81040FFF735BF2B
:105600000348416800291CBF007808477047000024
:10561000840200200D0005800E0005800D000010A2
:105620000E0000102DE9F04306461E4805785FEA9B
:10563000010908BF0FF2740981B000279DB1DFF89E
:1056400068804446BE4204D02068C1698847304221
:1056500005D02268536849462046984738B97F1CD0
:105660000C34AF42EED3002001B0BDE8F08307EB6D
:10567000470008EB800001B0BDE8F083002800D1AE
:10568000704710B50368DC68A04710BD002800D142
:10569000704730B581B004AC009404682569A84710
:1056A00001B030BDF0060100E4060100030000185F
:1056B0001FB5DFF8244300B1A060217800F075F831
:1056C00004F10C01039104F120026178029204F1CB
:1056D00010030193009102460823DFF8001300F045
:1056E00009F975E038B50B46114600244FF4806285
:1056F000801ADFF8E45208D0401E0CD0401E12D0B1
:10570000801E15D0401E1AD021E0102B15D110227A
:1057100005F1100004E0102B0FD1102205F120003C
:10572000FAF730FF14E0042B07D10868E8600FE0B7
:10573000012B02D1087868700AE0182408E039B11A
:10574000012B05D10878022802DCA87000E00224B1
:10575000204632BD1CB5A04A1178044600F025F859
:1057600013210091024623469D4900F0C3F8C0B2C0
:1057700016BDFEB51446984A0F46064611781D46DA
:1057800000F013F88DF800008DF801608DF80270BC
:105790008DF803400622294601A8FAF7F3FE6A466F
:1057A000904900F02EF8C0B2FEBD5020FFF786BD34
:1057B0001FB5069CADF80000ADF80210ADF804204E
:1057C000ADF80630ADF808406A46874900F019F890
:1057D000C0B204B010BD7CB516467F4A0D460446E3
:1057E0001178FFF7E2FF8DF800008DF801408DF889
:1057F00002508DF803606A467C4900F002F8C0B29E
:1058000076BD1020FFF773BD00B58FB008233C2292
:1058100000216846FEF7CCF8754800F150014FF4BE
:10582000DC7203230791089206936A4600230FF265
:105830000D01FEF7C1F80FB000BD00007FB5664D49
:10584000291D2846FFF7F1FA05F1100000901023FA
:10585000684C022200F04DF805F120000090102362
:10586000032200F046F800F03EF800F042F8624EE5
:1058700009E00178D02932D100F03FF804462EE04B
:105880000CB1FFF7F8FA68684FF0FF334FF00042B1
:105890000021FEF795F80028F5D00020029002AA1A
:1058A00001A90DF10600FFF7FBFA0028EBD1BDF8C6
:1058B00006000124102802BF9DF8040029788842C0
:1058C0000DD1029801884FF6FF729142D1D14088E4
:1058D000410404D500F007F8314600F00BF80298B7
:1058E0000028D0D0CCE705F10C000090042304225E
:1058F000704721461020FFF7FABCFEB50446364D2E
:10590000A17841B1052921D006292DD00C2931D00B
:10591000112936D054E06078002851D1364E05F177
:1059200010070097102302223146FFF7E3FF05F12D
:1059300020010091102303223146FFF7DBFF0622EE
:10594000E11C05F13000FAF71DFE39E0607800280F
:1059500036D108210191231D60892849009010202B
:10596000E278FFF7C4FC2BE0A28825491020FFF75E
:10597000BEFC25E0237BA28822491020FFF7B7FC5C
:105980001EE0A8782049012810D1A088ADF80000B9
:105990000123E288ADF802202089ADF80400608977
:1059A000ADF80600A289ADF8082004E040B9A2884D
:1059B000ADF8002000238DF80A306A46FFF721FF7A
:1059C000A86800281CBF0168002902D0204688472B
:1059D000FEBD0120FEBD0000CC0200201D1801000C
:1059E000E514011035FA00007D1501109505010040
:1059F0004410002085800000C380000035F80000BE
:105A00006DE20000D5E1000005160110DFF800F09E
:105A1000B1BE011010B50FF25100384C00F05CFC23
:105A2000374800F07BFA01220121204600F066FC95
:105A3000344A136820465C680121A047324C334841
:105A4000E26801681160FFF702FBE1684860FFF758
:105A500037F9FFF785F9FFF7D7FEFDF7C5FFFFF729
:105A6000D5FF002010BD00007CB5294E04463068EB
:105A70000D4628B900214FF00040FFF7D3FD3060FC
:105A80000022306825A30021FFF700FED6F80000B1
:105A900026A3022C0FD0042C02D0052C16D01BE01C
:105AA00000F038F824A3306802B0BDE8704000224E
:105AB0000221FFF7EBBD012D04D100F02BF800BF50
:105AC00022A3F0E700F026F826A3ECE700F022F886
:105AD000D6F8000028A304E000F01CF8D6F8000077
:105AE00029A300220221FFF7D1FD01208DF800003B
:105AF0009DF800000028FBD173BD0000004003406A
:105B000088220100D80100104C030020F42A010073
:105B10007C03002000220021FFF7B8BD3E3E3E532B
:105B20005441434B20415353455254002A2A2A459D
:105B300052524F522A2A2A003E3E204F5554204F9F
:105B400046204D454D4F5259210000003E3E204910
:105B50004E5445524E414C204657204552524F52CA
:105B6000210000003E3E20494E5445524E414C20FB
:105B70004552524F522100003E3E204943414C4C79
:105B80002041424F525421003E3E2044454641555B
:105B90004C54205350494E4C4F434B2100000000C1
:105BA00003000020521E22BF13F8010B11F801CB95
:105BB000B0EB0C00F6D0521C08BF10467047000036
:105BC000DFF800F01D9A01100120FFF7F9BF000077
:105BD000D3BBD9B1B2F5803F5BD2022A1ED98C4625
:105BE000B1FBF2F102FB11C31B0443EA1043B3FB08
:105BF000F2FC02FB1C3380B240EA0343B3FBF2F039
:105C000002FB103240EA0C4000237047022A05D9FB
:105C10008446B0FBF2F002FB10C270474AB105D1D6
:105C200000F0010249085FEA3000704700220023BB
:105C3000704700F06FBB0B0002000021002070478E
:105C4000F7D3002200237047904271EB030CF2D38C
:105C500070B5B1FA81F4B3FA83F52C1BA340C4F1FB
:105C6000200532FA05F63343A2405FF00046E640D5
:105C700002E05B085FEA3202841A71EB030524BF7D
:105C8000204629467641F4D302000B003000002163
:105C900070BD70B5B1FA81F4B2FA82F5C4F1200496
:105CA0006419B4F12006DAD3B2405FF00044F44046
:105CB000002502E052085FEA3303C61A71EB020EB8
:105CC00024BF3046714664416D41F3D302000B009E
:105CD0002000290070BD011810B5044601E0FCF752
:105CE00083FEB4FA84F0C0B2202806D000F018F881
:105CF000F5DB401FFCF78DFEF3E710BD10B5044641
:105D000001E0FCF70CFEB4FA84F0C0B2202806D003
:105D100000F006F8F5DB401FFCF717FEF3E710BDB7
:105D2000C0F11F00C0B2012181404C4005287047DE
:105D300038B5044601206071244D2079A8B1FEF7E2
:105D40004EFE04462878FF2805D12046FEF752FE75
:105D50006FF0060032BD401C2870C0B2012804BF9D
:105D60006868FFF7B9FF204614E0FEF738FE29788F
:105D700021B9FEF73FFE6FF0070032BD491E2970C2
:105D8000C9B239B9FEF736FE6868FFF7B7FF0020E1
:105D9000607101E0FEF72EFE002032BD80B5406844
:105DA00010F07F4F00D00DE0FFF796FF002002BDFE
:105DB00080B5406810F07F4F00D003E0FFF79EFFF2
:105DC000002002BD6FF0020002BD0000340300207D
:105DD00090FAA0F0B0FA80F0704770B5FAF72EFA9A
:105DE00005460026DFF8A4440EE025FA06F0C007B9
:105DF00009D5211DF2B251F8220020B1026811002C
:105E00001CBFF1B29047761C2068F1B28842ECD2F8
:105E100070BDDFF87C04DFF87C240168DFF87804CB
:105E20001160FAF714BA2DE9F84F5FEA01085FFA3A
:105E300088FA44BF88F0204181F4C048DFF85C1440
:105E400001EB8A0104460A68DFF8540404EA0806F4
:105E500088EA0203A24306402340324304F4E020D0
:105E60001B0EB0F5E02F03F0010302D1D00105D4E1
:105E700011E014F4E02F08BF002B0CD002F4E02056
:105E8000B0F5A02F04D0B0F5C02F04D1052000E05C
:105E9000062060F312420126DFF8F893DFF804547D
:105EA00006FA0AF6C9F800600A600AF180402F6815
:105EB00027FA0AF700F5083A17F001074FEA985059
:105EC00000F0010B03D1600248BF8AF800B0210244
:105ED0000CD5FAF7F4F829685FEA08224CBF32467D
:105EE0000022B14311432960FAF702F91FB16002A1
:105EF00048BF8AF800B0C9F80060BDE8F18FDFF84C
:105F00009C2302EB80020029106848BF0021800911
:105F100001F03F0141EA8011116070472DE9F84717
:105F200087B08146FCF760FCDFF88003DFF8806310
:105F3000017800F00DFA002400281CBF01280C286D
:105F40004FF0000A07D00D280DD00E2802BF052003
:105F500030621F240AE000F0DFF9022806D1012098
:105F60003062012402E0032030620724DFF844039A
:105F7000C2680121C2F38152012A04D10068000ED7
:105F800001FA00F00443DFF82023DFF80073136800
:105F9000326A03F07F039B185B1E3B600020FF25E5
:105FA0003554401C8342FBD2D44659F82C0000F0F3
:105FB000FF05FE2D3AD000F0FF08B8F1FF0F0ED01C
:105FC000AB4228BF95423FD324FA00F85FEAC87875
:105FD0003AD401FA00F006F805C040EA0A0A0CF1CA
:105FE000010CE2E72AFA05F0C00759BF05F0FF01EE
:105FF00041F4C041715D59F821104046FFF713FF8D
