:2000000000400020F9DA000001C9011001C9011001C9011001C9011001C9011001C901108B
:1C00200001C9011001C9011001C9011001C9011001C9011001C901103FC9011089
:20003C002DE9F04FADF12C0D00F0F6FBB348B14D4FF00009C846A4380790A868AE4A49463E
:20005C004FF0FF3300F0D8FB0028F6D0484605900DF11A0105AA06A80EF0DCFC002840F09B
:20007C008980BDF81800012710287ED128789DF81A10884279D1059C20884FF6FF718142AB
:20009C0073D02678913E5DD01F3E6ED1607816282CD020797E281DD07F280FD000904846E9
:2000BC004E4601904A46029640F2AD410392B0A304963A46AAA00AF07DF834E020890090AF
:2000DC004E4601964A4602924FF495610396B2A30492EEE7207A00904E46019640F2A341B8
:2000FC00029603220396B3A30496E3E720794E46009040F28B41019602220296BCA30396CE
:20011C0097A0CDF810900AF055F86E6A8EB94FF6FD70CA49CA4A00904B46102006F0FAFCAB
:20013C006E6AC3B22BB1217904F1080000F068FB1BE046F0010638466E6208F0C5FF4F46B9
:20015C002C6112E060780E280FD1CDF8009048464E464C46019040F26E413A460296C7A319
:20017C0003947FA004960AF025F8059810B10FB110F0FDF8E86800F047FB00287FF45DAFC0
:20019C00E86800F045FB014601F10904097A0890002900F08581491E00F0B280491E00F063
:2001BC009580491E00F0A282491E64D0491E43D0491E03D00A3900F094829AE2686A400865
:2001DC00C0F097822F69002F00F09382A87807F10806401CA870C14900967A883B7910204E
:2001FC0006F098FC5FFA80FABAF1160F14D06F6ABAF1040F10D037F001076F6208D14FF63D
:20021C00FD708E498E4A00900123102006F082FC504608F059FF6CE2286900790090A87860
:20023C004F464E464C46019002220297B9A3039640F2F741049419E1C77A00F10904002F3A
:20025C000CBFC0A0C2A000904E464F4640F2EE214846019001220297BFA3039640A00497AA
:20027C0009F0A8FF484600909B4922884B46102006F050FC3DE200F10904407A0D2814BF34
:20029C00C2A0C5A06778002F0CBFC6A1CAA14E460122CEA300904F4601914846029040F29F
:2002BC006E3103972EA0049609F084FF27780D3F09D07F1E40F01D8201200146641C224685
:2002DC0005F0BAF815E201214846F7E7278841F2101022463F1A06D0103F40F00A82207999
:2002FC006188641DEBE710795188521D07F0B6FBFFE1C046C00700200F0000C0E808002081
:20031C0027880FF2D02CB8A2BDA1B7F5895719D0103F40F0EE81B4F8050040B1401E04D026
:20033C00401E08BFCDF824C002E0099200E009912079012840F0DD81099ED0A0D3A740F2C9
:20035C0047418AE0B4F8050000287BD0401E04D0401E08BFCDF828C075E00A9273E0C0461D
:20037C0070726F6A6563745F7A65726F2E6300C052656365766965642047415454204D65B1
:20039C0073736167652E204F70636F64653A2030782530327800C0464D54552053697A65CE
:2003BC00206368616E67653A20256420627974657300C046466C6F7720636F6E74726F6CB2
:2003DC002076696F6C617465642E204F70636F6465206F66206F6666656E64696E672041BB
:2003FC005454206D73673A2030782530327800C04F7574676F696E67205246204649464FC9
:20041C002066756C6C2E2052652D7363686564756C65207472616E736D697373696F6E2004
:20043C006F66206D73672077697468206F70636F64652030782530327800C046E1D0000070
:20045C0087FD00000A912779A7B17F1E40F05181C9A740F2E931C4A00A9E00900197029642
:20047C004C4603944B460493A4A30122AA4809F0A1FE3EE1BAA740F2DE31ECE74843492093
:20049C00436F6D6D616E6420436F6D706C657465204576656E74207265636569766564009F
:2004BC00278841F210103F1A00F0B380203F40F020812779A7B17F1E40F01B8160790090A8
:2004DC00A0790190E0794F464E460290ACA3039740F219410496C8E765EA0000DDFE00104A
:2004FC00C448494628220BF073FBC248641D272221460AF085F9BF4E97A760A000904C4672
:20051C0001974A46029640F212410394ABA30492ABE7C0465265747279696E67206D6573AE
:20053C00736167652077697468206F70636F6465203078253032782E20417474656D707495
:20055C0020256400446973706C6179696E6700C053656E64696E6700426F6E644D67722071
:20057C005265717565737465642070617373636F64652E2057652061726520257320706130
:20059C007373636F6465202530366400427574746F6E203100C046C0427574746F6E203050
:2005BC0000C046C01B5B33336D72656C65617365641B5B306D00C0461B5B33326D70726523
:2005DC00737365641B5B306D00C046C0257320257300C046496E6469636174696F6E73208C
:2005FC00656E61626C6564004E6F74696669636174696F6E7320656E61626C656400C046C9
:20061C004E6F74692F496E642064697361626C656400A178079A601D0CF0BCF82779661D78
:20063C000FF2B41B0FF2B41A002F33D07F1E60D144A0009046A701976D4F40F2A93101221B
:20065C005EA302974F4603973348049709F0B2FDA869627907210DF0B5FE377807B1D346B3
:20067C0034A000904E46CDF804B04F4602974C46039640F2B131049431E0C0464461746157
:20069C00205365727669636500C046C053747265616D00C0564C2BA0009024A7019740F2C9
:2006BC009A31012245A302944F4603971A48CDF8108009F07FFDA869327806210DF082FEF8
:2006DC00377807B1D34615A00090CDF804B04F46CDF808804E46039740F2A231049640A32E
:2006FC00C3E60820494603F0DDFB02E0407A05F0AFFF08980EF008F83CE5C04643434344A2
:20071C00204368616E6765206D73673A2025732025733A20257300C07C0300001B5B33313B
:20073C006D4C4544301B5B306D00C0464C45443000C046C01B5B33326D4C4544311B5B3053
:20075C006D00C0464C45442053657276696365004C45443100C046C0537472696E6700C041
:20077C00425554544F4E3000427574746F6E205365727669636500C0425554544F4E310017
:20079C0056616C7565204368616E6765206D73673A2044617461205365727669636520533B
:2007BC00747265616D3A20253032783A253032783A253032782E2E2E00C046C056616C7551
:2007DC0065204368616E6765206D73673A2025732025733A202573006F6666006F6E00C057
:2007FC005475726E696E6720257320257300C04644080020E8080020DFF800F0F99B011098
:20081C00DFF800F089840110DFF800F04FBF0110DFF800F0F1BF01102DE9F04F914C04F142
:20083C0008012046ADF1940D0CF06EFE0FF2741A00200746009040F2C111019701220297A2
:20085C005CA303975046049709F0B4FC04F1480528463946E76100F025FB04F1600004F138
:20087C006C01E56009F040FEA06170B90097384601904FF4E9710290032203905DA3049028
:20089C00504609F097FC00F011FB04F1540004F1780109F029FE606178B9009738460190AF
:2008BC004FF4EC710290032203905BA30490504609F080FC00F0FAFA60696B490FF0A5FC94
:2008DC0070B10097384601904FF4EF7102900322039059A30490504609F06CFC00F0E6FAF1
:2008FC0005A839462422082300F0E4FA604E4FF47A7832250D20DFF8749132680B9005AB49
:20091C0004F1E000B8FBF2F18AB26A43494600F0D5FA0E2031680B9005AB04F58270B8FB69
:20093C00F1F189B24D432A46494600F0C7FA0125ADF83C7040F205300DF18E028DF88E506F
:20095C00294603F029F840F2063002210FAA03F023F8621C4FF44270294603F01DF804F1C7
:20097C00940240F20730142103F016F804F1BD00394620220BF02CF904F1940604F1BD084A
:20099C003846325C401CC0B231180B78092B18BF082B01D11F2A6DDB8018C0B22028F0DBD7
:2009BC006DE0C04670726F6A6563745F7A65726F2E6300C0496E697469616C697A696E6776
:2009DC00207468652075736572207461736B2C2068617264776172652C20424C4520737428
:2009FC0061636B20616E642073657276696365732E00C0464572726F7220696E69746961F9
:200A1C006C697A696E6720626F617264204C45442070696E7300C0464572726F7220696E2F
:200A3C00697469616C697A696E6720627574746F6E2070696E7300C04572726F722072650F
:200A5C00676973746572696E6720627574746F6E2063616C6C6261636B2066756E637469FC
:200A7C006F6E00C0C0070020E9A9000079B90000E41A0100491C521E404609F0C1FECDF83B
:200A9C0000803E46019750464FF4047102962A460396C5A3049609F08DFBC14F10200622C4
:200ABC00A023394606F036F810200722A023394606F030F810200822A023394606F02AF847
:200ADC0010200922A023394606F024F810202A461E23394606F01EF88DF88F500EAF8DF839
:200AFC00905028468DF892004FF481620E9604238DF89160AB4D00971020294606F00AF8E8
:200B1C000DF18F004FF48062012300902946102006F000F824A840F2024201230090294661
:200B3C00102005F0F7FF0DF191000090294640F203420123102005F0EDFF0DF19200294645
:200B5C0040F2064201230090102005F0E3FFC24910204FF0FF3205F0DDFFC04910204FF050
:200B7C00FF3205F0D7FF1027DFF8F492BD48BE4A0097132349460190384605F0CBFF04F19D
:200B9C00A80032461523B9490090384605F0C2FFBB46B848B64FCDF800B005234946019058
:200BBC0007F10C02584605F0B5FFB0463546052000908BA30195BA2102950122039584A091
:200BDC00CDF8108009F0F6FAAB4E94F800A0307880000FF006FCA94D0146E96039B34FF6B6
:200BFC00FF700DF077FD307880000FF0FAFB01462961E1B14FF6FF700DF06CFDA0495846D9
:200C1C0005F11402009007230191494605F082FF474607200090E02101970122029770A3AF
:200C3C00039778A0049709F0C5FA85F800A03078277880000FF0D5FB924E0FF2DC190146C3
:200C5C00F160D9B14FF6FF700DF044FD584600908D490191824906F14C02062305F05AFF8E
:200C7C000620009040460190CD210290012203905BA30490484609F09DFA37707C4904F144
:200C9C003000474688600FF2A01800900122019743460297C92103974DA0049709F08AFAE4
:200CBC0004F13800A8603D460090F1210195012202954346039553A0049509F07BFA04F15E
:200CDC004000B060DE210090012201953E460296434603964846049609F06CFA0DF13E005F
:200CFC00282239460AF074FF68490DF16600282209F086FD01210DF13E02384606F0AEFE47
:200D1C0001200DF13E02014606F0A8FE384601210DF13E0204F090FB01200DF13E02014672
:200D3C0004F08AFB384628210DF1660204F070F8012014210DF13E0204F06AF8544D697829
:200D5C002878A1B904F1200129620EF087F805F154070096024605F14400019005F11C0350
:200D7C0002974C490393AB78584605F0D3FE4A4904F12802584605F0CDFE20780EF06EF800
:200D9C0046490246584605F0C5FE20780EF066F843490246584605F0BDFE25B0BDE8F08FFB
:200DBC00F9E80000B54700004E616D6520696E206164766572744461746120617272617963
:200DDC003A201B5B33336D25731B5B306D00C0466C65645F736572766963652E6300C04687
:200DFC005265676973746572656420736572766963652C20256420617474726962757465EF
:200E1C007300C046627574746F6E5F736572766963652E6300C046C0646174615F736572B7
:200E3C00766963652E6300C0526567697374657265642063616C6C6261636B7320746F20AD
:200E5C006170706C69636174696F6E2E2053747275637420257000C005F40000ADF60000FE
:200E7C0005F00000501A010064100020F9B60000E81700207C170100694F0020781600207A
:200E9C00F81601003015002024170100CD160100800C00205BDD00001DF9000051880110BE
:200EBC0031810110DFF800F0A1B60110DFF800F019B10110DFF800F0C1BF0110DFF800F063
:200EDC0069B201102DE9FE430DF05CFBDFF80481814608F1020000880027001F84B2042CCD
:200EFC005ADBFF254FF6FF762046694604220DF0DBFDBDF800309E4237D0002B35D0D80BD4
:200F1C00C2032FD19D422DD0381FDDB280B2042815DBB0F5805F12DA00F18852126801A981
:200F3C000A60BDF804108D4207D0BDF80610401A001F80B20428ECDA01E0012300E000234C
:200F5C00BDF802001BBB211A001D8BB282B207F1885118460DF0A8FDBDF80200C119091D97
:200F7C008FB214E0BDF8020011E0BDF8020003466FF30E0363B9011D8C4208DA00200EF0FD
:200F9C0067FD48460EF048FD0020BDE8FE83241A241FA4B2042CA7DA0CF028FE3FB10C48CC
:200FBC004FF088513A460FF0B4F90EF0A5FF48460EF032FD4246507800281CBF0020011CE4
:200FDC0003D1C7F58054391DA0B25180BDE8FE8304E001008C1C002008B5014688684968A0
:040FFC00884708BD5D
:20100000B41200001810000015AB0110FDB301106DC00110FDAE011099B5011000000000F7
:08102000000000002D0000009B
:20102800B01200003C100000B1C00110A9BF011067C0011069B80110000000000000000035
:041048003000000074
:20104C00B012000060100000BDC00110CDB30110D9BD01106DB3011000000000000000005B
:04106C00310000004F
:20107000000000001C1C002004000000000000000000000020000000E8C9011030000000F2
:2010900028100000241C00200400000000000000000000000C000000D8CA011018000000CD
:2010B0004C1000002C1C002004000000000000000000000024000000F0CA01101800000051
:2010D00000000000341C00200400000000000000000000001000000018CA01102C0000005D
:2010F00000100000441C0020040000000000000000000000200000006CCA011024000000C1
:20111000FFFFFFFF4C1C00200400000000000000000000002800000090CA01102400000080
:20113000FFFFFFFF541C00200400000000000000000000001400000008CB011018000000FF
:20115000FFFFFFFF5C1C002004000000000000000000000058000000B4C9011034000000CD
:20117000FFFFFFFF641C00200400000000000000000000001000000020CB0110180000009B
:20119000FFFFFFFF6C1C00200400000000000000000000001C000000B4CA011024000000C8
:2011B000FFFFFFFF741C00200400000000000000000000003800000044CA011028000000F0
:2011D000FFFFFFFF7C1C00200400000000000000000000005400000078C901103C00000065
:0811F00002000000AC1A01002E
:0411F80001000000F2
:0411FC0000000E00E1
:0412000000000F00DB
:0412040032000000B4
:0412080001000000E1
:04120C00701B002033
:0412100000020000D8
:0412140000000000D6
:0412180001C90110F7
:04121C0000000000CE
:0412200000000000CA
:0412240008000000BE
:0412280000002200A0
:04122C00C0190020C5
:0412300000000000BA
:0412340000000000B6
:0412380008000000AA
:04123C00301B002043
:0412400000000000AA
:0412440000000000A6
:04124800080000009A
:04124C00000000009E
:04125000000000009A
:041254000000000096
:041258000000000092
:04125C00010000008D
:04126000581A0020F8
:041264000600000080
:041268000100000081
:04126C00F418002052
:04127000000000007A
:041274000000000076
:041278000002000070
:04127C00000000006E
:02128000290043
:02128200010069
:02128400250043
:02128600300036
:02128800310033
:02128A002D0035
:02128C0001005F
:01128E00015E
:0812900003000000681A0100D0
:0812980000000000000000004E
:0412A0000000010049
:0412A4000000030043
:0412A80013C401105A
:0412AC000BFE000035
:0412B000B812000070
:0412B400B81200006C
:0412B8000000000032
:0412BC00E41B00200F
:0412C000AFFF00007C
:0412C4002000000006
:0412C800B019010058
:0412CC009C18010069
:0412D00029C101101F
:0412D40063EA0000C9
:0412D800BBF3000064
:0412DC00A1C7011095
:0412E000A3C701108F
:0412E4000000000006
:0412E800EB180100FE
:0412EC008415010064
:0412F0009C15010048
:0412F4006C15010074
:0212F8000200F2
:0212FA000900E9
:0212FC000100EF
:0212FE000000EE
:0113000001EB
:041304003DFF0000A9
:0413080081E600007A
:04130C0001F50000E7
:04131000C9E9000027
:04131400B9E6000036
:041318009DD900005B
:04131C00A5B2000076
:04132000F5010100D2
:0413240071CE000086
:0413280015C70110D4
:04132C0025C70110C0
:201330002DE9F04FD44C04F118012046ADF1340D0CF0F0F800264FF6FF706670012120827D
:2013500004F1A4000DF068FA022104F1C8000DF063FA042104F1EC000DF05EFA4FF0040AA3
:2013700004F1440810224046314684F802A00AF035FC04F154091022484631460AF02EFCF7
:2013900004F11C073E6004F10A052E70E671267207206072CDF80080DFF8F8820222102013
:2013B0000346414605F0BCFB102003224146CDF80090034605F0B4FB10205246414600979D
:2013D000134605F0ADFB4FF0080B4FF0030905F12A00079005F17900089005F11E000990FF
:2013F00005F15A000A9024350B9517E06078A28FE18FB4F84050B4F8423006280ED1ADF87E
:201410000A20ADF80C10ADF80E50B948ADF810300FF001F8012002A90AF09EF8A069B34A8E
:2014300031464FF0FF33FFF7EDF9071CF6D0059606A80DF11A0105AA0DF0F2FA002840F09D
:20145000BD81BDF818102078102940F0B3819DF81A10884240F0AE81059D29884FF6FF723B
:201470008A4200F09C812B78A23B00F07F812E3B40F0A081A978B046002900F03B81891EC6
:2014900000F00A81491E012940F2D980891E00F09C80491E6FD0491E5CD0083900F05681B1
:2014B000891E40F0598194F83A30A888052BADF8080047D001208DF812008D480EF0ABFF1C
:2014D00094F83A0001281ED004281CD003280DD002280BD00598C188ADF80A100189ADF826
:2014F0000C104189ADF80E10818927E0A08FE58FADF80A00B4F84030ADF80C50B4F84210B5
:20151000ADF80E301AE0A08FE9888842D8BF081CADF80A002989E08F8842D8BF081CADF8BF
:201530000C006989B4F840008842D8BF081CADF80E00A989B4F84200884200DC0846ADF8C0
:20155000100001E08DF81260A849102002AA05F0E7FA01E1A6480EF05EFF6B78002B40F087
:20157000FB80E88860822889A0826889E08260480EF06EFDF0E0AA88B449102005F0D0FA69
:201590000798414606220AF029FB6682A682E682A879207356480EF03EFF95480EF03BFFB5
:2015B0004FF001084FF6FF702379208253B9A879082812BF84F801A00520607040460EF01D
:2015D00077FDC9E084F80190C6E06B787BBB291D07980A680260898881800623637068895A
:2015F0002082E8896082288AA082688AE082E878E07294F83A00012818BF02280BD199495E
:2016100010201F2205F08CFA4FF47A7180B2414337480CF031FF688900909149CDF804A07B
:20163000EA7810202D1D2B4605F07AFA97E06878312840F08880E67084F801A08FE06B7837
:20165000002B40F08080A878E3896178032815D0E078257923B9012814BF2671E67006E009
:20167000054304D0804819460CF006FF61780729E2D10620607072E0800C0020062907D060
:20169000E578002D08BF84F8019068D00220F1E70720EFE7E1F800006B78002B53D1EB783F
:2016B000617893B902291DD007291BD0062902D12079012816D1032914D06B480EF0C8FC92
:2016D00080B901200EF0F4FC0CE00DF0CDFB0246A07962490090089843460190102005F086
:2016F0001FFA68706D78002D2DD135E007000080480D00206B7833BB5C48574900900222FF
:201710001020034605F00CFA59484A46524900901020034605F004FAED1C099829680160E1
:20173000A98801238180207863700DF09DFB024601230A9D6079494900901020019505F07A
:20175000EFF9C0B258B184F801B008E0AA8841491020052305F0E4F9B8F1010F2AD1256AD8
:2017700045B32D6835B36078A84723E06879132820D12889012808D1607B022805D11C481B
:201790000EF049FE0DF07EF914E036491020052205F0C6F981B216480CF06EFE0AE068882F
:2017B000C00B07D3334852462B4900901346102005F0B6F9059808B10EF0DFFD2579E0780A
:2017D000790830D355EA00032DD0204600788DB9E179257A8DF808100B9A8DF8095013687E
:2017F0000DF10A052B609288AA8005E0051601106C0D00208DF80890617A8DF81010A17A9B
:201810008DF811100DF030FB1149024602AB102005F086F938B1256A84F801B01DB12D68EF
:201830000DB15846A847B80803D31349304609F093FEF808FFF4F2AD607B401E3FF4D6ADDA
:20185000401E7FF4EBAD0DF01DF9E7E5D5D4000059440110C1170110D58600000945011036
:20187000BD91000055FC0000240D0020C40C0020D40C00209C0C0020BA0C00202DE9F04F75
:201890000F46CD4C0168E16241688068ADF11C0DE060C548A1608047C448E16A0160A168F0
:2018B000DFF810A34160E168DFF804938160CE49002FA346C1606FD03D68E8788DF80C0030
:2018D00028798DF80D0003A80FF0E0F8A86808B1C6490160E86808B1C5490160C54C2878E1
:2018F00020706878BE686070A878B268A0703178A2607368E1702E696360EA69266279683B
:20191000E2620868E06068696062A8697B68A062286A9E68206395F8240084F834001EB9E7
:2019300000200EF09BF800E066617868C06818B900200EF093F800E0A0617868006918B9C2
:2019500000200EF08BF800E0E0617868406818B900200EF083F800E0206128692062F868EF
:2019700081680E6806B9D24ED0494FF001084E60C66881F8018036B900200EF06FF84D46DB
:201990002E68F86801E04D462E6000685446FB68A0615868E06107E000200EF05FF84D46E9
:2019B0002E684FF001085446361DC749366804F1080350205246B04710B12868806880479F
:2019D000DBF808008047C24E002781463B46BF487770694660610422337038460DF06AF8D2
:2019F0000098B0F5801F0CD020B90DF05BFBFFF76FFA08E00CF000F90EF084FA0420708027
:201A100001E00DF04FFB3846BA4EE0602B68B760986980477060AF4880F800803946418057
:201A300014200EF04DFBFF211422A0620EF0FBFCE01CFF2102220EF0F6FC14200EF040FB32
:201A5000A54F38603868002114220EF0ECFC002000F052F940460CF0CDFBA0480188FF29CF
:201A700006D1022101807822001D00210EF0DBFC03200FF007F804200FF000F805200EF0CF
:201A9000F9FF06200EF0F2FF07200BF0BBF9944E0820307006F124000EF0E4FF0BF070FB47
:201AB00006F1360A05200A2152460DF011FF38B10020C0F10901401C0AF8011B0A28F8DBA7
:201AD0003078102107F0FCFE2B68864909200DF10E025E68087001AB10200021B047A06A57
:201AF000DBF80C10E2690A260A309DF80E30761E00F8013BF9D1921E4846E261884704F188
:201B100020002B68626A059040461E69DFF8D88104F120034146B04710B1286880688047CE
:201B3000B8460DF0E1FB5FEA000903D009F046FA4FF0FF39002643E00298616910F8062C02
:201B5000A0F10C07032A03D1002939D0884737E0A16A9DF810C00A223046491E11F8013FF6
:201B70009C4506D0521E00F10100F7D14FF0FF0A01E05FFA80FA2868BAF1FF0F00F1080036
:201B90001CD038790CF020FDB979012904D0022904BF0299887001E00299087002995046A9
:201BB0000DF0DCFD0CE0C04641490010F8440020981C0020B81A0020DC1500200068804751
:201BD0002868C36904A902AA0DF10F0098470028B2D0D8F800007700C35B6BB9761CF6B287
:201BF0000A2EF8DB2BE0C046A40A0100ADEF000025FC0000881900200A2E20DADBF808007F
:201C10008047D8F80010002231F807A0CA53DBF80C108847354850F8262066705146304652
:201C300090470646FF206070DBF808008047D8F800107A5A16437E52DBF80C1088470DF048
:201C500053FB0746B9451AD0DBF8080007B9284FE169B94238BF0F1C804781462868016AEF
:201C7000206A8847626A28681F49059B521C6262C6683846B047DBF80C1048468847E76827
:201C90002968A0681431AFB9D8F800000A270026835B33B10969A06888472968D8F800005B
:201CB00014317F1E06F10206F2D107E0FC1B00201BC30000096988472968143109684FF0AD
:201CD000FF3088472DE7C04695F400009DFC00008C1C0020901C0020A4250020FC1600200B
:201CF00094110020B625002011E60000241801008EC2F528542500202DE9F84FDFF8BC13D7
:201D1000DFF8BC23DFF8BC5308700821002010600D23DFF8B40340F2353201704380828059
:201D3000DFF8A8030560AC7EDFF8A4030470FF2CE97E417008BFFF292A7F82706B7FC370A6
:201D5000AE7F0671ED7F457115D1FF2A08BFFF2B11D1FF2E08BFFF2D0DD1DFF878130A78E9
:201D700002704B7843708A788270CB78C3700A79027149794171DFF860130278DFF85C831D
:201D9000DFF85C93DFF85C730A70FF2543784B7082788A70C378CB7002790A7140794871E1
:201DB00088F8005088F8015088F8025088F8035088F8045088F805500020CB490880D9F897
:201DD0003440CA49607808702278C9493A70A0780870A2681079C74A411E1170E078C6494B
:201DF000C64A0870E068106008B90DF037FE2069C34E306008B90DF031FE3068DFF804A373
:201E100001688847326852F8041F50468847BE48BE49CAF82000CAF824106069BC490860F3
:201E300008B90DF01BFEA069BA49086008B90DF015FEE069B849086008B90DF00FFEDFF822
:201E5000DCB2B74C9BF804000EF03AF90028206075D09BF80500B34E0EF032F900283060B2
:201E70006DD09BF80600DFF8C0A20EF029F90028CAF8000063D09BF807000EF021F9AB4960
:201E9000002808605BD039789BF80000891C484380B20EF015F9A649002888604FD03878F7
:201EB000002862D0BBF80210484380B20EF008F9A04A0028506042D038780EF001F99E49D4
:201ED000002808603BD0387840000EF0F9F89B490028086033D03878182148430EF0F0F8A7
:201EF000974A106058B3387840010EF0E9F89549086020B3387800010EF0E2F892490860C1
:201F1000E8B1387800010EF0DBF890490860B0B13878302148430EF0D3F88D4A106070B137
:201F30008C483978007848430EF0CAF88A4A106028B138780EF0C4F88849086018B9BDE813
:201F5000F14F06F02BBD4FF0000B09E00EF088F80021418081600180022303710BF1010BBD
:201F700039785FFA8BF08842F0D32268694F0120107121680D732068457321688D73206801
:201F9000C57321680D7400212068457400202268D172A0222168487103212068C28001723B
:201FB0000720226850720021206881722821206801224182C2760020216848770022206801
:201FD00080F85E200121226811770120216881F85D0001223068027131680D7330684573B0
:201FF00031688D733068C57331680D7400213068457400203268D1720022316848713068D3
:2020100082724FF420703168C88008818A7401213368D974DAF800201573DAF800104D735B
:20203000DAF800209573DAF80010CD73DAF8002015740022DAF800104D740121DAF8003010
:20205000DA720023DAF800201171DAF800104B71DAF80010C88008818B720520DAF8002028
:202070009374DAF800103E4AC874106880473968054608688047396851F8042F002090472D
:20209000D9F80C101C4B0A881878364902430A802846354A136898470C2134480EF0DEFCA4
:2020B00040460EF0D7FC0EF0D1FCBDE8F44F034800784FF4005107F003BC00BF6E4F00205D
:2020D000044F0020B63F0050604E0020084F00202C4E0020E81200503C4E0020344E0020C3
:2020F0000C1B01007B4F00200C4F00206D4F00206B4F0020724F00206C4F0020F04E002073
:20211000F44E00207C4B0020D1000100F1000100F84E0020FC4E002054240020D81B002027
:20213000104F0020144F0020184F00201C4F002060250020684E0020004F00208C250020C0
:20215000804E0020844E0020884E00208C4E0020904E0020B61C0020902500209425002001
:20217000E4150020544F0020E8150020F84D00202DE9F84FD74CA178FF2904BF00200DF050
:202190006DFCA0780DF096FE044604F1680504F190062968086810B10021E1830CE0A87B90
:2021B000002804BFA97E002906D13078002801BF207F0128608CE0832189E08B4118491C83
:2021D000618120460EF03EFC01281EBFC2480178012904D121890020491CE08361814FF62E
:2021F000FF77A87E01280DD1AA8B618920890EF025FC38B1218960894A1C93B298421BD059
:20221000A88B0FE03078012816D17288618920890EF014FC80B1218960894A1C93B29842F0
:202230000AD0708892B2904206D03818608180B20EF000FC3F18E78304F5967999F8040015
:2022500020B120890021401CE183608104F12E07A87E01283ED12289A88B521C92B2904248
:2022700038D1608104F1860120460EF0DFFBA88C608400212177E183E08961894118A181A7
:20229000A88B21890EF0D6FB8046B988288C6A8C01FB0808E88C8A4204BF3989884202BF75
:2022B000AB8CF9888B4207D000090090AB8CA179520800200EF0B6FBA87F3870698CB980A2
:2022D000A88CF8802046E98C39810EF0A7FB0220A87601E0B7F80480B4F81EC022687F4ED8
:2022F000D2F80CE00CF1010000FB08F340F6C41000FB03F18E44C2F80CE03668DFF8E0E17D
:202310003678BEF80080774AB609032E11D1D67BF60748BF4FF000080BD408F101081FFAA0
:2023300088F6012E12BF668AB9F8066006F2DC5600E0668A5E434FF4C87AB6FBFAF6761CB5
:202350006661AEF80080A3614FF0180894F806A084F820C008FB0AFADFF88CC1DCF800E0B0
:2023700023680EF1080656F80AB0C3F810B094F806A008FB0AFACDF800A0D3F80CB0D4F841
:2023900014A0ABEB0A0ADDF800B046F80BA094F806A008FB0AFA56F80A609E600EF10C0661
:2023B000A37908FB03F30EF10C0EF65C06F0F00646F002060EF803604FF0000ADCF800E0FD
:2023D000A6790EF1020308FB06F623F806A0474BA6791B68760103F1140AD4F814B05AF86B
:2023F00006A00AEB4B0A03F1140B4BF806A0AD7E022D0BD1A5796D0103F1140697F800B0D2
:2024100056F805A000FB0BAA46F805A0BD88D27BA779D60737D508FB07F70EF10802D65952
:20243000A6F5A86A0EF1080646F807A0A77908FB07F7D2592768511A3961BA6003F11402E9
:20245000A1794901575807F5F667575003F11401A27952018958C9F800106843244A156B97
:20247000A779296803F11C067F01401AA0F51670F0512049A07903EB40100B78012B14D1FB
:202490000121C17214E003F114027F01D1592A464243A1F5E661A2F516729142DDD3082192
:2024B00020460EF0B7FA012011E0916A4A78C272A179DCF8000008FB01F28118226851603C
:2024D00007200D490870204609F0FEFB0020BDE8F28F00BF684E0020784F0020084F002066
:2024F000AC2500205C4D0020804E0020844E00200C1B0100734F00206F4F00202DE9F84FED
:202510000C46E00788B00BD50DF0BAFD28B100218160B348006800B1804784F001005CE13E
:20253000A0070FD500210023069105910491039302910191009101223C200EF067FA84F05C
:2025500002004AE11D256007A64EA74F40F18A80002107918B46A5488178FF2904BF0020F5
:202570000DF07CFA386890F8A0000DF0A3FC80463868C07A98F82691022818BF032808F564
:20259000907A06D106F10D000EF03CFA08B906F1070B514648460EF031FA88B33868807A25
:2025B000002818BF012804D1314650460EF022FA04E05246494630460EF018FAFF2834D02B
:2025D00005FB00F906EB090506225146E81D0DF075FB16F80900396840F00209E81D079033
:2025F0000622887E00F0010088F8260105F1010A386800F1140108F590700DF05FFB14E016
:20261000514648460EF0EEF978B15246494630460EF0ECF9FF2808D006F10D01454348190A
:202630000EF0F0F908B949F0020908F12C004B46017806914289120905920122B8F8221056
:202650000491C0880799029140080390CDF804B0CDF800A0002098F806100EF0D7F984F099
:202670000400BAE020060FD500210023069105910491039302910191009101223B200EF0D4
:20269000C5F984F08000A8E0E0044BD5F11D06F10D000EF0A3F93868017A012918BF0429F7
:2026B00031D1C17A02291EBF0329817E01292AD1817E00F1140230460EF098F9FF2811D062
:2026D0004543354405F10D000EF09CF950B9E91D05F10D000EF082F938680622E91D1430B6
:2026F0000DF0ECFA3868C07A022818BF03280AD106F10D000EF086F928B938680622F11DCE
:202710000C300DF0DBFA3A4842683A4800784FF480510BF093FA10B18E2009F063F984F49D
:2027300080505AE0A00505D50DF063FD324901200860FEE7600504D506F05BFC84F48060D7
:202750004BE0600405D5812009F04CF984F4804043E0A10440D5294D286810B100200DF028
:202770007DF9274E4FF0FF3028600EF033F93168244D51F8202F684690472349234B486A8B
:202790008A6A009001920293C86A0268086A0392ADF810000A6B1178002904BF506800285B
:2027B00005D19068002804BFD068002806D02970506868609168A960D068E8602946356873
:2027D000134A2E6813486B46B0471349086004F06FFA84F4005000E0002009B0BDE8F08F2D
:2027F000204F0020AC450020104F0020684E0020784E00206E4F0020FC002043044F00203F
:20281000F04E00206845002088190020810001002C4D002058240020EC4E00202DE9F04F56
:2028300009AFADF13C0D08900A92388809911E46ADF81800101C08BF002000F075810178C8
:2028500000274FF0010B401C4FF0FF39B846DA460A9061E1252940F056810178401C0A9065
:202870002D2918BFADF8068004D10178ADF806B0401C0A9030291CBF4246434604D10178BE
:20289000401C5A465B460A902A29CDF800804D4617D1049330680A9BCDF80890C01C20F0C1
:2028B0000300001D306050F8044C1978002C009403F101000A9018D5ADF806A0644200946E
:2028D00013E044460AE0600000EBC4004018A0F130040A9801780094401C0A90302901DB7B
:2028F0003A29F0DBCDF8089004932E2929D10178401C2A290A9011D13168CDF80880C91CE6
:2029100021F00301091D316051F8045C002D48BF454601782B46401C0A9011E0454643468E
:202930000AE0680000EBC5004018A0F130050A9801782B46401C0A90302901DB3A29F0DB82
:2029500002930AB1224604926C2904D04C2918BFADF8048004D10178ADF804A0401C0A90AE
:202970000BA8CDF80C800FAB07906429059300F0828069297FD0BDF818C075296DD07829F1
:2029900069D06F2965D070294ED063293ED0732922D00A98401E0A90099801281AD966493C
:2029B0000C68B5F1FF3F03D0A84288BF6D1C05D86FF00041814294BF0D1C099D029508A879
:2029D0000AA932466B46A04709993F18091A0398099165E0454617E03068C01C20F0030085
:2029F000001D306050F8040CBCF1010F014608B94FA0014607910DF08FFA0390B5F1FF3F32
:202A10004FD0A8424DD9039528464AE03068C01C20F00300001D306010F8040C8DF82C004A
:202A30005D46039558463CE0082035680490E81C20F00300001D306050F8041C08221023AF
:202A50000FA809F02BFC401E079040210170079823E0082302E0102300E00A233068C01C65
:202A700020F00300001D306050F8041CAA42BCBF2A1C04920DE03068C01C20F00300001D4A
:202A9000306050F8041CAA42BCBF2A1C04926FF009030FA809F002FC07900599081A0390E8
:202AB000009C241ABDF8065000945DB906E008A8202109AA0CF063FB7F1C009C641E009446
:202AD000F5D50398401EB0F1FF3F03900FD1BDF8060001281CD10098401E009018D408A8DE
:202AF000202109AA0CF04BFB00987F1CF4E70798017809AA08A80CF042FB0798401C07903C
:202B100003987F1CDEE708A809AA0CF038FB7F1C0A980178401C0A9000297FF49BAE0898E7
:202B300008B14146017038460FB0BDE8F08FC046286E756C6C2900C0F01A0100BB482DE97D
:202B5000F84F0025BA4CB849056094F8E200002800F06581012800F02F81B64E02283CD01E
:202B7000032840F05C8151F8250CD4F8B8100029A0F5C060C4F8D400B8BF49420028B8BFF0
:202B90004042814226DA4FF08057D7F8A4014568B4F8BC0030214FF47F42082300903046BB
:202BB000A847D7F8A4014568B4F8C00004214FF4F802122300903046A847D7F8A401B4F8DD
:202BD000D070456820214FF440620A2330460097A847012584F8D8501CE151F8258C0DF0EB
:202BF00008FB2F4600B901273946934F38680028FCD0B146012609F10409D9F82CA03E6017
:202C100009B10DF0FCFACAF30720C4F8BC000DF0F0FAAA4600B9B2463B68002BFCD0D9F8A8
:202C300000B0BAF1000F3E6001D00DF0E8FACBF38440C4F8C0000DF0DCFAAA4600B9B2465A
:202C50003B68002BFCD0D9F81C90BAF1000F3E6001D00DF0D4FAC9F38120C4F8D000B8F5C3
:202C7000C061C4F8B81000F09C8094F8D80068B9C4F8D410D4F8C000C4F8C800D4F8BC7066
:202C9000C4F8C470D4F8D030C4F8CC30D4F8D400D4F8BC30002854BF02226FF0010204F1A2
:202CB000C8010F6800EB40008018421000EB927207EBA2000860D4F8C810C4F8C430002947
:202CD0001CDD1E293CDDD4F8CC0030B93429B4BF15391E21C4F8C81025E02A29BABFD4F87C
:202CF000C8000B381E20C4F8C800D4F8C4003F28B4BF401C3F20C4F8C4001FE0D4F8CC00BB
:202D1000032812D011F10B0FC6BFD4F8C8000B30301CC4F8C800D4F8C4000028C4BF401EBD
:202D3000051CC4F8C450032508E011F1150FC6BFD4F8C8001530301CC4F8C800C4F8CC5056
:202D50004FF08057D7F8A401B4F8C43030214FF47F424568374800930823A847D7F8A40197
:202D700004214FF400321123456832480096A847B4F8C860D7F8A40104214FF4F8021223EA
:202D900045682C480096A847D7F8A40120214FF440620A23B4F8CC60456826480096A8473E
:202DB00001E084F8D85040F2FF50404502D8801C40452FD2082030E051F8251C1F4F4BF20F
:202DD000F5204843060A3868C0F3814001280CD11B480068006880470BF076F90DF015FAA9
:202DF0003111C010484306EBE03694F8E50030B91448006820F07F403618760801E084F809
:202E1000E5501148310C0660012741600F4D8760287808B90B2000E0052084F8E40003F081
:202E3000EFFCBDE8F88FC0462D400C402C500C401C14002000A00C4000800C40B43F005099
:202E5000EC010010102009403C600C40951901002DE9F84FB34D696884B0019121B905B0D2
:202E7000BDE8F04F0DF0B2BD0978DFF8BC82AF4EDFF8BC92DFF8BCA201291CBF02290429A8
:202E900046F2A81741F64C5B05D0402918BF802900F096803CE10DF0E9F90028FAD0019802
:202EB000007805F043F80090446814B900200CF0D5FD9AF8010000285CD000F043F90CF054
:202ED000F9FF02900168009801914F6809F02CFB022825D000990A78012ADBD196490A688C
:202EF000137A19F80310317018B90DF06BFD5844A0602069C17E01F0EF01C1762069C17EF6
:202F100041F08001C1762069C17E01F0F00141F00201C1762269B96888484118D1614BE071
:202F300001980178802911D10820854930700A78012A03D09AF80100022801DB38690CE0A8
:202F5000D8F828003A690178D1720DE07C49072030700A783869012A02D10121C17203E038
:202F7000D8F828104A78C2720298817901988AF80210C8E0009800288CD00199009A007812
:202F9000914205D101281CBF00200CF067FD15E0012840F0BD80684801680A7A19F80200B9
:202FB00030700DF00FFD3918A0680DF007FD18B90DF008FD5844A0600120A8700098A2E03C
:202FD0009AF8010000287AD000F0BCF80CF072FF04462068029047689AF802000CF06AFFBF
:202FF00003900DF049F910F0070F3DD0A87804F09DFF0190416801980091029909F094FA96
:20301000022831D001990A78012A2AD14A490A68137A19F80310317028B90DF0D3FC834468
:203030000098C0F808B000980069C17E01F0EF01C17600980069C17E41F08001C17600985F
:203050000069C17E01F0F00141F00201C176009AB9683A4841181069C16101210198A97066
:2030700051E000200CF0FAFC0398A04225D0029833490278802A12D10820307009780129FB
:2030900003D09AF80100022803DB38690121C17210E0D8F828003A690178D1720AE0072064
:2030B00030700978386901290EBF0122D8F828104A78C272A0798AF80200029823E00DF0EF
:2030D000DBF810F0070F29D0A87804F02FFF04462078D4F80480012820D117490868027A24
:2030F00019F8021031700DF06DFC3918D8F808000DF064FC20B90DF065FC5844C8F8080075
:203110000120A870204605B0BDE8F04F06F096BC05B0BDE8F04F00200CF0A0BC05B0BDE8B4
:20313000F08F00BF602500200C1B01006F4F0020289A0110684E0020104F0020F0D8FFFFA8
:20315000734F00202DE9FE4FDFF8D49299F8011011B900200CF082FC0DF034FC0746002439
:2031700007F6C4170025AF4EDFF8BC820EE028460CF0A0FE417939B1326881791155641C1C
:2031900039460DF017FCE4B26D1CEDB298F800008542ECDB99F801108C4205D000200CF053
:2031B0005DFC82200DF002FC99F80100012840F01881002501E06D1CEDB298F80000854200
:2031D00080F2098128460CF075FE074678790028F1D03168B8790A7890421CBF00200CF0CA
:2031F0003DFCB879F5E0306810F808000CF062FE00684268DAF808109068814204BF2F468D
:2032100008F1010800F0FC80FEE03068077801224FF4C07110E0D9F8043003F5AD74835CB7
:2032300001FB03FC01FB07FA34F80CE034F80A40A64538BF1F46521CEBB29A42EBDB00788C
:203250000CF038FE00240068D0F804A04FF4C075444526DA3068005D0CF02CFE0068316817
:2032700042680B5DD9F804006B43C11801F18203187800283DD0B1F80AC058880CF1010E35
:20329000864518BF844534D15CB1DAF80810906801F5C241A8310DF091FB00283FD1306894
:2032B000075D4FF6FF700DF07DFB834638460CF001FE5E49006845680868D9F804103A469E
:2032D00030F812303C464FF4C07001F10E024443105BB3EBD00F75D24FEA5B03002040F6DA
:2032F000C4114B4300934446514B01910293804630E0987B012812D148891B8A411C9942D8
:2033100018BF98420BD1002CCBD0DAF80810906801F5C241A8310DF051FB0028BFD0641C15
:20333000E4B295E7F8B20CF0C5FD01680A78802A02D12B69009A5A610978402908D1029954
:2033500080790A6802EB4011009800F5A060C86108F10108A04535DA306810F80800F9B2B5
:203370008142F5D001464FF4C0735943D9F804305A1803F5AD73D289595A53088B4202D2C3
:20339000521A9442E4DA0CF095FD01684A68019B9168AA684FEA5B00A1F6C41103FB0020AF
:2033B0000DF00CFB0028BDD0204800688DF800709DF8001030F81120521C20F81120306832
:2033D00010F80870194801680022FBB221F81320F8B2BDE8FE8F00200CF040FB82200DF0A6
:2033F000E5FA99F8011030680DF0D8FA306800780CF060FD00270068D0F804A04FF0010829
:203410007D1CA045FFF6EFAEFFB2002F1CBFE8B20028A0467FF4F9AE306807780FE700BF43
:20343000684E0020004F00207B4F00208C250020844E00202DE9F84FDFF8B8A20F4604465D
:20345000F80B80F00B81A64EDFF88882B80F80F0BC80B80880F0B0803809C0F031810820EA
:203470000CF0ECFE002840F0A28080200CF0E6FE002840F09C80684607F02CF9012803D121
:203490000098002800F0938091480078002840F08E8000250124E8B20CF002FD48B1837ACD
:2034B0003BB1847290F9090004FA00F0C0B20AF0C7FF6D1C032DEED345464FF0030905F122
:2034D000AC0085F810900CF082FF8348002301680360824950F8082C98461A4640F8088C8B
:2034F00005F134000CF07FFF3068006B8047A968401A010BA869C1F1FF3282422CBF0844E8
:203510004FF0FF30A861287F20B1E868A969B1EBC02F1ED90CF082F8414600B12146081C8F
:2035300014D0704840F60901018041464180427B64F303024273027B61F30302027341601C
:203550000CF076FD418811F4406FFBD02C774146A9616548016821F0020141F4007101603F
:20357000624941F8049C41F230028A600C6050268E600C604FF4CA628A600C6041F80C4CD6
:203590004446046002200BF013F9112006F0F8F9287818B9686838300CF031FF687F18B167
:2035B0006C7705200BF004F9514868612C7409F085FA27F0080783E005F078F9454674355E
:2035D000286808B927F002077AE00CF006FFB3468146DBF85400016804208847D8B1207CA7
:2035F000C8B1454608352868A8B10646DBF80000E568006B8047801BE060000BE060A842E3
:2036100002D240194008E06040F6C41181422CBFB0F5FA7FE16048460DF0BCF90AF0F4FEA1
:2036300090B1A56920466FF4807100224FF00073A847464606F16C052868002808BF47F004
:20365000020701D009F03AFA2046646900214FF080630A46A04727F0005731E00CF0BDFE70
:2036700051460E6846B306F1280106C90A234FF0E0450B40154008BF002B1DD106F1280114
:2036900091E8300006F1280393E8060006F12803AA43A14383E806000DF07CF9B16869B1C5
:2036B000002D08BF002C09D030692246B6F93C10B4682B46A04701E00DF06CF927F480476C
:2036D00027B15046394650300CF0A1FEBDE8F88F591E0020C01C002014100440B9CD000025
:2036F0008C0100101C250020000004600C41044011980000401D00202DE9F04FDFF8A0B223
:20371000804609AFFF200E461C460025ADF1240D97F8049007903F8830780592022805D192
:203730007068008842F60211814273D0304609F079FE5EA3069018B3401E0ED02846009046
:2037500001904FF4027102900322039050A304904BA006F035FD0A208FE065A00090CDF83B
:20377000048040F2032102940122039744A0CDF8109006F025FD5946142001F1040911E0E8
:203790005DA00090CDF8048040F2F5110294012203973BA0CDF8109006F012FD594628208C
:2037B00001F10209B84214DD07EB040A50450ADBF06805992246C01907F028F8A9F800A008
:2037D0000698079013E0284640F213214CA30D2504E0284640F20E2152A3072500900190C7
:2037F000029003900322049025A006F0E9FC0798FF280DD0DBF8080050B1066846B1E4195A
:20381000A0B20090069A059B41F230114046B047284632E0B9F1FE0F0CBF0FF22C190FF23C
:203830004419304609F0FEFD00904FF4ED71CDF804800122CDF808904DA3039510A00495E6
:2038500006F0BEFC0097059A40462346314609F075F8594608310F68051C0DD167B1786860
:2038700050B1304609F0DEFD00947C68059B024641F230114046A047E8B209B0BDE8F08F35
:20389000646174615F736572766963652E6300C041747472696275746520776173206E6FC1
:2038B0007420666F756E642E00C046C05772697465417474724342203A20257320636F6EB7
:2038D0006E48616E646C6528256429206C656E28256429206F666673657428256429206DFD
:2038F0006574686F64283078253032782900C04653747265616D00C0537472696E6700C043
:20391000496E76616C69642076616C7565206C656E67746820776173207265636569766583
:20393000642E00C0416E20696E76616C6964206F66667365742077617320726571756573A8
:203950007465642E00C046C02D20726573746F72696E6720626F6E6465642073746174652F
:2039700000C046C02D204F54412077726974650057726974654174747243422028434343B9
:2039900044293A20706172616D3A20256420636F6E6E48616E646C653A20256420257300A7
:2039B000301500202DE9FC41A0F2013714468846022F40F232819B4E9C493F1F0F2F04D9F0
:2039D000143F4CD0BF1E1CD011E0DFE817F0CF00C9000D01FA00C100B9002601AF00A70049
:2039F000100010009D008F007F00740066002D2880F21381B8F1020F40F00F8188492388C1
:203A100007E1B8F1010F40F00881F078012800F00481324620781179107189B9002800F0C1
:203A3000FC805078012800F0B580042800F0B280062800F0AF80052800F0AC80BDE8FC81DE
:203A50002078002840F0E9805078032800F0AF80072800F0AC80052840F0DF80A7E0B8F1B4
:203A7000010F40F0DA802078012840F0D68006F1EC000CF0EDFA002840F0CF80344600204E
:203A900004F13A0107F068FD002840F0C68004F1C8000CF0C0FCBDE8FC81B8F1020F40F06B
:203AB000BC8020880A28C0F2B880B0F5486F00F3B4808E1C17E0B8F1020F40F0AE80208812
:203AD000B0F5FA7F80F2A9800E460CE0B8F1020F40F0A38020880628C0F29F80B0F5486FCD
:203AF00000F39B803E363080BDE8FC81B8F1020F40F0938020880628C0F28F80B0F5486F72
:203B100000F38B803C36EEE7B8F1010F40F085802078062880F28180454E0EE0B8F1010FEF
:203B30007BD12078042878DA0A3606E0B8F1010F73D12078082870DA09363070BDE8FC81DD
:203B5000B8F1010F69D12078042866DA0836F4E7B8F1010F61D1207804285EDCF61DECE776
:203B7000B8F1020F59D120880E36BCE7B8F1010F53D13079012850D032462078D178D0705A
:203B900069B9002849D05078012803D0042818BF052842D101200CF08BFABDE8FC8120784F
:203BB00000283AD15078022818BF052835D110780BF05AF91C490246102002F0B1FFBDE8CC
:203BD000FC8106F1830500211F22284608F006F821464246284606F019FE44463078B47152
:203BF0000BF042F9002311E006F1640500211F22284607F0F3FF21464246284606F006FEFB
:203C10004446307874710BF02FF901230094094901950246102002F083FFBDE8FC81C046A6
:203C3000F9E80000800C002099450110C00C0020BA0C0020094501102DE9F04F8246DAF8D8
:203C50000070DAF804600C465FEA0208ADF11C0D14BF00214FF0FF31DFF8409248460CF0AC
:203C70008CF9002818BF0B2040F0158100258F488C4905708A48FC6052460CF0B4FB317B5C
:203C900027200CF0B2FBB8F1010F07D0657002200AF070FF06200AF06DFF01E001206070D6
:203CB0002078012840F2AA80801E012868D9801E012833D9801E012800F2DE800CF08DFB61
:203CD00083464FF0805000F5EE77D0F8DC01A378466A009321782846062908BF01200190F0
:203CF00001200290A068228AE1686368B047814658460CF04FFEB9F1000F40F0BF80B8F1C3
:203D1000000F02D00BF0AAFF02E050460AF006FE002800F0A3803868806A2AE00CF05DFB75
:203D300083464FF0805000F5EE77D0F8DC01012306680093A168A27860682478AC46042CCE
:203D500008BF9C466346B047814658460CF022FEB9F1000F40F09280B8F1000F02D00BF009
:203D70007DFF02E050460AF0D9FD002876D03868406880474C49C1F8B0510D6081467DE012
:203D90000CF02BFB83464FF0805000F5EE77D0F8DC01E38A86690093E0680190208B029015
:203DB000A0780390207D04900121059122782846022A08BF081CE1786268A368B047814654
:203DD00058460CF0E7FDB9F1000F57D1B8F1000F02D00BF043FF02E050460AF09FFD002877
:203DF0003CD03868006A80475FEA000946D1E078A168E28A236907F0F3FBBFE70CF0EDFAA6
:203E100083464FF0805000F5EE76D0F8DC01E38AC7680093E0680190208B0290A0780390CC
:203E3000207D2946049001200590257805B9014608466268A368E178B847814658460CF09E
:203E5000A9FDB9F1000F19D1B8F1000F02D00BF005FF02E050460AF061FD08B914201AE0C1
:203E70003068406980475FEA000907D1306802692169E078904781E74FF0FF39B8F1010FAC
:203E900005D002200AF094FC06200AF091FC03480CF0B5FA484607B0BDE8F08F4818002005
:203EB00080180020B9F1000050450240B4250020F0B507460020ADF11C0D0E46044662A542
:203ED00000900322019462A30294BC2103942846049406F075F962A3B81E09D0801E00F0CD
:203EF0009B80401E7AD0401E5AD0401E3AD01BE0012E0CD00094019428460294CF21039445
:203F10000322049406F05CF9D02158A390E00094019428460294CA2103940322049406F0CB
:203F30004FF9CB2156A383E00094019428460294E72103940322049406F042F9009420462D
:203F50000190E82102900322039053A30490284606F036F901208DF817009DF817000028BF
:203F7000FBD16FE00094019428460294E12103940322049406F024F9009420460190E221F2
:203F90000290032203904AA30490284606F018F901208DF816009DF816000028FBD151E045
:203FB0000094019428460294DB2103940322049406F006F9009420460190DC210290032240
:203FD000039040A30490284606F0FAF801208DF815009DF815000028FBD133E000940194DC
:203FF00028460294D52103940322049406F0E8F8009420460190D62102900322039036A3E8
:204010000490284606F0DCF801208DF814009DF814000028FBD115E000940194284602944B
:20403000C22103940322049406F0CAF8C3212EA300942046019002900390032204902846F5
:2040500006F0BEF807B0F0BD6D61696E2E6300C03E3E3E535441434B204153534552540028
:204070002A2A2A4552524F522A2A2A003E3E20494E5445524E414C204552524F522100C026
:204090003E3E20494E5445524E414C204657204552524F522100C0463E3E20444546415588
:2040B0004C54205350494E4C4F434B2100C046C03E3E2057524F4E47204150492043414CD3
:2040D0004C2100C03E3E204943414C4C2054494D454F55542100C0463E3E204943414C4C33
:2040F0002041424F525421003E3E204F5554204F46204D454D4F5259210070472DE9F04394
:2041100085B011F8017B0446082F04F1FD0004F1FC0804F1760504F5A076844A844BDFF876
:20413000149213D0092F21D00F2F2FD0112F01BF287801286878102840F0D5800A783276F0
:2041500048787076012184F83D11EBE00025521C4E5D5F5D3E434E55575D3E4046556D1C7E
:20417000082DF5DB204608F0A9F974E00024571C0D5D1E5D35430D553A5D15400555641CBA
:20419000082CF5DB022088F80000CBE098F80100820704D410F0110F57D01A2266E0087883
:2041B0004A7800EB02203080CA78887800EB022070804A79087900EB0220B080CA7988796C
:2041D00000EB0220F080087A30724A7A887A02EB00227281C87A0A7B00EB0220B0818A7B5C
:2041F000487B00EB0220F0810A7CC87B00EB022030828A7C487C00EB022070820A7DC87C52
:2042100000EB0220B082487D897D00EB0120F082494801788A0658BF1A2212D504F5A67023
:20423000049071890391307A029021890191F0880090B38872883188204607F06DFEE0B185
:204250001E2298F80100410710D40F2088F8150020460CF09BFB002864D199F8000005B0F2
:20427000BDE8F0434FF4804105F02ABB204605B0BDE8F0430F210CF085BB7088A882B188BE
:20429000E9820221F0882883297400206882A18EA88AC91DE981618EB0EB510F02BFE88AE8
:2042B000A18E884202BF288BE18EB0EB111F18D02878012804BF68780F2805D0687918B13D
:2042D0000F21A972FE2127E0FC2120460CF056FBF0880090B38872883188A0790CF04AFB3D
:2042F00020E0102118E0491E20460CF03FFB032F18D1A878042818BF0D2813D16E78142E03
:2043100018BF0E2E0ED12F7820460CF02BFB012F06BFAE72FD213146204605B0BDE8F043CF
:204330000CF02CBB05B0BDE8F08300BFEC4D00207C2500206E4F0020144E002010B50B783D
:2043500084074CBF43F0020303F0FD0304064CBF43F0800303F07F0304074CBF43F00803F8
:2043700003F0F70384064CBF43F0200303F0DF0310F0AA0F0B7003D0107840F00C0003E0D2
:2043900018B9107800F0F300107010BD2DE9F8430D4600272878022814461E4667D1696828
:2043B00008784978DDF8208000EB012080B25FEA08021CBFB0F5285F0B205BD14FF428518C
:2043D000401A08D0401E21D0401E2FD0401E25D0401E31D04BE0DDF82490E8680CF025F820
:2043F00080B2A0EB08024A45BCBFA0EB08001FFA80F909EB0800162806DAA6F800904A46DF
:20441000E86800EB08010DE00D2732E0E8680088022131802070000A60702AE0062030801F
:204430000622E96820460BF049FC22E001203080E9680A7822701CE0E868B0B1082131808E
:204450000288227003881B0A63704188A1704288120AE270818821718288120A6271C188BE
:20447000A171C088000AE07103E0308001E0378001273846BDE8F2832DE9F0470F46814623
:2044900038780024022890461D466DD17868089E01784078DFF8D8A001EB002189B24FF406
:2044B0002852891A06D0491E29D0491E4ED0491E39D059E0F8680BF0B8FF80B2B04204D35E
:2044D000A919162903DB0D244FE007244DE0FB682A46414698190BF0F1FBAD19F868ADB2BE
:2044F000C5F11602002140190BF09DFFDAF8000000281CBF0268002A37D0002123E08EBBF0
:20451000022DE0D198F8000098F80110FA6800EB01201080DAF8000000281CBF0268002A13
:2045300023D001210FE0EEB9062DCCD1F868062241460BF0C3FBDAF8000000281CBF0268E9
:20455000002A12D00321484690470EE056B9012DB9D198F80000002813BF0128F968087075
:20457000802402E00B2400E001242046BDE8F0879C250020FEB57748774A0078774C784BDD
:2045900078490D2840D8DFE800F0E307070707DBDB5EDB9A9AB8B8BF146041F2044572494A
:2045B0004C88AC421FBF4E8BAE424F8EAF4203D11D806E4810607AE0002C6D4D1C804FF4FE
:2045D000A05639D0641E3CD0641E35D040F2FE37E41B1AD0241F012C1DD94FF47F77E41BC9
:2045F0001BD04FF44067E41B0FD0A41E012C0CD9241F0AD0641E012C0DD940F2F937E41B11
:20461000012C19D9241F08D09AE0022814BF1E80584D15604BE0584DFBE7584803681C7ACE
:20463000012C05D141F20240488048834886F0E74E804E834E86ECE700200BF00FFA8320AD
:2046500082E08F2080E04E488178FF2954D0146018204C4C41432068851C40F204466C5ACB
:204670001C80A41B012C484B72D94FF47F76A41B0FD04FF44066A41B032C84BF641F012C24
:204690000BD9A41E012C63D940F2FD36A41B08D103E0801C41F201444452136004F054FBBB
:2046B00005E000200BF0DAF985200CF07FF903B0BDE8F04035480078012105F001B940F27E
:2046D00004424888188090421CBF41F2084290423ED041F60402904211D12D4C2D482E4BBA
:2046F00000680025CDE9004502222C4C256855F8086FB0472A490880F7BD48881880002007
:204710000BF0ACF985201FE04888188002280DD940F20442801A1BD040F6FC72801A05D0BD
:20473000083815D04FF47F72801AE8D1887B801CC2B2B52AA8BF6620887300204880F7BD47
:2047500000200BF08BF98420BDE8FE400CF02EB9F7BD00BF6F4F0020204F0020AF030100AD
:20477000504F0020CC4C0020204A002059550110615A0110B1540110755B0110104F0020A7
:20479000684E0020804E0020313901106E4F002002000080EC4E002091E80000F04E00203A
:2047B000424F00207CB5894D144602460026A2F58062182A1AD8DFE812F0FE00F800F1000C
:2047D000E900E200DC00D500D0001900C500BE00B700AE00A3001900190080006F00680050
:2047F00054004C00420039002C0024002D2880F28580022940F0828021880AF075F80646B9
:20481000E1E0012940F0DE80002C00F0DB801135A6E0102940F0D680002C00F0D380284630
:204830005030102221460BF049FACCE0012940F0C980002C00F0C68029468D1D90E0262988
:2048500040F0C080002C00F0BD8005F160002622E8E7012940F0B680002C00F0B3806D1DA9
:204870007EE0602900D13CB9012940F0AB80002C00F0A8800D3573E005F1860021466022B8
:204890000BF01CFA012068739DE0012940F09A8020780CF063F896E0012940F093802078A0
:2048B000022800F38F800C3528702078022814BF301C01200CF04EF885E0072940F08280D8
:2048D000611C684606220BF0F3F820786946324605F0D2FB04460A2C10DA0CF037F838B988
:2048F000204603F049FC0AF013FD08F049FC6AE02A46012002F12C05285564E0022662E099
:2049100001295FD1A87B21780028A9735BD12078012858D1E9E7012954D12478072C51DBFD
:20493000102C4FDC0B3537E001294BD124780A2C48DA093530E0012944D12478022C41DAFD
:20495000083529E000293DD10CF000F810B90BF049FAC8E701240F351EE0012932D10A354D
:20497000247819E001292DD12478022C2ADAED1D12E0102926D12B4603F1400051E7012969
:2049900020D12478022C1DDA2D1D05E0012919D12478042C16DCED1C2C7014E0012911D1AF
:2049B0002478022C0EDAAD1CF6E702290AD120881435288007E0012904D12478022CD8BFA9
:2049D0006D1CE9DD182630467CBDC046941100202DE9FE4F05467B48002400680094C00966
:2049F00005D37948007810B9202009F0B1FF012D40F0E280DFF80092D9F8DC00012840F0B5
:204A1000D8800220C9F8DC000BF0C8F8012009F09FFF5FEA000805D00120C9F8DC000BF01D
:204A3000C9F8CBE00BF0EFFCA34602906748684DC0F800B0A86A016801208847012804D164
:204A5000584607F0A7FD012000906248624FC0F800B0386811200BF0EBFB00B101241020E1
:204A70000BF0E6FB08B144F002040F200BF0E0FB08B144F004040B200BF0DAFB20B1286801
:204A9000564E016B308888470A200BF0D1FB20B12868534E016B3088884752480126066062
:204AB0002868816944F0200088474F4806600BF0B9FB00F001010191400814D2286A816870
:204AD0004A4888478246BAF1040FF7D0BAF1010F04D1286A426845480321904744490868C7
:204AF00020F003000860584600F088F82B683868986B8047019801280CD0BAF1010F04D1F2
:204B1000286A42683948314690473949086840F0030008602F4806602868416920468847A1
:204B30000B200BF085FB20B128682C4BC16A188888470A200BF07CFB20B12868284BC16AB2
:204B500018888847274806600322C9F8DC20264BC3F800B02868416B204688470128F9D1DF
:204B70003868042009F0F4FE0446184806603868144800688009FBD30098012802D13046A1
:204B900007F008FD0BF03BFB082009F0E1FE07460298C9F8DC600BF0D5FE1648008807F049
:204BB00065FA0BF007F857EA040018BF4FF0FF3804E06FF0040801E06FF001084046BDE837
:204BD000FE8FC04614100940041500200C400940B8010010000222432C2009404E150100CE
:204BF0004A15010028200860800104430040034024220840901901001C1400202DE9F84F65
:204C1000DFF804B20746ABF13500DFF8F0810068800880F0E28075480068006880477E49B4
:204C30000831D1F8009000254FEA29715FEA995201F101010AD2C0F13E0210F10A0F4FEA92
:204C5000E202D8BF08229142B8BF111C684BD3F87C21C2F30462162AA8BF203A1B68C3F3B8
:204C70000443162BA8BF203B9A465218162A05DA12F10A0FB8BF6FF0090200E015225D4BB5
:204C90005D4E02F01F0141F4F8511980316811F0030F18BF0125C90828BF45F002050FB1D3
:204CB00045F00405434693F90710411A052904DA9979A94208BF99886FD0DFF844E10F28BC
:204CD000A0F10F0829DB08EB0011A1F1F0084FEA28210091072984BF07210091062988BFD5
:204CF00006215EF821600424774604EB81043C594FEA950CA41BEE0804F0FF0124BFC4F39B
:204D1000072631446F08AE0824BFC4F3074631446E0828BF01EB146104E000214FEA950CBB
:204D30006F080091009C5EF824E05FEA5C060EF0FF0424BFCEF3072634447E0824BFCEF346
:204D5000074634446E0828BF04EB1E64009E89B2A8EB06267143803104EB1124AAEB0201F7
:204D70000029D8BF0121342209F0FF074A4391B24FF6FF727943B1FBF4F18A4238BF111C29
:204D9000802889B2998005DA10F1800FB8BF6FF07F0000E07F20D8719D711A4800681F295B
:204DB00018604FF0000008D340F2FF128A4206D24908401C8A42FBD301E01F219980134F87
:204DD0000F39090940EAC10047EA0001CBF8FB1F0026CBF8FF6FBDE8F88F0D490D4F4346B1
:204DF00008200F609B1D1870BDE8F88FEC0100103C1100506E620840242208408425002097
:204E10009C130050082009403500094000E7A48030100940FDFDA400AC3F00502DE9F04FD2
:204E3000804C0546E06893460F462E1CADF1140D16D0761E06D00095002040F2131139A395
:204E500005465BE00646002047A240F20F1104F1040804F1100914254FF0010A84460AE0CF
:204E7000002043A24FF4827104F1020804F1240928258446E246009201970346029001225F
:204E9000CDF80CC023A0049330A305F099F9BD422FDB484659463A4605F0B8FCBAF1000FA4
:204EB000A8F8007032D0B078002808BF32A103D001280CBF37A13DA13088002700903D4677
:204ED000012201913EA3029740F22311039511A0049505F075F906200090534F207804F103
:204EF0004C0349462A4601903046029704F0C4FF0CE0009700204FF496713CA30190029509
:204F100003900322049003A005F05AF905B0BDE8F08FC046646174615F7365727669636581
:204F30002E6300C0536574506172616D657465723A20506172616D6574657220232564205C
:204F50006E6F742076616C69642E00C0536574506172616D65746572203A202573206C6502
:204F70006E3A20256400C04653747265616D00C0537472696E6700C01B5B33336D4E6F74ED
:204F9000692F696E642064697361626C65641B5B306D00C04E6F74696669636174696F6E1C
:204FB00020656E61626C656400C046C0496E6469636174696F6E20656E61626C656400C083
:204FD000547279696E6720746F2073656E64206E6F74692F696E643A20636F6E6E48616E14
:204FF000646C652025782C20257300C04C656E677468206F75747369646520626F756E6454
:20501000733A204C656E3A202564204D696E4C656E3A202564204D61784C656E3A20256423
:205030002E00C04630150020397100002DE9F0410446804DA178A869ADF1180D891F00F03A
:20505000F280C91E00F0DD80491E5FD0491E48D0C91E3CD0481E40F0E980287A697AB8B99D
:205070006878002831D0A0880BF068FC071C00F0DD80A07A40080FD3787968B1E168890AF6
:205090000AD2B91D01AA04F0F7FF0A2804D10321A0880BF04FFCC9E0287B022802D1A07ABD
:2050B0000009F4D3A088797904F1080201F070FCA869002800F0BA804368002B00F0B6803B
:2050D00000210A46A0889847B0E00521E0E7002800F0AC804368002B00F0A880627802219C
:2050F000F0E70AF0D5FF002800F0A080A86950B1076847B1206900906189227B637BE01CD0
:205110003C46A04792E060890121C2E767784FF00008002F66D1A179490863D3EF69002F3C
:2051300060D101A841460E220BF07DF9A0880BF005FC071C7AD0606940B97879B91D06221B
:205150008DF80A0001A80AF0B9FD19E06669307C062206F111018DF80A0001A80AF0AEFDD5
:2051700007F10C00B91D06220AF0A8FDB81D062206F111010AF0A2FD307C40F00200787118
:20519000A079C00839BF387900F0FD00387940F002003871A079000939BF387900F0DF0062
:2051B000387940F020003871A1799DF81120C1F3800010438DF81100080905D39DF81100A9
:2051D00040F008008DF8110001A8214600F022FD28B92878022104F073FB404627E0A8692E
:2051F0004FF0150810B3436803B3A088627801219847B8F1000F19D0A86943680321424613
:2052100060E7E078211D002204F036FF0A280DDA410001EB800004F10C0225300421C0B2A1
:2052300003F050FA02E0A08808F04CF9012006B0BDE8F081941100202DE9F04F04467248CF
:205250008E46016894461F46BEF1000FADF13C0D4DD0BCF1000F4AD09EF800200120904083
:20527000014244D0BCF80000B0F5C15F32D1DCF81400DCF81860654BDCF81C50DFF890A11F
:205290000B904FF003080DF128090C9618680D95C0F3036B59F8046FCEB10021351F052028
:2052B0000B4655F8042FB2F1FF3F10D0924506D0401E01F1040103F10103F2D107E0052B78
:2052D00005DA705820F4702040EA0B407050B8F10108DFD1C4F804E0C4F808C00BF07DF848
:2052F0004C4D8046287820B140460BF053FB002087E002F0F1FC4849086840F002000860FE
:2053100007A80AF09DFE002605F1D00007AA4349099608F015FF424905F5827007AA08F045
:205330000FFF07A80AF05CFEFF20192107AB3D4A089005F1340008F089FE3B4A05F15000AE
:205350001A2107AB08F082FE3849324605F18800134608F03FF83649324605F1AC001346E7
:2053700008F038F8334A05F120000421334609F043FF0E2004F01CFC05F174000AF05EFD90
:2053900005F16C000AF05AFD2E740523EB60072085F898012E77AE616E772849AE60264A70
:2053B00069612B781670581C287040460BF0F2FAB1461FB968460AF055FD6F4638682060D3
:2053D000388A6082012060747B6813B940F6C4130646E3601A48A06126746061F86800B10A
:2053F000A061B86800B160614946582204F1200006F0F4FB04F13800494609F0B9FD6C60D0
:2054100020460FB0BDE8F08FD4210840541300500200F844C01C002000200940F5FB0000AC
:2054300031940000B9CD000049C700000DF60000C5F9000001D70000AE25002011980000CC
:2054500087A000002DE9F0477C4C2369E5680F4691460FF2D40A011CADF1180D11D0491EF4
:2054700007D000220746154640F2291133A328464DE043A040F22511A61D04F102081D462E
:2054900005E041A04FF48D71261D04F1010800900197002002900122039032A30490504625
:2054B00004F08EFE022F2CDA5FB3404649463A4605F0ACF93780A878002808BF34A103D076
:2054D00001280CBF39A13FA12888002700903E460122019140A3029740F239110396504647
:2054F000049604F06DFE07200090554F207804F114034146324601902846029704F0BCFC61
:205510000FE0012200204FF4A1713EA315460097019204460295032203905046049404F0D3
:205530004FFE06B0BDE8F087627574746F6E5F736572766963652E6300C046C0536574507D
:205550006172616D657465723A20506172616D6574657220232564206E6F742076616C69E6
:20557000642E00C0536574506172616D65746572203A202573206C656E3A20256400C046A2
:20559000425554544F4E3100425554544F4E30001B5B33336D4E6F74692F696E64206469A8
:2055B0007361626C65641B5B306D00C04E6F74696669636174696F6E20656E61626C6564CB
:2055D00000C046C0496E6469636174696F6E20656E61626C656400C0547279696E67207437
:2055F0006F2073656E64206E6F74692F696E643A20636F6E6E48616E646C652025782C20C1
:20561000257300C04C656E677468206F75747369646520626F756E64733A204C656E3A2025
:205630002564204D696E4C656E3A202564204D61784C656E3A2025642E00C0467816002061
:20565000D96F00002DE9FE4F0E468246307AC10693461F464FF000090CD558460BF066F9A3
:20567000030000F0E8800A223146504698475FEA00094DD130780C9D0D9CDDF83880022886
:205690001AD170680178407801EB002189B24FF42052891A012910D9891E3AD0491E14D057
:2056B000FD397AD0491E00F08180491E6DD0491E73D0491E00F09580ABE0002C2AD1F0683E
:2056D000017829800278416887E0002C22D101202880F1680A783A7000217089401C80B2F9
:2056F0000BF020F9298860B10278921C51182980418979704289120ABA7041680278F81C8F
:205710006CE0091D298004220021781C0AF08BFE93E0002C66D1F0680688042129803E70C8
:20573000320A7A700DF1020130460BF0FBF8040021D0D4F80C80BDF802204FF6FF766B463F
:2057500031460BF0EBF840B9237862683C4802210BF0E0F808B9ADF8006098F8000002288C
:205770000BD1D8F804100222381D0AF0A7FA2888801C288001E0ADF80060BDF80000B8708E
:20579000BDF80010090AF97057E0002C2AD1F068016850460AF014FC02E01CBBF068008860
:2057B000022129803870000A787046E0F0680AF03CFE80B2A042B8BF4FF007093DDB844209
:2057D00008BF002205D008EB04028242B4BF4246021B2A8092B2F068011938460AF06EFAE6
:2057F0002BE014B14FF00B0927E0F0680721298002783A7043787B704188B9704288120AA4
:20581000FA7001793971C2887A71C088000AB87113E058460BF07AF85FEA00090BD00F9868
:205830000290CDF8048000942B463A4631465046C847814601E04FF00E094846BDE8FE8F1E
:205850005A1701002DE9F04F09AF3D7981461C468A460846ADF1240D3F88069207F082FE17
:205870000026FF214BA3DFF8C8810790089108B3401E0ED030460090019040F2CD11029064
:20589000032203903CA3049037A004F099FC0A2066E051A00090CDF804904FF4E4710294F5
:2058B0000122039730A0049504F08AFC404600F1040B0FE04AA00090CDF804904FF4DD715F
:2058D00002940122039728A0049504F079FC404600F1020B05901FBB07EB0408B8F1020FF0
:2058F00018DAB8F1000F03D1182D10D0122D0ED0DAF80C0006992246C01904F087FFB8F1F7
:20591000000F1BD0ABF800800798089016E040F2E11101E04FF4EC71304633A30D2604E025
:20593000304640F2D31139A307260090019002900390032204900CA004F042FC0898FF281E
:205950000DD00598806850B1056845B1E419A0B20090079A069B41F210114846A847304609
:2059700009B0BDE8F08FC0466C65645F736572766963652E6300C0464174747269627574C9
:205990006520776173206E6F7420666F756E642E00C046C05772697465417474724342203B
:2059B0003A20257320636F6E6E48616E646C6528256429206C656E28256429206F666673EA
:2059D000657428256429206D6574686F64283078253032782900C0464C45443100C046C099
:2059F0004C45443000C046C0496E76616C69642076616C7565206C656E67746820776173BB
:205A10002072656365697665642E00C0416E20696E76616C6964206F6666736574207761CC
:205A300073207265717565737465642E00C046C0E81700202DE9F04F754F1E46ADF1340D82
:205A500001914FEA960902923D680090710809F1020221F0010105EB8200091D03909018A6
:205A700005EB80000490501805EB80038018059305EB8000079026F0030000F1080802EBF9
:205A9000080005EB800340180893801805EB80000990C6F39C008000083002EB4000411854
:205AB00005EB800305EB810B0A938918831805EB8104404405EB8303C6F3990105EB8000DC
:205AD0008900069038680B930A010021803206F085F84849DFF820A109682846AAF18802DB
:205AF00090470746B94518BF6FF001007ED128465546394605F1680290470198314609F026
:205B10008DFE002818BF012070D10298314609F085FE002818BF022068D103980199A8477E
:205B300004980299A847009881680598A847334B0399059A20469946C847012802D1BD005C
:205B500066590EB1032051E020460021424606F045F80499059A2046C847012801D16659B6
:205B70000EB1042042E0274B254D079803991E462A46B047089804992A46B0470799099841
:205B90000A46B0470A980999079AB0471E4D0B9807992A46B04720460021282206F01EF8E0
:205BB0001A4B0A990B9A20469946C847203520462A460146C847089958460A46B04706982F
:205BD0000021424606F00AF8FDB25846002D0CBF0122FAB20021635C455CAB4218BF052096
:205BF00004D1491C521EC9B2F5D100200DB0BDE8F08FC0468C4F0020B9DB0010C9DE00104D
:205C1000EC1A0020F9E0001040160100C9E60010884F00202DE9FF478146714CDFF8BCA144
:205C3000E069884600284CD1B9F1000F00F09480B8F1000F00F09080484609F049FA05466E
:205C50000A2D23DAD8F814702574002F37D0680010216A4600EB85002330C0B209F038FE30
:205C700090B950460778FF211022684609F057FF50B93FB999F80600494600F001000AF055
:205C900041FE01E00120A074E0691AE004F1E6070A2600253846FF21062209F040FF68B906
:205CB000761E07F10E0705F10105F3D1607C002804BF0A2020744FD094F836502574E069DB
:205CD00000E0257C0A2D47DA002835D168000E214A4600EB85002030C0B202F0F3FC207CD7
:205CF00007F052FD6846FF2110220AF09CFB207C10216A467030C0B202F0E4FC217C0E228F
:205D10000801A0EB410000194946E63009F0D6FFD8F814206AB15046007840B9107C02F16D
:205D30001101002300F001000AF0E8FD01E00120A074C4F81C804CE08268002A3ED1026926
:205D5000002A2FD142690ABBC2683AB9A07B08B108F088FF09F0ADFD01203BE068001021B1
:205D700000EB85002430C0B202F0ACFCE769217CFA68480000EB8100103225300421C0B212
:205D900002F0A0FCE1690020C86022E06800102100EB85002330C0B202F094FCE169002017
:205DB000486116E068001C2100EB85002230C0B202F088FCE169002008610AE068001C2183
:205DD00000EB85002130C0B202F07CFCE1690020886000200090BDE8FF87C0465A4F00201A
:205DF000941100202DE9F04F6C4CA068ADF13C0D002800F0858004F1B80B4FF00D0A4FF068
:205E10000A094FF0010878E00AF074FD2178CA0002EB41125A44B2E8E01004ABA3E8E0105F
:205E3000E0CAE0C364CA4F1C07F01F0183E8640004F10C05627821708A4208BF84F8028084
:205E50000AF0A8FDBDF83630A6212FA2284609F073FE28460AF060F8049F4619B8B209F0E3
:205E70008DFC4AA20CCA02F0AFFB4AA20CCA02F0ABFB07F067FD009025A2A91B3B0C30469E
:205E9000A63109F059FE28460AF046F8BDF834704019BF1E04D07F1E14BF21A229A200E0E4
:205EB00031A206990091059B2F1A07F1A60109F043FE28460AF030F84219A0682946521B3E
:205ED0000AF03CFA099800900A9E01960B9F02970C9B0393089B079AA621284609F02CFEF6
:205EF00028460AF019F8421902F801AB02F8019BA0682946521B0AF021FAA078002883D0F6
:205F10000FB0BDE8F08FC04623253036752000C05B2025642E25303375205D2000C046C0F3
:205F30001B5B33323B316D494E464F3A201B5B33303B316D2825733A256429201B5B306D86
:205F500000C046C01B5B33313B316D4552524F523A201B5B33303B316D2825733A25642976
:205F7000201B5B306D00C0461B5B33333B316D5741524E494E473A201B5B33303B316D28D9
:205F900025733A256429201B5B306D00000000000000F03E0000000000408F4008020020D3
:205FB0002DE9F0430546880FADF1140DC0F0BF80604C201D006840688768C668406800B189
:205FD0008047002F08BF002E08D009F055FF07B1B84706B1B047584809F0FAF857480AF018
:205FF00027F8574A40F60A0CA2F800C000205080117B60F3030111735060517B4FF001090F
:2060100069F303015173AB686E7C58801988A1F60201C9B141F21E07C91B15D041F6E6770D
:20603000C91B012920D8597E012E60F38201597606D0198B21F47C7141F43471198313E0BA
:20605000198B60F30911F9E7597C012E60F38201597405D0198A21F47C7141F4347102E062
:20607000198A60F309111982D5F8088068746146464600E03E46776817B13B889942F9D18E
:206090007260737B60F303037373E76E3FB1FB681B88CF1F9F421AD0891F994217D02F8CC8
:2060B000B7B1686205F12001488095F82C3060F3030385F82C3095F82D3069F3030385F8DB
:2060D0002D305160517B60F30301517300E0A0601C4801688768C568009110226946406BD5
:2060F000019720F0784040F0805003901648029504F08CFB09F0C0FE14486061607F68B959
:206110001348006801684846884701280CD0707B69F3030070730F4F676105E007F096FE1E
:206130000028FBD00AF067F9404609F081FF05B0BDE8F083C01C00200100070601010E0418
:206150001C2500204C1300501800002145340000E0010010D9CF00002DE9F04FADF1240DB0
:20617000079001F0B9FD5F48007809F01FF95E4D0024012806D90C3804D0401E0ED0401E18
:2061900009D006E009F0F2FC022804BF01210C1C06D0696805E005211F2401E003210724ED
:2061B0006960524A1068C0F38150012806D152F80C0C0127020E07FA02F0044309F030FF72
:2061D00005F1440AFF2253464018401E471C28607F1E03F8012BFBD1079A1268002602F04D
:2061F000FF03FE2B1DD0DDF81CC0964633460EF0FF07FF2F0ED0B84205D3B94203D8012296
:20621000BA40144201D0022069E016430EF0FF020AF802305CF804EF5B1C0EF0FF07FE2F67
:20623000E7D1092003F0C4FC07980121A86005F1280008F09DFE00274FF0010BB946284661
:20625000804600F198050BFA07F0044216D1064204BF07F0FF0141F4C04104D01AF807008C
:20627000079951F82010224802F0A8FAF8B24FF0FF3109F0A3F9C5F8009001E0042028606F
:20629000D8F800007F1C2D1D8742DCD904A809F0A7FE184C184A2078102104AB059008F1A5
:2062B0000C0007F0D3FE684609F0CAFECDF80C906A4660681149029008F1640007F040FF33
:2062D0000F4951F80D0C20F4F85040F4005041F80D0C0C4FC1F8FFBF4846C7F800B009B03A
:2062F000BDE8F08FB525002008130020B43F0050007FC767941A0100A9F900001DDE0000F9
:206310000D3009400800094061480178002900D170472DE9F843491E032984B004D9891F26
:20633000012940F2B180A9E05A4CDFF86C912068DFF8688103685A4E03F10805062205F143
:20635000080102A809F0BAFC0622A91C684609F0B5FC2878C1091D2700F00F02032AC0F3F7
:20637000801537D16079C0F3800081421ED12169062202A809F0D2F900287AD06946284603
:206390000AF03CFB002874D0314668460AF032FBFF286ED04743D8F80000807AF519002815
:2063B00018BF02280AD0012818BF032861D1F25D691C48460AF09AFA10285AD06B46EA1D8B
:2063D000294648460AF08EFA06226946E81D09F075FC4EE000F00F00052855D16079C0F3DC
:2063F0008000814245D12169062202A809F096F900283ED0694628460AF000FB002838D0D8
:20641000314668460AF0F6FAFF2832D04743D8F80000807AF519002818BF01280AD00228A6
:2064300018BF032825D1F25D691C48460AF05EFA10281ED040F2024007F0A0FE6B46EA1DB9
:20645000294648460AF04EFA06226946E81D09F035FC1448144A41F2044141804183418669
:20647000124801801249134811600121007803F027FA21680A680020107105E0002009F0C2
:20649000EDFA86200AF092FA05B0BDE8F08300BF6F4F0020F44B0020CC470020104F00205E
:2064B000AC450020204A0020204F0020504F0020595501106E4F00202DE9F04F0746ADF107
:2064D000140D0393002F02920E9801910F9C049000F0B680081C00F0B380101C00F0B08002
:2064F000181C00F0AD800498002800F0A980002C00F0AB80206A002800F0A280564D666AE0
:20651000281D0068002E00F09B80A16A0AF0E6F940B2002808BF6FF0020700F08D8084F8DF
:206530002C002078618800EB80000918143188B2216A88474749086030B9284640680AF048
:20655000C9F94FF0FF3777E08B46628823786088DBF8001025789E1800EB010A701800F1BA
:20657000040805EB450002EB4306851876186D18C01805F10C098018401800F110052046A5
:2065900007F074F92078C01C8010CAF800002078C01C8010C8F8000020780836C01C8010BB
:2065B00030602078C01C8010C9F800002078C01C80102860227839460AF1040004F026F9BF
:2065D0002278019908F1040004F020F922780299301D04F01BF92378204641463246FFF7ED
:2065F00029FA071C12D100955046414632464B460AF06CF947B22278039809F1040104F027
:2066100005F922780498291D04F000F921786288DBF8000001EB81015218002105F0DEFAE7
:20663000616ADBF8000088470B4840680AF052F9F8B2992808BF002784F82C70384606E0C8
:206650001CB16FF0010084F82C006FF0010005B0BDE8F08F884F0020E41A002010B5401EE4
:20667000ADF1280D30D0401E28D0801E22D0401E1CD0401E0DD0401E07D0401E5BD10020ED
:2066900040F2553131A304464CE040F2493131A317E040F2153006A901F0DCFC06A806F0DE
:2066B00089FF00244FF4517131A33BE040F2513139A306E040F24D313DA302E040F23A31A5
:2066D00040A3002420462DE04FF4417008A901F0C1FC9DF821308DF8193000248DF81C4024
:2066F0008DF81B409DF822208DF81A209DF825108DF81F109DF820008DF818009DF824305B
:206710009DF823208DF81E303C498DF81D2006AB586848601A680A6008A806F04BFF40F250
:2067300035312BA30090019402940122039403A0049403F045FD0AB010BDC04670726F6AE8
:206750006563745F7A65726F2E6300C04572726F7200C046436F6E6E656374656420616EEB
:2067700064206164766572746973696E6700C046436F6E6E65637465642E20506565722052
:20679000616464726573733A201B5B33326D25731B5B306D00C046C0436F6E6E65637469BD
