:1000000000440020C5A7010001C9011001C9011069
:1000100001C9011001C9011001C9011001C9011074
:1000200001C9011001C9011001C9011001C9011064
:1000300001C9011001C901103FC90110DFF800F02A
:1000400085BF0110DFF800F061C00110DFF800F09B
:1000500079BF0110DFF800F0A9C00110DFF800F04F
:1000600089AF0110DFF800F055BC011020B1082362
:1000700030220021FFF7EABF7047F8B51C008CB0B2
:1000800005460E46174603D1002300F0DBFA0CE0CC
:100090006846FFF7EBFF206805906B4660680890A4
:1000A0003A4600F004F800F0CDFA0DB0F0BD207A29
:1000B000ADF81800314628467047FFF7CBBFFFF771
:1000C000BDBFFFF7CBBF80B500F0DCFA401E80411A
:1000D000C00F02BD00F0DCBA00F0E4BAFFF7C2BF07
:1000E000002101604FF0FF3201234260037270472C
:1000F000FFF7A8BFDFF800F0C1BF0110DFF800F084
:10010000B9BA0110DFF800F0E5C00110DFF800F027
:100110001FBE0110DFF800F0DDC00110DFF800F0B5
:1001200069B20110DFF800F091BE011020B1082380
:1001300024220021FFF7DEBF7047F0B51C0089B014
:1001400005460E46174603D10023FFF7E7FF0FE0F1
:100150006846FFF7EBFFA16806916B462278ADF881
:1001600010203A466068059031462846FFF7D6FFD2
:100170000F48104A01681160284609B0F0BDFFF72A
:10018000C9BFFFF7CFBF00F095BA80B500F0A9FA5C
:1001900000B10120C0B202BD002181600170416048
:1001A0007047FFF7AFBFFFF7B1BFFFF7A7BF000072
:1001B000CCFC0100681B0020DFF800F011BF01102B
:1001C000DFF800F005B30110DFF800F015C00110F2
:1001D000DFF800F015C1011020B10823282200210A
:1001E000FFF7F2BF7047002101604160C1604FF02E
:1001F000FF318160704770B514008AB005460E4625
:1002000003D1002200F074FA0CE06846FFF7E4FF27
:10021000206804906A4660680590314600F004F852
:1002200000F066FA0AB070BDE0680790A06806901A
:1002300028467047FFF7CCBFFFF7BEBF00F064BA97
:1002400080B500F01FFA012818BF002002BD00F0A1
:1002500065BAFFF7B5BF00F071BA024602291078FF
:1002600003D1517800EB01207047032906D1517862
:10027000927800EB012000EB02407047042908D17E
:100280005178937800EB0120D17800EB034000EB2C
:100290000160704744490A681040C2430A600A6816
:1002A0000242FAD17047414A11680029FCD100236B
:1002B000D3611060D0690028FCD0D16150687047CC
:1002C0003B48016821F0020141F400710160032103
:1002D0003848816041F2300141610121C160502103
:1002E00041610121C1604FF4CA6141610121C160D6
:1002F0000160704730B50446002000E0401C984281
:1003000009DA54F8205015F1010F04D015408D4240
:10031000F4D1C0B230BDFF2030BDD0B584B001886B
:10032000B1F5C15F24D14269009200278169019132
:10033000C069029020480168C1F303665DF8274058
:1003400084B105234FF0FF321C492046FFF7D2FF4E
:10035000042807DC54F8201021F4702141EA0641FA
:1003600044F820107F1C032FE8DB002004B0D0BD30
:100370000120FBE712490A681040C2430A60704737
:10038000104802680A6082684A60C2688A60406BEE
:1003900020F0784040F08050C8607047014610223D
:1003A000094800F0CFB800001010044000100440CD
:1003B0000000046000410440541300500200F8445F
:1003C000081004404C13005018000021704710B56D
:1003D0000446FFF774FE002161602160BDE8104013
:1003E000FFF786BE38B50546FFF769FE2C683CB1BD
:1003F00021682960216800291ABF00224A606960CB
:10040000FFF776FE204632BD38B500F00FF8002128
:10041000296062686A606168002914BF0D60256008
:100420006560FFE7BDE83240FFF762BE04460D4657
:10043000FFF745BE38B5FFF7F9FF29686A6800295C
:100440000CBF62604A6069682A6800290CBF22609C
:100450000A60E7E7DFF800F009C00110DFF800F0FC
:10046000D1B20110DFF800F0059B0110DFF800F0B9
:10047000E1A30110DFF800F05DB40110DFF800F037
:1004800009C10110DFF800F00DC1011020B10823EF
:1004900024220021FFF7DEBF704730B589B0044643
:1004A0000D4600F00BF801218DF818106A46294618
:1004B0002046FFF7DFFF204609B030BD6846E5E77C
:1004C00018B589B00446FFF7F9FF01218DF818101F
:1004D0002046034A6946FFF7C1FF0AB010BD00007D
:1004E0004C08002080B500906846FFF7C7FF01BDAB
:1004F000FFF7C8BF80B5FFF7B5FF10B94FF0FF3069
:1005000002BD002002BDFFF7B1BF10B501688A0827
:100510009300CC0801F0030003F00403E200184349
:100520000B0902F008021C0110434A0904F01004F0
:100530005301204303F020031843890940EA811046
:10054000C0B210BD62B38B0708D0521E11F8013B38
:1005500000F8013B00F024808B07F6D1830740F0C0
:10056000208000BF103A07D330B4B1E83810103AF9
:10057000A0E83810F9D230BC530724BFB1E8081006
:10058000A0E8081044BF51F8043B40F8043BD207F0
:1005900024BF31F8022B20F8022B44BF0B780370E4
:1005A0007047121F17D35B0009D151F8043B20F8A4
:1005B000023B1B0C121F20F8023BF6D20BE051F855
:1005C000043B00F8013B1B0A20F8023B1B0C121FE6
:1005D00000F8013BF3D238BF121D521E24BF11F8A0
:1005E000013B00F8013BF8D8704730B4002513E018
:1005F00050F8042BD30744BFA9F101039A18091F2F
:10060000042942F8045BFAD213468C0744BF1580D4
:100610009B1CC90748BF1D7050F8041B0029E7D177
:1006200030BC7047002203F021BA01700A0A0B0C9B
:10063000090E42708370C170001D7047DFF800F032
:10064000BDAA0110F8B504460B480C4F0668F869BE
:100650000D4650F82510B1420AD1094800902946AC
:100660002046FFF7EBFFF86950F82510B14201D1A1
:100670000020F2BD2046F2BD181200004401002007
:100680004C0800200148007D704700BFA4010020F5
:10069000102803D302491038C1F8000F704700BF7B
:1006A00000E000E08160426070470000DFF800F089
:1006B0009DB2011070B5044603F0E6F90646A08A23
:1006C0000025012808D1FFF7F1FF0546E068A16881
:1006D000451BA94238BF0025304603F0D6F928460D
:1006E00070BD808A70470000DFF800F079AD01101E
:1006F00010B50446034BFFF7F7FFA06800B1204692
:1007000010BD00BF4C08002001488068704700BF42
:10071000C8010020DFF800F011B0011038B5044620
:100720000D4603F0BFF9616A0D43656203F0BBF942
:100730002046BDE83240FFF7EDBFFF7F70B50D46A4
:1007400015F1010F044608BF052503F0ABF9064675
:100750000120A840A06165612946054A506903F05F
:100760009FF9A0623046BDE8704003F09CB900BF1D
:10077000C80100202DE9F84F040004BF002008F054
:10078000A3FB04F1500941F62300D9F80060308042
:10079000002171800CF0A4F900F57A60B0600221AC
:1007A000822030737173B068217E2061B1730020A4
:1007B000F073D9F80410087D022804BF002008F067
:1007C00083FBD9F80400007D012802D1002000211C
:1007D00004E083280CBF06200220202130747174AD
:1007E00004F1240BD9F80400DFF878834178480637
:1007F00015D5D8F83410486902689BF80500511CDB
:1008000000EB4000095A7182607DC10604D5E07F8B
:1008100040F04000E07702E040F04000607506F1F3
:1008200058050020287104F130009BF81A10890047
:1008300001F00401297128614FF01E0A607DC10694
:1008400044D506F130003062D9F8040041788A06B8
:100850000BD5617D01F0FE016175407810F0030F4A
:1008600003D1E07F00F0FE00E077607D00F080F9CA
:100870000246A275521C307CC0F38001002392B264
:1008800000F0030000F08DF9A0831E23A08BE27D11
:1008900000F5FA7100F5FA7090FBF3F34A430AFB96
:1008A00013006283C0B208B1C0F11E008018A1839A
:1008B000608380B2B168C03001EB8001A960022082
:1008C000E871E17F41F00801E17714E00020306237
:1008D000607D40F001006075D9F804104A78510736
:1008E00044BF40F002006075607D00F041F9A075E2
:1008F0000020A860E871A07D217D60F3050106F16C
:100900008800217501700321627D8170427006F1BB
:1009100028079BF81A10890001F0040141F0030137
:1009200081709BF81B20D20002F0080211438170F5
:100930000021C1708160BBF81C00C0F30B00ABF854
:100940001C00D9F80410CA7D40EA0230ABF81C0044
:100950000022617D01F0FE01204600F041F940F6E1
:100960001200B0830021F183A0207062072139704A
:10097000607DC1064CBF00200220787041F6240142
:10098000E07D7880398100207881B168608B01EB4F
:10099000800139610220822139757875002094F830
:1009A000211001F03F01B975F875D9F80410887D60
:1009B000012818BF022804D100F07F00401E00214A
:1009C00004E083280CBF06200220202179763876A7
:1009D000D8F8340041690A689BF80510501C01EBF7
:1009E0004101405A788300216961D9F804004178B7
:1009F00011F0030F1BD000F059F96861D8F8180006
:100A00000078C1074CBF1021002182074CBF202273
:100A1000002243074CBF4023002300074CBF802027
:100A2000002011431943014341F00F0129760020B2
:100A30006876D9F80410887C00F0030068769BF88B
:100A40001A10890001F00401084368769BF81B1016
:100A5000C90001F0080141F01001084368764249DD
:100A6000087838B1687E40F040006876287E00F053
:100A7000FE002876E07F00F07BF884F82000204616
:100A800000F02AF9E07FC1063AD5D9F8040094F8BD
:100A900020204178521C88074EBFD21E9BF81F00B1
:100AA0008218387EC0F380010023D2B200F0030028
:100AB00000F077F8ABF80000BBF8000000F5967185
:100AC000C1F11E0291FBFAF10AFB012A8BF804A086
:100AD000D9F8042051788A074CBF00214FF4FA71ED
:100AE0000818ABF80000ABF80200BBF800209BF838
:100AF000040039698218C03201EB8201022001E052
:100B000000210020E961E87604F13000A862D9F8FC
:100B100004104A78687E510747BF04F1380140F05D
:100B20002000124900F0DF00E9626876022294F8A2
:100B30002000A17F60F30501A17740F60B00B88487
:100B40000021F984F96229706A7094F84500688080
:100B5000D9F804104878810744BF0120688000203C
:100B6000BDE8F28FE49A0100784E0020D0470020C3
:100B700001460020CA0748BF06208A0748BF801DDB
:100B80000A0748BF801CCA0648BFC01C8A0648BF67
:100B90001230490648BF401CC1B201B1401CC0B26E
:100BA000704703B104239A18012802D0022806D006
:100BB00012E00B32D20002EBD272501070470029C3
:100BC0000CBF08210221921C4A43D2001B2000FBCB
:100BD000012202F5BC7070470A32D0007047000055
:100BE0002DE9F843814609F1480716460D46BA68D3
:100BF000A80702F1A40409F12A0818D5F968487871
:100C000010F0030F04BFB8F81C1000290FD138688A
:100C100068B992F88A0000F0FD0082F88A00062286
:100C2000FB6803F10C01204606F0E5F9A41D280736
:100C300008D5B8F8161004F8011BB8F81600000A19
:100C400004F8010BE90609F1210018D5B8F80020D5
:100C5000332AFA680778937DB4BF012100215A1E18
:100C600007F03F0747EA8117D2B2C6F30C06277098
:100C700046EA423666703604360EA670E41C6906F3
:100C80000DD5084A516B4A69007A1368064A00EB91
:100C900040001956136893F9040041182170BDE80B
:100CA000F18300BFE49A0100C41C00200749002022
:100CB000888007488269507809602430C880002203
:100CC0000448016042608160C2607047C01D00201E
:100CD000E49A0100A44D0020F8B5044604F1420551
:100CE000002004F14806E870A8806870A8703060A1
:100CF00094F82030C3F1FE032B70607DC1064BD504
:100D00000120E870F7687878C10702D410F0030F6B
:100D100001D1326902E080073ED57269002A1FBF07
:100D2000D2F805100029B2F80300002834D0316051
:100D3000B2F80300A880A88870B3797811F0110F79
:100D40002AD1E17FDBB2834232BF41F0180101F0CA
:100D5000EF0141F00801E177E07FFFF709FF84F838
:100D60002000C0F1FE00A9880A46C4B292FBF4F349
:100D7000287004FB132404B10124E318DCB2012C15
:100D800008BF08466870EB7068780FBF0246DBB298
:100D90005B1E00FB1322AA70F1BD00000200034A93
:100DA00008BF034810600348017070470C0D002015
:100DB000C77E00007E0D0020024A106002480160DC
:100DC000704700BF9C1B0020A01B0020DFF800F034
:100DD000D57E01103EB505460124A87801280146BC
:100DE00005D0032807D0062811D00A285BD1294650
:100DF00015F05AFE58E0A8882A4600F059F8044633
:100E00002B896A89E988A88815F08CFE4CE0A888AF
:100E100001224021FFF7DAFF002007F0BFFFC0B238
:100E2000022821D1102007F015FC010016D0D02097
:100E300008701120EA784A708870AA888A80E88849
:100E4000C8802A890A81688948810020AA898A8104
:100E50008873164A107807F0C7FC25E0A88800229E
:100E60004021FFF7B3FF1FE0A988ADF8001001286B
:100E700003D100208DF80B0011E080B9E888ADF8AF
:100E8000020000212889ADF804006889ADF8060049
:100E9000A889ADF808008DF80A108DF80B40684657
:100EA00015F05EFE00E0002420463EBDA245002075
:100EB00070B50C46154615F000FF012604280CBF3E
:100EC00006480748006800281CBF0268002A03D0B3
:100ED0002946204690470646304670BDAC4E00205D
:100EE000A84E002070470120704712000110071C17
:100EF0001E0020401800204404C20001C00520014B
:100F0000010000781718520001100708020020485D
:100F10000900200111D301000111182104830100EF
:100F200001A10CD003FC0900200001432C0A14206D
:100F3000023401002004523C0422000150026CDC07
:100F40000200015003B8080020030D1003731201C2
:100F500000B904F3010100012002780900201712F2
:100F60000001000208020020000208000000030047
:070F700000520001520001D4
:10100000B41200001810000015AB0110FDB3011060
:101010006DC00110FDAE011099B5011059BA011053
:1010200039BA01102D000000B01200003C10000081
:10103000B1C00110A9BF011067C0011069B801104B
:10104000B9B9011099B9011030000000B0120000C8
:1010500060100000BDC00110CDB30110D9BD01105A
:101060006DB301108DB80110D9B901103100000025
:10107000000000006C0800200400000000000000D8
:101080000000000020000000AC9D010030000000C6
:10109000281000008C080020040000000000000060
:1010A000000000000C0000001CA701001800000058
:1010B0004C10000094080020040000000000000014
:1010C000000000002400000034A701001800000008
:1010D00000000000D4080020040000000000000010
:1010E00000000000100000009C9E01002C00000089
:1010F00000100000F00800200400000000000000C4
:10110000000000002000000014A2010024000000E4
:10111000FFFFFFFFF80800200400000000000000AF
:10112000000000002800000038A201002400000098
:10113000FFFFFFFF20090020040000000000000066
:1011400000000000140000004CA70100180000007F
:10115000FFFFFFFF2809002004000000000000003E
:1011600000000000580000006C9C010034000000EA
:10117000FFFFFFFF30090020040000000000000016
:10118000000000001000000064A70100180000002B
:10119000FFFFFFFF380900200400000000000000EE
:1011A000000000001C0000005CA201002400000000
:1011B000FFFFFFFF400900200400000000000000C6
:1011C0000000000038000000D4A00100280000004A
:1011D000FFFFFFFFA809002004000000000000003E
:1011E0000000000054000000B89901003C0000001D
:1011F00001000000D0FC01000100000000000E0012
:1012000000000F0032000000010000007408002000
:10121000000200000000000001C9011000000000F1
:101220000000000008000000000022009C080020D0
:10123000000000000000000008000000000900207D
:101240000000000000000000080000000000000096
:10125000000000000000000000000000010000008D
:10126000480900200600000001000000B00900202D
:10127000000000000000000000020000000000006C
:10128000290001002500300031002D00010001007F
:101290000400000040A80100000000000000000061
:1012A000000001000000030013C40110CD12010072
:1012B000B8120000B812000000000000E40800208E
:1012C0005911010020000000DCA70100FCA0010072
:1012D00029C101100B700000F37C0000A1C70110B0
:1012E000A3C70110000000008F1200001CFB0100CA
:1012F00034FB010004FB01000200090001000000B2
:1013000001120001A1A0010075A00100F5A50100D6
:10131000D59C0100799D01004DFB0100997E0100E3
:101320007DA70100D1100100111301001513010068
:1013300070B500230646DFF89C0C00EB831000F12B
:101340003C04B4F90050B54204D10D0006D0E47855
:101350000C4203D15B1C082BEDD3002070BD2DE99E
:101360007043064614461D46FEF7A9FE6EB1D6E947
:101370000A2322432B43C6E90A23D6E9088948EA0F
:10138000040449EA0505C6E90845BDE87043FEF7CF
:10139000AFBE10B50129044698BF0121FEF701FF39
:1013A0002046BDE81040FEF7FEBE38B504460D46A7
:1013B00001F093F8A04231BF241A641E241A641C61
:1013C000A40805F57A70A04238BFB4F1405F05D299
:1013D000641B012C98BF0124204632BD002032BD81
:1013E000F8B50446DFF89C0B40690025F0B1C368EE
:1013F000197B012501F00F01022914D10069DFF8E2
:10140000886BC168408A96F8627041181922986802
:1014100002FB0711FFF7C9FFDFF8BC1B20600A6859
:10142000B0FBF2F002E00023236000E020602846D9
:10143000F2BDDFF8A81B0A680020D30705D5DFF846
:10144000A00B0068C00900F001007047F8B500F07B
:10145000B1F90546002C1CBFA07A00282AD094F9C7
:1014600009600127FFF7E5FF07FA06F658B194F97E
:101470000900DFF8701B4A68113007FA00F0C0431A
:1014800002404A6008600020A07220722060606004
:10149000C4E90400DFF8501BA06194F909000A7840
:1014A0008740174388780F7008B1401E8870F0B2EB
:1014B00000F06DF92846BDE8F240FEF719BE03289A
:1014C00004DADFF8C41A01EB4010704700207047BF
:1014D0002DE9F0410025DFF8B08ADFF8086B01271D
:1014E000E8B2FFF7ECFF040034D0A07A012831D134
:1014F00094F90900113007FA00F0C14331607268B5
:101500001043706094F9090007FA00F0C0B200F0CF
:1015100032F9002104F1100000F04FFF812809D1B9
:10152000A06920B1002100F048FF812802D10220EB
:10153000A0720FE081280DD098F8610094F909207D
:1015400011219140084388F861000021DFF8840CE4
:10155000FEF77DFE6D1C032DC2D3BDE8F0812DE9A1
:10156000FE4F0C466FF001018DF800108346904647
:101570009946FEF7A4FD01900025DFF86C6A01276B
:1015800096F800A0AF401AEA070F0CD04FF0FF32D8
:10159000914518BFA94506D1E8B2FFF790FF10B1F9
:1015A000817A00294AD06D1C032DE8D33FE002293F
:1015B00018D140F20361218294F90910628A491D11
:1015C00061F30B2262824179628A61F3C70262820F
:1015D0008179628A61F34E326282C079618A60F3F6
:1015E0000C31618200220D9878B10278417894F92B
:1015F0000900520142EA8102401D42EA00224FF6F0
:10160000FC710A40DFF8D00B0243A2615FEA0802D6
:10161000DFF8701918BFC4F80480086B08B9226895
:101620000A6300F018F994F909008DF80000019898
:10163000FEF75EFD9DF90000BDE8FE8F2AEA070770
:1016400037700122827245722146B278521C0446DC
:10165000B270C4F800B021720FF24950217A606074
:1016600001290C98A3D194F909200A21521D218245
:10167000A27480686061B5E738B504281BD1DFF833
:10168000044904F1DC052846FEF77FFD98B12846A1
:10169000FEF779FDDFF8781C0A685043B0F5967FB5
:1016A00009D22846FEF781FD052001F06DFA0120E0
:1016B000607300F002F8002032BD042104F13C0008
:1016C000FEF7C5BD38B5DFF8144BDFF8B8586069D0
:1016D000002161610022E068E16005F170000FF215
:1016E000F941FEF7F9FC0020FEF770FEDFF8240C4C
:1016F00001680A6B9047696B814231BF401A401EF6
:10170000401A401CA9684FF0FF32A2EB10328A4207
:1017100034BF4FF0FF3001EB1030A860287B20B1C0
:10172000A86BA968C00288421ED2FFF782FEB8B13A
:10173000DFF8880B40F60901018000224280417BDE
:1017400001F0F00141F001014173017B01F0F00172
:1017500001734260E2612060418811F4406FFBD068
:10176000012000212873A960FEF7AAFDDFF8A41C60
:101770000020086031BD10B500F01CF8DFF8041837
:101780000A7C14430C74BDE81040FEF7B1BC38B5B8
:1017900000F010F80546DFF8EC07017C21EA0404AC
:1017A0000474027C110703D408213C30FEF74FFD7E
:1017B00000F083BF0446FEF782BC2DE9F84F0546D2
:1017C000002129606846FFF70BFE044600264FF013
:1017D000FF3A0027DFF80098DFF8ACB7DFF8A487FE
:1017E000F8B2FFF76CFE00281CBF817A002917D0E1
:1017F000017A0126022922D0D8F83020D168528AF5
:101800009BF8623040695118192202FB0311FFF75F
:10181000CCFDD9F80010B0FBF1F0504598BF8246DE
:101820007F1C032FDCD330460CE0296002E008B1B6
:10183000C5F800A0204318BF0120BDE8F28F0120A9
:101840004FF0000A002CF2D000280099EDD051454D
:10185000EBD95146E9E77CB5DFF828472178022922
:1018600003D11920FEF736FC73BD217801291BD066
:10187000FEF725FC05466846FFF79FFF04F1DC06EE
:1018800060B1009820B101463046FFF782FD08E0C4
:101890003046FEF78AFCFFF710FF02E03046FEF705
:1018A00084FC2846FEF724FC73BD7CB5DFF8D456D3
:1018B0006C69686A002848D1002C41D06846FFF75F
:1018C0008FFD00281CBF0098002803D00820FFF7D8
:1018D0005EFF73BD0820FFF74EFF05F11400FEF711
:1018E00081FD6862D4E90601C243DFF8F856AA60B8
:1018F000A9680142FBD1EA68D4E906010243EA6023
:10190000D4E90623DB432B606E68D4E906010E435D
:101910006E60E4682046FEF7C6FC208840F60201AF
:10192000401A08D041F21E01401A04D041F6E67177
:10193000401A012809D82146012000F01EF973BD84
:10194000022105F13C00FEF782FC73BDDFF834068E
:10195000016B8A6801F12003506830B1984218BFCA
:101960000246F9D101E000207047507B10F00F0FC4
:1019700002BF488C40F609018842F4D1012070472B
:10198000F8B5DFF80066DFF8440B756AFEF7F2FC85
:101990000446DFF83C0B0268076802F02002224090
:1019A00018BF002D07F460270BD01346B562002244
:1019B0002846FFF7D4FC4FF4804106F13C00FEF7C7
:1019C00046FC3C400ED0DFF8C00590F8611041EABB
:1019D000544480F8614006F18C00BDE8F4400021D9
:1019E000FEF735BCF1BD2DE9F843DFF89C8598F88A
:1019F0006100002448B1002698F861000121B1403F
:101A000008420ED1761C032EF6D398F8610030B14F
:101A1000BDE8F4430021DFF8BC07FEF718BCBDE8C1
:101A2000F18398F861001021B140084218BF0124E9
:101A3000FEF745FB98F861101122B240914388F8F7
:101A40006110FEF755FBF0B2FFF739FD02001CBF35
:101A5000907A0028D9D092F90990DFF8941B01EB15
:101A60008901002C0F681668556804BF107A022897
:101A700003D1D2E90401C3000CD41046FFF7E6FC01
:101A800044B10020009000224FF0007349463046D8
:101A9000A847BAE7009700224FF00063F6E738B591
:101AA000DFF8E054686A70B36A6AD2E90601FEF7AB
:101AB000F1FB0446686A22460023FFF750FCA007AA
:101AC00018D56A6ADFF8083A9C68D2E9060120F066
:101AD000020084439C606A6A1C68D2E906018C4358
:101AE0001C6005F11C00696AFEF78EFC002068622C
:101AF000022104E03CB1686AA8624FF4804105F11C
:101B00003C00FEF7A4FBFFF7E3FCBDE83140CCE668
:101B1000DFF87004B0F92C10B0F92E00814204BF38
:101B20000820FFF734BE70472DE9F042074689468A
:101B30003E6E14461D4606B1B047D7E91601044073
:101B40000D4008BF002C16D080214846FFF7F0FB5F
:101B5000C7E91A4538B1D0E90823A243AB43C0E92D
:101B60000823396E81600020386607F13800BDE82F
:101B7000F042FEF7C8BCBDE8F08238B50A46DFF88F
:101B8000141B4B681C001CBF8968014207D0DFF89A
:101B9000F4530146286B01B0BDE83040184731BD11
:101BA00000000000704780B5FEF748FBDFF8D42343
:101BB0000146106B5268BDE808401047DFF8C403C7
:101BC0000FF229424168914208BFFFF744BE042149
:101BD0003C30FEF73CBB000038B54FF0FF30FEF75D
:101BE00059FBDFF8A0530FF20541044668688842AC
:101BF0000FD10022DFF8CC1A05F17000FEF76CFA65
:101C000002202870FFF7A2FE18B9FFF761FCFFF76A
:101C10004CFEDFF83C0B044207D005F13C00BDE868
:101C200034404FF00051FEF712BB31BDF8B5D54D31
:101C3000EC6924B3E168082040F6030340F604068B
:101C400019B3C2B20AB30A889A421EBFB2424968A7
:101C5000401EF5D114E0086818B9BDE8F240002034
:101C600056E710F1010F0AD0DFF8A4160A68B0FB9E
:101C7000F2F105F58070BDE8F440FFF78ABBF1BDD5
:101C8000206918222030FEF76DFCD4E90A230026D3
:101C9000C4E90A66A06858B1B4F93C102069A66886
:101CA00013F0E2471CBF02F0000203F0E243B0472A
:101CB000FEF705FA0646E88D401CC0F30B00E885E8
:101CC000002084F83F0005F11C00FEF78BFB00F0BC
:101CD00001FCB5F92E00B5F92C108842CFD1296B43
:101CE00091F870000028B6D0002281F87020B4E787
:101CF00038B50D46A807A34C0ED5FFF797FFE0694E
:101D000038B145F0020104F13C00BDE83440FEF773
:101D10009EBABDE831409EE5680747D5DFF8F41567
:101D20000A68106B80476063606908B100692063CE
:101D3000206B4168DFF8AC0A0A780260022000F0EC
:101D400023FF112000F035FF0121DFF84829217021
:101D5000907810B90E2000F02CFF206BDFF87C2467
:101D600041688868002804BFC868002804D00021A2
:101D7000D161DFF8740A10600721DFF89836196026
:101D80000021506951619069916150690FF2210100
:101D900040F0804040F00200506161601A20FEF780
:101DA00090F9BDE832401920FEF78BB931BD000033
:101DB0002DE9FF410646880040F1CC80714C206B34
:101DC00041684868D1F80880CF68010018BF804793
:101DD0005FEA080008BF002FDFF800540ED0E86962
:101DE0000028FCD00021E9615FEA080018BFC04765
:101DF00007B1B847DFF8B00AFEF755FA0020E861EE
:101E00000120DFF8A81A296040F60207FEF7DEFA83
:101E1000DFF8A82440F60A03138000205080117BCD
:101E200001F0F00111735060517B01F0F00141F0BD
:101E3000010151730021D6F80880707CA8F80210C7
:101E4000B8F80010C91B1DD041F21E07C91B19D0DC
:101E500041F6E677C91B012928D8B8F818704FF663
:101E6000FF310F40A8F8187028B14FF60F403840E6
:101E7000A8F818001AE02D20394660F30911A8F8D7
:101E8000181013E0B8F810704FF6FF310F40A8F8A3
:101E9000107028B14FF60F403840A8F8100005E048
:101EA0002D20394660F30911A8F810100020707435
:101EB0004746786800281EBF018899420746F8D136
:101EC0004AE0308CA8B100217184716206F12C00C7
:101ED0004378017803F0F00301F0F00143F00103CF
:101EE0000170437006F120005060517B01F0F00159
:101EF000517369464046FEF743FA6846FEF74EFACC
:101F0000E8690028FCD00021E9610FF2E102607B62
:101F1000626030B100F0C6FF0028FBD000F0D3FFB4
:101F200010E0DFF88C190A6813680120984701282F
:101F300008D0787B00F0F00040F0010078730FF2D9
:101F40004D0060600021E961C5F800804146012034
:101F5000FFF713FEBDE8FF817A60787B00F0F000A8
:101F6000787360690028ACD0C068008840F603012F
:101F700088421CBF40F604039842A2D1002060634F
:101F8000B7E700004818002080140020DFF824097B
:101F9000014200D17047DFF81819012010B50A6816
:101FA000DFF8144913689847012808D10FF23D0063
:101FB000C24A606000218948C161026010BDD449F5
:101FC0000A683220B0FBF2F104F1DC00BDE81040F9
:101FD000FFF7DFB980120020681B00204021084075
:101FE0000000044008100440E01400202DE9FC47E4
:101FF00004460E467004DFF8C0782BD5FEF75FF874
:10200000BD6A15B3D5E90A2302F00A0413F0E041D2
:1020100008BF002C19D1D5E90A48D5E90A23A24303
:1020200023EA0803C5E90A23FEF762F8A86870B13D
:10203000B8F1000F08BF002C09D0B5F93C10286991
:102040002246AC684346A04701E0FEF751F826F46B
:102050008046B6E0B00051D5DFF8B8A2FEF72FF801
:10206000DAF854100A6880460420904700281CBF04
:10207000207C002822D0786B00B38146DAF800007B
:10208000E568016B8847814531BFA0EB0909401E17
:10209000A0EB090000F101094FEA1930A842E06005
:1020A00002D205446D08E56040F2D171E068A0F508
:1020B000FA70884224BF40F6C410E0604046FEF744
:1020C00017F8FFF743FC78B1D4F8188000224FF0DE
:1020D00000736FF480712046C047786910B1FFF734
:1020E000BAFB01E046F002062046646900224FF088
:1020F00080630021A04726F0005662E0B00707D5B4
:10210000FFF794FDF86900285BD126F0020658E03D
:10211000300756D5397C08074FD4397C08064CD493
:102120006846FFF74AFB10B10098002845D0DFF859
:102130008C1791F8610000283FD10024E0B2FFF72E
:10214000BEF900281CBF817A002908D001228272C2
:1021500090F9090002FA00F1C8B2FFF718FB641CFD
:10216000022CEBD90320387007F58070FEF71DF8BC
:10217000FFF7A8FA00210220FFF7FFFC022000F081
:102180009EFC112000F0B1FC787C18B9386B383017
:10219000FEF7B9F9DFF8FC14887810B90E2000F0CA
:1021A000A4FC787B20B100217973052000F087FC26
:1021B000DFF80C07786000213970FFF74CFB26F040
:1021C000080626B1314607F13C00FEF740F8BDE8AD
:1021D000F3870000D418002001000406001004401A
:1021E00038B584B000F0D0FBDFF8D806DFF8A4548F
:1021F0000168DFF8C44641F0020101606846FDF75E
:10220000F2FF6878DFF8C01602906A4604F13C00DD
:10221000FDF7F1FF6A46DFF8B41604F18C00FDF714
:10222000EAFF6846FDF75CFF2878DFF8A4260190F6
:102230006B46192104F17000FDF71FFF6B46DFF8B4
:1022400094261A2104F1C000FDF717FF0023002295
:10225000DFF8841604F1DC00FDF76FFF0023002295
:10226000DFF8781604F58070FDF767FF0023DFF8CC
:102270007026042104F5927000F00FFCA878012864
:1022800004BF0E2000F095FC04F11C00FEF79FF83F
:1022900004F11400FEF79BF800202070A081A060DC
:1022A0000721DFF8182682F8601005216063A1631A
:1022B000207405B0DFF80816616030BD8019002079
:1022C0002DE9F041DFF8F0556C699046002600E0FA
:1022D0002468CCB18C42FBD1B4B1276800224FF006
:1022E00080532046FFF73BF8214605F11400FEF726
:1022F000A1F8214605F11C00FEF786F8761C5FEA7E
:10230000080018BF3C46E7D13046BDE8F081000028
:10231000681B00208C0100102DE9FC4E82461646F9
:1023200003273000ADF800101D4614BF4FF0804960
:102330004FF00059FDF7C3FE8346BDF90000DFF8FA
:10234000784510F1010F05D1606A00280CBF606963
:10235000606A02E00021FEF7EBFF40B390F83F1007
:102360000A0623D5616A884212D100224B46FEF745
:10237000F6FF002E14BFDFF86C05DFF86C05FDF7E3
:1023800092FF8DB161692A465046FFF799FF0BE035
:1023900001462A465046FFF793FF38B120780128BE
:1023A00002D00221FFF78AF9832700E0042758466C
:1023B000FDF79EFE3846BDE8F68E10B50C46DFF8F8
:1023C000F8140A78022A0BD1FDF76DFF04B12060E2
:1023D00000F0FF00012801D1812010BD022010BDB6
:1023E000012010BDF8B504460D461646FDF767FE00
:1023F0000746DFF8C404016B8C4218BF032404D1E4
:1024000031462846FFF7D9FF04463846FDF770FEEF
:102410002046F2BD00000460F0B50746DFF8CC04AA
:1024200087B00E001546006818BF002D1C4649D025
:102430003178C840C20745D500212846FDF76DFF19
:102440007E60BD60FDF73BFEDFF86C540646687C9D
:10245000002835D1FFF7C4FE687C401C687400F08A
:1024600039F834B968460FF2AC411C22FEF77AF80D
:102470006C46206838600120218A7874798260680F
:10248000002812BF002140F6C41001213974F86001
:10249000DFF85C14E0680A4600B10146B961A06843
:1024A00000B102467A61582107F12000FEF7BAF820
:1024B000002107F13800FDF7F0FF2F63384602E0F6
:1024C00000F008F8002007B0F0BD000020000E006A
:1024D0000C1004403046FDF70BBEF8B5FDF7EFFDDC
:1024E000DFF8D4130A78022A05D1DFF808140C6843
:1024F000FDF7FEFD18E0FDF7FBFDDFF8FC03DFF85C
:10250000FC4301680A6B904710F5003041F100016F
:10251000A4FB0067DFF8E82304FB017711690020C2
:10252000341847EB01052C462046F2BD2DE9FE4F3D
:1025300081460E4693469A46FDF7C1FD80466FF0F0
:1025400001040020DFF8BC1301EB801191F83F304B
:102550001A0603D5401C0828F4D341E0DDE90C45F8
:1025600001960091DFF8506306F58070FDF71DFEBF
:10257000B08D401CC0F30B00B0850098019900F1AC
:10258000080779602021009800F13E02DFF8780307
:1025900082F800B0C7F800A02040B38DBB86C7F812
:1025A0000890294040F00200C7E904010023002000
:1025B000C7E90600FB62B8624FF0FF313963802043
:1025C000507089F8703006F114000099FDF71CFF77
:1025D00070690099884208BFFFF73DF9B7F93440A8
:1025E0004046FDF785FD2046BDE8FE8F0000000057
:1025F000943004402DE9F04107460E463000144661
:102600001D4601D5002010E0FDF716FE8046802112
:102610003046FEF78DFE060003D096F83F00010617
:1026200005D44046FDF715FE022000212FE0D6E933
:10263000080144F00A0445F0E0452040294008BF65
:1026400000280FD04046FDF704FED6E908012040DF
:102650002940C7E91A01D6E9082382438B43C6E91A
:10266000082312E0B168DFF8A402814202D0B36807
:102670003B66B060C7E916454046FDF7EAFD4FF0FE
:10268000FF3107F13800FDF735FFD7E91A01BDE842
:10269000F0810000687E0100DCB5DDE90667CDE968
:1026A00000670446FFF742FF0146204602B0BDE83E
:1026B000D0400A224FF0E0439CE72846BDE8324074
:1026C000FDF716BD9F1A0000530803F0010300E058
:1026D000012302F001021FE60FF238211C22FDF750
:1026E00041BF00E000BF00227CE680B56A46DFF80B
:1026F0002012FFF777FE812803D100980002001610
:1027000002BD6FF07F0002BD70B50E461546FDF7A5
:10271000D6FC8324684A1EB1022E0DD007D312E0E6
:10272000516A11B1516A8A8F04E080240CE0634938
:1027300091F860202A8007E0117802290CBF01215E
:102740000021297000E00324FDF7D2FC204670BD73
:102750000200004080B508468021FEF7E9FD00B187
:10276000C06802BDE0B500F005F80121FFE7FEF703
:10277000F6FE0EBD0192009191F904300A6870478F
:10278000F8B505460C46FDF79AFC0746E0B2FEF7A1
:1027900096FE802604001CBFA07A00281BD0464964
:1027A0000878022811D194F90910491D0906090C6D
:1027B00041F08161002241F001012846FFF712FE3D
:1027C00006462046FEF742FE05E02046FEF73EFEA6
:1027D000FFF741F881263846FDF78AFC3046F2BD06
:1027E00000000000D0210840510007062DE9F84301
:1027F0000546894616468324FDF761FCB9F1080FAA
:1028000080462D4F48D8DFE809F005080E4711141F
:10281000202F4200306828603FE001216974E86899
:102820006030E86039E03068688236E03168B9636A
:1028300033E0306818B98020FEF79DFF2DE00128B5
:102840002AD18020FEF7A3FF27E03878002804BFB4
:102850007869002819D131681920FDF73FFC3168EB
:102860001A20FDF73BFC18E03878002804BF78698F
:1028700000280AD1316807F13C00FDF7ECFC316813
:1028800007F18C00FDF7E7FC07E0002405E0307855
:102890000A4981F8600000E003244046FDF728FC67
:1028A0002046BDE8F28300000100070601010E0486
:1028B000E0010010040000204818002080140020CF
:1028C000F11C000000200940A71B0000E7190000D0
:1028D000D91B000081190000BD1B0000111B000066
:1028E000791600000100020401000104D42108400F
:1028F000A51B0000043004408C01001000093D00BD
:102900008019002080120020FFEFFF9F291B00008C
:1029100001000304FFFFFFFF0000000000000000B3
:10292000000000003A01000000000000000000006C
:1029300070B5DFF83847DFF838072568EE68002300
:1029400001223421B04700B10120C0B270BDDFF8D0
:1029500024078068704702460020022904D1012A1A
:1029600006D140F2EE207047012A08BF4FF47A707A
:102970007047DFF8001791F8E60020B1D1F8100198
:10298000002818BF004770472DE9FE43DFF8E486B2
:1029900008F1E106B07900287CD1DFF8DC16DFF819
:1029A000DC760868DFF8D856DFF8D896800900F0A2
:1029B0000100F0710120B071F87C7071684679688F
:1029C000C8F81011FDF7E8FB0021019100220291E7
:1029D0008DF800206B460FF2F54108F10C00FDF771
:1029E000ACFB6B4600220FF2C55108F13000FDF739
:1029F000A4FB6B4600220FF2095108F15400FDF7C9
:102A00009CFBB96801208847DFF87C06027868687B
:102A1000C0F38154387D20B1032C02D101203070E5
:102A200003E0032C18BF022C0DD1022000F0ACF8FB
:102A3000032CD9F800100CBF4FF47A7042F21070DA
:102A4000B0FBF1F118E0012C02D100F040FA1BE0DC
:102A5000D4B9022000F098F800F082FA98470128D3
:102A600003D1002000F033FA0EE0D9F80000322143
:102A7000B1FBF0F1B1FBF0F108F15400FDF791FB6F
:102A800008F15400FDF78FFB286840075CBF002069
:102A900000F07AF80020BDE8FE8338B5002408B1C4
:102AA000150002D16FF0020407E08160C26003618B
:102AB0000146DFF8C005FDF7A7FC204632BD10B582
:102AC0000446FDF7FCFADFF8AC150A1992F8E93074
:102AD0005B1E82F8E930DBB233B98A68012303FA5E
:102AE00004F422EA04048C605FE0F8B50546FDF7C3
:102AF000E6FA0446DFF87C15481990F8F020521EDB
:102B000080F8F020D2B27ABBDFF88005DFF880755C
:102B100000EB850210F825505688280615D539682F
:102B20000A6A3046904739688A6A30469047396861
:102B30000A6B30469047DFF85C15DFF85C25012012
:102B4000086010688007FCD507E06A0611D501EB24
:102B500086010020D1F80421904705F03F05132D90
:102B6000BCBF2846FFF7C1FF2046FDF7C1FA002091
:102B7000F2BD39688A693046904739684A6B3046F9
:102B800090470228F9D1E8E710B50446FDF797FA17
:102B9000DFF8E0148A680123A3401A438A602144C5
:102BA00091F8E920521C81F8E920FDF7A1FA0020F4
:102BB00010BD2DE9F0410646FDF781FA0446DFF825
:102BC000B454A81990F8F0104A1C80F8F02081BB8A
:102BD000DFF8B88418F8260000F03F001328B8BFCB
:102BE000FFF7E7FF08EB8600478818F82600DFF8B4
:102BF000A064010615D53268D16938468847326825
:102C0000516A384688473268D16A38468847DFF8C3
:102C10008424DFF884140120106008688007FCD544
:102C200007E041060BD505EB87020120D2F804111D
:102C300088472046FDF75CFA0020BDE8F081316846
:102C40004A693846904731684A6B384690470128B0
:102C5000F9D1EEE72DE9FE4F0746DFF81C04DFF857
:102C600014940168002600244A06A24609F1DC05F6
:102C700004D5297B11B9202000F079F9012F18BF64
:102C80006FF0010857D12868012852D1022129602C
:102C900000F08BFA012000F06AF95FEA00084BD1DE
:102CA000FDF7CAFADFF8F813DFF8E47301900C605F
:102CB0000120B96A0A689047012803D1002000F07A
:102CC000A9F90124DFF8DC13DFF8D0230E6009F145
:102CD000FF011368887808B14FF0010A487808B1FD
:102CE0004AF0020A087808B14AF0040AE87F20B1E5
:102CF00039680A6B4FF480609047A87F20B139682B
:102D00000A6B4FF481609047DFF88813DFF898B3BF
:102D1000012008604AF020003A6891698847DFF88E
:102D20008C230120106099F80800C10709D50126FD
:102D30001BE06FF004087CE00120286000F03EFA00
:102D400077E0396A8A68584690470428F9D0012804
:102D5000009004D13A6A5368032158469847DFF837
:102D600050030168890889000160002000F046FADC
:102D7000DFF82893D9F8000039688A6B90476EB95C
:102D80000098012804D13A6A5368012158469847AF
:102D9000DFF81C03016841F0030101600120DFF846
:102DA0000413086050463A6853699847E87F20B199
:102DB0003968CA6A4FF480609047A87F20B13968AB
:102DC000CA6A4FF481609047B249B84B012008604D
:102DD00000221A600320286039684A6B50469047E9
:102DE0000128F9D1D9F80000042000F0C0F8064607
:102DF000AB4901200860D9F800209F48006881068F
:102E0000FBD514B1012000F005F900F051FB0820BA
:102E100000F0ADF80643012028600198FDF719FA8B
:102E20009648008A00F0C3FA00F0C8F90EB14FF0DE
:102E3000FF384046BDE8FE8F38B50446FDF73FF940
:102E4000054621468B48FDF7F5FA2846BDE8324095
:102E5000FDF74EB93EB50024012804D020D3032845
:102E60001CD017D31CE06846FDF796F9814D9149B7
:102E700001948DF8004002946B46012205F1780020
:102E8000FDF75BF900238C4A2C2105F19C00FDF72E
:102E9000F4F805E000F028FB044601E000F0E4FB54
:102EA00020463EBD38B5FDF70AF97249054691F84E
:102EB000E000012410B1FFF73BFD04462846FDF772
:102EC00017F9204632BD002070E000007047F8B5C9
:102ED0000326664C664D00961C23266877684FF0E3
:102EE000405200212846B847012000902846246817
:102EF000656809234FF400720021A847F1BD000066
:102F000010B500F02DF89847022818BF032805D106
:102F1000FFF7DDFFBDE810400220D0E5012802D117
:102F2000BDE81040D3E765480168C1F3815003282C
:102F300008BF4FF47A7004D002280CBF41F28830E9
:102F4000322050494B4C0A68B0FBF2F104F15400B6
:102F5000FDF727F904F15400BDE81040FDF723B94F
:102F600057490A681368042070470020704738B535
:102F70000546404804685CB1A068284205D0226933
:102F8000E36800212846984720B92468002CF3D133
:102F9000002032BD4FF0FF3032BD4A49012807BF43
:102FA0000720086000220A600020704770B5FDF716
:102FB00086F8304D314E044695F8E00050B1287A3D
:102FC000410613D4FFF7B4FC80B100F0E2FC00200E
:102FD00085F8E0000220B568A84706461020FFF7F4
:102FE000C6FF012E11D10320A8470EE025490A682B
:102FF0003220B0FBF2F101B9012105F13000FDF7FB
:10300000D0F805F13000FDF7CEF82046BDE870405D
:10301000FDF76EB838B5012823D129490A6813682D
:10302000984701281DD000F0A7FC124D297A0120F5
:1030300085F8E000880616D4124A10683221B1FBE8
:10304000F0F404B9012405F13000FDF7AEF8214693
:1030500005F13000FDF7A5F805F13000FDF7A3F804
:1030600001E000F0BCFC002032BD0000A401001013
:1030700000A00C40300A002014100940507E0100CE
:10308000B03F0050681B00202E1E0020E496010077
:10309000B801001028200860282008402C20094092
:1030A0000C400940000222430040034080010443D9
:1030B00024220840B937000045350000B43F0050D5
:1030C000E001001000000460DFF800F031BF0110E3
:1030D000DFF800F0F5B7011030BF7047FCE738B5F6
:1030E00000F0E2F900F092F9FFF731FC054605F037
:1030F0000C000C2853D0680729D400F0FBFC0446D0
:1031000001210120FFF727FC314A116801FB04F37C
:1031100098421CD2F025B5FBF1F1641A2D49887C48
:1031200018B1C868A04238BF04462B4D214605F1AE
:103130000C00FCF7E7FF05F10C00FCF7E7FF0120AE
:10314000FFF788FD05F10C00FCF7D8FF29E0280700
:1031500025D4224C2248216A8A6890470428F8D056
:10316000EA06204900D420B9086840F00100086050
:1031700003E00A68520852000A601B481B4D0168B0
:1031800041F0030101602020226891698847286886
:1031900021688A6B904701202860296801E0FFF7C9
:1031A0009DFFBDE8314000F083B910B5104CFFF72A
:1031B0008BFF2060FDF700F8606010BD10B50C4C6F
:1031C0006068FCF7FDFF2068BDE81040FFF780BF96
:1031D000CCFC0100507E0100300A0020B801001034
:1031E000004003408C210840242208402C20094044
:1031F000A81A00201628A8BF203870472DE9F84FDC
:1032000080469948DFF864920168994E8A0705D58F
:103210000820B0719748C9F80000C6E096480168D8
:103220000A689047009000279448046825176D1C91
:10323000A00209D40098C0F13E00C0100828C8BF01
:1032400008208542B8BF05468D480168C1F3046077
:10325000FFF7D0FF82468B480168C1F30440FFF7B7
:10326000C9FF5544152D0246C8BF152504DC6FF073
:1032700009008542B8BF054605F01F00824940F4A9
:10328000F850088081490868009910F0030F18BFB2
:103290000127400748BF47F002075FEA080096F998
:1032A000070018BF47F00407091A042902DCB179A6
:1032B0008F4260D0009B0F3B4FF0000CE04607F0C0
:1032C000010007F00401DFF8C8E127D403EB031382
:1032D0004FEA2328B8F1070F88BF4FF00708C4460C
:1032E000BCF1070F0EF1040A28BF4FF0060C5AF884
:1032F0002CB05EF82CA0ABEB0A0A0AF0FF0C19B157
:10330000E346CAF3072CDC445FEA877B03D5E34638
:10331000CAF3074CDC4408B10CEB1A6C5EF828E0E9
:103320000EF0FF0A11B1CEF307218A44B90744BF5A
:10333000CEF307418A4408B10AEB1E6A551BA3EB82
:10334000082303FB0CF38033002DD8BF0125342064
:1033500004F0FF0445430AEB13216C43B4FBF1F086
:103360004FF6FF71884288BF0846B080B771009859
:1033700000F30700F07147480168B0883160002110
:103380001F2804D21F20B08004E04008491CB0F57B
:10339000007FFAD20F38000941EAC0013E480143DC
:1033A000C9F800100020C9F80400BDE8F18F38B555
:1033B00005463A480468A4B23CB32F4801680A683D
:1033C00090472B4991F90720904205DA6FF07F0270
:1033D0009042B8BF1046C871A542888834BF651BAB
:1033E0000125854210D32B4A13680A689A1A921C49
:1033F0001F2A88BF1F222D1A5208D5402D18B5F557
:10340000803F28BF4FF6FF758D8031BD244800688E
:10341000002800D1704730B522498A6802F0406325
:10342000B3F1406F1FD0104B1C68A5071BD44C682C
:10343000A50718D41C680968C1F303511C310901A0
:1034400014F0050F04D088420DD224F0050409E0E1
:10345000814208D2100158BF44F00104500158BF06
:1034600044F004041C6030BD0000094030100940E5
:10347000801B0020FDFDA400EC010010B43F0050B3
:10348000B81200503C1100506E62084024220840DF
:103490009C1300500820094000E7A4803410094024
:1034A00028500940AC3F0050EFF3108072B67047CF
:1034B000EFF3108062B670470138FDD17047704756
:1034C00010B50C18FFF7F0FF411E8941C90FDFF856
:1034D000642410680028FCD024680120106009B121
:1034E000FFF7E6FF204610BD38B5DFF84C542878CA
:1034F0000024002802BFDFF84414487D00281FD0B4
:10350000FCF7DDFDA978002906BF0122AA7001247D
:10351000FCF7EEFDA4B90220FFF736FB0E20FFF703
:1035200048FBDFF81C14086808B1012032BDDFF841
:1035300014044022C26002600120C8610021697049
:10354000002032BD2DE9FC41DFF8F81300200860AF
:10355000DFF8F41301F1D804A07A002843D0012841
:10356000DFF8E853DFF8E82331D1DFF8E813166815
:103570004BF2F52046430868360AC0F38140012823
:103580000BD1A86C0168884700F041FA00F05AFAA4
:103590003509C010454306EBE536607B10B10021CC
:1035A000617306E0DFF8B003006820F07F40361852
:1035B0007608DFF8A803DFF8842306600121360CC3
:1035C00046608160507D002849D005210AE002282C
:1035D0000AD11568284600F012F9A5F2FF55032D0F
:1035E0003DD3082121733CE003283AD1106801F152
:1035F000B806A0F5C0603168F061002948BF4942B3
:10360000002848BF40428142A8BF002026DA7068E7
:10361000D34F80B200900823D5F800C0DCF80480B6
:103620004FF47F4230213846C047B06880B20090E6
:103630001223D5F800C0DCF804804FF4F80204210E
:103640003846C047B06980B200900A232D686E6882
:103650004FF4406220213846B047012020700B20F3
:103660002073BDE8F34100BF2DE9F843DFF8D882AD
:10367000BC4EDFF8EC92BC4CBC4FB24808F1E105FF
:10368000E9784A1E0B2A00F28D80DFE802F006304E
:1036900041596E41596E4159757B31680A68202045
:1036A00090470F20E06041F61D51216102200090FB
:1036B0000723D6F804C0DCF804404FF4C0720021A0
:1036C0004846A04776684846D6F80C9007234FF442
:1036D000C0720021C847012038600221E97008F15A
:1036E0007800BDE8F243FCF75EBDBDE8F18301213F
:1036F000E161287800281DBF0021396103200620E0
:10370000E870002103202060796078688107E6D4A2
:10371000E878032806D10221009100F044F8C84758
:10372000042009E00020009000F03DF8C847E87848
:1037300006280CBF07200A20E87001207860CEE739
:10374000042903D12021A161012105E001220A29D8
:10375000A2610CBF032102216970082200212160AF
:10376000C260026001202060BFE705290CBF06206F
:103770000920E8700020E1E70020386078600C2222
:10378000EA70ACE70021016001206D4A10600E2054
:10379000FFF7ABF90220FFF792F901200021E87052
:1037A000A970A2E7FEE748467668D6F8049005239C
:1037B000602200217047000063496C4891F8E420C2
:1037C000921E0A2A1AD8DFE802F0060A0E190A0E1B
:1037D000190A0E19120001688A07FCD544E74168EE
:1037E0008A07FCD4FAE741688A07FCD5F6E7016846
:1037F0008A07FCD441688A07FCD4EFE7FEE7F8B5F6
:103800000446574D30212846FFF75AFE4E4F07F128
:10381000B806C0F30720706004212846FFF750FE69
:10382000C0F38440B06020212846FFF749FEC0F372
:103830008120B4F5C064B061346003D1002087F802
:10384000D800F1BD316997F8D80028B97068B2691D
:10385000B168F0607261F461F06900284CBF6FF0EC
:103860000102022200EB40001018421000EB92709F
:1038700001EBA0017268F260002914DC7069032872
:1038800007D1012015318842A8BF012100227261B1
:103890001EE001200B318842A8BF0121521E48BF03
:1038A0000022F26007E01E2912DD706928B915397F
:1038B0001E29C8BF1E21032009E00B391E29C8BFDD
:1038C0001E21521C3F2AC8BF3F22F26000207061B7
:1038D0001E4CF068316180B2009008232768D7F849
:1038E00004C04FF47F4230212846E0470120009079
:1038F00011232768D7F804C04FF40032042128466A
:10390000E047306980B2009012232768D7F804C0DE
:103910004FF4F80204212846E047706980B2009015
:103920002846246865680A234FF440622021A8478E
:10393000F1BD000000800C40110B0020507E010002
:1039400004800C402C500C40300A0020A4010010D0
:1039500008400C40B43F0050102009403C600C402F
:1039600000A00C40A001001000400C4034600C404E
:103970003748006800F0D6B810B5374C626D536810
:103980000121032098472068C16A8847334988602D
:1039900010BD70B5304C616D0A6801209047012858
:1039A0001BD0A5692B48EE68002301223421B047C3
:1039B000A0B1FFF7DDFF2068C16A8847274B9A68EE
:1039C00027491C68D860A4EB9404801A4843000C73
:1039D0001860A04238BF20461860012070BD38B57D
:1039E0001D4C626D5368002103209847616D0A6881
:1039F0000120904708B1FFF7BBFF2068174DC16A4F
:103A000088476860206E01688847286131BD10B51D
:103A100001461448144B02681B68100400161B3939
:103A20004843C01000EB2240120601FB01F41216BD
:103A30001B06624361431B1600EBA220594300EBB7
:103A4000A14010BD00FB00F1C0EBA15000B27047D7
:103A50008000001000A00C408C0100106C1B0020A6
:103A600040420F0090130050A41000504018491C11
:103A70001CBFB1F1010100F8012DF9D170470040E0
:103A8000DFF800F079BB011000E006E0EFF31180F1
:103A9000202181F311887047000080F3118870475E
:103AA000FFF7EEBFF2E7F8E7F0E7F6E70D49C207E8
:103AB00044BF01230B60820744BF4FF480730B6047
:103AC000400744BF4FF480320A60704710B5064A81
:103AD000C30748BF1160840748BF5160400748BF13
:103AE000916010BD0420094018200940DFF800F063
:103AF000E1BE011070B5FFF7C7FF094E0446B0687C
:103B00000021FFF7F3FF05467069B169451BA94223
:103B100038BF00252046FFF7B8FF284670BD00BF1C
:103B20007801002070B50446FFF7BEFC451EAD418C
:103B3000ED0F064E30680028FCD0A047012131600F
:103B40001DB1BDE87040FFF7B3BC70BD00800C40F4
:103B5000DFF800F089840110DFF800F021C00110C7
:103B6000DFF800F0F99B0110DFF800F019AE01104A
:103B7000DFF800F04FBF011000B58FB008233C22E2
:103B800000216846FFF7E8FFDFF8080D00F150015B
:103B90004FF4217201230791089206936A4600238D
:103BA0000FF23921FFF7E0FF0FB000BD7FB5DFF85E
:103BB000A44CDFF8E45C05F13801204601F0DBFBA2
:103BC00005F1500001F004FFE863002105F14C000D
:103BD00001900091002341F288320FF66D21DFF849
:103BE000746B05F15C0001F0C3FE05F1AC000090C0
:103BF00015230022DFF8601B01F009F802230022E0
:103C0000DFF8541C00F0D2FC01218DF807100122CE
:103C100000210DF107008DF806208DF805108DF8B4
:103C20000420009001234FF4806200F0D3F80DF1DE
:103C300006000090012340F2024200F0CBF80DF1A3
:103C400005000090012340F2034200F0C3F801A8F0
:103C50000090012340F2064200F0BCF84FF0FF3222
:103C6000DFF8381C00F011FB4FF0FF32DFF8301C9A
:103C700000F00BFB01F00CFF4FF0FF3002F012F8E8
:103C800001218DF80310032143A08DF801100222B9
:103C9000D0E900368DF8022001A90422C1E90036DE
:103CA0008DF8002001210DF10302002002F022F81E
:103CB0000DF102020121012002F01CF80DF10102B8
:103CC0000121022002F016F800F0E2FA01AA052113
:103CD000042002F00FF805F1D40002F004F805F119
:103CE000CC02DFF8341C00F0D0FA00F06FF8024686
:103CF000DFF8401C00F0C9FA00F068F80246DFF86F
:103D0000381C00F0C2FA40F64803FB22DFF82C1CF6
:103D100000F04CFCDFF8281C00F043FC0FF66910A3
:103D200002F0B6F84FF6FD7000F00EFE2178DFF8D5
:103D3000784C00F04CF800210191009103460422D8
:103D4000DFF8001C00F063FF3021284602F000F984
:103D50004FF6FF702880288300214FF0FF3002F0DB
:103D6000FBF868636FF078420DA0206000212046C8
:103D700002F09AF9686BDFF8583C02224FEA04011E
:103D800002F030F9DFF8D80C0AA30178686B002242
:103D900002F016F97FBD00000102030405000000D7
:103DA00053696D706C6520506572697068657261E9
:103DB0006C0000003D3D3D3D3D3D3D3D3D3D3D3DBB
:103DC0003D3D3D3D3D3D3D3D000000002178502002
:103DD00001F01FBD3146102001F034BD7CB5FFF766
:103DE000E5FEDFF8705ADFF8B06AB06B4FF0FF33D2
:103DF0004FF040420021FFF7B3FE0400F5D0002051
:103E0000019001AA69460DF1020001F0EFFAC8B96C
:103E1000BDF802100120102902BF9DF800102A7879
:103E2000914208D101990A884FF6FF739A421CBF4C
:103E3000084600F019F8019900291EBF002808461D
:103E400001F0BFFA6000D0D5F06BFFF791FE0028BB
:103E5000CBD1F06B01F0DDFD0400F5D000F0BEF831
:103E6000204601F041FBEFE738B5DFF8F41B0C7892
:103E70000546DFF8240A2A78406B611C912A1BD082
:103E8000B02A05D0D02A63D1284600F006FA5FE0B8
:103E90002A797E2A02D12A7A2EA304E07F2A05D12C
:103EA000B5F808202FA3009200F05EFC297905F1F7
:103EB0000800FFF74DFE4BE06A780E2A06D00F2A65
:103EC0000DD0102A06D03E2A1FD041E0284600F02F
:103ED000CBFD3DE00021082002F0DAF938E0AA88A5
:103EE00042F23204A24233D1AA781A2A04D1DFF86E
:103EF000743B00F05FFB05E00092C9B21DA30022F5
:103F000002F05EF82946204620E0AA780C2A1FD14C
:103F1000EA781AB11FA300F04DFB15E0E9790129F9
:103F200008BFA0A109D0022908BF9FA105D003297D
:103F30000CBF0FF274010FF27801009114F102042A
:103F400021A3E1B202F03CF829460C2000F080FEEB
:103F5000012032BD46432056696F6C617465643A36
:103F6000202564004D54552053697A653A20256414
:103F7000000000005048592055706461746520535A
:103F80007461747573204576656E743A20307825B7
:103F900078000000504859204368616E67652066CC
:103FA00061696C7572650000434F44454400000030
:103FB000556E657870656374656420504859205665
:103FC000616C7565000000005048592055706461AF
:103FD00074656420746F2025730000002DE9FE4392
:103FE0000446DFF8B4782078D7F83490DFF8706AA8
:103FF000DFF8588C401E08282ED8DFE800F0052294
:10400000385F8AA1A9ACB2006268137853B1022B61
:1040100022D101A9022001F0A9FE9DF80400317807
:1040200062A308E001A9002001F0A0FE9DF80400B1
:1040300096F8001060A30090491C786B0022C9B26A
:1040400060E060680078010707D50D2002F0C7FB2B
:10405000002801D102F044F89DE0C006FCD50E20F6
:1040600002F0BDFB002801D102F056F893E067682A
:1040700031783868091D01280ED0022809D010288F
:1040800014D178684288019208F1300300780090DA
:1040900007E078684BA302E0D7F804004EA302784B
:1040A00000920022C9B2484601F08AFF3868B0F198
:1040B000004F02D0786801F017FA6CE0626810795E
:1040C00031781278C91C032A65D8DFE802F01E1186
:1040D000090208B945A31AE0CDF8000048A30EE094
:1040E00010B900BF4CA312E0CDF800004FA306E0CA
:1040F00010B900BF53A30AE0CDF8000055A3002279
:10410000C9B2484601F05CFF45E000BF56A300225B
:1041100031E06068DFF8BC5B871DF87840B100953E
:104120000022317854A3C91CC9B2484601F048FFA7
:10413000009500233A88DFF8A01B00F068FD2AE014
:104140006946022001F012FE28BB00F0A1F822E02F
:1041500000F053FA1FE06068B0F8010000F03AFC8C
:104160001DE06568688800F0D9FB022808DB31781B
:1041700043460022491CC9B2484601F021FF0AE02B
:10418000182148433844C27D012A04D16A88DFF8E7
:10419000101C00F07AF8606808B101F0A5F9BDE8DC
:1041A000F7830000314D0000324D0000436861721A
:1041B00020333A20256400004368617220313A20A0
:1041C00025640000416476205365742025642044F2
:1041D000697361626C656400416476205365742084
:1041E000256420456E61626C65640000426F6E64F8
:1041F00020736176652073756363657373000000D7
:10420000426F6E642073617665206661696C6564D7
:104210003A20256400000000456E6372797074696D
:104220006F6E20737563636573730000456E637210
:10423000797074696F6E206661696C65643A2025D7
:104240006400000050616972696E67207375636372
:104250006573730050616972696E67206661696C8D
:104260003A2025640000000050616972696E672081
:10427000737461727465640050617373636F646515
:104280003A202564000000002146102001F0DABA2F
:104290006A460121032001F02DBD2DE9F84F0546A6
:1042A00092B0AA78DFF8FCAADFF8FC1ADFF8FC7AF3
:1042B000DFF8F4860FF65C3BDFF8DC45DFF8A0673B
:1042C00062B1052A00F08380062A00F0B180072A37
:1042D00000F01881112A00F0F6803FE1687800288C
:1042E00074D1A8790FF289498DF8080002A8E979FC
:1042F000417000212A7A0171C1708270E97AC1711E
:104300000821AA7A827102AA687A8DF80D0000202D
:1043100001F0CCFB3178606B0FF6E02300F049F937
:104320000BA80FF694311C22FCF71CF900970BAB7D
:104330004A46DFF87C1AFFF74EFD00F024F9DFF85B
:10434000748A3A78002300F061FC00F012F907F15A
:104350000C001B210190009101233A7800F056FCDB
:1043600000F007F9DFF850BA3A7800F01DF900F0D4
:104370002DF900F0FEF804A80FF658311C22FCF7C6
:10438000F1F8781C009004AB4A46DFF8241AFFF7D6
:1043900022FD00F0F8F800237A7800F037FC00F0F6
:1043A000E8F87A7800F000F900F008F900F0E1F898
:1043B000A81D01F03BFB0190B2A0009000223178D3
:1043C000606B0FF64423891D00F03BF9CEE000F04E
:1043D000E8F85FFA80F900F0C1F96878B8B968893F
:1043E00000F060FA281D01F021FB009000223178D6
:1043F000606B0FF63023491C00F023F900220121E5
:10440000404601F051FE04F15C0001F0D6FAB9F12A
:10441000010F04DC00F0DAF800F0D0F8A6E0DFF8D5
:104420009C497A78FFF730FF3A78FFF72DFF9DE03F
:1044300000F0B7F831780FF6FC135FFA80F9491CE9
:10444000606B00F0B7F800F089F9B5F804B0584691
:1044500000F064FA022822D018214843009004F1A9
:104460000800009945588DB1284601F0A8FA10B10E
:10447000284601F0ABFA2846FBF74CFE284601F02F
:1044800033F80099201D405801F02EF8584600F0EE
:104490008DFA584600F0A0FB584600F055FAB9F1E5
:1044A000000F08D104F15C0001F090FA0122002114
:1044B000404601F0F9FD00F089F800F07FF831780E
:1044C0000022C91C4EE0A988ADF80010688978B9AF
:1044D000E888ADF8020001222889ADF80400688957
:1044E000ADF80600A989ADF808108DF80B2002E0A0
:1044F00000208DF80B006A46DFF8C418102001F088
:10450000A1F933E0AA88DFF8BC1802AB102001F053
:1045100099F9E87800280DF10A0005D101F086FA32
:1045200000900FF6281306E001F080FA0190DFF802
:104530009838A878009000223178606B891C00F0D0
:1045400080F804F14000FBF74DFF04000ED02089F5
:1045500000F040FA204600F0C7FF07E031788A1CDF
:10456000D2B2491C606BC9B201F022FD13B0BDE8A4
:10457000F08FC0B230B100208DF800009DF800002F
:10458000401CF9E77047C0B230B100208DF8000040
:104590009DF80000401CF9E7381D072101900091AB
:1045A0007047102001F04EB992235946102001F0B7
:1045B00049B9491C0022C9B201F002BD0020009097
:1045C00000237A785146102001F03CB90020009079
:1045D00000233A785146102001F034B938B5054629
:1045E000012000F080FF040006D025702146012044
:1045F00000F019F900B156E031BD7CB5002002F0A1
:1046000083F9A54D05F1C40604460622314602F0A1
:1046100093F9A8B1204601F009FA00900022DFF8D2
:1046200040040FF640030178686BC91D00F009F8DB
:104630002146304602B0BDE870400622FBF782BF3B
:1046400073BDC9B201F0BCBC80B50178DFF87C272E
:10465000062906D102F15C0001F0AFF90021062025
:104660000CE0072906D102F1800001F0A6F9002133
:10467000072003E0082904D101460820BDE80440D2
:10468000D1E001BD4465760038B50546012000F053
:104690002AFF040006D025702146022000F0C3F84E
:1046A00000B100E031BD2046BDE8324000F01CBF43
:1046B0002DE9F843784CDFF8A873258E804628460C
:1046C00000F02CF9022807DB3978606BDFF87C35C5
:1046D000FFF76FFF00203AE0DFF8F49619F80810B2
:1046E0001826FF291AD07043205A00F075FA19F8DD
:1046F0000820002000901346208E002100F08AFA46
:10470000DFF8D0060FF2687300EBC801CA68397889
:10471000606B0092491C00F027F817E0284600F073
:10472000FDF80746022F03DB002000F04FFAFCE7FC
:10473000009500230FF2D502DFF89C1600F067FA0F
:10474000C0B218B97E43A1190120C8750120BDE887
:10475000F2830000A13A0100198F0100CDF800900A
:104760005B463178606B891C0022C9B201F028BC1D
:1047700070B505460E46082000F0B5FE04000BD0CB
:10478000256066602146032000F04DF820B12046E8
:10479000BDE8704000F0A8BE70BDF8B505460E46F5
:1047A0001746062000F09FFE04000CD0267065809E
:1047B00027712146042000F036F820B12046BDE8DC
:1047C000F24000F091BEF1BD2DE9F84381460E465E
:1047D00017469846102000F086FE040013D0089D6E
:1047E000E68006224946FBF7ADFE277284F8098071
:1047F000E5602146052000F016F820B12046BDE80E
:10480000F24300F071BEBDE8F183000010B504462C
:104810002146092000F007F820B12046BDE81040ED
:1048200000F062BE10BD38B504460D46082000F009
:104830005AFE60B1047045600246DFF89035996B0E
:10484000D86B01F0CCF8401E8041C00F32BD132060
:1048500032BD0000271E0020E982000038B5182173
:104860000D4BDFF8784541435A5ADFF874151A8624
:1048700001EBC0000022C568DFF8680525600178FB
:10488000586BC91CC9B201F093FB204601F0F2FB42
:10489000012032BD800D0020C4060020EDA20100E1
:1048A00065A501007CB5DFF824251388054615248D
:1048B00000204FF6FF718B4227D11821484316186C
:1048C0000320358000F00FFE7060D0B10821017028
:1048D0007068A0F80150242000F005FEB0600028A8
:1048E00070680BD00190012100910023B068DFF8BF
:1048F000F81441F2707201F03BF803E000F0F4FDAF
:1049000000E013240120307503E0138B01208B425B
:10491000D3D0204676BD0000A1A60100DFF8AC246C
:104920001388014600208B421FBF0120128B8A4250
:1049300002207047518801103181011021B100100F
:10494000E17C01003D4501002DE9F04102264FF6D2
:10495000FD74A042804606D0FFF7E0FF0646022E17
:10496000A8BF18201EDA0027BE4218BFA04515D1E7
:104970001821DFF85804794345184FF6FF722A8052
:1049800000232B75EB74AB756B75052105F10C00DD
:10499000FBF748FE0020A8746874E8757F1C022F9E
:1049A000E2DB0020BDE8F081CC07002070B5DFF825
:1049B0001C64346C054608E02189A94204D12146D3
:1049C00006F14000FBF736FD2468002CF4D170BDE1
:1049D000DD4C00007FB54FF49672ADF80820002141
:1049E000682204465020ADF80200ADF80610ADF87C
:1049F0000420ADF800402046FFF790FF0228DFF8C2
:104A0000CC5308DB1648914B0178686B491C002297
:104A1000C9B2FFF7BDB9182148432E18B068FBF79B
:104A200079FBB06818B100F05FFD0020B0607068DD
:104A300008B100F059FD6A46DFF8B013102000F00D
:104A400001FFC0B2112809D10C2000F04CFD01007B
:104A500004D00C8105F14000FBF7D6FC7FBD0000BF
:104A600059170020DC9D01002DE9FE43014641F26B
:104A700005438A6889881078DFF85043DFF864833B
:104A8000994205D042F23003994200F08F809BE0BA
:104A900092F903900028FAD15178927801EB022123
:104AA00088B2FFF73BFF012803DD002000F08EF8FD
:104AB000FCE7182148432718B9F17F0F6AD0787CAA
:104AC0003844052180F80C90787C401C7874C0B282
:104AD00090FBF1F101EB8101401A78740021002074
:104AE000CAB23A44491C92F90C201018CBB2052BDB
:104AF000F6DB00B2052190FBF1F0B8740025F87CDC
:104B0000002847D197F9120010F11E0F05DB387D00
:104B100002281CBF0028022609D197F9120028306C
:104B20000A2806D2387D012803D068B10126324612
:104B300012E097F9120032300A2805D2387D18B1F8
:104B400004220125062607E097F9120010F1320F22
:104B500020DA042202250226787DB04202D1BB7DF4
:104B6000012B01DDB04215D0009513463888002195
:104B700000F050F80120797DF874B1421CBF00208C
:104B8000B8750DB97E7505E0012D07BF0620787553
:104B90000221797597F9120098F800100FF2E423BA
:104BA0000190CDF800900022491D0AE060B910790B
:104BB0000FF2F0230190D1780091002298F80010B4
:104BC000C91D606BFFF73DFDBDE8F7838DF8000060
:104BD0009DF80000401C704738B50446FFF79EFE64
:104BE0000546012D03DD0020FFF7F0FFFCE70094F0
:104BF00001230022784900F00AF818207349454340
:104C000048190022C274C275002032BD41461020EE
:104C100000F018BE2DE9FF410546884617461E469E
:104C20000C2000F060FC01000CD00A9C70480D8143
:104C3000FBF7EAFB02940196009743462A466D492A
:104C4000FFF7E5FF002004B0BDE8F081C09201004D
:104C50002DE9F04118260C280C465C4F1FD042F27B
:104C60003201884234D107F1A400FBF7BBFB5FEAB5
:104C700000082DD0B8F80800FFF750FE0546404662
:104C800000F032FC022D23DAA0781A2820D16E43DE
:104C9000B8190021827DC174521C827518E0BCB124
:104CA000A088FFF73BFE022812DA4643B91900221A
:104CB000CA74E07808B9E0790875E0794A7D9042D5
:104CC00003D0887D401C887502E0002088754875F7
:104CD000BDE8F08140E20100119D01002DE9F8439B
:104CE0000C4686B030493E4E384DFFF75AFCB44270
:104CF000074646D1A86C08B100F0F6FB5FFA87F8CA
:104D0000C8EB08181FFA88F000F0EDFB0400AC6453
:104D100004D1706820F0784070603DE07168DFF881
:104D2000A480022060F3DF617160002718207843BF
:104D30004FF6FF712A5A01208A4200FA07F917D06C
:104D40006B464146102000F07DFD0DF1020000F0A1
:104D50006DFE01460F222046FBF7F4FB06EBC70071
:104D60000022C4604946304601F09EF90F3404E049
:104D70004A460021304601F097F97F1C012FD5DD0E
:104D80000AE01D48844207D116490978686BC91C9E
:104D90000022C9B201F00CF907B0BDE8F0830000B1
:104DA00025AB00107D770100559801009C0700207D
:104DB000894B01006568010031970100319A0100BB
:104DC000616B010091840000A4A20100C4060020D0
:104DD000C40700201008002055910100FC070020A6
:104DE000E00700205917002049460000217F0100FC
:104DF000680700207D8F0100CC070020496E697490
:104E000069616C697A656400257320416464723A53
:104E1000202573004E756D20436F6E6E733A20250A
:104E200064000000436F6E6E656374656420746F88
:104E30002025730044657669636520446973636F58
:104E40006E6E656374656421000000004C696E6BD2
:104E500020506172616D20557064617465643A2000
:104E600025730000525020416464723A202573007B
:104E700050485920707265666572656E63653A20A8
:104E800025730000525353493A25642064426D2C27
:104E90002041564720525353493A25642064426DBD
:104EA00000000000525850683A2025642C205458C5
:104EB00050683A202564000013000000A0000000A4
:104EC000A00000000700AAAAAAAAAAAA007F0101BE
:104ED0000000000001000000A0000000A000000091
:104EE0000700AAAAAAAAAAAA007F8383000000003A
:104EF000DFF800F02DB40110DFF800F0CDAC0110A8
:104F0000DFF800F02DC00110DFF800F055A401100B
:104F1000DFF800F0FDB1011020B108233C22002190
:104F2000FEF71ABE704780B5FBF746F9ADF80000F2
:104F3000FBF784F8ADF80200009802BD01B5BDF89A
:104F40000200FBF77FF8BDF80000BDE80240FBF768
:104F500037B938B5DFF8C449207801282CD00121B1
:104F60002170DFF8BC29DFF8BC1989088900521AC2
:104F7000A26161610A4602E0002342F8043BA36992
:104F80005D18AA42F8D39B0801EB8302002042F887
:104F9000040CE8230B60A06980088000EC38C1F89D
:104FA000E800E831A160002000F007F8E060A169A6
:104FB0006069A060091F216131BDF8B50024002699
:104FC000051D15F003001CBF291D0D1AFFF7ABFFCF
:104FD000DFF8482901465160112D34BF9368D3682A
:104FE0001868002803D580F00040002619E037003B
:104FF00013D02768D3F800C06744AF42276010D3AE
:105000003846ECB1401B042811D3605145F00040F4
:10501000206013695D1B156111E0A84214D20126BE
:105020001C46034418680028DBD1002408E01369FB
:1050300020681B1A1361226842F000422260241D7E
:1050400000F04FFA2046F2BD1C46DAE710B50446E0
:10505000FFF769FFDFF8C418486054F8042C22F009
:10506000004244F8042C0B69D2180A61221F8B6895
:105070009A4238BF8A60BDE810405FE72DE9F041F1
:10508000FFF751FFDFF89418CA6848600024002534
:10509000002600270AE00E460125144605E02B00F5
:1050A000F9D02368CB1823608E190A441168B046E2
:1050B000BE4238BFB846002905D0F0D581F0004186
:1050C00000254746F1E7FFF739FF4046BDE8F0818C
:1050D00010B50446DFF8440881692160006960600A
:1050E000FFF7CCFF09282CBF08380020A06010BDB6
:1050F000DFF828180A69121A40F22D139A4228BFC5
:10510000FFF75BBF0020704780B5FFF722FF4BF62B
:10511000BE2002BD084650E7084697E702B568463C
:10512000FFF7D6FF01BD0120704738B50446FFF7F1
:10513000FAFE00220C23DFF8F0175343CD18A96CB8
:1051400021B18C4206D0521C032AF3D3FFF7F6FE9E
:10515000002032BDFFF7F2FE05F1480032BD70B508
:105160000546FFF7E0FE044600210C22DFF8B807F1
:105170004A438618B06C48B1854210D0491C0329B7
:10518000F3D32046FFF7DAFE002070BD3065B5642A
:105190000021FFF7ADFEF06408B901F0E1FB204605
:1051A000FFF7CCFE06F1480070BD38B50446FFF7A6
:1051B000BAFE0025DFF870270C216943515A21B14E
:1051C0008C4206D06D1C062DF6D3FFF7B7FEFF20EC
:1051D00032BD1AE310B504462088FFF7E6FFFF282A
:1051E00002D14FF0FF3010BD0C21DFF83C274843BF
:1051F0001044816811B96FF0010010BD2046BDE870
:105200001040084702460FF24470104738B500209E
:105210000C21DFF814270024002501FB00F31344C0
:10522000401C03289C641D65F7D30020002301FB6C
:1052300000F4401C13530628F9D3BDE8314088E63A
:105240002DE9F8478FB081468846FDF73DFF0546BA
:105250000027DFF8D86647451FD26846FFF75CFE97
:1052600009EB07114A6806928A68089200220B68C7
:105270000493C868059069463046FFF73DFE040078
:1052800011D0FFF750FE82462046FFF768FF50B16D
:105290005046FFF753FE7F1CDDE72846FDF718FF59
:1052A00010B0BDE8F08701F05BFB00BFF8B56846C1
:1052B000052141604FF47A728260DFF87416DFF8DE
:1052C00074260091C2600121FFF7BAFF05B000BD4E
:1052D00038B504460D46FFF726FE002145F80C1CA4
:1052E000226812B9256006E00A4652F80C1C002913
:1052F000FAD142F80C5CBDE832401FE680B5FFF7FA
:10530000FFFDFFF712FF10B96FF0040002BD8168C6
:1053100009B9022002BD4068AFE006280ADA0C2273
:10532000DFF804365043185A00281CBF4FF6F872B5
:10533000904202D14FF0FF30704708800020704744
:1053400030B5DFF8F4552A680C464FF47A71A1FBAA
:105350000001002301F008FB002902D8B0F1004F42
:1053600002D36FF0020030BD2060002030BD014646
:10537000886849680847F8B505460E46FFF7C0FD3E
:10538000FFF7EDFE04000DD0FFF7CDFD0146002232
:105390000C27DFF8943557433B44188820B1521C42
:1053A000062AF5D301F0DCFA4FF6F87000271880D2
:1053B0005C609F602A706068306000F092F80020A6
:1053C000F2BD0C3842E670B5044615461E46084646
:1053D000FFF7EBFE0146FF2902D14FF0FF3070BD11
:1053E00033462A462046BDE8704080E07CB505463D
:1053F000164600F09EF8040010D128886946C0B215
:10540000FFF78BFF28B13068FFF7DBFF6FF0050077
:1054100076BDBDF800002880FFF770FF204676BDFE
:1054200038B50546FFF76CFDFFF77FFE0446FBF736
:1054300029F9002818BF012800D014B96FF0040022
:1054400032BD65B900200090009B60684FF00042BB
:105450000021FEF785FB401E8041C00F32BD15F1D3
:10546000010F08BF4FF0FF30EDD069462846FFF727
:1054700067FF0028E8D032BD80B54FF00041FFF74C
:1054800043FD002002BD2DE9F843054600F09AF9DE
:10549000FFF765FE04006FF0020920D0FFF743FD1F
:1054A000014600220C23DFF880045343034418888C
:1054B00040B1854211D0521C062AF3D301F050FAB4
:1054C000BDE8F2831D805C609E603A706068C8F839
:1054D000000000F006F80020F2E700F002F848466D
:1054E000EEE708462AE568E5B0E501E6F0E52DE9D6
:1054F000F8430D46062DBCBF0446062816469946BD
:105500006FF0020806DAFFF70EFD00F000FA19B995
:10551000FFF714FD40460AE0FFF710FD00F0EDF93B
:10552000786840684FF00041FFF7EEFC0020BDE8CE
:10553000F2832DE9F04106460F469046FFF7E0FC66
:10554000FFF7F3FD050008BF6FF004001BD0FFF765
:10555000EAFCA968002441B10C46A4F10C01002327
:105560000A68AA60FF250B608D72FFF7E7FC0CB993
:10557000022008E0A4F10C00017931704079387004
:10558000C8F800400020BDE8F08182B001208DF80D
:1055900000009DF800000028FBD101F0E1F900BFF8
:1055A000FBF784B850B5DFF8906332686FF00044C1
:1055B000A4FB020100234FF47A7201F0D5F900290F
:1055C00002D8B0F1004F00D3204650BD7CB50C4648
:1055D00015461E466946FFF7B3FE30B900983346BC
:1055E0002A46214600F002F8002076BD2DE9F0435E
:1055F0001D4689B02C6880460E4617462CBB0C20F1
:10560000FFF7DBFC04006FF0030918D00823242205
:1056100000216846FAF76EFD0020ADF810000590F5
:10562000069400236A464146DFF81003FFF770FC3A
:10563000206030B9FFF7A9FF2046FFF707FD484675
:1056400017E06660A7602C600BE0DFF8F46230685A
:10565000804705462068FAF751FDA7602846716823
:10566000884720684146FAF74DFD2068FAF74EFD5D
:10567000002009B0BDE8F08300281CBF0068FAF7DD
:105680003DBD7047E0B58DF80400684601F01CFA96
:105690009DF805000EBDE0B50190684601F04AFA9C
:1056A0000EBDE0B50190684601F04EFA0EBD2DE941
:1056B000F84384B0044600F085F8FFF736FD054650
:1056C00000200290FAF7DEFF002818BF012800D062
:1056D00015B96FF0040072E044B900200190FAF7A8
:1056E000E5FF814601980124814425E014F1010F72
:1056F00008BF4FF0FF30F1D001A92046FFF720FE90
:105700000028ECD05BE0039902A8FFF7E1FD686890
:105710004FF00051FFF7F8FB0198012410F1010F41
:1057200018BF002808D0FAF7C1FFB9EB000031D04C
:10573000019981422ED30190019B68684FF000527D
:105740000021FEF70DFA28B303AA69460DF1010006
:10575000FFF7EFFE0400DFD19DF801000DF102011B
:10576000FFF7DBFD0028CED1039A9DF80010BDF8AD
:105770000200B0470028C6D017B1BDF8020038803B
:10578000B8F1000F1CBF9DF8001088F800100C98AD
:1057900003990160FFF7B2FD029EFFF7C4FB0146CB
:1057A00056B1324600E0024652F80C0C0028FAD1FD
:1057B000A86842F80C0CAE60FFF793FE204605B0D7
:1057C000BDE8F0830E4617469846FFF799BB38B5FB
:1057D000FFF796FB0446FAF755FF002818BF01288B
:1057E00011D0FFF7A0FB00254F4A0C236B43D15A81
:1057F00039B1D11849680B68A34206D06D1C062D3B
:10580000F3D3FFF79BFBFF2032BDFFF797FBE8B216
:1058100032BDE0B5ADF800008DF806100020494912
:105820000A68ADF802006846904710B99DF8070075
:105830000EBDFF200EBD1078422801D10120704717
:10584000002070470CB478B504460E4687B0FAF7CE
:1058500019FF0CAD002814BF0128FFF796FE142095
:105860000021FF22ADF8100002918DF8122006965B
:105870000595FFF7ACFF05AB03222146FFF7A3FD1B
:10588000002001A901900091002300222E4941F23D
:105890008830FFF70CFF012805D020B9019820B10E
:1058A000FFF78FFD01E0FFF770FE0598006808B074
:1058B00070BC5DF80CFB2DE9F8430D46062DBCBF0E
:1058C00004460628164699466FF0020806DAFFF7E6
:1058D0002AFB00F01CF819B9FFF730FB40460AE03C
:1058E000FFF72CFB00F009F8786840684FF0005192
:1058F000FFF70AFB0020BDE8F283A9F1080004705D
:1059000045708670494678680830FFF7E1BC0C2284
:10591000054B02FB05F7DF19796870473417002043
:10592000FF3F0020431E0020C81600200552000043
:10593000A19C01002C050020CCFC01006F5300004D
:10594000040500200C05002037580000D551000048
:10595000274F00003D4F0000DFF800F0A1B6011016
:10596000DFF800F035BD0110DFF800F019BD0110BF
:105970002DE9F04389B08046894617461D46109CA4
:10598000119E0823242200216846FAF7B3FB394907
:1059900006964FF47A700A68B0FBF2F14D43059514
:1059A0004F43ADF810406B463A4649464046FAF739
:1059B000B5FB404609B0BDE8F083FAF7A7BB80B558
:1059C000FAF78FFE00B10120C0B202BDFAF796BB14
:1059D00010B504460021FFF7BFFF204610BD70B58B
:1059E00005460C4616460C20FFF77DFD01000BD046
:1059F0008E602846FFF7B4FF24B14FF08041204667
:105A0000FFF782FA012070BD3046FFF76DFD0020E0
:105A100070BD10B50446FFF7A7FFA04204D084680C
:105A2000FFF762FD204610BD002010BDF0B585B027
:105A30000446684611A11422FAF794FD0E48302559
:105A4000782605704670831CA21D062112F8015DA0
:105A50002D09491E1DF8056003F8016B177807F042
:105A60000F071DF8075003F8015BEFD1197005B05F
:105A7000F0BD0000CCFC010068170020303132334B
:105A8000343536373839414243444546000000003A
:105A9000E0B500BF80A07D4A019010210091132342
:105AA0007B491020FFF7CEFEC0B20EBD2DE9F042BB
:105AB000002708280D461646764C00F27A80DFE86B
:105AC00000F0050E1A26323E4A556D00082D6ED1A3
:105AD00004F1080031680160716841606AE01529CD
:105AE00065DA152104F1100000F032FA2A46314639
:105AF00004F1100058E0152959DA152104F12800A5
:105B000000F026FA2A46314604F128004CE0152917
:105B10004DDA152104F1400000F01AFA2A46314608
:105B200004F1400040E0152941DA152104F1580044
:105B300000F00EFA2A46314604F1580034E01529E7
:105B400035DA152104F1700000F002FA2A463146D8
:105B500004F1700028E0152929DA8834152120463F
