:1000000000440020D9B6010001C9011001C9011046
:1000100001C9011001C9011001C9011001C9011074
:1000200001C9011001C9011001C9011001C9011064
:1000300001C9011001C901103FC90110034801683D
:100040000868814214BF083000207047D4110000B6
:1000500038B504460D46A0682860216A6960E069E9
:10006000A8602046616AE960626B2A6100F03AFA92
:1000700028752069A861E169206A00F046FAE86104
:1000800031BD02460229107803D1517800EB0120DE
:100090007047032906D15178927800EB012000EBDC
:1000A00002407047042908D15178937800EB012071
:1000B000D17800EB034000EB01607047044950F831
:1000C000080C0968814214BF083000207047C04600
:1000D000D4110000002200F01FBA30B4002513E054
:1000E00050F8042BD30744BFA9F101039A18091F44
:1000F000042942F8045BFAD213468C0744BF1580EA
:100100009B1CC90748BF1D7050F8041B0029E7D18C
:1001100030BC704762B38B0708D0521E11F8013B08
:1001200000F8013B00F024808B07F6D1830740F0F4
:10013000208000BF103A07D330B4B1E83810103A2D
:10014000A0E83810F9D230BC530724BFB1E808103A
:10015000A0E8081044BF51F8043B40F8043BD20724
:1001600024BF31F8022B20F8022B44BF0B78037018
:100170007047121F17D35B0009D151F8043B20F8D8
:10018000023B1B0C121F20F8023BF6D20BE051F889
:10019000043B00F8013B1B0A20F8023B1B0C121F1A
:1001A00000F8013BF3D238BF121D521E24BF11F8D4
:1001B000013B00F8013BF8D8704701700A0A0B0CAC
:1001C000090E42708370C170001D7047F8B5044677
:1001D000104801688847104A05461068002101E070
:1001E0000146006880B100F10806B44221BF00F169
:1001F00008078688BE19A642F2D3036800290CBFFF
:1002000013600B6000F0A2F904490A682846BDE8B3
:10021000F24010470C030020AC1C0020100300200B
:10022000002200F09BB9001803000020521E22BFDC
:1002300013F8010B11F801CBB0EB0C00F6D0521CF7
:1002400008BF104670470118F8B501260228054678
:100250000C46174602DA0CB1022F01DB0220F2BD78
:1002600038000BD0012F09D10948006800281CBFB5
:100270008268002A02D02846904730B13A4621468B
:1002800005F0010000F078F906463046F2BD00BFE7
:10029000281E002038B504460D4600F07BF968B1F1
:1002A0006D42611900F10803994221BF00F1080570
:1002B00080882818884201D3084632BD204632BDC6
:1002C000DFF800F01D9A01100120FFF7F9BF0028A8
:1002D000D3BBD9B1B2F5803F5BD2022A1ED98C467E
:1002E000B1FBF2F102FB11C31B0443EA1043B3FB61
:1002F000F2FC02FB1C3380B240EA0343B3FBF2F092
:1003000002FB103240EA0C4000237047022A05D954
:100310008446B0FBF2F002FB10C270474AB105D12F
:1003200000F0010249085FEA300070470022002314
:10033000704700F04FB90B00020000210020704709
:10034000F7D3002200237047904271EB030CF2D3E5
:1003500070B5B1FA81F4B3FA83F52C1BA340C4F154
:10036000200532FA05F63343A2405FF00046E6402E
:1003700002E05B085FEA3202841A71EB030524BFD6
:10038000204629467641F4D302000B0030000021BC
:1003900070BD70B5B1FA81F4B2FA82F5C4F12004EF
:1003A0006419B4F12006DAD3B2405FF00044F4409F
:1003B000002502E052085FEA3303C61A71EB020E11
:1003C00024BF3046714664416D41F3D302000B00F7
:1003D0002000290070BD01280148007D704700BF42
:1003E000A401002010B5044601E004F0B5F9B4FA08
:1003F00084F0C0B2202806D000F018F8F5DB401FCA
:1004000004F0BFF9F3E710BD10B5044601E004F0B5
:100410003EF9B4FA84F0C0B2202806D000F006F805
:10042000F5DB401F04F049F9F3E710BDC0F11F00F0
:10043000C0B2012181404C400528704738B50446C0
:1004400001206071244D2079A8B103F0F2FA04462E
:100450002878FF2805D1204603F0F6FA6FF0060051
:1004600032BD401C2870C0B2012804BF6868FFF785
:10047000B9FF204614E003F0DCFA297821B903F033
:10048000E3FA6FF0070032BD491E2970C9B239B9CD
:1004900003F0DAFA6868FFF7B7FF0020607101E047
:1004A00003F0D2FA002032BD80B5406810F07F4FD3
:1004B00000D00DE0FFF796FF002002BD80B5406838
:1004C00010F07F4F00D003E0FFF79EFF002002BD39
:1004D0006FF0020002BD000020030020DFF800F0F2
:1004E0002DC0011010B50446207D012805D1FFF76D
:1004F000F5FF844201D1002010BDA06810F1010F6A
:1005000001D1042010BD207D10BD00F065B8022887
:1005100062F30F2262F31F4200B500BF130096463C
:100520009446103928BFA0E80C50FAD85FEA417C05
:1005300028BF0CC048BF40F8042BC90728BF20F8CB
:10054000022B48BF00F8012B00BD032802490A68AE
:1005500052F8383F184700BF6C1F00204018491C54
:100560001CBFB1F1010100F8012DF9D17047000065
:10057000DFF800F091BB001080B500F037F88DF87F
:1005800000006A46012142F24E00FFF7F1FF002011
:1005900002BD000038B505460B48016888470B4A84
:1005A00014685CB104F10802954221BF04F108030C
:1005B000A2889A18AA4238BF2468F2D304490A686C
:1005C0009047204632BD00BF0C030020AC1C002029
:1005D0001003002070470229024612F8013BBE2B8F
:1005E000FBD0521E891A40187047002A38B51400F3
:1005F00018BF012A04D1020018BF012800D109B98F
:10060000122032BD0A46074D0146284605F05CF827
:10061000FF2805D01E21484328444477002032BDDE
:10062000022032BD701F0020DFF800F0C1BF0110B2
:10063000DFF800F0B9BA0110DFF800F0E5C00110F2
:10064000DFF800F01FBE0110DFF800F069B2011002
:10065000DFF800F0DDC00110DFF800F091BE0110FE
:1006600020B1082324220021FFF7DEBF7047F0B538
:100670001C0089B005460E46174603D10023FFF73C
:10068000E3FF0FE06846FFF7EBFFA16806916B46BA
:100690002278ADF810203A46606805903146284629
:1006A000FFF7D2FF0F48104A01681160284609B0D1
:1006B000F0BDFFF7CDBFFFF7CFBF05F038B880B56D
:1006C00005F04CF800B10120C0B202BD00218160EC
:1006D000017041607047FFF7AFBFFFF7B1BFFFF791
:1006E000A7BF0000BCB80100201D002010B50446C3
:1006F00000F081F8002161602160BDE8104000F049
:1007000093B838B5054600F076F82C683CB12168FE
:100710002960216800291ABF00224A60696000F040
:1007200083F8204632BD38B500F00FF8002129606B
:1007300062686A606168002914BF0D6025606560A9
:10074000FFE7BDE8324000F06FB804460D4600F008
:1007500052B838B5FFF7F9FF29686A6800290CBF5D
:1007600062604A6069682A6800290CBF22600A60DA
:10077000E7E7012ADFF800F085BF0110DFF800F09D
:1007800061C00110DFF800F079BF0110DFF800F060
:10079000A9C00110DFF800F089AF0110DFF800F008
:1007A00055BC011020B1082330220021FFF7EABF19
:1007B0007047F8B51C008CB005460E46174603D1AD
:1007C000002304F0D1FF0CE06846FFF7EBFF206840
:1007D00005906B46606808903A4600F004F804F013
:1007E000C3FF0DB0F0BD207AADF8180031462846A1
:1007F0007047FFF7CBBFFFF7BDBFFFF7CBBF80B59B
:10080000FFF7EAFD401E8041C00F02BD04F0CCBFDF
:1008100004F0D4BFFFF7C2BF002101604FF0FF32E8
:100820000123426003727047FFF7A8BFDFF800F0B2
:10083000716D0110DFF800F035860010DFF800F070
:10084000CD7101102DE9F84FBD4F0446386808B945
:10085000072073E1C07A012804D004201EF0F0FEC6
:10086000012801D10C2069E1DFF8D88298F8000056
:10087000092818BF0A2804D00B281CBF0C280D28F3
:1008800001D121205AE1002C05D0207810B1012897
:100890000BD102E0E01C00F0AA80A078002818BF6D
:1008A000012804D0022818BF032840F0A0806078F7
:1008B000002818BF012803D0022818BF032872D1CE
:1008C000607A10F0050F6ED000220023607A0121BB
:1008D0009140084232D004EB031043F6FD75418984
:1008E0000E1FAE423EBF8689A6F1040CAC450FD266
:1008F000B14222BF018BC58AA94278D3C18940F693
:100900007B458E1FAE423EBF068AA6F1060CAC4563
:100910006DD28E426BD3458AB5F5FA7F67DA808A4D
:10092000A0F10A0640F6774C66453FBF6D1C4900B2
:100930006943B1EBC00F5AD25B1CDBB2521CD0B280
:100940000228C3DD39684869417A022904BF0020C2
:1009500009F064F938684461617A06297A490CBF64
:100960000120002008701EF085FE050008BF092048
:100970000BD03A68A9791174E01C07D0A278E11C69
:10098000402000F0F7F808B10B20D7E005F1610135
:1009900028460AF099FC05F12C06B07B012803DCFF
:1009A000284609F019FF22E039686078DFF89C9149
:1009B000DFF89CB1DFF89CA188726078002818BF2E
:1009C000012807D1C0073B6854BF59464946062253
:1009D000181D39E00AF10D001EF012FB90B160788D
:1009E000C10754BF5946494600F024F908B91220FE
:1009F000A4E06078C107386854BF594649460622CA
:100A0000001D12E00AF107010AF10D00FFF70EFFC9
:100A1000386806220AF10701001D09F0F5F84E4872
:100A20000368186806220AF1070109F0EDF86078FA
:100A300000F001008AF800006178C80754BF5946E9
:100A4000494606220AF1010009F0DEF8207838BB99
:100A5000A07885F82E0105F594790622E11C484618
:100A600009F0D2F8A178E21C01F00101504604F02F
:100A70002BFEFF2814D0A2781E21484342F0020228
:100A80000AEB000185F82E21487F48B901F10D00DD
:100A90001EF0B6FA20B906223049484609F0B4F8EB
:100AA000FFF7C8FEA86200F0D1F8686204F11001F7
:100AB00025480078000104F114030A5AF280195AFB
:100AC00071812044428A328102223868417C31702F
:100AD000B2700020B080FFF7B1FE0C2290FBF2F262
:100AE0000C2101FB1200401DF07304200EF0E4FE07
:100AF00039681B4A1B4B0860426083611A4A426195
:100B00000120C872A8790FF097F998F80000A0B9F1
:100B10001649087840B116480FF0D0FA38680068D6
:100B2000816941F4802181613868007C0AF0C8F84D
:100B3000062088F8000009F027FB0020BDE8F28FAE
:100B4000F81E00206F4F002003260020344E0020A6
:100B50002C4E0020701F0020442000206CB80100A3
:100B6000FC1E00200200808091A20100784E00202F
:100B7000CC4700202DE9F04780460F46924680285A
:100B80001EBF4028002009F049F82649487800286F
:100B900044D0B8F1400F41D1234801684A69107828
:100BA00008B9012402E0012838D100240025DFF82B
:100BB0007C901F4E3178E8B288422FD20AF014F8A8
:100BC0000146487940B30A681078404524D101F5C0
:100BD00094718A79DCB1524502BF08783A78904224
:100BE0001AD148787A78904202BF8878BA789042D1
:100BF00012D1C878FA78904202BF08793A799042C7
:100C000002BF48797979884206D1012007E0484639
:100C10000EF09CF90528F8DD6D1CCBE70020BDE83F
:100C2000F08700BF684E0020F81E0020CC4700204F
:100C30007B4F0020C00704D5497901F0C001C029CD
:100C400001D10120704700207047000038B5074CE3
:100C5000236853F8085F002200210020A8470546BA
:100C60000FF040FA0028F3D0284632BDFC4E002099
:100C7000DFF800F029640110DFF800F06164011072
:100C8000DFF800F08D640110DFF800F0C964011096
:100C9000DFF800F011650110DFF800F09D6501102C
:100CA000DFF800F0C9650110DFF800F009660110F7
:100CB000DFF800F049660110DFF800F09D660110D2
:100CC000DFF800F0F5660110DFF800F02967011089
:100CD000DFF800F01DF0001030B591B0044600219F
:100CE0008DF80010A06805786A1E0D2A4ED8DFE83E
:100CF00002F007070E12161A1E22262A2E32363A44
:100D000001A900F055F8122830D106203FE001A9D2
:100D1000FFF7AEFF2AE001A9FFF7AEFF26E001A929
:100D2000FFF7AEFF22E001A9FFF7AEFF1EE001A929
:100D3000FFF7AEFF1AE001A9FFF7AEFF16E001A929
:100D4000FFF7AEFF12E001A9FFF7AEFF0EE001A929
:100D5000FFF7AEFF0AE001A9FFF7AEFF06E001A929
:100D6000FFF7AEFF02E001A9FFF7AEFF30B96088E0
:100D700001AA2946FFF7ACFF8DF800009DF800009E
:100D800040B16088694613F0CDF80CE007208DF87B
:100D90000000F6E70B2D1EBF0449086800281CBFA1
:100DA000608816F08FF811B030BD00BF304F0020C2
:100DB00038B505000C4618BF002C01D1022032BD09
:100DC00068782070201DAA786270E97816F090F893
:100DD0002879E268207222F48072687900F00101BB
:100DE00042EA0122430822F4007203F0010342EABE
:100DF0004322810822F4806201F0010142EA81224B
:100E0000C10822F4784201F0010142EAC12200093E
:100E100042EA0032E2605208A97901F0010040EA9A
:100E200042024B0822F0020203F0010342EA4302AD
:100E3000880822F0040200F0010042EA8002C8089B
:100E400022F0F80200F0010042EAC002090942EA79
:100E50000112E26004201EF0DFFD217A814205D3F9
:100E600005201EF0D9FD217A884201D2122032BD20
:100E700020780428DCBF6078012801DD182032BD0D
:100E8000002032BD704701207047000000000000C4
:100E90001200011007E82500202C1A00203004C29F
:100EA0000001C00520010100006419185200011062
:100EB00007080200204C0400200111C301000112A8
:100EC0000418210483010001A10CD00300050020B7
:100ED000000152301420023401002004523C04224C
:100EE000000150026CDC0200015003BC030020032F
:100EF0000D1003432501008904F3010100012002C4
:100F00007C040020171200010002080200200002E9
:0D0F10000800000003000052000152000123
:10100000B41200001810000015AB0110FDB3011060
:101010006DC00110FDAE011099B5011059BA011053
:1010200039BA01102D000000B01200003C10000081
:10103000B1C00110A9BF011067C0011069B801104B
:10104000B9B9011099B9011030000000B0120000C8
:1010500060100000BDC00110CDB30110D9BD01105A
:101060006DB301108DB80110D9B901103100000025
:1010700000000000700300200400000000000000D9
:10108000000000002000000094AA010030000000D1
:101090002810000090030020040000000000000061
:1010A000000000000C00000018B60100180000004D
:1010B0004C10000098030020040000000000000015
:1010C000000000002400000030B6010018000000FD
:1010D00000000000D8030020040000000000000011
:1010E000000000001000000084AB01002C00000094
:1010F00000100000F40300200400000000000000C5
:10110000000000002000000008B0010024000000E2
:10111000FFFFFFFFFC0300200400000000000000B0
:1011200000000000280000002CB001002400000096
:10113000FFFFFFFF24040020040000000000000067
:10114000000000001400000048B601001800000074
:10115000FFFFFFFF2C04002004000000000000003F
:1011600000000000580000003CA70100340000000F
:10117000FFFFFFFF34040020040000000000000017
:10118000000000001000000060B601001800000020
:10119000FFFFFFFF3C0400200400000000000000EF
:1011A000000000001C00000050B0010024000000FE
:1011B000FFFFFFFF440400200400000000000000C7
:1011C0000000000038000000D0AD01002800000041
:1011D000FFFFFFFFAC04002004000000000000003F
:1011E000000000005400000000A401003C000000CA
:1011F00001000000C0B801000100000000000E0066
:1012000000000F0032000000010000007803002001
:10121000000200000000000001C9011000000000F1
:10122000000000000800000000002200A0030020D1
:10123000000000000000000008000000040400207E
:101240000000000000000000080000000000000096
:10125000000000000000000000000000010000008D
:101260004C0400200600000001000000B40400202F
:10127000000000000000000000020000000000006C
:0F128000290001002500300031002D0001000180
:101290000400000078B7010000000000000000001A
:1012A000000001000000030013C401109D2501008F
:1012B000B8120000B812000000000000E80300208F
:1012C0000125010020000000F0B60100F8AD01008A
:1012D00029C101105BA000000BB30000A1C70110E1
:1012E000A3C701100000000086C9000088A101000A
:1012F000A0A1010070A1010002000900010000008E
:10130000011200019DAD010073AD010079B401002F
:1013100055A9010061AA010001A201009D840100FC
:1013200091B6010079240100E1250100E5250100C5
:10133000DFF800F0F9BB0110DFF800F0B950011040
:10134000DFF800F059500110DFF800F05D5C01108B
:10135000DFF800F0A15C0110DFF800F0BD5C0110C7
:10136000DFF800F0E15C0110DFF800F0415D0110F2
:10137000DFF800F0915D0110DFF800F02D5E011044
:10138000DFF800F0715E0110DFF800F0FD5E011083
:10139000DFF800F0155F0110DFF800F0315F011099
:1013A000DFF800F0495F0110DFF800F0755E011012
:1013B000DFF800F0A55E0110DFF800F0795F0110A2
:1013C000DFF800F0C15F0110DFF800F0FD5F0110F1
:1013D000DFF800F011600110DFF800F06560011027
:1013E000DFF800F011610110DFF800F03560011046
:1013F000DFF800F0E55D0110DFF800F0D15E0110CC
:10140000DFF800F0515E0110DFF800F02D540110FC
:10141000DFF800F0D5500110DFF800F09550011012
:10142000DFF800F0AD4F0110DFF800F0495C01106B
:10143000DFF800F07D5C0110DFF800F08D5C01103A
:10144000DFF800F0B95C0110DFF800F0C95C0110B2
:10145000DFF800F0255D0110DFF800F0895D011074
:10146000DFF800F0295E0110DFF800F04D5E01109A
:10147000DFF800F06D5E0110DFF800F0B15E0110E2
:10148000DFF800F0F95E0110DFF800F00D5F0110E9
:10149000DFF800F02D5F0110DFF800F0A55D01100E
:1014A000DFF800F0355F0110DFF800F0A15E0110F9
:1014B000DFF800F0755F0110DFF800F0A15F0110A8
:1014C000DFF800F0F55F0110DFF800F01D6001109B
:1014D00010B5DFF8D8486060A160E260637019461B
:1014E00000F089FF0246DFF8C81800F07DFF00F029
:1014F00081FF0246DFF8BC1800F076FF00F07AFFAB
:10150000BDE810400246DFF8B018102002F06BBFB3
:101510001CB58DF8042082238DF802108DF803008D
:10152000120A8DF8003006248DF805208DF8014050
:101530000621684600F006FB13BD2DE9F84F05466D
:101540000F46012488B00020E9079046387029D55D
:10155000684602F09CFD397841F0010139707C70D9
:101560000E240099B9700098000AF8700098000CD9
:1015700038710098000E78710198B8710198000ACE
:10158000F8710198000C38720198000E7872029878
:10159000B8720298000AF8720298000C3873029828
:1015A000000E7873A8073BD5397841F002013970F5
:1015B00002203855641CDFF804080188E3B2641C7B
:1015C000F954E2B20088000AB854641CDFF8F0074E
:1015D0000168E3B2641CF954E6B20268120ABA5513
:1015E000641C0168E2B2090CB954641C0068E1B2E1
:1015F000000E7854641CDFF8CC070268E3B2641C68
:10160000FA54E6B20168090AB955641C0268E1B2ED
:10161000120C7A54641C0068E2B2000EB854641CC8
:10162000680755D5DFF8A017D1F800A0FEF706FD32
:101630000546387840F00400E2B238700421B9540D
:10164000641CE3B200205FFA84F9F854641C20E0C3
:101650005FFA84FBBBF1630F3ADA5FFA8AF1491E45
:101660000020FFF765FE060011D06946FEF7F0FC8A
:10167000009807F80B00641CE1B2641C7E54E2B2CF
:10168000360ABE5400F02FF8641C00F026F8AAF1C8
:10169000010A5FFA8AF00028DAD1CDB1E6B2632EF2
:1016A00016DA69462846FEF7D3FC0098B855641C44
:1016B000E1B2641C7D54E2B2280AB85400F013F879
:1016C000284600F00AF8641CFEF7F8FC0546E4E73B
:1016D00088F8004009B0BDE8F08F17F80920521CC7
:1016E00007F809207047641C0798E1B2641C78541D
:1016F000E1B20798000A7854641C0298E1B2641CB5
:101700007854E1B20298000A78547047DFF8082C48
:1017100012680146002012F1010F00D1704770B528
:101720000023DFF8F84B0C255D43665B8E4201BF5A
:1017300065196D6825F00045954203D05B1C612B4F
:10174000F1D370BD012070BD0178932908BF00F06E
:101750002BBA022908BF00F001B870472DE9F0410B
:1017600096B04068477881780278002607EB012719
:10177000DFF838164968092ABFB20CBF441D041DA2
:1017800001B188474FF00C08DFF8905B08FB06F0CA
:10179000295AB94204D0761C612EF3D300F096800A
:1017A00008FB06F60AA83021FEF794FCAA190121CD
:1017B000907820B19068431C13F8017C02E002F19C
:1017C000080308274FF0000E0AAA19E0062104E0DA
:1017D000082102E0102100E021785FEA407C33D547
:1017E00000F00B0042F82E4002282AD0032814BF34
:1017F000641804EB810401E000284BD00EF1010EC7
:10180000BE4547DA0EEBDE704FEA600C13F80C00B1
:10181000AEEB4C0C4FEA8C0C20FA0CF000F00F00F1
:101820005FEA007CD9D5A0F10C010329D4D8DFE808
:1018300001F006050403CFE7CCE7C9E7C6E70221BC
:10184000CBE704EB4104D9E7032810D1207894F8C2
:1018500001C094F8028000EB0C2094F803C000EB68
:10186000084000EB0C6042F82E00241DC6E7022859
:1018700009D1207894F801C000EB0C2080B242F826
:101880002E00A41CBAE70128B6D114F8010B42F8C7
:101890002E00B3E71598149953680990089113988E
:1018A00012990790069111989169059004910F98EB
:1018B000116903900291D06891680A9A0190009191
:1018C000281D815921F0004100F091FD16B0BDE8BE
:1018D000F0812DE9F041DFF8D4740646F86800285D
:1018E0000C4635D0B6F1004F40F2136827D00820DF
:1018F00002F0CAFB050019D02E606C60FA680FF286
:101900005501904720BBB6F5800F05D13CB1A069C9
:1019100018B102F0BAFB00E00CB101F097FB2846C9
:1019200002F0B3FB4246072100200EE0B6F5800F1F
:1019300005D13CB1A06918B102F0A7FB00E00CB1E1
:1019400001F084FB424607210120BDE8F041DFE5BC
:10195000BDE8F0813EB505004DD028686C68B0F553
:10196000803F15D0B0F5003F2CD0B0F5802F18BFC8
:10197000B0F5002F0CD0B0F5801F18BFB0F5001FD8
:1019800006D0B0F5800F04BF214600F035F82FE0F7
:1019900013228DF80020062300228DF803008DF815
:1019A00001308DF80220030A020C000E8DF80600AB
:1019B0008DF804308DF805200721684600F0C2F844
:1019C000B4B113E0A4B113208DF8000006216846DD
:1019D000002241704280022141710271827121789E
:1019E000C17109216278027200F0ACF801F02EFB9F
:1019F000284602F04AFB37BD2DE9F0470F0082462A
:101A000000F09E80FD8ADFF8A4834FF0FF09C92D06
:101A1000ACBFC826EEB206F12A0080B202F094FAFA
:101A2000040079D00120207004F1080184F80190AD
:101A300061600420087006F11F01606880F8019061
:101A400006226068817013216068C1700621606899
:101A500001710021606841714FEA1A20616881F8C4
:101A600006A06168C8714FEA1A40616808724FEABF
:101A70001A6061684872616838788872616878783D
:101A8000C872B91C60680C30FEF744FB6168387A94
:101A9000887406226168787AC8746168B87A0875B3
:101AA0006168F87A48756168387B88756168787B09
:101AB000C87507F10E0160681830FEF72BFB6168EE
:101AC000B88A88776168B88A000AC8773112606876
:101AD00080F82060606880F82110F88A38B1B96910
:101AE000401B0144606832462230FEF713FBC92DCB
:101AF00009DB6068817A01F09F0181726068817AF8
:101B000041F020018172D8F808200AB100F044F8B1
:101B1000204602F027FA05E040F213620721012077
:101B2000FFF7F6FCAD1BADB2002D7FF470AFB869C6
:101B300008B102F0AAFA3846BDE8F04702F0A5BAAB
:101B4000BDE8F08770B505460E4606F10B00C0B241
:101B500002F0FAF904001ED00120207004F10801FF
:101B6000FF206070616004220A703100626850706A
:101B70006068867005D0606832462946C01CFEF752
:101B8000C9FA8A498A680AB100F006F82046BDE819
:101B9000704002F0E7B970BD60688178C91C89B2F5
:101BA000104701F0A3BA000030B58BB000218DF8CA
:101BB0000410406810F8011B8DF808100278417875
:101BC00002EB0122811C9DF80800ADF80A200928CB
:101BD00007D10A78487802EB0022ADF80C20891C66
:101BE00003E011F8012BADF80C200491BDF80A00B8
:101BF000C109491E04294ED8DFE801F003393E43EC
:101C0000480004990C784A78684D00F07F0004EB96
:101C100002240A28A4B202D0122813D03BE0BDF857
:101C20000C309A1E92B2891C05A8FFF785FB0100B3
:101C300032D1697800F0DFFB009005AB2246DFF877
:101C4000A01711E0BDF80C00821E92B2891C05A8F5
:101C5000FFF776FB01001FD1697800F0CCFB009004
:101C600005AB2246DFF87C1700F03EFE14E000F0E2
:101C70002FF800F0ABF80FE000F029F800F0BEFB01
:101C80000AE000F024F800F073FE05E000F01FF811
:101C900000F022F800E00120DFF8B82B90707F21DF
:101CA000BDF80A00D0701170000A40F0FC001071FD
:101CB00006239DF804009DF8041050715370891D8F
:101CC000C9B21046FFF73EFF00200BB030BD01AA9D
:101CD00002A900F07F0070472DE9FF41144600275C
:101CE00001280B462770DFF86C5B06D002281DD058
:101CF00004282FD007284ED053E09E68717837789B
:101D00008846B8F1640F23DA384601F0D5F9F8B9FE
:101D1000A81D009043463A46DFF83C1B00F067FBE5
:101D20000746C0B200283DD1707832E09C68257823
:101D300066783146284601F0BFF948B9A01C0090EA
:101D400033462A46DFF8A81B00F051FB074629E07E
:101D5000022727E06A46DFF89C1B102002F043FBB5
:101D600000980099A871090A0098E971000C28727E
:101D70006F73EF73BDF804006872000AA8729DF8D3
:101D80000600E872BDF808002873BDF80A00A873C1
:101D90000A20207006E098680078A91DFFF7CDFBA7
:101DA00000E00127F8B204B0BDE8F0814C14002037
:101DB00031810110FDB70100F1B7010012140020BC
:101DC0002C14002030140020681200002DE9F04F80
:101DD0000F4689B0B988402502294FF0000BB8BFE3
:101DE0004020C0F21981BC6822786378DFF8088B44
:101DF000DFF8086B401E02EB03221D281FFA82FA4F
:101E00004FF6FF7900F28682DFE810F01E0029000D
:101E10003B0048005600660085009500C200D700D0
:101E2000E40008011901340149015F0178018801CA
:101E3000BA0184028402C601EC0104023D0284025C
:101E4000470284025C027A0200F088FAFFF77CFA0B
:101E5000002873D103AB5246DFF8A41A1BE003A895
:101E60008A1EA11C02900192009100F039FD002809
:101E700064D1717800F0BFFA00F086FADFF8841AB6
:101E8000D9E000F06BFAFFF763FA002856D103ABF4
:101E90005246DFF8741A00F020FDCEE000F063FA3D
:101EA000FFF75AFA002849D1717800F0A4FA00F03F
:101EB00074FADFF8581A60E000F06AFA5FEA000B83
:101EC0002DD000F045FAFFF74BFA00282DD103ABD7
:101ED0005246DFF83C1A6AE000F045FAFFF744FA90
:101EE00000282BD100F021FA002800F0F580BDF881
:101EF0000C00012804BFBDF80E00484540F0EC80FE
:101F0000717800F078FA01905246BDF81400069BF3
:101F1000DFF8001A31E000F03BFA5FEA000B78D0FE
:101F200000F016FAFFF724FA00286FD103AB5246EF
:101F3000DFF8E4193BE000F041FA002869D19DF890
:101F40001030DFF8D80900F0EBF938B1717800F003
:101F500052FA00F022FADFF8C8190EE09DF81030AE
:101F6000DFF8C00900F0DCF90028717809D000F032
:101F700042FA00F012FADFF8B019009000F037FAD8
:101F80005BE000F038FA00F0FFF9DFF8A01952E04A
:101F900000F0FEF95FEA000B3BD000F0D9F9FFF743
:101FA000EBF9002832D103AB5246DFF8841900F078
:101FB00094FC00F00CFA29D12BE000F0C3F900F0FA
:101FC00088FC30BB717800F016FA00F0DDF9DFF81C
:101FD000641930E0022902DD00F0DAF98346B8889E
:101FE000022802D0BBF1000F13D000F0B2F9FFF7C6
:101FF000C7F940B903AB5246DFF83C1900F06DFC5D
:102000000546C0B228B1BBF1000F02D05846FEF71A
:10201000DDF8E8B201F05DF8FFF75CBB00F092F983
:1020200000F04EFC0028F4D1717800F0E4F900F0E3
:10203000ABF9DFF8081900F057FC0546E9E702297B
:1020400002DD00F0A5F98346B888022802D0BBF172
:10205000000FDED000F07DF9FFF796F90028D2D10D
:1020600003AB5246DFF8D81800F037FC00F0AFF9A8
:10207000C9D1CEE700F08CF95FEA000BC9D000F0BF
:102080007AF9FFF785F90028C0D1717800F0B3F92B
:1020900000F07AF9DFF8AC1800F026FC89E7022995
:1020A00002DD00F075F98346B888022802D0BBF142
:1020B000000FAED000F04DF9FFF76EF90028A2D165
:1020C00003AB5246DFF88018CEE700F077F900281E
:1020D0009FD100F02AF908B902259AE7BDF80C0053
:1020E000012804BFBDF80E004845F5D1717800F015
:1020F00082F90346524600F06EF99EE700F048F977
:102100005FEA000B85D000F023F9FFF749F90028BA
:10211000BAD103AB5246DFF8341848E70B1FE17819
:10212000A0789BB2221D00F094FF5FEA000BE9D07B
:1021300003A800905A46B988A0780B1FE1789BB29B
:10214000FFF732F900283BD19DF8150048B97178A6
:1021500000F051F900F018F9DFF8F41700F0C4FBB3
:102160000BE09DF8140000280CBFDFF8E817DFF83B
:10217000E81703AB524600F0B0FB0546E8B29EE01C
:1021800000F0ECF8FFF714F900282AD15246DFF8E6
:10219000CC1700F029F950E700F0FAF85FEA000BDD
:1021A0001FD000F0E8F8FFF707F9002808D13069E0
:1021B00018B93C2001F068FF3061306908B9132577
:1021C00024E7B2781346042BC8BF0225F8DC521C62
:1021D0000C21B2704B4318440C2203A9FDF79AFF5F
:1021E000002516E700F0D4F85FEA000BF9D000F004
:1021F000AFF8FFF7E5F80028E2D103AB5246DFF86D
:10220000601700F06AFB00F0E2F8D9D105980028C9
:10221000D6D0FEE603AA00928B1E9BB2A21C002120
:102220000020FFF7D1F80028F3D1306900283FF4EF
:1022300053AF717800F0DFF8029052469DF80C0021
:10224000B1780190009110203369DFF8181702F07F
:10225000CAF80546C0B290B10BE00C21083001FB72
:102260000BF1405808B1FDF7B1FF0BF101005FFA27
:1022700080FBB17830698B45EFDB01F006FF002071
:102280003061B070C5E600F069F8FFF7A1F80028EA
:10229000F8D15246DFF8D0167BE700F04EF85FEA3F
:1022A000000BEFD000F080F8002822D1A078DFF8F2
:1022B000BC1600F069F800F017FB0546C0B2002814
:1022C00017D118E000F039F85FEA000B17D000F0E2
:1022D0006BF800280DD1717800F08DF8019003ABF8
:1022E000A078DFF87C1C0090524600F0FDFA00F068
:1022F0006EF87FF48BAE049800283FF484AE88E635
:1023000000F02CF8FFF768F80028F8D15246DFF803
:10231000C01C3EE701257CE61C030020A4EF000062
:102320000DF111020221FFF75BB89DF810300DF19D
:10233000110202214046FFF753B8C91E89B2E01CC2
:1023400000F034BE03A800908B1E9BB2A21C704705
:10235000B888811E03AA89B258467047891E03AA0D
:1023600089B2A01C704703A800908B1E9BB2A21CD0
:1023700000210020704703A800905A46B9888B1EA0
:102380009BB2002100207047009003AB524670477B
:10239000891E89B2A01C00F009BE01905246BDF80A
:1023A0000E00BDF80C30704703A800905A46B9885B
:1023B000CB1E9BB200210020FFF716B803A80090A7
:1023C0008B1E9BB2A21C00210020FFF711B805460E
:1023D000C0B200287047DFF8D81C102002F003B804
:1023E0009D910110258B0100102001F0FCBF1020F1
:1023F00001F0F9BF6178502001F0DCBF2DE9F04F0A
:102400000D4689B0AA88012A4FF000094FF0400A12
:10241000D8BF402040F3B681AF68DFF8E044397898
:102420000646787801EB00206178022E1FFA80F8CA
:1024300039D0042E00F08980062E4CD0082E77D09B
:102440000A2E00F098800C2E00F0AD800E2E00F0C9
:10245000B580102E38D0122E00F0F080162E1FD02E
:102460001B2E00F0BA811D2E00F0CF81302E18BF38
:10247000322E3BD0342E00F08980362E00F0B6800C
:10248000382E00F0C4803A2E00F00D813C2E00F072
:102490007B813E2E00F08681402E00F08E81422E00
:1024A00000F0DB80D1E103A9931EB81C02910193D7
:1024B000009000F015FA00281AD1FFF79BFF00F0FA
:1024C000F2F9DFF8401469E1FFF795FF0346424651
:1024D000FFF781FF64E1FFF78EFF0190BB1CA88826
:1024E000DFF83014801E0090424641E0931E042B1A
:1024F00040F04481BA78F8783D7902EB002084B24C
:10250000787905EB0025302EADB208D1FFF773FFC7
:102510000190009523464246DFF8041428E0FFF7B7
:102520006AFF0190009523464246DFF8FC131FE046
:1025300000F0A0F9FFF747FF002856D1FFF75AFF38
:1025400000F0B1F9DFF86C1B28E100F093F90021ED
:102550000020FEF701FF002847D1FFF74BFF019055
:102560004246BDF80E00BDF80C30DFF8A013009015
:10257000FFF73DFF14E100F0A7F9002835D1FFF780
:1025800039FF00F090F9DFF8AC1307E100F072F9C1
:10259000FFF719FF002828D1FFF72CFF00F083F97F
:1025A000DFF88813FAE000F086F900281DD1FFF764
:1025B00021FF00F078F9DFF88413EFE000F077F9FD
:1025C0005FEA000911D000F05BF9FEF7E1FE002898
:1025D00064D1FFF70FFF00F066F9DFF8681300F031
:1025E00083F98246C0B2002858D1C7E000F05FF9F5
:1025F0005FEA0009F9D000F035F90020FEF7D4FEBB
:1026000000284BD103AB4246DFF8481313E0931E7A
:102610009BB2BA1C0121012000F01BFD5FEA0009FA
:10262000E3D000F01FF90120FEF7BEFE002835D1EF
:1026300003AB4246C84900F050F9E1E000F037F939
:102640005FEA0009D1D000F024F9002826D1FFF775
:10265000D1FE00F028F9BE49D0E000F028F95FEA89
:1026600000091FD000F00CF9FEF7A6FE002815D1D6
:102670006178162E06D1FFF7BEFE00F014F9DFF8E0
:10268000801B05E0FFF7B7FE00F00DF9DFF8741BC3
:1026900000F02AF982465FFA8AF000286BD105988B
:1026A000002868D06AE0931E68DDBD7815B94FF048
:1026B000020A63E0052DFADC0C20684301F0E4FC1B
:1026C000060008BF4FF0130A58D00C216943FDF7EC
:1026D000A7FD0195FF1C00250EE07F1C009104233F
:1026E0003A4603E0029800905B464A4600210020EB
:1026F000FEF762FE5F446D1C0198854280F2A8805F
:102700000C216943314402914FF0040B38780028C2
:10271000E3D017F8010B001D5FFA80FB59463846DD
:1027200000F044FC5FEA0009DCD1019F4FF0130A7E
:10273000BD420DD1FFF75EFE0290334601200190AD
:10274000009742468749FFF752FE8246C0B278B1F1
:10275000002508E00C2106F108006943405808B143
:10276000FDF734FD6D1CBD42F4DB304601F08DFCFD
:10277000B9F1000F02D04846FDF728FD5FFA8AF054
:1027800000F0A7FCFEF7A6BF00F09EF80028F5D1E8
:10279000FFF730FE00F087F8DFF86C1A00F0A4F8BD
:1027A0008246EBE700F087F80028E7D1FFF722FE2A
:1027B00000F079F8DFF8541AF0E700F078F85FEAF3
:1027C0000009DBD000F065F80028D4D1FFF712FE35
:1027D00000F069F8DFF8381A10E000F03FF85FEA1F
:1027E0000009CBD003A800904A46A988FFF7E0FD76
:1027F0000028C0D1B8785D4900F055F800F074F8B1
:102800008246C0B20028B6D11BE000F027F85FEA8C
:102810000009B3D003A800904A46A988FFF7C8FD75
:102820000028A8D1FFF7E6FD019003ABB878DFF8E8
:1028300030170090424600F057F88246C0B2002898
:1028400099D10498002893D098E74FF0010A95E7B2
:1028500007466DE76014002011B40100D11E89B253
:10286000F81CA3E303A800904A46A9888B1E9BB2DC
:102870000121704703A80090931E9BB2BA1C7047B9
:1028800003A800904A46A9888B1E9BB20021002015
:10289000704703A800904A46A9888B1E9BB200216E
:1028A0000020FEF781BD009003AB42467047911EA9
:1028B00089B2B81C7AE303A80090931E9BB2BA1C9D
:1028C00000210020FEF798BD03A80090931E9BB244
:1028D000BA1C00210020FEF793BD102001F083BD3B
:1028E00000230022DFF8781C102001F07CBD0000DE
:1028F00097B40100C1AE0100CE0200004C140020CC
:10290000398E011071A70100598E011005B7010021
:10291000818E01104D900100BD8E01100E0500004A
:1029200099AE01004A050000F5AC010085B8010030
:10293000F18E0110D5B801002D8F0110D9B801001A
:10294000518F0110D5A70100918F0110BD8F01108B
:10295000DDB801001FAD010049AD0100ED8F011090
:10296000FD8F0110F17F010025900110450001103D
:102970002DE9F04FABB0DFF8ECBB8D689BF8018020
:10298000DFF8E47BAE1C002814464FF0000A05F186
:10299000080105F1040961D00A2877D00B2800F05E
:1029A000AD800C2800F0CC810E2800F0A8810F2803
:1029B00000F07E81102800F0728111286FD012285B
:1029C0007AD0132800F08D802F285AD0302800F0BC
:1029D000C081312800F0D181362815D0372800F089
:1029E000E581392800F0EE813A2800F0F2813B2899
:1029F00000F0F2813C2800F0F9813D2800F0DC81F4
:102A000048281CBF49284A2800F0D381512800F0EB
:102A1000F981522800F01F82532800F01F825428A9
:102A200000F02B82552800F03682562800F03882BC
:102A3000572800F04782582800F00482602800F0F0
:102A40005082612800F05582622800F0608263287D
:102A500000F06D82642800F075827AE202AB0622F3
:102A6000C3E900AA02A93046FDF7DEFB00B9002643
:102A70004146FFF7C0FC034601966878DFF8EC1A80
:102A80004FE22A78DFF8E81A6B1C58E22A78687857
:102A90003378DFF8E01A02EB002292B24FE200F046
:102AA00068FA6A460878497800EB0120ADF808001A
:102AB0001020DFF8C41A11E000F05BFA08784A78B9
:102AC00000EB0220ADF808006A4688788DF80A000D
:102AD000C878DFF8A81A8DF80B00102001F083FCED
:102AE00035E2687831780FF2C94200EB012080B2FC
:102AF000009010202B78DFF8881A15E2A42102A894
:102B0000FDF7E8FA2878697800EB0120ADF80800B5
:102B10000DF10E0032788DF80C201022E9788DF836
:102B20000D1009F110054946FDF7F4FA1022294667
:102B30000DF11E00FDF7EEFA287C8DF82E00113500
:102B4000102229460DF12F00FDF7E4FA0DF12E00B9
:102B5000297C417400246A7C827412352022294623
:102B60000DF14100FDF7D6FA2035202229460DF15E
:102B70006100FDF7CFFA2035202229460DF18100B2
:102B8000FDF7C8FA05F120010878299B8DF8A1000E
:102B90005B0848788DF8A8008A7802F0010040EAC6
:102BA0004303550823F0020305F0010543EA4503FA
:102BB000900823F0040300F0010043EA8003D008EA
:102BC00023F0F80300F0010043EAC003100923F4E6
:102BD000807300F0010043EA0023500923F40073DE
:102BE00000F0010043EA4023900923F4806300F0E1
:102BF000010043EA802323F47843D20943EAC22345
:102C00002993C878002843D008798DF800006C46D5
:102C10004A798DF801208879019A8DF802005208CE
:102C2000C8798DF80300097A01F0010040EA4202F8
:102C30004B0822F0020203F0010342EA4302880833
:102C400022F0040200F0010042EA8002C80822F0EB
:102C5000F80200F0010042EAC002080922F4807282
:102C600000F0010042EA0022480922F4007200F05C
:102C7000010042EA4022880922F4806200F001004B
:102C800042EA802222F47842C90942EAC122019232
:102C9000234602AADFF8EC18FFF71FFE57E12A7857
:102CA00068783378DFF8E01802EB002292B246E150
:102CB0002C7868783678ED7804EB002410224946A9
:102CC00003A8FDF727FA09F110000178427801EB1B
:102CD0000221ADF81C100DF11E0150F8022F0A6000
:102CE000334642684A600121007A8DF8260002913D
:102CF00003A801900095A2B2DFF890181DE02C788F
:102D00006878367804EB0024ED1C1022294601A8CF
:102D1000FDF700FA05F11000017842788378C07859
:102D200001EB022101EB034101EB006101A80591D8
:102D300000903346A2B2DFF85818FFF7D5FD06E140
:102D40002B786878DFF84C1803EB00239BB23246EF
:102D5000F5E028786A78317802EB0122082892B2EF
:102D600008BFDFF8341833D0062822D0082820DC2A
:102D700013460246DFF82418E1E02A784FF6FF7682
:102D8000FF2A30460ADA062A08D0082A06DCDFF8CD
:102D90001018FFF729FB80B2B04201D14FF0020AB0
:102DA00002212170B8710012F871D4E04FF0020ACC
:102DB00085E04FF0020ACEE0EA792878691CFDF739
:102DC00043FAC4E04146FFF716FB0246DFF8D4178A
:102DD00084E0DFF8D417B7E005F14000009005F17A
:102DE00020032A46DFF8C41710209DE0B81D00908C
:102DF00005F120032A46DFF8B817FFF7F8FA8246F4
:102E0000102182E09BF8000058B90023DFF8A427C6
:102E1000DFF8A417FFF7E1FAC0B210B901208BF870
:102E2000000099F8001000913378E8782A78DFF8EC
:102E30008C1703EB0023687802EB00229BB292B25E
:102E4000102071E02A78DFF87817BB1DFFF7C5FA6C
:102E50008246182034E0DFF86C1775E099F800001E
:102E6000697900EB012080B20190E978307800F0B8
:102E700079F8DFF85417102056E007F10900F91D22
:102E800001900091BB1D2A78DFF84017FFF7AFFAD9
:102E90008246052014E02A78DFF834176B1C4EE0D8
:102EA0000094FB1D2A78DFF82C17FFF7A0FA824662
:102EB000C0B220B92878B8712178491C25E00020DB
:102EC000207048E02A786878317802EB0022E878B0
:102ED00002EB014202EB0062DFF8FC16FFF784FA16
:102EE00039E03078E97800F03DF8DFF8F01610208E
:102EF0001AE0F81D00906B782A78DFF8E416FFF7E7
:102F000076FA82466878B8710321217023E0087848
:102F1000697A00EB012080B201906B1CE879DFF840
:102F2000C416009010202A7801F05DFA0FE06B784B
:102F300030782A78DFF8B01603EB00239BB2FFF756
:102F40004CFA04E0DFF8A416102001F04CFA824697
:102F500001E04FF0010A5FFA8AF02BB0BDE8F08F74
:102F6000CDFF001000EB012080B200906B782A7832
:102F7000704728786A7800EB0220ADF8000072787C
:102F8000307800EB0220ADF8020099F8012099F8A2
:102F9000000000EB0220ADF8040009F10200027805
:102FA000407802EB0022ADF80620704700225BE07B
:102FB00010B5DFF8B0250FF21D01D368044698471D
:102FC00020B92046BDE8104001F05FB810BD0000F8
:102FD00045AC010018B585B016218DF80010062209
:102FE00004468DF8012068462178817062888DF84A
:102FF00003206188090A0171217941716279827126
:10300000A1798DF80710218901722289120A8DF8A1
:103010000920618981726289120A8DF80B20217B57
:10302000017322698DF80D202169090A8DF80E10AF
:103030002169090C8DF80F1011212269120E0274FA
:10304000FEF780FD00F002F806B010BD204601F04A
:103050001CB810B5144600282046BDE810401ABF21
:1030600000290C2200221946F8B50D4652190646D1
:10307000521C90B2FEF7C8F9040016D0DFF87005B4
:103080000168884707464FF0FF312046FDF702F9F7
:10309000DFF860150A680446384690472A463146EC
:1030A0002046FDF737F82046F2BD0020F2BD0000B3
:1030B000C5AA01007DB8010002460020931E012B25
:1030C00002D8102904D002E0803A102A00D302204E
:1030D0007047052804D00C2806D00F2802D070476E
:1030E0004120704742207047432070477CB5054619
:1030F0000020ADF8040001228DF806202C21DFF815
:10310000F8643046FCF7E6FF2A780024A02A3BD07A
:10311000A22A14D0B02A3CD0B12A40D0C22A09D069
:10312000D02A5AD10DF10600009000F073F800F09B
:1031300077F832E000F06EF800F0A0FA2DE069793F
:103140006B886A7841F49061304600F036FC0446A2
:10315000687800283ED16979301901290ED00B29F1
:1031600002D0132905D035E005F10801FEF750F92A
:1031700008E005F10801FEF74FF903E005F1080149
:10318000FEF74EF9041925E000F044F800F0B8FA13
:1031900003E000F03FF800F0F2FA04461DE0687822
:1031A000002804BF287900280AD1E888B0710424D7
:1031B000E988090AF171288930722989090A71722E
:1031C000304629796B886A7841F4B06100F0F5FBEC
:1031D0007471A41D8DF8044034469DF8040018B1A4
:1031E00001462046FEF7AEFC44B19DF805000128DB
:1031F00004D1FFF72BFF9DF8060000B1012076BD3A
:10320000E1B80100F1B80100E5B80100E9B801003A
:10321000EDB801000DF1050301AA314628467047BB
:103220002DE9F843064608980D46012101709046A5
:10323000B078994600270024E0B1052841D006283F
:103240005FD0072871D0092877D00A2800F0A08025
:103250000B2800F085800C2800F069810E2800F012
:103260002D810F2800F02F81112852D0152800F051
:103270006E816FE12C7006226A70B11D7078A870A3
:103280002C46E81CFCF746FFB18869722C27B088F1
:10329000DA49000AA872F078E872102001F0A3F869
:1032A0000146102205F10C00FCF734FFD449102030
:1032B00001F099F80146102205F11C00FCF72AFFE5
:1032C00048E100F0C6F92C46311DFCF723FF708958
:1032D000A87214277189090AE972307B2873F18971
:1032E0006973F089000AA873308AE873318A090A81
:1032F0002974708A6874718A090AA974307DE87427
:1033000028E100F09FF9062700F07CF9B079687198
:1033100020E1122000F0A7F900F07DF9B089E872F1
:10332000B189090A2973B07B16E000F08BF90B27ED
:1033300000F068F900F06FF90CE100F08AF9311D36
:10334000FCF7E8FEF068A872F168090AE972F06813
:10335000000C2873F068000E68732C460E27F9E005
:1033600000F069F9F11CE81CFCF7D4FE7089687262
:103370002C467189090AA9721127307BE87206F17F
:103380001000717B297305F10D0102680A60E1E00C
:103390006B2000F079FE6B27040000F08380012091
:1033A00089F800006B212046FCF73AFF0A202070C4
:1033B0000621617004F122057078A070B188E17077
:1033C000B088000A2071B0796071B068D0B1012175
:1033D000A1711022B068817EE17104F10800B1682A
:1033E000FCF798FEB068018A217604F11A02B068F1
:1033F000018A090A6176B06800F11201086810605C
:10340000486850603069E0B10121297010223069AC
:10341000817E6970AD1C316900F0FAF83069018A6B
:1034200029743069018A090A697405F11200316949
:1034300001F1120200F10805116801605168416054
:1034400000E01C35706990B1012105F8011B1022C4
:10345000716900F0DDF87069103500F11101062284
:1034600000F0D6F87069017CA971ED1D00E01835F7
:10347000F06800286ED0012105F8011B1022F168C8
:1034800000F0C6F8F06801692974F0680169090A5A
:103490006974F0680169090CA974F0680169090E82
:1034A000E97457E00A202870062169701322AA7077
:1034B000B088E870B188090A297101E000F0D3F8FA
:1034C0002C46052746E000F0CEF8307A6871717A14
:1034D000A971B07AE871F17A2972F26802F00101FB
:1034E000C2F3400000B102200143C2F3800000B1EA
:1034F00004200143C2F3C00000B108200143C2F31D
:10350000002000B110200143C2F3402000B1202070
:103510000143C2F3802000B140200143C2F3C02028
:1035200000B18020014369722C460A2712E000F0A6
:1035300082F82C46B188E970B11DB088000A287164
:103540000C27681DFCF7E6FD307BE87202E000F016
:1035500079F8032788F800702046BDE8F283000060
:10356000815C01104C14002060140020416A0100AD
:10357000A56B0100E5FB01002585010051FA010062
:10358000E599010055760100C11701107D18011061
:10359000AD160110ED1701108B9D000091A90100DF
:1035A00019FA0100BD780110C57801100D790110DC
:1035B00089790110D3180000A9B6010085410100E6
:1035C000258A010005B10100ED9B010029FC0100E5
:1035D00065600100B5A5010011840100919A010008
:1035E0007DA5010053B7010065B7010035970100C3
:1035F0000C03002010030020CC140020A58501102E
:10360000F9B80100B188E970B088000A28717047E4
:103610002846FCF77FBDF0886871F188090AA97116
:103620003089E8713189090A297270896872718953
:10363000090AA972704728700621697006227078FD
:10364000A87070472870062169702C467078A870A1
:10365000704728700621697006227078A870281DAE
:10366000F178E97070472870062169707078A87049
:10367000B188E970B088000A287170472DE9F041DF
:1036800005469046A9781F460026002411B101295D
:1036900018D027E0632000F0F7FC632604001FD059
:1036A000102000F024F8FCF735FD202205F123015D
:1036B00004F12300FCF72EFD202205F1430104F163
:1036C000430008E0232000F0DFFC2326040007D09D
:1036D000112000F00CF8FCF71DFD0120387001E00E
:1036E0001321697088F800602046BDE8F0812070E1
:1036F0000621617020226878A070E91CE01C7047E8
:103700002DE9F047054699466E78002089F80000BB
:103710008A46AF890937BFB22D2F90460DDB384658
:1037200000F0B2FC040003D0012189F8001005E08C
:10373000A88954463F1A132600E054466B88324647
:103740004FF49E61204600F038F9A8886071A9887E
:10375000090AA171A889E071A989090A2172A968D9
:1037600041B126B9AA8904F10900FCF7D3FCA86885
:10377000FCF72CFD88F800702046BDE8F0872DE9A5
:10378000F84F0646002596F801900024B9F1000F85
:1037900018BFB9F1160F0F469046AA461C7035D1D6
:1037A0003279012A33D0022A36D0032A39D0042AAA
:1037B0003CD0052A3FD0062A42D0072A49D0082A01
:1037C00072D0092A4AD00A2A4DD00B2A50D00C2A8E
:1037D00053D00D2A56D00E2A59D00F2A5ED0102A67
:1037E00062D0112A65D0122A6BD0162A78D0172AF7
:1037F0007BD0182A00F082801B2A18BF1D2A00F0F7
:1038000083807E2A00F089807F2A05D08BE000F03B
:10381000D0F8FDF709FE75E000F0CBF8FDF708FEE3
:1038200070E000F0C6F8FDF707FE6BE000F0C1F8AD
:10383000FDF706FE66E000F0BCF8FDF705FE3CE093
:1038400000F0B7F8FDF704FE74694FF0060A851F13
:1038500069E000F0AEF8FDF7FFFD23E000F0A9F805
:10386000FDF7FEFD29E000F0A4F8FDF7FDFD49E0BD
:1038700000F09FF8FDF7FCFD14E000F09AF8FDF76A
:10388000FBFD3FE000F095F8FDF7FAFD0AE000F0DF
:1038900090F8FDF7F9FDB468054644E000F089F8BA
:1038A000FDF7F6FD054636E000F083F8FDF7F4FD80
:1038B00028E000F07EF8FDF7F3FD4FF0010A451E09
:1038C00029E0307CB87107F10800717CF9714FF084
:1038D000040A06F10801FDF7E7FDF468851E22E001
:1038E00000F067F8FDF7E4FD03E000F062F8FDF793
:1038F000E3FD4FF0040A3469051F14E000F059F8A5
:10390000FDF7DEFD82460EE000F053F8FDF7DCFD2A
:103910004FF0020A851EF46805E0307AB8714FF066
:10392000020A717AF9715FFA8AF1E8B24118891DC9
:103930002D291DDB5FFA8AF0E9B20818801D80B2DC
:1039400000F0A2FB5FEA000B0DD000990120087087
:103950005FFA8AF169B15FFA8AF2B91D0BF10600CC
:10396000FCF7D8FB05E0BB4600254FF0130900E04B
:10397000BB466CB1E8B240B10BF106005FFA8AF3C6
:10398000EAB221461844FCF7C5FB2046FCF71EFCB2
:10399000317973884A4641F4A061584600F00DF829
:1039A00055448BF805505846AD1D88F80050BDE8C9
:1039B000F28F06F10801B81D70470170C370090A43
:1039C0001B0A41708270037105207047DFF800F018
:1039D00021C00110DFF800F0F99B0110DFF800F0C2
:1039E00055A40110DFF800F011BF0110DFF800F05E
:1039F00005B30110DFF800F02DB40110DFF800F07E
:103A000031BF0110DFF800F0CDAC0110DFF800F09D
:103A1000F5B70110DFF800F09DB20110DFF800F0FB
:103A2000FDB1011020B108233C220021FFF7CEBFD9
:103A3000704780B5FFF7D6FFADF80000FCF79AFE9F
:103A4000ADF80200009802BD01B5BDF80200FCF718
:103A500095FEBDF80000BDE80240FFF7C7BF38B5CE
:103A6000DFF8F8492078012831D001212170DFF8F2
:103A7000F029DFF8F01989088900521A2263E162FF
:103A80000A4602E0002342F8043B236B5D18AA4279
:103A9000F8D39B0801EB8302002042F8040CE823D2
:103AA0000B60206B80088000EC38C1F8E800E8313A
:103AB000A160002000F00CF8E0600221E06AA06044
:103AC000A16161610021206B6180001FA06231BD96
:103AD000F8B500240026051D15F003001CBF291DA4
:103AE0000D1AFFF7A6FFDFF8742901465160112D6A
:103AF00034BF9368D3681868002803D580F000406D
:103B0000002618E0370012D057697F1E5761976969
:103B10007F1E9761D3F800C027686744AF422760D3
:103B200009D338466CB95088401C508043E0A84205
:103B300045D201261C46034418680028DCD1002425
:103B4000F1E7401BD36A042818D3605145F00040C8
:103B5000206050691669401C5061864238BF106170
:103B6000D06928186619D061F31A566A906AB34270
:103B700038BF3346451B5362956216E0D56920680D
:103B80004519D56195696D1E956120682044C31A59
:103B9000506A834238BF034653622068936A1B1AF7
:103BA0009362256845F000452560D069136A834219
:103BB00038BF1062241D00F065FA2046F2BD1C4695
:103BC000B0E710B50446FFF734FFDFF890285060E7
:103BD00054F8041C21F0004144F8041CD369591A1C
:103BE000D1619169936A491C916154F8041CCB1806
:103BF0009362211F9368994238BF9160BDE81040DD
:103C000022E72DE9F041FFF714FFDFF85018CA68EA
:103C1000486000240025002600270AE00E46012502
:103C2000144605E02B00F9D02368CB1823608E19C9
:103C30000A441168B046BE4238BFB846002905D0D4
:103C4000F0D581F0004100254746F1E7FFF7FCFE83
:103C50004046BDE8F08110B50446DFF80008016B6E
:103C60002160806A6060FFF7CCFF09282CBF08380C
:103C70000020A06010BDDFF8E4178A6A121A40F233
:103C800027239A4228BFFFF723BF0020704780B543
:103C9000FFF7E5FE4BF6BE2002BD084618E70846D2
:103CA0008FE702B56846FFF7D6FF01BD01207047D8
:103CB00038B50446FFF7BDFE00220C23DFF81018CC
:103CC0005343CD18A96C21B18C4206D0521C032A53
:103CD000F3D3FFF7B9FE002032BDFFF7B5FE05F1C3
:103CE000480032BD70B50546FFF7A3FE044600212B
:103CF0000C22DFF8DC074A438618B06C48B18542D5
:103D000010D0491C0329F3D32046FFF79DFE002065
:103D100070BD3065B5640021FFF76CFEF06408B932
:103D2000FCF7D2FA2046FFF78FFE06F1480070BD7F
:103D300038B50446FFF77DFE0025DFF894270C21F7
:103D40006943515A21B18C4206D06D1C062DF6D321
:103D5000FFF77AFEFF2032BD28E310B50446208825
:103D6000FFF7E6FFFF2802D14FF0FF3010BD0C2116
:103D7000DFF85C2748431044816811B96FF00100F7
:103D800010BD2046BDE81040084702460FF264709F
:103D9000104738B500200C21DFF834270024002517
:103DA00001FB00F31344401C03289C641D65F7D3FA
:103DB0000020002301FB00F4401C13530628F9D314
:103DC000BDE831404BE62DE9F8478FB08146884683
:103DD000FFF714FE05460027DFF8F86647451FD2B7
:103DE0006846FFF71FFE09EB07114A6806928A68CA
:103DF000089200220B680493C86805906946304613
:103E0000FFF700FE040011D0FFF713FE82462046A4
:103E1000FFF768FF50B15046FFF716FE7F1CDDE745
:103E20002846FFF7F3FD10B0BDE8F087FCF74CFA29
:103E300000BFF8B56846052141604FF47A72826090
:103E4000DFF89416DFF894260091C2600121FFF795
:103E5000BAFF05B000BD38B504460D46FFF7E9FDD1
:103E6000002145F80C1C226812B9256006E00A46BC
:103E700052F80C1C0029FAD142F80C5CBDE8324023
:103E8000E2E580B5FCF72AFBFFF712FF10B96FF0EF
:103E9000040002BD816809B9022002BD4068BDE08E
:103EA00006280ADA0C22DFF828365043185A002870
:103EB0001CBF4FF6F872904202D14FF0FF307047AE
:103EC00008800020704730B5DFF814562A680C4689
:103ED0004FF47A71A1FB00010023FCF7F9F90029E6
:103EE00002D8B0F1004F02D36FF0020030BD206065
:103EF000002030BD0146886849680847F8B5054686
:103F00000E46FCF7EBFAFFF7EDFE04000DD0FFF7CD
:103F100090FD014600220C27DFF8B43557433B449F
:103F2000188820B1521C062AF5D3FCF7CDF94FF6BC
:103F3000F870002718805C609F602A7060683060AD
:103F400000F0A0F80020F2BD10B5044604F10C000A
:103F5000FFF7BEFD28B1048100210160FF228272BB
:103F60000C3010BD0C382CE670B5044615461E46C4
:103F70000846FFF7DDFE0146FF2902D14FF0FF3072
:103F800070BD33462A462046BDE8704080E07CB5CF
:103F90000546164600F09EF8040010D128886946B0
:103FA000C0B2FFF77DFF28B13068FFF7DBFF6FF08D
:103FB000050076BDBDF800002880FFF762FF2046AF
:103FC00076BD38B50546FCF789FAFFF771FE044661
:103FD000FCF702FA002818BF012800D014B96FF0CE
:103FE000040032BD65B900200090009B60684FF06E
:103FF00000420021FFF7EEFC401E8041C00F32BDA1
:1040000015F1010F08BF4FF0FF30EDD0694628468B
:10401000FFF759FF0028E8D032BD80B54FF00041CE
:10402000FFF7DCFC002002BD2DE9F843054600F057
:104030009AF9FFF757FE04006FF0020920D0FFF74E
:10404000F8FC014600220C23DFF8840453430344A8
:10405000188840B1854211D0521C062AF3D3FCF7D0
:1040600033F9BDE8F2831D805C609E603A70606841
:10407000C8F8000000F006F80020F2E700F002F8AF
:104080004846EEE70846DFE422E59AE5F3E5E2E597
:104090002DE9F8430D46062DBCBF044606281646FA
:1040A00099466FF0020806DAFFF7C3FC00F008FA41
:1040B00019B9FFF7C9FC40460AE0FFF7C5FC00F05C
:1040C000F5F9786840684FF00041FFF787FC002061
:1040D000BDE8F2832DE9F04106460F469046FCF715
:1040E000FDF9FFF7E5FD050008BF6FF004001BD0E8
:1040F000FFF79FFCA968002441B10C46A4F10C0114
:1041000000230A68AA60FF250B608D72FFF79CFCF4
:104110000CB9022008E0A4F10C000179317040795B
:104120003870C8F800400020BDE8F08182B001205E
:104130008DF800009DF800000028FBD1FCF7C4F8C2
:1041400000BFFFF767BC50B5DFF8946332686FF0CB
:104150000044A4FB020100234FF47A72FCF7B8F884
:10416000002902D8B0F1004F00D3204650BD7CB5E5
:104170000C4615461E466946FFF7A5FE30B9009865
:1041800033462A46214600F002F8002076BD2DE98C
:10419000F0431D4689B02C6880460E4617462CBB5E
:1041A0000C20FFF795FC04006FF0030918D00823DA
:1041B000242200216846FCF737FA0020ADF81000F1
:1041C0000590069400236A464146DFF81803FFF77E
:1041D00025FC206030B9FFF7A9FF2046FFF7F1FC6E
:1041E000484617E06660A7602C600BE0DFF8F862D5
:1041F0003068804705462068FCF71AFAA760284611
:104200007168884720684146FCF716FA2068FCF779
:1042100017FA002009B0BDE8F08300281CBF006831
:10422000FCF706BA7047E0B58DF804006846FCF765
:1042300005F99DF805000EBDE0B501906846FCF754
:1042400033F90EBDE0B501906846FCF737F90EBDB5
:104250002DE9F84384B0044600F085F8FFF728FD07
:10426000054600200290FCF7B7F8002818BF012887
:1042700000D015B96FF0040072E044B9002001903D
:10428000FFF7C8FB814601980124814425E014F121
:10429000010F08BF4FF0FF30F1D001A92046FFF712
:1042A00012FE0028ECD05BE0039902A8FFF7D3FDD3
:1042B00068684FF00051FFF791FB0198012410F15D
:1042C000010F18BF002808D0FFF7A4FBB9EB0000CE
:1042D00031D0019981422ED30190019B68684FF043
:1042E00000520021FFF776FB28B303AA69460DF1BF
:1042F0000100FFF7EFFE0400DFD19DF801000DF192
:104300000201FFF7CDFD0028CED1039A9DF80010E1
:10431000BDF80200B0470028C6D017B1BDF80200B2
:104320003880B8F1000F1CBF9DF8001088F800100D
:104330000C9803990160FFF7A4FD029EFFF779FB3B
:10434000014656B1324600E0024652F80C0C0028F5
:10435000FAD1A86842F80C0CAE60FFF793FE204635
:1043600005B0BDE8F0830E4617469846FCF7B6B890
:1043700038B5FCF7B3F80446FCF72EF8002818BF50
:10438000012811D0FFF755FB0025514A0C236B4340
:10439000D15A39B1D11849680B68A34206D06D1CB7
:1043A000062DF3D3FFF750FBFF2032BDFFF74CFB88
:1043B000E8B232BDE0B5ADF800008DF8061000207F
:1043C0004A490A68ADF802006846904710B99DF85E
:1043D00007000EBDFF200EBD1078422801D101203C
:1043E0007047002070470CB478B504460E4687B07D
:1043F000FBF7F2FF0CAD002814BF0128FFF796FE73
:1044000014200021FF22ADF8100002918DF8122037
:1044100006960595FFF7ACFF05AB03222146FFF793
:10442000A3FD002001A90190009100230022304942
:1044300041F28830FFF70CFF012805D020B9019820
:1044400020B1FFF78FFD01E0FFF770FE05980068CF
:1044500008B070BC5DF80CFB0000000010140020D8
:10446000FF3F00200F2600202DE9F8430D46062DC2
:10447000BCBF04460628164699466FF0020806DAC5
:10448000FFF7D7FA00F01CF819B9FFF7DDFA40463C
:104490000AE0FFF7D9FA00F009F8786840684FF0B1
:1044A0000051FFF79BFA0020BDE8F283A9F1080054
:1044B000047045708670494678680830FFF7CBBCB9
:1044C0000C22034B02FB05F7DF19796870470000E7
:1044D000A41300208B3D000021A90100400300200F
:1044E000BCB80100F53E00000C03002014030020BE
:1044F000D94300005B3D0000333A0000493A000018
:1045000070B5DFF83847DFF838072568EE68002314
:1045100001223421B04700B10120C0B270BDDFF8E4
:1045200024078068704702460020022904D1012A2E
:1045300006D140F2EE207047012A08BF4FF47A708E
:104540007047DFF8001791F8E60020B1D1F81001AC
:10455000002818BF004770472DE9FE43DFF8E486C6
:1045600008F1E106B07900287CD1DFF8DC16DFF82D
:10457000DC760868DFF8D856DFF8D896800900F0B6
:104580000100F0710120B071F87C707168467968A3
:10459000C8F81011FCF79AF800210191002202914D
:1045A0008DF800206B460FF2F54108F10C00FCF786
:1045B0005EF86B4600220FF2C55108F13000FCF79F
:1045C00056F86B4600220FF2095108F15400FCF72F
:1045D0004EF8B96801208847DFF87C0602786868E1
:1045E000C0F38154387D20B1032C02D101203070FA
:1045F00003E0032C18BF022C0DD1022000F0ACF810
:10460000032CD9F800100CBF4FF47A7042F21070EE
:10461000B0FBF1F118E0012C02D100F040FA1BE0F0
:10462000D4B9022000F098F800F082FA98470128E7
:1046300003D1002000F033FA0EE0D9F80000322157
:10464000B1FBF0F1B1FBF0F108F15400FCF743F8D5
:1046500008F15400FCF741F8286840075CBF0020CF
:1046600000F07AF80020BDE8FE8338B5002408B1D8
:10467000150002D16FF0020407E08160C26003619F
:104680000146DFF8C005FCF74EF8204632BD10B5F4
:104690000446FCF7B0F8DFF8AC150A1992F8E930D7
:1046A0005B1E82F8E930DBB233B98A68012303FA72
:1046B00004F422EA04048C605FE0F8B50546FCF7D8
:1046C0009AF80446DFF87C15481990F8F020521E3D
:1046D00080F8F020D2B27ABBDFF88005DFF8807571
:1046E00000EB850210F825505688280615D5396844
:1046F0000A6A3046904739688A6A30469047396876
:104700000A6B30469047DFF85C15DFF85C25012026
:10471000086010688007FCD507E06A0611D501EB38
:1047200086010020D1F80421904705F03F05132DA4
:10473000BCBF2846FFF7C1FF2046FCF775F80020F4
:10474000F2BD39688A693046904739684A6B30460D
:1047500090470228F9D1E8E710B50446FCF74BF87A
:10476000DFF8E0148A680123A3401A438A602144D9
:1047700091F8E920521C81F8E920FCF755F8002057
:1047800010BD2DE9F0410646FCF735F80446DFF888
:10479000B454A81990F8F0104A1C80F8F02081BB9E
:1047A000DFF8B88418F8260000F03F001328B8BFDF
:1047B000FFF7E7FF08EB8600478818F82600DFF8C8
:1047C000A064010615D53268D16938468847326839
:1047D000516A384688473268D16A38468847DFF8D8
:1047E0008424DFF884140120106008688007FCD559
:1047F00007E041060BD505EB87020120D2F8041132
:1048000088472046FCF710F80020BDE8F0813168A9
:104810004A693846904731684A6B384690470128C4
:10482000F9D1EEE72DE9FE4F0746DFF81C04DFF86B
:1048300014940168002600244A06A24609F1DC050A
:1048400004D5297B11B9202000F079F9012F18BF78
:104850006FF0010857D12868012852D10221296040
:1048600000F083FA012000F06AF95FEA00084BD1FA
:1048700000F0D8FADFF8F813DFF8E47301900C6069
:104880000120B96A0A689047012803D1002000F08E
:10489000A9F90124DFF8DC13DFF8D0230E6009F159
:1048A000FF011368887808B14FF0010A487808B111
:1048B0004AF0020A087808B14AF0040AE87F20B1F9
:1048C00039680A6B4FF480609047A87F20B139683F
:1048D0000A6B4FF481609047DFF88813DFF898B3D4
:1048E000012008604AF020003A6891698847DFF8A3
:1048F0008C230120106099F80800C10709D5012612
:104900001BE06FF004087CE00120286000F036FA1C
:1049100077E0396A8A68584690470428F9D0012818
:10492000009004D13A6A5368032158469847DFF84B
:1049300050030168890889000160002000F088FAAE
:10494000DFF82893D9F8000039688A6B90476EB970
:104950000098012804D13A6A5368012158469847C3
:10496000DFF81C03016841F0030101600120DFF85A
:104970000413086050463A6853699847E87F20B1AD
:104980003968CA6A4FF480609047A87F20B13968BF
:10499000CA6A4FF481609047B249B84B0120086061
:1049A00000221A600320286039684A6B50469047FD
:1049B0000128F9D1D9F80000042000F0C0F806461B
:1049C000AB4901200860D9F800209F4800688106A3
:1049D000FBD514B1012000F005F900F093FB08208D
:1049E00000F0ADF8064301202860019800F027FA96
:1049F0009648008A00F005FB00F0C0F90EB14FF0B8
:104A0000FF384046BDE8FE8F38B50446FBF7F3FE9D
:104A1000054621468B48FBF79CFE2846BDE8324000
:104A2000FBF702BF3EB50024012804D020D30328A1
:104A30001CD017D31CE06846FBF748FE814D914916
:104A400001948DF8004002946B46012205F1780034
:104A5000FBF70DFE00238C4A2C2105F19C00FBF78F
:104A6000A8FE05E000F06AFB044601E000F026FC29
:104A700020463EBD38B5FBF7BEFE7249054691F8AB
:104A8000E000012410B1FFF73BFD04462846FBF788
:104A9000CBFE204632BD002070E000007047F8B524
:104AA0000326664C664D00961C23266877684FF0F7
:104AB000405200212846B84701200090284624682B
:104AC000656809234FF400720021A847F1BD00007A
:104AD00010B500F02DF89847022818BF032805D11B
:104AE000FFF7DDFFBDE810400220D0E5012802D12C
:104AF000BDE81040D3E765480168C1F38150032841
:104B000008BF4FF47A7004D002280CBF41F28830FD
:104B1000322050494B4C0A68B0FBF2F104F15400CA
:104B2000FBF7D9FD04F15400BDE81040FBF7D5BDFB
:104B300057490A681368042070470020704738B549
:104B40000546404804685CB1A068284205D0226947
:104B5000E36800212846984720B92468002CF3D147
:104B6000002032BD4FF0FF3032BD4A49012807BF57
:104B70000720086000220A600020704770B5FBF72C
:104B80003AFE304D314E044695F8E00050B1287A97
:104B9000410613D4FFF7B4FC80B100F024FD0020DF
:104BA00085F8E0000220B568A84706461020FFF708
:104BB000C6FF012E11D10320A8470EE025490A683F
:104BC0003220B0FBF2F101B9012105F13000FBF711
:104BD00082FD05F13000FBF780FD2046BDE8704006
:104BE000FBF722BE38B5012823D129490A6813688A
:104BF000984701281DD000F0E9FC124D297A0120C8
:104C000085F8E000880616D4124A10683221B1FBFC
:104C1000F0F404B9012405F13000FBF760FD2146F2
:104C200005F13000FBF757FD05F13000FBF755FDAE
:104C300001E000F0FEFC002032BD0000A4010010E5
:104C400000A00C403405002014100940EC91010034
:104C5000B03F0050201D0020FD2500205C9F01007A
:104C6000B801001028200860282008402C200940A6
:104C70000C400940000222430040034080010443ED
:104C8000242208400D54000099510000B43F005008
:104C9000E00100100000046030BF7047FCE738B549
:104CA00000F02CFA00F0DCF9FFF739FC054605F0BE
:104CB0000C000C2853D0680729D400F087FD044667
:104CC00001210120FFF72FFC314A116801FB04F399
:104CD00098421CD2F025B5FBF1F1641A2D49887C6D
:104CE00018B1C868A04238BF04462B4D214605F1D3
:104CF0000C00FBF7A1FC05F10C00FBF7A1FC012067
:104D0000FFF790FD05F10C00FBF792FC29E0280766
:104D100025D4224C2248216A8A6890470428F8D07A
:104D2000EA06204900D420B9086840F00100086074
:104D300003E00A68520852000A601B481B4D0168D4
:104D400041F00301016020202268916988472868AA
:104D500021688A6B904701202860296801E0FFF7ED
:104D60009DFFBDE8314000F0CDB910B5104CFEF705
:104D700045FE2060FEF736FE606010BD10B50C4C9D
:104D80006068FEF733FE2068BDE81040FEF73EBEC7
:104D9000BCB80100EC91010034050020B8010010FE
:104DA000004003408C210840242208402C20094068
:104DB000941C0020DFF800F015C00110DFF800F0AF
:104DC00015C1011020B1082328220021FFF7F2BFEE
:104DD0007047002101604160C1604FF0FF31816088
:104DE000704770B514008AB005460E4603D1002204
:104DF00000F008FD0CE06846FFF7E4FF206804902F
:104E00006A4660680590314600F004F800F0FAFC4C
:104E10000AB070BDE0680790A06806902846704709
:104E2000FFF7CCBFFEF7DEBD00F0F8BC80B5FBF7A6
:104E3000D3FA012818BF002002BD00F0F9BCFEF72C
:104E4000D5BD00F005BDA62A1628A8BF203870479A
:104E50002DE9F84F80469948DFF864920168994E31
:104E60008A0705D50820B0719748C9F80000C6E048
:104E7000964801680A6890470090002794480468A3
:104E800025176D1CA00209D40098C0F13E00C01087
:104E90000828C8BF08208542B8BF05468D4801686C
:104EA000C1F30460FFF7D0FF82468B480168C1F36D
:104EB0000440FFF7C9FF5544152D0246C8BF15250C
:104EC00004DC6FF009008542B8BF054605F01F00FD
:104ED000824940F4F850088081490868009910F030
:104EE000030F18BF0127400748BF47F002075FEADA
:104EF000080096F9070018BF47F00407091A0429AB
:104F000002DCB1798F4260D0009B0F3B4FF0000C68
:104F1000E04607F0010007F00401DFF8C8E127D4FC
:104F200003EB03134FEA2328B8F1070F88BF4FF0B4
:104F30000708C446BCF1070F0EF1040A28BF4FF062
:104F4000060C5AF82CB05EF82CA0ABEB0A0A0AF05B
:104F5000FF0C19B1E346CAF3072CDC445FEA877BF8
:104F600003D5E346CAF3074CDC4408B10CEB1A6CDA
:104F70005EF828E00EF0FF0A11B1CEF307218A4453
:104F8000B90744BFCEF307418A4408B10AEB1E6A51
:104F9000551BA3EB082303FB0CF38033002DD8BF74
:104FA0000125342004F0FF0445430AEB13216C4330
:104FB000B4FBF1F04FF6FF71884288BF0846B0801D
:104FC000B771009800F30700F07147480168B08896
:104FD000316000211F2804D21F20B08004E0400867
:104FE000491CB0F5007FFAD20F38000941EAC00130
:104FF0003E480143C9F800100020C9F80400BDE88C
:10500000F18F38B505463A480468A4B23CB32F483E
:1050100001680A6890472B4991F90720904205DA08
:105020006FF07F029042B8BF1046C871A5428888D1
:1050300034BF651B0125854210D32B4A13680A68CB
:105040009A1A921C1F2A88BF1F222D1A5208D54077
:105050002D18B5F5803F28BF4FF6FF758D8031BD07
:1050600024480068002800D1704730B522498A687A
:1050700002F04063B3F1406F1FD0104B1C68A507CE
:105080001BD44C68A50718D41C680968C1F30351E8
:105090001C31090114F0050F04D088420DD224F010
:1050A000050409E0814208D2100158BF44F0010410
:1050B000500158BF44F004041C6030BD000009409A
:1050C00030100940381D0020FDFDA400EC01001047
:1050D000B43F0050B81200503C1100506E620840BE
:1050E000242208409C1300500820094000E7A480B7
:1050F0003410094028500940AC3F0050EFF31080B5
:1051000072B67047EFF3108062B670470138FDD178
:105110007047704710B50C18FFF7F0FF411E89412A
:10512000C90FDFF8642410680028FCD0246801202F
:10513000106009B1FFF7E6FF204610BD38B5DFF873
:105140004C5428780024002802BFDFF84414487D1E
:1051500000281FD0FBF74FFBA978002906BF0122CA
:10516000AA700124FBF760FBA4B90220FFF7F4FA50
:105170000E20FFF706FBDFF81C14086808B10120B9
:1051800032BDDFF814044022C26002600120C86111
:1051900000216970002032BD2DE9FC41DFF8F813D1
:1051A00000200860DFF8F41301F1D804A07A002889
:1051B00043D00128DFF8E853DFF8E82331D1DFF8E6
:1051C000E81316684BF2F52046430868360AC0F328
:1051D000814001280BD1A86C0168884700F041FA92
:1051E00000F05AFA3509C010454306EBE536607BFE
:1051F00010B10021617306E0DFF8B003006820F011
:105200007F4036187608DFF8A803DFF884230660AD
:105210000121360C46608160507D002849D005216F
:105220000AE002280AD11568284600F012F9A5F212
:10523000FF55032D3DD3082121733CE003283AD1CB
:10524000106801F1B806A0F5C0603168F06100296E
:1052500048BF4942002848BF40428142A8BF0020C1
:1052600026DA7068D34F80B200900823D5F800C0CA
:10527000DCF804804FF47F4230213846C047B068E4
:1052800080B200901223D5F800C0DCF804804FF4FF
:10529000F80204213846C047B06980B200900A2362
:1052A0002D686E684FF4406220213846B0470120D7
:1052B00020700B202073BDE8F34100BF2DE9F843B7
:1052C000DFF8D882BC4EDFF8EC92BC4CBC4FB24841
:1052D00008F1E105E9784A1E0B2A00F28D80DFE82B
:1052E00002F0063041596E41596E4159757B316863
:1052F0000A68202090470F20E06041F61D5121618F
:10530000022000900723D6F804C0DCF804404FF4D4
:10531000C07200214846A04776684846D6F80C90EF
:1053200007234FF4C0720021C847012038600221D2
:10533000E97008F17800BDE8F243FBF7CEB9BDE8AB
:10534000F1830121E161287800281DBF0021396126
:1053500003200620E870002103202060796078682F
:105360008107E6D4E878032806D10221009100F0F5
:1053700044F8C847042009E00020009000F03DF800
:10538000C847E87806280CBF07200A20E8700120EB
:105390007860CEE7042903D12021A161012105E035
:1053A00001220A29A2610CBF03210221697008228F
:1053B00000212160C260026001202060BFE7052952
:1053C0000CBF06200920E8700020E1E700203860CB
:1053D00078600C22EA70ACE70021016001206D4A80
:1053E00010600E20FFF769F90220FFF750F9012045
:1053F0000021E870A970A2E7FEE748467668D6F873
:1054000004900523602200217047000063496C4826
:1054100091F8E420921E0A2A1AD8DFE802F0060A60
:105420000E190A0E190A0E19120001688A07FCD516
:1054300044E741688A07FCD4FAE741688A07FCD54B
:10544000F6E701688A07FCD441688A07FCD4EFE7D5
:10545000FEE7F8B50446574D30212846FFF75AFEBF
:105460004E4F07F1B806C0F30720706004212846AC
:10547000FFF750FEC0F38440B06020212846FFF7BC
:1054800049FEC0F38120B4F5C064B061346003D13B
:10549000002087F8D800F1BD316997F8D80028B905
:1054A0007068B269B168F0607261F461F0690028F7
:1054B0004CBF6FF00102022200EB400010184210B6
:1054C00000EB927001EBA0017268F260002914DC1D
:1054D0007069032807D1012015318842A8BF012136
:1054E000002272611EE001200B318842A8BF012119
:1054F000521E48BF0022F26007E01E2912DD7069CB
:1055000028B915391E29C8BF1E21032009E00B390F
:105510001E29C8BF1E21521C3F2AC8BF3F22F2606D
:10552000002070611E4CF068316180B20090082349
:105530002768D7F804C04FF47F4230212846E0475F
:105540000120009011232768D7F804C04FF40032DF
:1055500004212846E047306980B200901223276872
:10556000D7F804C04FF4F80204212846E0477069D8
:1055700080B200902846246865680A234FF4406290
:105580002021A847F1BD000000800C401506002036
:10559000EC91010004800C402C500C40340500209C
:1055A000A401001008400C40B43F005010200940F6
:1055B0003C600C4000A00C40A001001000400C40DA
:1055C00034600C403748006800F05EB910B5374CC5
:1055D000626D53680121032098472068C16A88479B
:1055E0003349886010BD70B5304C616D0A68012088
:1055F000904701281BD0A5692B48EE6800230122A3
:105600003421B047A0B1FFF7DDFF2068C16A8847A9
:10561000274B9A6827491C68D860A4EB9404801A29
:105620004843000C1860A04238BF20461860012093
:1056300070BD38B51D4C626D53680021032098473A
:10564000616D0A680120904708B1FFF7BBFF206831
:10565000174DC16A88476860206E016888472861D5
:1056600031BD10B501461448144B02681B68100484
:1056700000161B394843C01000EB2240120601FB04
:1056800001F412161B06624361431B1600EBA220B5
:10569000594300EBA14010BD00FB00F1C0EBA1504D
:1056A00000B270478000001000A00C408C01001078
:1056B000241D002040420F0090130050A410005001
:1056C000DFF800F0896E01102DE9F04105468846AB
:1056D000164631464046FFF7F3FF1E2490B10127DE
:1056E00004FB07F0295CFF2906D02844C11D0622CF
:1056F000304600F0DFF8C0B97F1C072FF0DBFF2039
:10570000BDE8F081012704FB07F0295CFF2908D0E0
:10571000884506D12844411C0622304600F0CAF8CC
:1057200018B97F1C072FEEDBE9E7F8B2E8E770B5A0
:10573000044600F0D1F80646A08A0025012808D1C9
:10574000FEF768F90546E068A168451BA94238BF25
:105750000025304600F0C1F8284670BD808A7047A9
:10576000DFF800F0BDAA0110F8B504460B480C4F55
:105770000668F8690D4650F82510B1420AD109486B
:10578000009029462046FFF7EBFFF86950F82510F6
:10579000B14201D10020F2BD2046F2BD1812000036
:1057A0004401002050030020102803D30249103880
:1057B000C1F8000F704700BF00E000E08160426068
:1057C0007047C92ADFF800F0E1BE011070B500F0A3
:1057D00083F8094E0446B0680021FFF7F3FF054641
:1057E0007069B169451BA94238BF0025204600F009
:1057F00074F8284670BD00BF78010020DFF800F083
:1058000079AD011010B50446034BFFF7F7FFA06810
:1058100000B1204610BD00BF500300200148806841
:10582000704700BFC8010020DFF800F011B0011080
:1058300038B504460D4600F05DF8616A0D436562B7
:1058400000F059F82046BDE83240FFF7EDBF052AC9
:1058500070B50D4615F1010F044608BF052500F08F
:1058600049F806460120A840A06165612946054A1D
:10587000506900F03DF8A0623046BDE8704000F08D
:105880003AB800BFC801002070B50446FFF736FCE7
:10589000451EAD41ED0F064E30680028FCD0A047F4
:1058A000012131601DB1BDE87040FFF72BBC70BD18
:1058B00000800C4010B513465A1E3BB110F8013B56
:1058C00011F8014BA342F6D0002010BD012010BDFD
:1058D000DFF800F079BB011000E006E0EFF3118083
:1058E000202181F311887047000080F311887047F0
:1058F000FFF7EEBFF2E7F8E7F0E7F6E70D49C2077A
:1059000044BF01230B60820744BF4FF480730B60D8
:10591000400744BF4FF480320A60704710B5064A12
:10592000C30748BF1160840748BF5160400748BFA4
:10593000916010BD042009401820094070B5002373
:105940000646DFF89C0C00EB831000F13C04B4F930
:105950000050B54204D10D0006D0E4780C4203D1CA
:105960005B1C082BEDD3002070BD2DE9704306466B
:1059700014461D46FAF73FFF6EB1D6E90A232243CB
:105980002B43C6E90A23D6E9088948EA040449EA10
:105990000505C6E90845BDE87043FAF745BF10B5EF
:1059A0000129044698BF0121FAF795FE2046BDE87B
:1059B0001040FAF792BE38B504460D4601F093F850
:1059C000A04231BF241A641E241A641CA40805F5E1
:1059D0007A70A04238BFB4F1405F05D2641B012C3D
:1059E00098BF0124204632BD002032BDF8B50446E0
:1059F000DFF89C0B40690025F0B1C368197B0125D5
:105A000001F00F01022914D10069DFF8886BC16829
:105A1000408A96F8627041181922986802FB0711B3
:105A2000FFF7C9FFDFF8BC1B20600A68B0FBF2F08B
:105A300002E00023236000E020602846F2BDDFF88A
:105A4000A81B0A680020D30705D5DFF8A00B006863
:105A5000C00900F001007047F8B500F0B1F9054643
:105A6000002C1CBFA07A00282AD094F909600127D5
:105A7000FFF7E5FF07FA06F658B194F90900DFF8D9
:105A8000701B4A68113007FA00F0C04302404A60B8
:105A900008600020A072207220606060C4E90400E9
:105AA000DFF8501BA06194F909000A78874017437A
:105AB00088780F7008B1401E8870F0B200F06DF960
:105AC0002846BDE8F240FAF7AFBE032804DADFF853
:105AD000C41A01EB40107047002070472DE9F041D7
:105AE0000025DFF8B08ADFF8086B0127E8B2FFF77E
:105AF000ECFF040034D0A07A012831D194F90900D8
:105B0000113007FA00F0C1433160726810437060D1
:105B100094F9090007FA00F0C0B200F032F9002150
:105B200004F1100000F04FFF812809D1A06920B1D5
:105B3000002100F048FF812802D10220A0720FE06E
:105B400081280DD098F8610094F909201121914025
:105B5000084388F861000021DFF8840CFFF76DF935
:105B60006D1C032DC2D3BDE8F0812DE9FE4F0C461C
:105B70006FF001018DF80010834690469946FAF7C0
:105B80003AFE01900025DFF86C6A012796F800A024
:105B9000AF401AEA070F0CD04FF0FF32914518BF03
:105BA000A94506D1E8B2FFF790FF10B1817A00292C
:105BB0004AD06D1C032DE8D33FE0022918D140F2F2
