:10000000004400205DAC010001C9011001C90110CC
:1000100001C9011001C9011001C9011001C9011074
:1000200001C9011001C9011001C9011001C9011064
:1000300001C9011001C901103FC90110DFF800F02A
:1000400085BF0110DFF800F061C00110DFF800F09B
:1000500079BF0110DFF800F0A9C00110DFF800F04F
:1000600089AF0110DFF800F055BC011020B1082362
:1000700030220021FFF7EABF7047F8B51C008CB0B2
:1000800005460E46174603D1002300F0BFFA0CE0E8
:100090006846FFF7EBFF206805906B4660680890A4
:1000A0003A4600F004F800F0B1FA0DB0F0BD207A45
:1000B000ADF81800314628467047FFF7CBBFFFF771
:1000C000BDBFFFF7CBBF80B500F0C0FA401E804136
:1000D000C00F02BD00F0C0BA00F0C8BAFFF7C2BF3F
:1000E000002101604FF0FF3201234260037270472C
:1000F000FFF7A8BFDFF800F0C1BF0110DFF800F084
:10010000B9BA0110DFF800F0E5C00110DFF800F027
:100110001FBE0110DFF800F0DDC00110DFF800F0B5
:1001200069B20110DFF800F091BE011020B1082380
:1001300024220021FFF7DEBF7047F0B51C0089B014
:1001400005460E46174603D10023FFF7E7FF0FE0F1
:100150006846FFF7EBFFA16806916B462278ADF881
:1001600010203A466068059031462846FFF7D6FFD2
:100170000F48104A01681160284609B0F0BDFFF72A
:10018000C9BFFFF7CFBF00F079BA80B500F08DFA94
:1001900000B10120C0B202BD002181600170416048
:1001A0007047FFF7AFBFFFF7B1BFFFF7A7BF000072
:1001B000680E0000701A0020DFF800F011BF011077
:1001C000DFF800F005B30110DFF800F015C00110F2
:1001D000DFF800F015C1011020B10823282200210A
:1001E000FFF7F2BF7047002101604160C1604FF02E
:1001F000FF318160704770B514008AB005460E4625
:1002000003D1002200F058FA0CE06846FFF7E4FF43
:10021000206804906A4660680590314600F004F852
:1002200000F04AFA0AB070BDE0680790A068069036
:1002300028467047FFF7CCBFFFF7BEBF00F048BAB3
:1002400080B500F003FA012818BF002002BD00F0BD
:1002500049BAFFF7B5BF00F055BA02460229107837
:1002600003D1517800EB01207047032906D1517862
:10027000927800EB012000EB02407047042908D17E
:100280005178937800EB0120D17800EB034000EB2C
:100290000160704744490A681040C2430A600A6816
:1002A0000242FAD17047414A11680029FCD100236B
:1002B000D3611060D0690028FCD0D16150687047CC
:1002C0003B48016821F0020141F400710160032103
:1002D0003848816041F2300141610121C160502103
:1002E00041610121C1604FF4CA6141610121C160D6
:1002F0000160704730B50446002000E0401C984281
:1003000009DA54F8205015F1010F04D015408D4240
:10031000F4D1C0B230BDFF2030BDD0B584B001886B
:10032000B1F5C15F24D14269009200278169019132
:10033000C069029020480168C1F303665DF8274058
:1003400084B105234FF0FF321C492046FFF7D2FF4E
:10035000042807DC54F8201021F4702141EA0641FA
:1003600044F820107F1C032FE8DB002004B0D0BD30
:100370000120FBE712490A681040C2430A60704737
:10038000104802680A6082684A60C2688A60406BEE
:1003900020F0784040F08050C8607047014610223D
:1003A000094800F0CFB800001010044000100440CD
:1003B0000000046000410440541300500200F8445F
:1003C000081004404C13005018000021704710B56D
:1003D0000446FFF774FE002161602160BDE8104013
:1003E000FFF786BE38B50546FFF769FE2C683CB1BD
:1003F00021682960216800291ABF00224A606960CB
:10040000FFF776FE204632BD38B500F00FF8002128
:10041000296062686A606168002914BF0D60256008
:100420006560FFE7BDE83240FFF762BE04460D4657
:10043000FFF745BE38B5FFF7F9FF29686A6800295C
:100440000CBF62604A6069682A6800290CBF22609C
:100450000A60E7E7DFF800F009C00110DFF800F0FC
:10046000D1B20110DFF800F0059B0110DFF800F0B9
:10047000E1A30110DFF800F05DB40110DFF800F037
:1004800009C10110DFF800F00DC1011020B10823EF
:1004900024220021FFF7DEBF704730B589B0044643
:1004A0000D4600F00BF801218DF818106A46294618
:1004B0002046FFF7DFFF204609B030BD6846E5E77C
:1004C00018B589B00446FFF7F9FF01218DF818101F
:1004D0002046034A6946FFF7C1FF0AB010BD00007D
:1004E0005005002080B500906846FFF7C7FF01BDAA
:1004F000FFF7C8BF80B5FFF7B5FF10B94FF0FF3069
:1005000002BD002002BDFFF7B1BF30B4002513E0EB
:1005100050F8042BD30744BFA9F101039A18091F0F
:10052000042942F8045BFAD213468C0744BF1580B5
:100530009B1CC90748BF1D7050F8041B0029E7D158
:1005400030BC704762B38B0708D0521E11F8013BD4
:1005500000F8013B00F024808B07F6D1830740F0C0
:10056000208000BF103A07D330B4B1E83810103AF9
:10057000A0E83810F9D230BC530724BFB1E8081006
:10058000A0E8081044BF51F8043B40F8043BD207F0
:1005900024BF31F8022B20F8022B44BF0B780370E4
:1005A0007047121F17D35B0009D151F8043B20F8A4
:1005B000023B1B0C121F20F8023BF6D20BE051F855
:1005C000043B00F8013B1B0A20F8023B1B0C121FE6
:1005D00000F8013BF3D238BF121D521E24BF11F8A0
:1005E000013B00F8013BF8D8704701700A0A0B0C78
:1005F000090E42708370C170001D7047002203F025
:1006000035BAFF7FDFF800F0BDAA0110F8B5044647
:100610000B480C4F0668F8690D4650F82510B1429A
:100620000AD10948009029462046FFF7EBFFF869F8
:1006300050F82510B14201D10020F2BD2046F2BD94
:100640001812000044010020500500200148007DE0
:10065000704700BFA4010020102803D302491038BE
:10066000C1F8000F704700BF00E000E08160426009
:1006700070470000DFF800F09DB2011070B504462D
:1006800003F002FA0646A08A0025012808D1FFF7E8
:10069000F1FF0546E068A168451BA94238BF002567
:1006A000304603F0F2F9284670BD808A704700009A
:1006B000DFF800F079AD011010B50446034BFFF7E9
:1006C000F7FFA06800B1204610BD00BF5005002014
:1006D00001488068704700BFC8010020DFF800F0C3
:1006E00011B0011038B504460D4603F0DBF9616A1C
:1006F0000D43656203F0D7F92046BDE83240FFF7AD
:10070000EDBF004070B50D4615F1010F044608BF5E
:10071000052503F0C7F906460120A840A0616561E0
:100720002946054A506903F0BBF9A0623046BDE88E
:10073000704003F0B8B900BFC8010020DFF800F036
:10074000FD880110DFF800F0C1170110DFF800F09C
:10075000A5850110DFF800F0A58701102DE9FE4303
:1007600006460024B178DFF8C473A9B105293ED04C
:10077000062948D0092900F063810A2900F08A80FF
:100780000B2972D00C2900F072810E2900F02E8105
:10079000102900F0B081B6E170780028FBD1FFF796
:1007A000D5FF054608F018F90646FFF7D3FF8DF888
:1007B00000002A461021022007F0E5F832461021F9
:1007C000032007F0E0F86A460121042007F0DBF877
:1007D0009DF80000012818BF032807D1012005F06B
:1007E000BDFF02460621062007F0CDF88BE17078A8
:1007F0000028FBD1F078337B7289311D00F00100B5
:1008000006F040FA7FE1B08806F05BFFFFF796FF45
:100810000028F7D1387B012809D106F081FC3C7310
:100820000622002107F1100007F05AF817E0787B44
:10083000012803D106F0F1FC7C7310E00025EEB234
:1008400007F11000815D012905D1E8B206F074FCC2
:1008500007F110018C556D1CEAB2062AEFDB50201F
:100860001EF0EAFE06F015FC4DE107F051FB0028F2
:100870000CD0F86900281CBF0468002C07D0306930
:100880000090737B327B7189F01CA0473AE170893C
:1008900001212DE17078002840F09180B079C107E6
:1008A00040F18D800822002101A807F019F8B088D6
:1008B00006F0F6FF04005ED07569002D00F02B8174
:1008C0000622002105F1110007F014F800B30622FA
:1008D0000021284607F00EF8002818D1287C00F0E7
:1008E00001084FF0000909F1010985F81190002075
:1008F000009000230022414605F1110006F07EFF22
:1009000000285FFA89F040F001810028EBD100E176
:100910007569EDB1287C00F001008DF80A0006220F
:1009200005F1110101A806F03AF96079012805D115
:100930000622A11D04F10C0006F031F9062205F192
:100940001101A01D06F02BF9287C40F00200607117
:10095000B079410720794CBF40F0020000F0FD0063
:100960002071B079010720794CBF40F0200000F0E1
:10097000DF00207106E006F0C3FE18B138780421CC
:1009800007F020F9B1799DF80B00890801F0010109
:1009900008438DF80B00B1790A074CBF08210021EC
:1009A00008438DF80B00314601A806F07BFA0400DD
:1009B000B08802D106F032FE01E006F082FEF8694E
:1009C00000281CBF4368002B0FD07278B08801212B
:1009D00098477078002808D1B079C10705D5FB6920
:1009E000B08822465C680321A0478BE07078062817
:1009F0001BD1B08806F054FFB8B1B97A012904D0F0
:100A000013D3032907D00CD30FE04179B08800221B
:100A100006F0C8FD09E00022002140F209400FF075
:100A20000DF8B08805210FF00FF9F86900281CBFF8
:100A30004368002B66D07278B0880221984761E045
:100A400000940023F17801AA01F00101301D06F0A5
:100A5000D5FE002856D19DF80430062043432533A7
:100A600006F10C020421D8B206F08DFF4AE0B588E9
:100A700096F80C80284606F013FF040042D007F0D9
:100A800047FA00283ED100900023617901AA01F0C5
:100A90000101A01D06F0B2FE28BB9DF8040006F07F
:100AA000E3FA08F00C01042911D008290BD00C2915
:100AB0000FD100F0090109290BD0617900222846E5
:100AC00006F070FD1EE010F0090102D1F5E7C10744
:100AD000F3D501220092A37C9DF80410024628461B
:100AE00006F00CFD0EE078780028E6D105212846B6
:100AF000FFF728FE06E006F003FE18B1387804215F
:100B000007F060F801242046BDE8FE8300287FF44A
:100B1000FFAE002070610622607900F001008DF8C0
:100B20000A00A11D01A806F03AF811E748080020C4
:100B300070B50C46154600F0F6F8012604280CBFE7
:100B400006480748006800281CBF0268002A03D036
:100B50002946204690470646304670BDAC4E0020E0
:100B6000A84E002070B50C4615461E4606F098FEAD
:100B700020B1848205864686002070BD012070BDAC
:100B8000DFF800F0FDA70010DFF800F021AE001044
:100B9000DFF800F0C11A0110DFF800F0099201102F
:100BA00038B5044684B02088402107F0A7FE00280D
:100BB00052D02389E288A1886088FFF7E1FF0025F1
:100BC00018B1E17A29B1012103E0E07A002100B1F6
:100BD0000225A07A10BB2288ADF80420D1B1912162
:100BE0003E228DF800108DF80120062100228DF89C
:100BF00002108DF80320A088ADF808006088ADF8D9
:100C00000600E088ADF80A002189ADF80C108DF8D7
:100C1000032001216846FFF7BBFF16E081F00101C8
:100C2000ADF80C1003AAA17A2088FFF7B5FFBDF834
:100C30000C0050B900210291019022890092E388B2
:100C4000A28861882088FFF79FFF2088002240212A
:100C50001EF088FE284600E0122005B030BD0000DE
:100C600010B5084A084C107801210BF0CDF9206B23
:100C700018B107F095F8002020630420BDE810406B
:100C80000DF0B2BB5D4F0020C8090020DFF800F076
:100C9000E58001102DE9F34F81B092469B4608464E
:100CA00006F0FEFD08B111203BE04FF6FF7006F0A4
:100CB000F7FD040034D05846129D119E109FDDF8B8
:100CC0003C80DDF838900C999DF804B060710622E4
:100CD000A01D05F064FF0622002104F10C0006F0BF
:100CE000FFFDBDF80800608084F804A084F800B01F
:100CF0000021E16284F81290A4F81480E78226862D
:100D000065860D9828B10146062204F10C0005F015
:100D100046FFBDF808000021FFF7B8FF002000E003
:100D20001520BDE8FE8F80B506F0BAFD00B1807CCD
:100D300002BD00002DE9F04180460D4640F67B40A3
:100D4000891F164681423CBFB11F81421F4611D206
:100D5000AE420FD3B7F5FA7F0CDA069CA4F10A0174
:100D600040F6774291423FBF781C71004843B0EB98
:100D7000C40F01D3122045E0404615F06FFE01007C
:100D800040D15FFA88F00BF001F800F17702117999
:100D900029B1117800291CBF0F29102902D0D17A5E
:100DA000012901D13A202DE001680A78402A0BD1AF
:100DB00015494A78910758BF112023D590F8FD10A6
:100DC0008A0758BF1A201DD500F5A4710D804E80EA
:100DD0008F80CC8000F1840102228A7000238B80F6
:100DE000828ECE80D21D0A800F814C81012180F835
:100DF000431190F8FD20910754BF00210F2109F005
:100E00007DFE0020BDE8F081B41B0020704700008B
:100E1000014801680A6B10478C010010FFFFFFFFBB
:100E2000FFFF00007C0E00000100000013460122BD
:100E300007F06ABA0621017000207047002007F011
:100E40001BBD0000000000000100000095530000E1
:100E50008D0E0000F9AA0000995300009D53000078
:100E600089530000A75300000A0000007329000006
:100E7000910E0000031C0100D31C01000061310031
:100E80000000D002EC0000215F000000002070474D
:100E90000120704719F0E8B918F028BF12000110BE
:100EA000073C2300204C1700205004C20001C0055D
:100EB00020010100008416185200011007080200EA
:100EC000204C0600200111C3010001120418210466
:100ED00083010001A10CD003000700200001523063
:100EE0001420023401002004523C0422000150026C
:100EF0006CDC0200015003BC050020030D0006DB82
:100F00001C0100211D0100F30101000120027C06EB
:100F10000020171200010002080200200002080051
:0B0F200000000300005200015200011D
:10100000B41200001810000015AB0110FDB3011060
:101010006DC00110FDAE011099B5011059BA011053
:1010200039BA01102D000000B01200003C10000081
:10103000B1C00110A9BF011067C0011069B801104B
:10104000B9B9011099B9011030000000B0120000C8
:1010500060100000BDC00110CDB30110D9BD01105A
:101060006DB301108DB80110D9B901103100000025
:1010700000000000700500200400000000000000D7
:1010800000000000200000001CA301003000000050
:10109000281000009005002004000000000000005F
:1010A000000000000C0000009CAB010018000000D4
:1010B0004C10000098050020040000000000000013
:1010C0000000000024000000B4AB01001800000084
:1010D00000000000D805002004000000000000000F
:1010E0000000000010000000DCA301002C00000044
:1010F00000100000F40500200400000000000000C3
:101100000000000020000000B4A601002400000040
:10111000FFFFFFFFFC0500200400000000000000AE
:101120000000000028000000D8A6010024000000F4
:10113000FFFFFFFF24060020040000000000000065
:101140000000000014000000CCAB010018000000FB
:10115000FFFFFFFF2C06002004000000000000003D
:1011600000000000580000002CA101003400000025
:10117000FFFFFFFF34060020040000000000000015
:101180000000000010000000E4AB010018000000A7
:10119000FFFFFFFF3C0600200400000000000000ED
:1011A000000000001C000000FCA60100240000005C
:1011B000FFFFFFFF440600200400000000000000C5
:1011C000000000003800000074A5010028000000A5
:1011D000FFFFFFFFAC06002004000000000000003D
:1011E0000000000054000000989E01003C00000038
:1011F000010000006C0E00000100000000000E0065
:1012000000000F00320000000100000078050020FF
:10121000000200000000000001C9011000000000F1
:10122000000000000800000000002200A0050020CF
:10123000000000000000000008000000040600207C
:101240000000000000000000080000000000000096
:10125000000000000000000000000000010000008D
:101260004C0600200600000001000000B40600202B
:10127000000000000000000000020000000000006C
:0F128000290001002500300031002D0001000180
:1012900004000000C0AC01000000000000000000DD
:1012A000000001000000030013C40110351D0100FF
:1012B000B8120000B812000000000000E80500208D
:1012C000C11B01002000000074AC01009CA50100BE
:1012D00029C10110AFC40000CFD80000A1C7011080
:1012E000A3C7011000000000E6E30000749C0100A9
:1012F0008C9C01005C9C01000200090001000000C0
:1013000001120001110E000021A501008DAA0100AB
:1013100095A10100E9A20100A59C0100A58301009F
:10132000FDAB0100391B0100791D01007D1D01008D
:1013300070B500230646DFF89C0C00EB831000F12B
:101340003C04B4F90050B54204D10D0006D0E47855
:101350000C4203D15B1C082BEDD3002070BD2DE99E
:101360007043064614461D46FEF7A9FE6EB1D6E947
:101370000A2322432B43C6E90A23D6E9088948EA0F
:10138000040449EA0505C6E90845BDE87043FEF7CF
:10139000AFBE10B50129044698BF0121FEF701FF39
:1013A0002046BDE81040FEF7FEBE38B504460D46A7
:1013B00001F093F8A04231BF241A641E241A641C61
:1013C000A40805F57A70A04238BFB4F1405F05D299
:1013D000641B012C98BF0124204632BD002032BD81
:1013E000F8B50446DFF89C0B40690025F0B1C368EE
:1013F000197B012501F00F01022914D10069DFF8E2
:10140000886BC168408A96F8627041181922986802
:1014100002FB0711FFF7C9FFDFF8BC1B20600A6859
:10142000B0FBF2F002E00023236000E020602846D9
:10143000F2BDDFF8A81B0A680020D30705D5DFF846
:10144000A00B0068C00900F001007047F8B500F07B
:10145000B1F90546002C1CBFA07A00282AD094F9C7
:1014600009600127FFF7E5FF07FA06F658B194F97E
:101470000900DFF8701B4A68113007FA00F0C0431A
:1014800002404A6008600020A07220722060606004
:10149000C4E90400DFF8501BA06194F909000A7840
:1014A0008740174388780F7008B1401E8870F0B2EB
:1014B00000F06DF92846BDE8F240FEF719BE03289A
:1014C00004DADFF8C41A01EB4010704700207047BF
:1014D0002DE9F0410025DFF8B08ADFF8086B01271D
:1014E000E8B2FFF7ECFF040034D0A07A012831D134
:1014F00094F90900113007FA00F0C14331607268B5
:101500001043706094F9090007FA00F0C0B200F0CF
:1015100032F9002104F1100000F04FFF812809D1B9
:10152000A06920B1002100F048FF812802D10220EB
:10153000A0720FE081280DD098F8610094F909207D
:1015400011219140084388F861000021DFF8840CE4
:10155000FEF77DFE6D1C032DC2D3BDE8F0812DE9A1
:10156000FE4F0C466FF001018DF800108346904647
:101570009946FEF7A4FD01900025DFF86C6A01276B
:1015800096F800A0AF401AEA070F0CD04FF0FF32D8
:10159000914518BFA94506D1E8B2FFF790FF10B1F9
:1015A000817A00294AD06D1C032DE8D33FE002293F
:1015B00018D140F20361218294F90910628A491D11
:1015C00061F30B2262824179628A61F3C70262820F
:1015D0008179628A61F34E326282C079618A60F3F6
:1015E0000C31618200220D9878B10278417894F92B
:1015F0000900520142EA8102401D42EA00224FF6F0
:10160000FC710A40DFF8D00B0243A2615FEA0802D6
:10161000DFF8701918BFC4F80480086B08B9226895
:101620000A6300F018F994F909008DF80000019898
:10163000FEF75EFD9DF90000BDE8FE8F2AEA070770
:1016400037700122827245722146B278521C0446DC
:10165000B270C4F800B021720FF24950217A606074
:1016600001290C98A3D194F909200A21521D218245
:10167000A27480686061B5E738B504281BD1DFF833
:10168000044904F1DC052846FEF77FFD98B12846A1
:10169000FEF779FDDFF8781C0A685043B0F5967FB5
:1016A00009D22846FEF781FD052001F06DFA0120E0
:1016B000607300F002F8002032BD042104F13C0008
:1016C000FEF7C5BD38B5DFF8144BDFF8B8586069D0
:1016D000002161610022E068E16005F170000FF215
:1016E000F941FEF7F9FC0020FEF770FEDFF8240C4C
:1016F00001680A6B9047696B814231BF401A401EF6
:10170000401A401CA9684FF0FF32A2EB10328A4207
:1017100034BF4FF0FF3001EB1030A860287B20B1C0
:10172000A86BA968C00288421ED2FFF782FEB8B13A
:10173000DFF8880B40F60901018000224280417BDE
:1017400001F0F00141F001014173017B01F0F00172
:1017500001734260E2612060418811F4406FFBD068
:10176000012000212873A960FEF7AAFDDFF8A41C60
:101770000020086031BD10B500F01CF8DFF8041837
:101780000A7C14430C74BDE81040FEF7B1BC38B5B8
:1017900000F010F80546DFF8EC07017C21EA0404AC
:1017A0000474027C110703D408213C30FEF74FFD7E
:1017B00000F083BF0446FEF782BC2DE9F84F0546D2
:1017C000002129606846FFF70BFE044600264FF013
:1017D000FF3A0027DFF80098DFF8ACB7DFF8A487FE
:1017E000F8B2FFF76CFE00281CBF817A002917D0E1
:1017F000017A0126022922D0D8F83020D168528AF5
:101800009BF8623040695118192202FB0311FFF75F
:10181000CCFDD9F80010B0FBF1F0504598BF8246DE
:101820007F1C032FDCD330460CE0296002E008B1B6
:10183000C5F800A0204318BF0120BDE8F28F0120A9
:101840004FF0000A002CF2D000280099EDD051454D
:10185000EBD95146E9E77CB5DFF828472178022922
:1018600003D11920FEF736FC73BD217801291BD066
:10187000FEF725FC05466846FFF79FFF04F1DC06EE
:1018800060B1009820B101463046FFF782FD08E0C4
:101890003046FEF78AFCFFF710FF02E03046FEF705
:1018A00084FC2846FEF724FC73BD7CB5DFF8D456D3
:1018B0006C69686A002848D1002C41D06846FFF75F
:1018C0008FFD00281CBF0098002803D00820FFF7D8
:1018D0005EFF73BD0820FFF74EFF05F11400FEF711
:1018E00081FD6862D4E90601C243DFF8F856AA60B8
:1018F000A9680142FBD1EA68D4E906010243EA6023
:10190000D4E90623DB432B606E68D4E906010E435D
:101910006E60E4682046FEF7C6FC208840F60201AF
:10192000401A08D041F21E01401A04D041F6E67177
:10193000401A012809D82146012000F01EF973BD84
:10194000022105F13C00FEF782FC73BDDFF834068E
:10195000016B8A6801F12003506830B1984218BFCA
:101960000246F9D101E000207047507B10F00F0FC4
:1019700002BF488C40F609018842F4D1012070472B
:10198000F8B5DFF80066DFF8440B756AFEF7F2FC85
:101990000446DFF83C0B0268076802F02002224090
:1019A00018BF002D07F460270BD01346B562002244
:1019B0002846FFF7D4FC4FF4804106F13C00FEF7C7
:1019C00046FC3C400ED0DFF8C00590F8611041EABB
:1019D000544480F8614006F18C00BDE8F4400021D9
:1019E000FEF735BCF1BD2DE9F843DFF89C8598F88A
:1019F0006100002448B1002698F861000121B1403F
:101A000008420ED1761C032EF6D398F8610030B14F
:101A1000BDE8F4430021DFF8BC07FEF718BCBDE8C1
:101A2000F18398F861001021B140084218BF0124E9
:101A3000FEF745FB98F861101122B240914388F8F7
:101A40006110FEF755FBF0B2FFF739FD02001CBF35
:101A5000907A0028D9D092F90990DFF8941B01EB15
:101A60008901002C0F681668556804BF107A022897
:101A700003D1D2E90401C3000CD41046FFF7E6FC01
:101A800044B10020009000224FF0007349463046D8
:101A9000A847BAE7009700224FF00063F6E738B591
:101AA000DFF8E054686A70B36A6AD2E90601FEF7AB
:101AB000F1FB0446686A22460023FFF750FCA007AA
:101AC00018D56A6ADFF8083A9C68D2E9060120F066
:101AD000020084439C606A6A1C68D2E906018C4358
:101AE0001C6005F11C00696AFEF78EFC002068622C
:101AF000022104E03CB1686AA8624FF4804105F11C
:101B00003C00FEF7A4FBFFF7E3FCBDE83140CCE668
:101B1000DFF87004B0F92C10B0F92E00814204BF38
:101B20000820FFF734BE70472DE9F042074689468A
:101B30003E6E14461D4606B1B047D7E91601044073
:101B40000D4008BF002C16D080214846FFF7F0FB5F
:101B5000C7E91A4538B1D0E90823A243AB43C0E92D
:101B60000823396E81600020386607F13800BDE82F
:101B7000F042FEF7C8BCBDE8F08238B50A46DFF88F
:101B8000141B4B681C001CBF8968014207D0DFF89A
:101B9000F4530146286B01B0BDE83040184731BD11
:101BA00000000000704780B5FEF748FBDFF8D42343
:101BB0000146106B5268BDE808401047DFF8C403C7
:101BC0000FF229424168914208BFFFF744BE042149
:101BD0003C30FEF73CBB000038B54FF0FF30FEF75D
:101BE00059FBDFF8A0530FF20541044668688842AC
:101BF0000FD10022DFF8CC1A05F17000FEF76CFA65
:101C000002202870FFF7A2FE18B9FFF761FCFFF76A
:101C10004CFEDFF83C0B044207D005F13C00BDE868
:101C200034404FF00051FEF712BB31BDF8B5D54D31
:101C3000EC6924B3E168082040F6030340F604068B
:101C400019B3C2B20AB30A889A421EBFB2424968A7
:101C5000401EF5D114E0086818B9BDE8F240002034
:101C600056E710F1010F0AD0DFF8A4160A68B0FB9E
:101C7000F2F105F58070BDE8F440FFF78ABBF1BDD5
:101C8000206918222030FEF76DFCD4E90A230026D3
:101C9000C4E90A66A06858B1B4F93C102069A66886
:101CA00013F0E2471CBF02F0000203F0E243B0472A
:101CB000FEF705FA0646E88D401CC0F30B00E885E8
:101CC000002084F83F0005F11C00FEF78BFB00F0BC
:101CD00001FCB5F92E00B5F92C108842CFD1296B43
:101CE00091F870000028B6D0002281F87020B4E787
:101CF00038B50D46A807A34C0ED5FFF797FFE0694E
:101D000038B145F0020104F13C00BDE83440FEF773
:101D10009EBABDE831409EE5680747D5DFF8F41567
:101D20000A68106B80476063606908B100692063CE
:101D3000206B4168DFF8AC0A0A780260022000F0EC
:101D400023FF112000F035FF0121DFF84829217021
:101D5000907810B90E2000F02CFF206BDFF87C2467
:101D600041688868002804BFC868002804D00021A2
:101D7000D161DFF8740A10600721DFF89836196026
:101D80000021506951619069916150690FF2210100
:101D900040F0804040F00200506161601A20FEF780
:101DA00090F9BDE832401920FEF78BB931BD000033
:101DB0002DE9FF410646880040F1CC80714C206B34
:101DC00041684868D1F80880CF68010018BF804793
:101DD0005FEA080008BF002FDFF800540ED0E86962
:101DE0000028FCD00021E9615FEA080018BFC04765
:101DF00007B1B847DFF8B00AFEF755FA0020E861EE
:101E00000120DFF8A81A296040F60207FEF7DEFA83
:101E1000DFF8A82440F60A03138000205080117BCD
:101E200001F0F00111735060517B01F0F00141F0BD
:101E3000010151730021D6F80880707CA8F80210C7
:101E4000B8F80010C91B1DD041F21E07C91B19D0DC
:101E500041F6E677C91B012928D8B8F818704FF663
:101E6000FF310F40A8F8187028B14FF60F403840E6
:101E7000A8F818001AE02D20394660F30911A8F8D7
:101E8000181013E0B8F810704FF6FF310F40A8F8A3
:101E9000107028B14FF60F403840A8F8100005E048
:101EA0002D20394660F30911A8F810100020707435
:101EB0004746786800281EBF018899420746F8D136
:101EC0004AE0308CA8B100217184716206F12C00C7
:101ED0004378017803F0F00301F0F00143F00103CF
:101EE0000170437006F120005060517B01F0F00159
:101EF000517369464046FEF743FA6846FEF74EFACC
:101F0000E8690028FCD00021E9610FF2E102607B62
:101F1000626030B100F0C6FF0028FBD000F0D3FFB4
:101F200010E0DFF88C190A6813680120984701282F
:101F300008D0787B00F0F00040F0010078730FF2D9
:101F40004D0060600021E961C5F800804146012034
:101F5000FFF713FEBDE8FF817A60787B00F0F000A8
:101F6000787360690028ACD0C068008840F603012F
:101F700088421CBF40F604039842A2D1002060634F
:101F8000B7E700005417002028130020DFF82409C9
:101F9000014200D17047DFF81819012010B50A6816
:101FA000DFF8144913689847012808D10FF23D0063
:101FB000C24A606000218948C161026010BDD449F5
:101FC0000A683220B0FBF2F104F1DC00BDE81040F9
:101FD000FFF7DFB928110020701A002040210840C7
:101FE0000000044008100440881300202DE9FC473D
:101FF00004460E467004DFF8C0782BD5FEF75FF874
:10200000BD6A15B3D5E90A2302F00A0413F0E041D2
:1020100008BF002C19D1D5E90A48D5E90A23A24303
:1020200023EA0803C5E90A23FEF762F8A86870B13D
:10203000B8F1000F08BF002C09D0B5F93C10286991
:102040002246AC684346A04701E0FEF751F826F46B
:102050008046B6E0B00051D5DFF8B8A2FEF72FF801
:10206000DAF854100A6880460420904700281CBF04
:10207000207C002822D0786B00B38146DAF800007B
:10208000E568016B8847814531BFA0EB0909401E17
:10209000A0EB090000F101094FEA1930A842E06005
:1020A00002D205446D08E56040F2D171E068A0F508
:1020B000FA70884224BF40F6C410E0604046FEF744
:1020C00017F8FFF743FC78B1D4F8188000224FF0DE
:1020D00000736FF480712046C047786910B1FFF734
:1020E000BAFB01E046F002062046646900224FF088
:1020F00080630021A04726F0005662E0B00707D5B4
:10210000FFF794FDF86900285BD126F0020658E03D
:10211000300756D5397C08074FD4397C08064CD493
:102120006846FFF74AFB10B10098002845D0DFF859
:102130008C1791F8610000283FD10024E0B2FFF72E
:10214000BEF900281CBF817A002908D001228272C2
:1021500090F9090002FA00F1C8B2FFF718FB641CFD
:10216000022CEBD90320387007F58070FEF71DF8BC
:10217000FFF7A8FA00210220FFF7FFFC022000F081
:102180009EFC112000F0B1FC787C18B9386B383017
:10219000FEF7B9F9DFF8FC14887810B90E2000F0CA
:1021A000A4FC787B20B100217973052000F087FC26
:1021B000DFF80C07786000213970FFF74CFB26F040
:1021C000080626B1314607F13C00FEF740F8BDE8AD
:1021D000F3870000E017002001000406001004400F
:1021E00038B584B000F0D0FBDFF8D806DFF8A4548F
:1021F0000168DFF8C44641F0020101606846FDF75E
:10220000F2FF6878DFF8C01602906A4604F13C00DD
:10221000FDF7F1FF6A46DFF8B41604F18C00FDF714
:10222000EAFF6846FDF75CFF2878DFF8A4260190F6
:102230006B46192104F17000FDF71FFF6B46DFF8B4
:1022400094261A2104F1C000FDF717FF0023002295
:10225000DFF8841604F1DC00FDF76FFF0023002295
:10226000DFF8781604F58070FDF767FF0023DFF8CC
:102270007026042104F5927000F00FFCA878012864
:1022800004BF0E2000F095FC04F11C00FEF79FF83F
:1022900004F11400FEF79BF800202070A081A060DC
:1022A0000721DFF8182682F8601005216063A1631A
:1022B000207405B0DFF80816616030BD8C1800206E
:1022C0002DE9F041DFF8F0556C699046002600E0FA
:1022D0002468CCB18C42FBD1B4B1276800224FF006
:1022E00080532046FFF73BF8214605F11400FEF726
:1022F000A1F8214605F11C00FEF786F8761C5FEA7E
:10230000080018BF3C46E7D13046BDE8F081000028
:10231000701A00208C0100102DE9FC4E82461646F2
:1023200003273000ADF800101D4614BF4FF0804960
:102330004FF00059FDF7C3FE8346BDF90000DFF8FA
:10234000784510F1010F05D1606A00280CBF606963
:10235000606A02E00021FEF7EBFF40B390F83F1007
:102360000A0623D5616A884212D100224B46FEF745
:10237000F6FF002E14BFDFF86C05DFF86C05FDF7E3
:1023800092FF8DB161692A465046FFF799FF0BE035
:1023900001462A465046FFF793FF38B120780128BE
:1023A00002D00221FFF78AF9832700E0042758466C
:1023B000FDF79EFE3846BDE8F68E10B50C46DFF8F8
:1023C000F8140A78022A0BD1FDF76DFF04B12060E2
:1023D00000F0FF00012801D1812010BD022010BDB6
:1023E000012010BDF8B504460D461646FDF767FE00
:1023F0000746DFF8C404016B8C4218BF032404D1E4
:1024000031462846FFF7D9FF04463846FDF770FEEF
:102410002046F2BD00000460F0B50746DFF8CC04AA
:1024200087B00E001546006818BF002D1C4649D025
:102430003178C840C20745D500212846FDF76DFF19
:102440007E60BD60FDF73BFEDFF86C540646687C9D
:10245000002835D1FFF7C4FE687C401C687400F08A
:1024600039F834B968460FF2AC411C22FEF77AF80D
:102470006C46206838600120218A7874798260680F
:10248000002812BF002140F6C41001213974F86001
:10249000DFF85C14E0680A4600B10146B961A06843
:1024A00000B102467A61582107F12000FEF7A6F834
:1024B000002107F13800FDF7F0FF2F63384602E0F6
:1024C00000F008F8002007B0F0BD000020000E006A
:1024D0000C1004403046FDF70BBEF8B5FDF7EFFDDC
:1024E000DFF8D4130A78022A05D1DFF808140C6843
:1024F000FDF7FEFD18E0FDF7FBFDDFF8FC03DFF85C
:10250000FC4301680A6B904710F5003041F100016F
:10251000A4FB0067DFF8E82304FB017711690020C2
:10252000341847EB01052C462046F2BD2DE9FE4F3D
:1025300081460E4693469A46FDF7C1FD80466FF0F0
:1025400001040020DFF8BC1301EB801191F83F304B
:102550001A0603D5401C0828F4D341E0DDE90C45F8
:1025600001960091DFF8506306F58070FDF71DFEBF
:10257000B08D401CC0F30B00B0850098019900F1AC
:10258000080779602021009800F13E02DFF8780307
:1025900082F800B0C7F800A02040B38DBB86C7F812
:1025A0000890294040F00200C7E904010023002000
:1025B000C7E90600FB62B8624FF0FF313963802043
:1025C000507089F8703006F114000099FDF71CFF77
:1025D00070690099884208BFFFF73DF9B7F93440A8
:1025E0004046FDF785FD2046BDE8FE8F0000000057
:1025F000943004402DE9F04107460E463000144661
:102600001D4601D5002010E0FDF716FE8046802112
:102610003046FEF78DFE060003D096F83F00010617
:1026200005D44046FDF715FE022000212FE0D6E933
:10263000080144F00A0445F0E0452040294008BF65
:1026400000280FD04046FDF704FED6E908012040DF
:102650002940C7E91A01D6E9082382438B43C6E91A
:10266000082312E0B168DFF8A402814202D0B36807
:102670003B66B060C7E916454046FDF7EAFD4FF0FE
:10268000FF3107F13800FDF735FFD7E91A01BDE842
:10269000F0810000E8820100DCB5DDE90667CDE9E4
:1026A00000670446FFF742FF0146204602B0BDE83E
:1026B000D0400A224FF0E0439CE72846BDE8324074
:1026C000FDF716BD9F1A0000530803F0010300E058
:1026D000012302F001021FE60FF238211C22FDF750
:1026E00041BF00E000BF00227CE680B56A46DFF80B
:1026F0002012FFF777FE812803D100980002001610
:1027000002BD6FF07F0002BD70B50E461546FDF7A5
:10271000D6FC8324684A1EB1022E0DD007D312E0E6
:10272000516A11B1516A8A8F04E080240CE0634938
:1027300091F860202A8007E0117802290CBF01215E
:102740000021297000E00324FDF7D2FC204670BD73
:102750000200004080B508468021FEF7E9FD00B187
:10276000C06802BDE0B500F005F80121FFE7FEF703
:10277000F6FE0EBD0192009191F904300A6870478F
:10278000F8B505460C46FDF79AFC0746E0B2FEF7A1
:1027900096FE802604001CBFA07A00281BD0464964
:1027A0000878022811D194F90910491D0906090C6D
:1027B00041F08161002241F001012846FFF712FE3D
:1027C00006462046FEF742FE05E02046FEF73EFEA6
:1027D000FFF741F881263846FDF78AFC3046F2BD06
:1027E00000000000D0210840510007062DE9F84301
:1027F0000546894616468324FDF761FCB9F1080FAA
:1028000080462D4F48D8DFE809F005080E4711141F
:10281000202F4200306828603FE001216974E86899
:102820006030E86039E03068688236E03168B9636A
:1028300033E0306818B98020FEF79DFF2DE00128B5
:102840002AD18020FEF7A3FF27E03878002804BFB4
:102850007869002819D131681920FDF73FFC3168EB
:102860001A20FDF73BFC18E03878002804BF78698F
:1028700000280AD1316807F13C00FDF7ECFC316813
:1028800007F18C00FDF7E7FC07E0002405E0307855
:102890000A4981F8600000E003244046FDF728FC67
:1028A0002046BDE8F28300000100070601010E0486
:1028B000E00100100400002054170020281300201D
:1028C000F11C000000200940A71B0000E7190000D0
:1028D000D91B000081190000BD1B0000111B000066
:1028E000791600000100020401000104D42108400F
:1028F000A51B0000043004408C01001000093D00BD
:102900008C18002028110020FFEFFF9F291B0000DA
:1029100001000304FFFFFFFF0000000000000000B3
:10292000000000003A01000000000000000000006C
:1029300070B5DFF83847DFF838072568EE68002300
:1029400001223421B04700B10120C0B270BDDFF8D0
:1029500024078068704702460020022904D1012A1A
:1029600006D140F2EE207047012A08BF4FF47A707A
:102970007047DFF8001791F8E60020B1D1F8100198
:10298000002818BF004770472DE9FE43DFF8E486B2
:1029900008F1E106B07900287CD1DFF8DC16DFF819
:1029A000DC760868DFF8D856DFF8D896800900F0A2
:1029B0000100F0710120B071F87C7071684679688F
:1029C000C8F81011FDF7E8FB0021019100220291E7
:1029D0008DF800206B460FF2F54108F10C00FDF771
:1029E000ACFB6B4600220FF2C55108F13000FDF739
:1029F000A4FB6B4600220FF2095108F15400FDF7C9
:102A00009CFBB96801208847DFF87C06027868687B
:102A1000C0F38154387D20B1032C02D101203070E5
:102A200003E0032C18BF022C0DD1022000F0ACF8FB
:102A3000032CD9F800100CBF4FF47A7042F21070DA
:102A4000B0FBF1F118E0012C02D100F040FA1BE0DC
:102A5000D4B9022000F098F800F082FA98470128D3
:102A600003D1002000F033FA0EE0D9F80000322143
:102A7000B1FBF0F1B1FBF0F108F15400FDF791FB6F
:102A800008F15400FDF78FFB286840075CBF002069
:102A900000F07AF80020BDE8FE8338B5002408B1C4
:102AA000150002D16FF0020407E08160C26003618B
:102AB0000146DFF8C005FDF7A7FC204632BD10B582
:102AC0000446FDF7FCFADFF8AC150A1992F8E93074
:102AD0005B1E82F8E930DBB233B98A68012303FA5E
:102AE00004F422EA04048C605FE0F8B50546FDF7C3
:102AF000E6FA0446DFF87C15481990F8F020521EDB
:102B000080F8F020D2B27ABBDFF88005DFF880755C
:102B100000EB850210F825505688280615D539682F
:102B20000A6A3046904739688A6A30469047396861
:102B30000A6B30469047DFF85C15DFF85C25012012
:102B4000086010688007FCD507E06A0611D501EB24
:102B500086010020D1F80421904705F03F05132D90
:102B6000BCBF2846FFF7C1FF2046FDF7C1FA002091
:102B7000F2BD39688A693046904739684A6B3046F9
:102B800090470228F9D1E8E710B50446FDF797FA17
:102B9000DFF8E0148A680123A3401A438A602144C5
:102BA00091F8E920521C81F8E920FDF7A1FA0020F4
:102BB00010BD2DE9F0410646FDF781FA0446DFF825
:102BC000B454A81990F8F0104A1C80F8F02081BB8A
:102BD000DFF8B88418F8260000F03F001328B8BFCB
:102BE000FFF7E7FF08EB8600478818F82600DFF8B4
:102BF000A064010615D53268D16938468847326825
:102C0000516A384688473268D16A38468847DFF8C3
:102C10008424DFF884140120106008688007FCD544
:102C200007E041060BD505EB87020120D2F804111D
:102C300088472046FDF75CFA0020BDE8F081316846
:102C40004A693846904731684A6B384690470128B0
:102C5000F9D1EEE72DE9FE4F0746DFF81C04DFF857
:102C600014940168002600244A06A24609F1DC05F6
:102C700004D5297B11B9202000F079F9012F18BF64
:102C80006FF0010857D12868012852D1022129602C
:102C900000F08BFA012000F06AF95FEA00084BD1DE
:102CA000FDF7CAFADFF8F813DFF8E47301900C605F
:102CB0000120B96A0A689047012803D1002000F07A
:102CC000A9F90124DFF8DC13DFF8D0230E6009F145
:102CD000FF011368887808B14FF0010A487808B1FD
:102CE0004AF0020A087808B14AF0040AE87F20B1E5
:102CF00039680A6B4FF480609047A87F20B139682B
:102D00000A6B4FF481609047DFF88813DFF898B3BF
:102D1000012008604AF020003A6891698847DFF88E
:102D20008C230120106099F80800C10709D50126FD
:102D30001BE06FF004087CE00120286000F03EFA00
:102D400077E0396A8A68584690470428F9D0012804
:102D5000009004D13A6A5368032158469847DFF837
:102D600050030168890889000160002000F046FADC
:102D7000DFF82893D9F8000039688A6B90476EB95C
:102D80000098012804D13A6A5368012158469847AF
:102D9000DFF81C03016841F0030101600120DFF846
:102DA0000413086050463A6853699847E87F20B199
:102DB0003968CA6A4FF480609047A87F20B13968AB
:102DC000CA6A4FF481609047B249B84B012008604D
:102DD00000221A600320286039684A6B50469047E9
:102DE0000128F9D1D9F80000042000F0C0F8064607
:102DF000AB4901200860D9F800209F48006881068F
:102E0000FBD514B1012000F005F900F051FB0820BA
:102E100000F0ADF80643012028600198FDF719FA8B
:102E20009648008A00F0C3FA00F0C8F90EB14FF0DE
:102E3000FF384046BDE8FE8F38B50446FDF73FF940
:102E4000054621468B48FDF7F5FA2846BDE8324095
:102E5000FDF74EB93EB50024012804D020D3032845
:102E60001CD017D31CE06846FDF796F9814D9149B7
:102E700001948DF8004002946B46012205F1780020
:102E8000FDF75BF900238C4A2C2105F19C00FDF72E
:102E9000F4F805E000F028FB044601E000F0E4FB54
:102EA00020463EBD38B5FDF70AF97249054691F84E
:102EB000E000012410B1FFF73BFD04462846FDF772
:102EC00017F9204632BD002070E000007047F8B5C9
:102ED0000326664C664D00961C23266877684FF0E3
:102EE000405200212846B847012000902846246817
:102EF000656809234FF400720021A847F1BD000066
:102F000010B500F02DF89847022818BF032805D106
:102F1000FFF7DDFFBDE810400220D0E5012802D117
:102F2000BDE81040D3E765480168C1F3815003282C
:102F300008BF4FF47A7004D002280CBF41F28830E9
:102F4000322050494B4C0A68B0FBF2F104F15400B6
:102F5000FDF727F904F15400BDE81040FDF723B94F
:102F600057490A681368042070470020704738B535
:102F70000546404804685CB1A068284205D0226933
:102F8000E36800212846984720B92468002CF3D133
:102F9000002032BD4FF0FF3032BD4A49012807BF43
:102FA0000720086000220A600020704770B5FDF716
:102FB00086F8304D314E044695F8E00050B1287A3D
:102FC000410613D4FFF7B4FC80B100F0E2FC00200E
:102FD00085F8E0000220B568A84706461020FFF7F4
:102FE000C6FF012E11D10320A8470EE025490A682B
:102FF0003220B0FBF2F101B9012105F13000FDF7FB
:10300000D0F805F13000FDF7CEF82046BDE870405D
:10301000FDF76EB838B5012823D129490A6813682D
:10302000984701281DD000F0A7FC124D297A0120F5
:1030300085F8E000880616D4124A10683221B1FBE8
:10304000F0F404B9012405F13000FDF7AEF8214693
:1030500005F13000FDF7A5F805F13000FDF7A3F804
:1030600001E000F0BCFC002032BD0000A401001013
:1030700000A00C403407002014100940D082010049
:10308000B03F0050701A0020512300209C9A01008C
:10309000B801001028200860282008402C20094092
:1030A0000C400940000222430040034080010443D9
:1030B00024220840B937000045350000B43F0050D5
:1030C000E001001000000460DFF800F031BF0110E3
:1030D000DFF800F0F5B7011030BF7047FCE738B5F6
:1030E00000F0E2F900F092F9FFF731FC054605F037
:1030F0000C000C2853D0680729D400F0FBFC0446D0
:1031000001210120FFF727FC314A116801FB04F37C
:1031100098421CD2F025B5FBF1F1641A2D49887C48
:1031200018B1C868A04238BF04462B4D214605F1AE
:103130000C00FCF7E7FF05F10C00FCF7E7FF0120AE
:10314000FFF788FD05F10C00FCF7D8FF29E0280700
:1031500025D4224C2248216A8A6890470428F8D056
:10316000EA06204900D420B9086840F00100086050
:1031700003E00A68520852000A601B481B4D0168B0
:1031800041F0030101602020226891698847286886
:1031900021688A6B904701202860296801E0FFF7C9
:1031A0009DFFBDE8314000F083B910B5104CFFF72A
:1031B0008BFF2060FDF700F8606010BD10B50C4C6F
:1031C0006068FCF7FDFF2068BDE81040FFF780BF96
:1031D000680E0000D082010034070020B801001002
:1031E000004003408C210840242208402C20094044
:1031F000B41900201628A8BF203870472DE9F84FD1
:1032000080469948DFF864920168994E8A0705D58F
:103210000820B0719748C9F80000C6E096480168D8
:103220000A689047009000279448046825176D1C91
:10323000A00209D40098C0F13E00C0100828C8BF01
:1032400008208542B8BF05468D480168C1F3046077
:10325000FFF7D0FF82468B480168C1F30440FFF7B7
:10326000C9FF5544152D0246C8BF152504DC6FF073
:1032700009008542B8BF054605F01F00824940F4A9
:10328000F850088081490868009910F0030F18BFB2
:103290000127400748BF47F002075FEA080096F998
:1032A000070018BF47F00407091A042902DCB179A6
:1032B0008F4260D0009B0F3B4FF0000CE04607F0C0
:1032C000010007F00401DFF8C8E127D403EB031382
:1032D0004FEA2328B8F1070F88BF4FF00708C4460C
:1032E000BCF1070F0EF1040A28BF4FF0060C5AF884
:1032F0002CB05EF82CA0ABEB0A0A0AF0FF0C19B157
:10330000E346CAF3072CDC445FEA877B03D5E34638
:10331000CAF3074CDC4408B10CEB1A6C5EF828E0E9
:103320000EF0FF0A11B1CEF307218A44B90744BF5A
:10333000CEF307418A4408B10AEB1E6A551BA3EB82
:10334000082303FB0CF38033002DD8BF0125342064
:1033500004F0FF0445430AEB13216C43B4FBF1F086
:103360004FF6FF71884288BF0846B080B771009859
:1033700000F30700F07147480168B0883160002110
:103380001F2804D21F20B08004E04008491CB0F57B
:10339000007FFAD20F38000941EAC0013E480143DC
:1033A000C9F800100020C9F80400BDE8F18F38B555
:1033B00005463A480468A4B23CB32F4801680A683D
:1033C00090472B4991F90720904205DA6FF07F0270
:1033D0009042B8BF1046C871A542888834BF651BAB
:1033E0000125854210D32B4A13680A689A1A921C49
:1033F0001F2A88BF1F222D1A5208D5402D18B5F557
:10340000803F28BF4FF6FF758D8031BD244800688E
:10341000002800D1704730B522498A6802F0406325
:10342000B3F1406F1FD0104B1C68A5071BD44C682C
:10343000A50718D41C680968C1F303511C310901A0
:1034400014F0050F04D088420DD224F0050409E0E1
:10345000814208D2100158BF44F00104500158BF06
:1034600044F004041C6030BD0000094030100940E5
:10347000881A0020FDFDA400EC010010B43F0050AC
:10348000B81200503C1100506E62084024220840DF
:103490009C1300500820094000E7A4803410094024
:1034A00028500940AC3F0050EFF3108072B67047CF
:1034B000EFF3108062B670470138FDD17047704756
:1034C00010B50C18FFF7F0FF411E8941C90FDFF856
:1034D000642410680028FCD024680120106009B121
:1034E000FFF7E6FF204610BD38B5DFF84C542878CA
:1034F0000024002802BFDFF84414487D00281FD0B4
:10350000FCF7DDFDA978002906BF0122AA7001247D
:10351000FCF7EEFDA4B90220FFF736FB0E20FFF703
:1035200048FBDFF81C14086808B1012032BDDFF841
:1035300014044022C26002600120C8610021697049
:10354000002032BD2DE9FC41DFF8F81300200860AF
:10355000DFF8F41301F1D804A07A002843D0012841
:10356000DFF8E853DFF8E82331D1DFF8E813166815
:103570004BF2F52046430868360AC0F38140012823
:103580000BD1A86C0168884700F041FA00F05AFAA4
:103590003509C010454306EBE536607B10B10021CC
:1035A000617306E0DFF8B003006820F07F40361852
:1035B0007608DFF8A803DFF8842306600121360CC3
:1035C00046608160507D002849D005210AE002282C
:1035D0000AD11568284600F012F9A5F2FF55032D0F
:1035E0003DD3082121733CE003283AD1106801F152
:1035F000B806A0F5C0603168F061002948BF4942B3
:10360000002848BF40428142A8BF002026DA7068E7
:10361000D34F80B200900823D5F800C0DCF80480B6
:103620004FF47F4230213846C047B06880B20090E6
:103630001223D5F800C0DCF804804FF4F80204210E
:103640003846C047B06980B200900A232D686E6882
:103650004FF4406220213846B047012020700B20F3
:103660002073BDE8F34100BF2DE9F843DFF8D882AD
:10367000BC4EDFF8EC92BC4CBC4FB24808F1E105FF
:10368000E9784A1E0B2A00F28D80DFE802F006304E
:1036900041596E41596E4159757B31680A68202045
:1036A00090470F20E06041F61D51216102200090FB
:1036B0000723D6F804C0DCF804404FF4C0720021A0
:1036C0004846A04776684846D6F80C9007234FF442
:1036D000C0720021C847012038600221E97008F15A
:1036E0007800BDE8F243FCF75EBDBDE8F18301213F
:1036F000E161287800281DBF0021396103200620E0
:10370000E870002103202060796078688107E6D4A2
:10371000E878032806D10221009100F044F8C84758
:10372000042009E00020009000F03DF8C847E87848
:1037300006280CBF07200A20E87001207860CEE739
:10374000042903D12021A161012105E001220A29D8
:10375000A2610CBF032102216970082200212160AF
:10376000C260026001202060BFE705290CBF06206F
:103770000920E8700020E1E70020386078600C2222
:10378000EA70ACE70021016001206D4A10600E2054
:10379000FFF7ABF90220FFF792F901200021E87052
:1037A000A970A2E7FEE748467668D6F8049005239C
:1037B000602200217047000063496C4891F8E420C2
:1037C000921E0A2A1AD8DFE802F0060A0E190A0E1B
:1037D000190A0E19120001688A07FCD544E74168EE
:1037E0008A07FCD4FAE741688A07FCD5F6E7016846
:1037F0008A07FCD441688A07FCD4EFE7FEE7F8B5F6
:103800000446574D30212846FFF75AFE4E4F07F128
:10381000B806C0F30720706004212846FFF750FE69
:10382000C0F38440B06020212846FFF749FEC0F372
:103830008120B4F5C064B061346003D1002087F802
:10384000D800F1BD316997F8D80028B97068B2691D
:10385000B168F0607261F461F06900284CBF6FF0EC
:103860000102022200EB40001018421000EB92709F
:1038700001EBA0017268F260002914DC7069032872
:1038800007D1012015318842A8BF012100227261B1
:103890001EE001200B318842A8BF0121521E48BF03
:1038A0000022F26007E01E2912DD706928B915397F
:1038B0001E29C8BF1E21032009E00B391E29C8BFDD
:1038C0001E21521C3F2AC8BF3F22F26000207061B7
:1038D0001E4CF068316180B2009008232768D7F849
:1038E00004C04FF47F4230212846E0470120009079
:1038F00011232768D7F804C04FF40032042128466A
:10390000E047306980B2009012232768D7F804C0DE
:103910004FF4F80204212846E047706980B2009015
:103920002846246865680A234FF440622021A8478E
:10393000F1BD000000800C4015080020D08201007D
:1039400004800C402C500C4034070020A4010010CF
:1039500008400C40B43F0050102009403C600C402F
:1039600000A00C40A001001000400C4034600C404E
:103970003748006800F0D6B810B5374C626D536810
:103980000121032098472068C16A8847334988602D
:1039900010BD70B5304C616D0A6801209047012858
:1039A0001BD0A5692B48EE68002301223421B047C3
:1039B000A0B1FFF7DDFF2068C16A8847274B9A68EE
:1039C00027491C68D860A4EB9404801A4843000C73
:1039D0001860A04238BF20461860012070BD38B57D
:1039E0001D4C626D5368002103209847616D0A6881
:1039F0000120904708B1FFF7BBFF2068174DC16A4F
:103A000088476860206E01688847286131BD10B51D
:103A100001461448144B02681B68100400161B3939
:103A20004843C01000EB2240120601FB01F41216BD
:103A30001B06624361431B1600EBA220594300EBB7
:103A4000A14010BD00FB00F1C0EBA15000B27047D7
:103A50008000001000A00C408C010010741A00209F
:103A600040420F0090130050A41000504018491C11
:103A70001CBFB1F1010100F8012DF9D17047001808
:103A8000DFF800F079BB011000E006E0EFF31180F1
:103A9000202181F311887047000080F3118870475E
:103AA000FFF7EEBFF2E7F8E7F0E7F6E70D49C207E8
:103AB00044BF01230B60820744BF4FF480730B6047
:103AC000400744BF4FF480320A60704710B5064A81
:103AD000C30748BF1160840748BF5160400748BF13
:103AE000916010BD0420094018200940DFF800F063
:103AF000E1BE011070B5FFF7C7FF094E0446B0687C
:103B00000021FFF7F3FF05467069B169451BA94223
:103B100038BF00252046FFF7B8FF284670BD00BF1C
:103B20007801002070B50446FFF7BEFC451EAD418C
:103B3000ED0F064E30680028FCD0A047012131600F
:103B40001DB1BDE87040FFF7B3BC70BD00800C40F4
:103B5000DFF800F021C00110DFF800F0F99B011040
:103B6000DFF800F019AE0110DFF800F089840110D1
:103B7000DFF800F00584011000B58FB008233C2267
:103B800000216846FFF7E4FFDFF8F80C00F1500170
:103B90004FF4806201230791089206936A4600233E
:103BA0000FF29D11FFF7DCFF0FB000BD3EB5DFF84F
:103BB000D84C04F1300104F1200001F01CFD04F1A7
:103BC000400002F03EF8606300214FF6FF70208055
:103BD0002082E160E161DFF8AC0BDFF8AC5B02F062
:103BE000A3F800BF47A0DFF8A41B00901523002214
:103BF00000F09CFFDFF8981B102001F063FF00F03D
:103C000099F80246DFF8841C00F00AFB4FF0FF32FF
:103C1000DFF87C1C00F004FB4FF0FF32DFF8741C6F
:103C200000F0FEFA00F086F80246DFF86C1C00F0A7
:103C3000F7FA00228DF806208DF8052002210122D6
:103C40000DF107008DF807108DF804200090012376
:103C50004FF4806201F001F80DF10600009001239D
:103C600040F2024200F0F9FF0DF10500009001233F
:103C700040F2034200F0F1FF01A80090012340F25E
:103C8000064200F0EAFF04F17802DFF8781CDFF862
:103C9000B45C00F0C5FA00230022DFF86C1C00F0D1
:103CA000E8FC00F047F80246DFF89C1C00F0B8FA88
:103CB00000F040F800210222019100920346082200
:103CC000DFF8A01C00F032FF00214FF0FF3002F0BF
:103CD0008BF8E0626FF078420021284602F02CF960
:103CE000E06ADFF8843C04224FEA050102F0C2F8E2
:103CF000DFF89C0C09A30178E06A002202F0A8F822
:103D000037BD000053696D706C652043656E747239
:103D1000616C000000000000000000003D3D3D3DE2
:103D20003D3D3D3D3D3D3D3D3D3D3D3D3D3D3D3DC3
:103D30000000000094F82010502001F0AABE0000FE
:103D40003EB5FFF733FFDFF8405B286B4FF0FF33E2
:103D50004FF040420021FFF7FFFE0400F5D00020A5
:103D6000019001AA69460DF1020001F07FFCD0B973
:103D7000BDF802100120102902BF9DF8001095F82F
:103D80002020914208D101990A884FF6FF739A4288
:103D90001CBF084600F014F8019900291EBF002836
:103DA000084601F04EFC6000CFD5686B01F06AFF59
:103DB0000400CAD000F0CEF8204601F0D5FCF4E7AC
:103DC0007CB50178912909D0B02904D0D02901D13E
:103DD00000F029FA76E000F0F3FB73E04178DFF8B9
:103DE000A84ADFF8AC5B0E2906D00F291DD0102998
:103DF00016D03E293DD065E0828841F205418A42D5
:103E000060D1806890F903604178807801EB0021EF
:103E100088B200F0ABFD0196CDF800002AA34AE07D
:103E20000021082002F07CF94CE08288E46A2978BD
:103E3000DFF8F43C40F20646B24243D042F232068A
:103E4000B2420DD18078491C1A2805D10022C9B28E
:103E5000204601F0FDFF35E0009000221EA305E0A2
:103E6000807801900092C91C30330022C9B22046EC
:103E700026E081780C2925D1C17829B1808800F00D
:103E800075FD00901BA316E0C179012908BF0FF250
:103E90007C060AD0022908BF0FF2780605D0032954
:103EA0000CBF0FF278060FF27C06808800F05EFDF2
:103EB0000196009021A32978E06A891C0022C9B2EA
:103EC00001F0C6FF012076BD25733A2052535349B5
:103ED0002025642064426D0050485920557064616B
:103EE0007465205374617475733A203078253032CC
:103EF0007800000025733A20504859206368616EAD
:103F00006765206661696C757265000031204D62DD
:103F10007073000032204D6270730000434F4445BF
:103F200044000000556E65787065637465642050C8
:103F300048592056616C75650000000025733A20D1
:103F4000504859207570646174656420746F202531
:103F5000730000002DE9FC47DFF82C79DFF8E489D5
:103F6000DFF8D8ACDFF8284A06463188F86A491EDF
:103F7000092915D8DFE811F00A00590065001F0073
:103F8000B500CB00DC00E100F4001101B0780107BE
:103F900007D50D2002F04DFB002801D101F0E8FF0C
:103FA00005E1C006FCD50E2002F043FB002801D13C
:103FB00001F0FAFFFBE07568E88AA96902002ED0DB
:103FC0000844421E00E00144914228D211F8010B3E
:103FD0000028F9D00B78022B18BF032BF3D1491C12
:103FE000401EC0B2012840F3E880914280F0E58095
:103FF0000B78F02B07BF4B78FF2B891C801EF0D16C
:104000006978A81C00F04FFCA81C01F049FE009044
:1040100000222178F86A0FF2AC1300F0B6FAA86912
:10402000002801D001F0A0FBC1E0DFF8142C04212E
:1040300000F0AFFA2178F86A0FF2981300F0ACFAAA
:10404000B5E021789AF800500FF298130095C91C3A
:1040500000F053FD4FF003090DB14FF00B099AF832
:10406000010008B149F020090422494600F091FA04
:10407000B86B08B101F078FB284600F095FF04000A
:10408000BC6308BF0025DFF8BC7B786865F3DF60A0
:10409000002C7860D4D04FF00009DFF8B88C11E024
:1040A00008F10100C9EBC901084401F0F9FD01461E
:1040B0000F222046FCF746FA07EBC90009F1010977
:1040C000C4600F34A945EBDBB9F1070F6FDC0122A7
:1040D00002FA09F20021384601F02EFF09F1010928
:1040E000F2E70020786201208AF80200398D081F6B
:1040F000ADF80400502097F8201001F0CAFC0090A1
:1041000001AB7A8CDFF8CC1B00F0A8FD4FE0B07853
:1041100000014FF6FF713C5A8C4248D03844C068C9
:1041200001F08BFD2246DFF8B01B00F079F83EE08D
:104130007168B07800F0C0FA39E07568DFF8187C73
:10414000697A29B194F800102CA3009700F0D4FCF0
:1041500000970023EA88DFF8041C00F0E7FC26E063
:10416000002002F0FBFA0546062207F1700102F07A
:104170000DFBE0B1284601F093FD0090002221786C
:10418000F86A0FF2BC33891D00F000FA06222946B6
:1041900007F17000FCF7D6F909E021781BA3891C10
:1041A00000F0FBF9DFF87C1C102001F08BFC70683C
:1041B00008B101F0D9FABDE8F387012800D1491C04
:1041C00002E70000446973636F76657265643A20A4
:1041D00025730000446973636F766572696E672E9C
:1041E0002E2E000025642064657669636573206463
:1041F0006973636F76657265640000005061737364
:10420000636F64653A20256400000000496E737591
:104210006666696369656E74204D656D6F727900BD
:10422000102001F04FBC2DE9F84F044688B0A0786B
:10423000DFF81087DFF80C9A0FF2DC2ADFF8FC5960
:10424000DFF84466DFF8487770B1052800F08C800D
:10425000062800F0CA80072800F03581112800F0F8
:104260001681152871D052E100230FF2FD72DFF89C
:10427000B81BDFF8B89B00F0FCF94FF48602DFF8BA
:10428000B01BFFF7CDFF4FF4487001900090002362
:104290000122DFF8A01B00F049FC0620ADF80A005F
:1042A0000DF10A03002200F021FC01208DF8080026
:1042B00002AB012200F01AFC01208DF8080002ABCD
:1042C000062200F013FC40F60200ADF80A000DF1E2
:1042D0000A03032200F00AFCA08830850022032193
:1042E00000F057F93978F06A0FF23C2300F054F9E6
:1042F00000F05CF9A01D01F0D3FC019085A000F056
:1043000050F90FF23023491D00F040F9002002F06F
:1043100025FA0146062206F17000FCF713F906F1B2
:10432000700001F0BDFC00F03CF90FF21423891D70
:1043300000F02CF9092001210190009100F005FD09
:1043400006F14C0001F054FCE1E068780B2400B168
:104350002B243978F06A0FF2F41300F01DF9E243D0
:1043600022F0784221463DE06089211D00F0CEFA1E
:1043700000F002F906EB001200211172B31C03EBEE
:10438000001001F08DFC0446009400223978F06A98
:104390000FF2D41300F0F9F800F008F968784FF044
:1043A0001C0A0128C8BF4FF01F0A002510E009F1C0
:1043B0000C000F2250F83500214602F0E7F928B929
:1043C0000122AA400021484601F0B6FD6D1CEDB265
:1043D000D9F80400B5EBD06FE9DB6FEA0A0052466A
:1043E00020F0784100F0D5F891E0A488204600F054
:1043F00043F931880020A1421FBF0120318AA14228
:1044000002204FF0030B06D102014FF6FF71B152AB
:104410006B78591E697000F0AFF8B11C01EB001009
:1044200001F03EFC019000F0BCF80FF6883300F07C
:10443000ACF800F0BBF8DDF804A0002710E009F1AB
:104440000C000F2250F83700514602F09FF928B9AE
:1044500001210022B940484601F06EFD7F1CFFB2E9
:10446000D9F80400B7EBD06FE9DB687808B14FF0FA
:10447000230B6FEA0B0222F07842594600F089F8CC
:10448000708C844243D1404601F03CFD3FE0A0885F
:10449000ADF800000122A17B8DF80A10E088ADF88C
:1044A00002002089ADF804006089ADF806001020F4
:1044B000A189ADF808108DF80B206A46DFF87C1A48
:1044C00001F000FB23E0A288DFF8741A02AB00F0D1
:1044D0000EFBE0B9E07800280DF10A000AD101F0E6
:1044E000DFFBBDF81C200FF6E02300900A214A43B1
:1044F000019206E001F0D4FB01900FF6E823A078CA
:10450000009000223978F06A491C00F03FF809B0A9
:10451000BDE8F08F494400004E756D20436F6E6E0C
:10452000733A202564000000496E697469616C6902
:104530007A656400257320416464723A2025730013
:10454000525020416464723A20257300436F6E6EAE
:104550006574696E6720617474656D707420636141
:104560006E63656C6C656400436F6E6E6563746545
:104570006420746F20257300012805DD9DF800007C
:10458000401C8DF80000F9E77047C91CC9B201F062
:104590005FBC404601F0D0BCC91C0022C9B201F08A
:1045A00057BC009000223978F06A70476878009014
:1045B00053463978F06A091D0022C9B201F048BC9F
:1045C0001CB5044601236288DFF8781900F051F821
:1045D000002847D0DFF8B813AB4809786378C06A81
:1045E0002279491C162B03D100920FF6102331E0DB
:1045F0000B2A0AD0012ADFF844360CD1227A0A2A83
:1046000016D1227B0FF6082323E0E268137800938B
:104610000FF60C231EE0132A10D1DA780FF62423AC
:10462000009200F06AFADFF8200901F06BFC19E053
:10463000122A12D1227B0FF6FC13F1E77E2A03D156
:10464000227A0FF6142304E07F2A06D122890FF67E
:104650001823009200F051FA04E0987810B1204637
:1046600000F098F8217904F10800BDE81C40FFF73C
:104670007BBA102001F026BA38B500F067F902289D
:1046800000F0BDFA04EB0015E86808B9122032BD4D
:1046900001F0D5FAE868FBF73DFDE86801F064F841
:1046A0000020BB49E86000220978E06A891CC9B291
:1046B00001F0C6FB002032BDF0B5B54E724C0D4680
:1046C000317887B00346491CAA78E06A1F0003D1FD
:1046D0000FF6A41300224AE0012B39D1002A33D16E
:1046E0000FF6A413C9B201F0B3FB2A88DFF8501803
:1046F00001AB00F0FCF9002842D19DF8050002282A
:1047000018BF03283CD10622002103A801F0F0FACB
:10471000002835D10DF1060001F0C2FA0090002208
:104720003178E06A0FF67013FFF72FFF288800F04A
:104730000DF900F089FAA31C06220DF1060103EB26
:104740000010FBF7FFFE1BE000920FF6601315E070
:10475000022B07D112B90FF6681308E000920FF68A
:1047600074130BE0032B0BD12AB90FF68013C9B2D7
:1047700001F06EFB04E000920FF6841300F0BDF927
:1047800007B0F0BD074A00003DFA000069FB0100D8
:104790006181010078B5DFF8A4643B4D0446B07830
:1047A000012887B013D12079032869D10FF668104A
:1047B0000088ADF808000222B27000F06FF8022104
:1047C0000190009102AB6288DFF880172EE002288A
:1047D00032D1207907282CD1208950B1E0680178A6
:1047E000427801EB0221A9848178C07801EB002195
:1047F000E98460781A2843D1A88C002840D003218E
:10480000B1700222E98CADF806108DF80820F12174
:104810008DF80910ADF80400FF228DF80A2000F091
:104820003DF8009001AB6288DFF8241700F016FA1B
:1048300026E0012824D1DFE7032821D120790928A7
:104840001CD12089D0B1688C00F080F800F0FCF910
:10485000E16805F10803CA7800011A5400224C48A7
:104860000FF6B8030178E86A491CC9B201F0F0FA02
:1048700000220321DFF8D00601F05EFB0020B070BB
:1048800008B070BDD80A0020540300206DAD0100AF
:1048900069A7010025AA010031810110502095F877
:1048A000201001F0F6B82DE9F047DFF890532C788E
:1048B000A246BAF1070F8146884621DC0026DFF8C0
:1048C000947400E0761CF0B2A0420DD25FFA86FC30
:1048D0007B1CCCEBCC0C062203EB0C01484601F010
:1048E00055FF0028EED10BE0CAEBCA0A781C06225D
:1048F00049465044FBF726FE07F80A80641C2C70DA
:10490000BDE8F0871DAB0100F97D000038B5DFF888
:1049100044361D8800244FF6FF7295420BD12501C5
:10492000062258532B44981CFBF70CFEC3484178D1
:10493000491C417004E01D8A01249542EFD00224F5
:10494000204632BDDC03002051880110DFF8042628
:104950001388014600208B421FBF0120128A8A4221
:1049600002207047FD400100394E0000DFF8E425C9
:1049700013880021834204D102EB0111881C01F04D
:104980008FB9138A01218342F6D0002070470000BE
:1049900065160020F8B505460E461746042000F0BF
:1049A000E2FE04000CD02580A77022463146072085
:1049B00000F042F820B12046BDE8F24000F0D4BE3D
:1049C000F1BD2DE9F84381460E4617469846102062
:1049D00000F0C9FE040014D0089DE6800622494676
:1049E000FBF7B0FD277284F80980E56022460021BC
:1049F000082000F021F820B12046BDE8F24300F085
:104A0000B3BEBDE8F18301460022012014E0014657
:104A100080B5C0B2062802D0092804D001BD09041F
:104A20000022090E06E0DFF8300501F006F9002249
:104A300000210920BDE8084070B504460D46164621
:104A4000082000F090FE68B1048085704660024640
:104A5000DFF80035196B586B01F0FAF8401E804101
:104A6000C00F70BD132070BD10B50C4641020BD5B0
:104A7000042022460021FFF7DFFF20B12046BDE8D9
:104A8000104000F071BE10BDC10348BF0220F0D439
:104A9000810348BF0320ECD40028F4D50A20E8E7BE
:104AA0001CB5040007BF01218DF8041004228DF805
:104AB000042001AB0122DFF8741300F018F8DFF8CE
:104AC0009C140FF26C6301EBC400DFF88844C268E9
:104AD000DFF88C040178E06A0092C91C00F00DF840
:104AE000DFF8800401F00EFA012016BD49461020BF
:104AF00000F0E8BF3178E06A491C0022C9B201F039
:104B0000A7B980B54D4900200022087000926423A7
:104B1000DFF8541400F00AF8494ADFF84804042189
:104B200001F00AFA012002BD18960100102000F0E1
:104B3000C9BF80B5BB492AE03EB5002201920124DD
:104B40000094C0EBC0008349DFF808540A5C0C18DD
:104B5000631C02F00102DFF81414DFF80844FFF7C9
:104B6000E5FFDFF80C241021204601F0E5F9DFF81D
:104B7000F0030FF2D4530178E86AFFF70DFD2046E9
:104B800001F0C0F901203EBD80B5DFF8E813102028
:104B900000F098FF012002BDF8B507460022022F61
:104BA00000F02DF804EB071529886184287A20B9D4
:104BB00000210520FFF740FF0322DFF8BC03DFF8E8
:104BC000886300EBC701CB683360E868002807BF43
:104BD00042F00802042142F004020821304601F0AC
:104BE000ABF9DFF87C030178E06AC91C0022C9B286
:104BF00001F026F9304601F085F90120F2BD05DB10
:104C00009DF80000401C8DF80000F9E7D14C70477A
:104C10001CB5D04C608CFFF799FE00F015F804EB42
:104C20000010017AADF8041000F058F8009001ABC4
:104C3000628CD24900F012F8012016BD47230020F3
:104C4000FBFFFF0734040020022805DB9DF800006D
:104C5000401C8DF80000F9E770472946102000F04D
:104C600031BF30B50FF2F04185B0054604A80C689D
:104C700004600023B74C608C01221221FEF778FFFC
:104C8000029018B3608CFFF761FEFFF7DDFF04EBC5
:104C9000001104A80A7AADF804200121ADF806102D
:104CA0000022405DB649C87002990870ADF80C202A
:104CB00000F014F8009001AB628CB249FFF7CEFF10
:104CC000C0B218B1122101A8FEF74EFF012005B0B5
:104CD00030BD000005A2010025AB0010502094F863
:104CE000201000F0D6BE7CB59A4D974C01220146AB
:104CF00002FA01F1688C04291BD1FFF727FE064652
:104D0000012EFFF73AFC05EB0615E868D8B9242018
:104D100000F029FDE860B0B101213602009146F0B3
:104D20000606019600F011F800F062FF0422082147
:104D300004E0FFF7A1FC30B908220421204601F06D
:104D4000FBF8012076BD002076BD002340F6B83286
:104D50008D4970472C16002040E20100D1A10100CE
:104D6000F8B54FF4C8717B4C7D4E628C874F8AB08A
:104D70004FF44875ADF80610ADF804200021ADF8E9
:104D80000A10ADF8085004AB6D49FFF7B0FE58B9F2
:104D9000BDF82400B0F5167F1ABF4FF41670ADF8B9
:104DA0000C00ADF80C5007E00DF1120000F078FF98
:104DB00000903B46FFF79EFE01AA7549102000F0C7
:104DC00081FEBDF80C100A204143009107F12C032D
:104DD000FFF790FE01200BB0F0BD3EB504466D48D4
:104DE0005C4D005D6A8C01900021029100900023CF
:104DF0006949FFF79BFE69490FF2603301EBC4007C
:104E0000C26857480178E86A0092FFF775FE0120F2
:104E10003EBD80B54F486249428C1323FFF729FC01
:104E2000012002BD8DA7010015AC010055680100ED
:104E300019830100159701002DE9F047DFF864811F
:104E4000444C41454FF001094FF6FF7A29D1002526
:104E5000002618E000273801215A51450ED0A21C27
:104E6000104400F01DFF014608EBC6000F22C06889
:104E700001F08CFC10B909FA06F005437F1C012FE4
:104E8000E9DD761CF6B2D8F80400B6EBD06FE1DBB2
:104E90002A46ED4325F078414046BDE8F04701F051
:104EA0004BB8354EB14237D1E06B08B100F05CFC35
:104EB0003348407800F078F80500E56304D1706865
:104EC00020F07840706036E07168022060F3DF61A6
:104ED00071600027380109FA07F8215A514512D0AC
:104EE000A21C104400F0DCFE01460F222846FBF70E
:104EF00029FB06EBC7000022C5604146304601F0A1
:104F00001BF80F3504E042460021304601F014F84A
:104F10007F1C012FDEDD0EE0124881420BD11048CC
:104F2000A4F822A000220178E06ABDE8F047491CFD
:104F3000C9B200F085BFBDE8F0870000A10B0000FA
:104F4000C97E0000B17F0110AC040020398E010041
:104F50002D0E000054030020A003002018040020A0
:104F600065160020DC030020ED4C01009DAC010023
:104F7000EFFFFF078D93010080040020950E0000D5
:104F800047230020990E00000F4A00006C96010094
:104F90002D840100D40300207D9401001C05002015
:104FA00049FC000034040020C0EB001080B200F087
:104FB000DABB0000257320697320646973636F6E28
:104FC0006E65637465640000557064617465643A6D
:104FD0002025732C20636F6E6E54696D656F757438
:104FE0003A256400557064617465204661696C659A
:104FF0006420307825683A202573000041545420FD
:105000005273702064726F707065642025640000B4
:1050100052656164204572726F7220256400000041
:1050200052656164207273703A203078253032788E
:10503000000000005772697465204572726F72201B
:105040002564000057726974652073656E743A2098
:10505000307825303278000046432056696F6C6105
:105060007465643A202564004D54552053697A656F
:105070003A2025640000000050616972696E672063
:10508000737461727465640050616972696E67203F
:105090007375636365737300416464722075706433
:1050A000617465643A2025730000000050616972E4
:1050B000696E67206661696C3A2025640000000013
:1050C000456E6372797074696F6E20737563636582
:1050D00073730000456E6372797074696F6E206639
:1050E00061696C65643A202564000000426F6E645B
:1050F00020736176652073756363657373000000C8
:10510000426F6E642073617665206661696C6564C8
:105110003A20256400000000F0FF000053696D7024
:105120006C652053766320466F756E640000000046
:105130005072696D617279205363616E20504859D5
:105140003A20257300000000436F6E6E656374693A
:105150006E672E2E2E0000000055AAFF50485920E1
:10516000707265666572656E63653A20257300002E
:10517000DFF800F02DB40110DFF800F0CDAC011025
:10518000DFF800F02DC00110DFF800F055A4011089
:10519000DFF800F0FDB1011020B108233C2200210E
:1051A000FEF7D6BC704780B5FBF706F8ADF80000F7
:1051B000FAF744FFADF80200009802BD01B5BDF852
:1051C0000200FAF73FFFBDF80000BDE80240FAF721
:1051D000F7BF38B5DFF8C449207801282CD0012169
:1051E0002170DFF8BC29DFF8BC1989088900521A40
:1051F000A26161610A4602E0002342F8043BA36910
:105200005D18AA42F8D39B0801EB8302002042F804
:10521000040CE8230B60A06980088000EC38C1F81A
:10522000E800E831A160002000F007F8E060A16923
:105230006069A060091F216131BDF8B50024002616
:10524000051D15F003001CBF291D0D1AFFF7ABFF4C
:10525000DFF8482901465160112D34BF9368D368A7
:105260001868002803D580F00040002619E03700B8
:1052700013D02768D3F800C06744AF42276010D32B
:105280003846ECB1401B042811D3605145F0004072
:10529000206013695D1B156111E0A84214D201263C
:1052A0001C46034418680028DBD1002408E0136979
:1052B00020681B1A1361226842F000422260241DFC
:1052C00000F04FFA2046F2BD1C46DAE710B504465E
:1052D000FFF769FFDFF8C418486054F8042C22F087
:1052E000004244F8042C0B69D2180A61221F8B6813
:1052F0009A4238BF8A60BDE810405FE72DE9F0416F
:10530000FFF751FFDFF89418CA68486000240025B1
:10531000002600270AE00E460125144605E02B0072
:10532000F9D02368CB1823608E190A441168B0465F
:10533000BE4238BFB846002905D0F0D581F0004103
:1053400000254746F1E7FFF739FF4046BDE8F08109
:1053500010B50446DFF84408816921600069606087
:10536000FFF7CCFF09282CBF08380020A06010BD33
:10537000DFF828180A69121A40F22D139A4228BF42
:10538000FFF75BBF0020704780B5FFF722FF4BF6A9
:10539000BE2002BD084650E7084697E702B56846BA
:1053A000FFF7D6FF01BD0120704738B50446FFF76F
:1053B000FAFE00220C23DFF8F0175343CD18A96C36
:1053C00021B18C4206D0521C032AF3D3FFF7F6FE1C
:1053D000002032BDFFF7F2FE05F1480032BD70B586
:1053E0000546FFF7E0FE044600210C22DFF8B8076F
:1053F0004A438618B06C48B1854210D0491C032935
:10540000F3D32046FFF7DAFE002070BD3065B564A7
:105410000021FFF7ADFEF06408B901F0CBF920469A
:10542000FFF7CCFE06F1480070BD38B50446FFF723
:10543000BAFE0025DFF870270C216943515A21B1CB
:105440008C4206D06D1C062DF6D3FFF7B7FEFF2069
:1054500032BD1AE310B504462088FFF7E6FFFF28A7
:1054600002D14FF0FF3010BD0C21DFF83C2748433C
:105470001044816811B96FF0010010BD2046BDE8ED
:105480001040084702460FF24470104738B500201C
:105490000C21DFF814270024002501FB00F313443E
:1054A000401C03289C641D65F7D30020002301FBEA
:1054B00000F4401C13530628F9D3BDE8314088E6B8
:1054C0002DE9F8478FB081468846FDF7FDFD05467A
:1054D0000027DFF8D86647451FD26846FFF75CFE15
:1054E00009EB07114A6806928A68089200220B6845
:1054F0000493C868059069463046FFF73DFE0400F6
:1055000011D0FFF750FE82462046FFF768FF50B1EA
:105510005046FFF753FE7F1CDDE72846FDF7D8FD18
:1055200010B0BDE8F08701F045F900BFF8B5684656
:10553000052141604FF47A728260DFF87416DFF85B
:1055400074260091C2600121FFF7BAFF05B000BDCB
:1055500038B504460D46FFF726FE002145F80C1C21
:10556000226812B9256006E00A4652F80C1C002990
:10557000FAD142F80C5CBDE832401FE680B5FFF777
:10558000FFFDFFF712FF10B96FF0040002BD816844
:1055900009B9022002BD4068AFE006280ADA0C22F1
:1055A000DFF804365043185A00281CBF4FF6F87233
:1055B000904202D14FF0FF307047088000207047C2
:1055C00030B5DFF8F4552A680C464FF47A71A1FB28
:1055D0000001002301F0F2F8002902D8B0F1004FD9
:1055E00002D36FF0020030BD2060002030BD0146C4
:1055F000886849680847F8B505460E46FFF7C0FDBC
:10560000FFF7EDFE04000DD0FFF7CDFD01460022AF
:105610000C27DFF8943557433B44188820B1521CBF
:10562000062AF5D301F0C6F84FF6F8700027188067
:105630005C609F602A706068306000F092F8002023
:10564000F2BD0C3842E670B5044615461E460846C3
:10565000FFF7EBFE0146FF2902D14FF0FF3070BD8E
:1056600033462A462046BDE8704080E07CB50546BA
:10567000164600F09EF8040010D128886946C0B292
:10568000FFF78BFF28B13068FFF7DBFF6FF00500F5
:1056900076BDBDF800002880FFF770FF204676BD7C
:1056A00038B50546FFF76CFDFFF77FFE0446FAF7B5
:1056B000CDFF002818BF012800D014B96FF00400F6
:1056C00032BD65B900200090009B60684FF0004239
:1056D0000021FEF741FA401E8041C00F32BD15F196
:1056E000010F08BF4FF0FF30EDD069462846FFF7A5
:1056F00067FF0028E8D032BD80B54FF00041FFF7CA
:1057000043FD002002BD2DE9F843054600F09AF95B
:10571000FFF765FE04006FF0020920D0FFF743FD9C
:10572000014600220C23DFF8800453430344188809
:1057300040B1854211D0521C062AF3D301F03AF849
:10574000BDE8F2831D805C609E603A706068C8F8B6
:10575000000000F006F80020F2E700F002F84846EA
:10576000EEE708462AE568E5B0E501E6F0E52DE953
:10577000F8430D46062DBCBF04460628164699463A
:105780006FF0020806DAFFF70EFD00F000FA19B913
:10579000FFF714FD40460AE0FFF710FD00F0EDF9B9
:1057A000786840684FF00041FFF7EEFC0020BDE84C
:1057B000F2832DE9F04106460F469046FFF7E0FCE4
:1057C000FFF7F3FD050008BF6FF004001BD0FFF7E3
:1057D000EAFCA968002441B10C46A4F10C010023A5
:1057E0000A68AA60FF250B608D72FFF7E7FC0CB911
:1057F000022008E0A4F10C00017931704079387082
:10580000C8F800400020BDE8F08182B001208DF88A
:1058100000009DF800000028FBD100F0CBFF00BF86
:10582000FAF728BF50B5DFF8906332686FF0004494
:10583000A4FB020100234FF47A7200F0BFFF00299D
:1058400002D8B0F1004F00D3204650BD7CB50C46C5
:1058500015461E466946FFF7B3FE30B90098334639
:105860002A46214600F002F8002076BD2DE9F043DB
:105870001D4689B02C6880460E4617462CBB0C206E
:10588000FFF7DBFC04006FF0030918D00823242283
:1058900000216846FAF72EFC0020ADF810000590B4
:1058A000069400236A464146DFF81003FFF770FCB8
:1058B000206030B9FFF7A9FF2046FFF707FD4846F3
:1058C00017E06660A7602C600BE0DFF8F4623068D8
:1058D000804705462068FAF711FCA76028467168E2
:1058E000884720684146FAF70DFC2068FAF70EFC5D
:1058F000002009B0BDE8F08300281CBF0068FAF75B
:10590000FDBB7047E0B58DF80400684601F006F86D
:105910009DF805000EBDE0B50190684601F034F831
:105920000EBDE0B50190684601F038F80EBD2DE9D6
:10593000F84384B0044600F085F8FFF736FD0546CD
:1059400000200290FAF782FE002818BF012800D03C
:1059500015B96FF0040072E044B900200190FAF725
:1059600089FE814601980124814425E014F1010F4C
:1059700008BF4FF0FF30F1D001A92046FFF720FE0D
:105980000028ECD05BE0039902A8FFF7E1FD68680E
:105990004FF00051FFF7F8FB0198012410F1010FBF
:1059A00018BF002808D0FAF765FEB9EB000031D027
:1059B000019981422ED30190019B68684FF00052FB
:1059C0000021FEF7C9F828B303AA69460DF10100CA
:1059D000FFF7EFFE0400DFD19DF801000DF1020199
:1059E000FFF7DBFD0028CED1039A9DF80010BDF82B
:1059F0000200B0470028C6D017B1BDF802003880B9
:105A0000B8F1000F1CBF9DF8001088F800100C982A
:105A100003990160FFF7B2FD029EFFF7C4FB014648
:105A200056B1324600E0024652F80C0C0028FAD17A
:105A3000A86842F80C0CAE60FFF793FE204605B054
:105A4000BDE8F0830E4617469846FFF799BB38B578
:105A5000FFF796FB0446FAF7F9FD002818BF012866
:105A600011D0FFF7A0FB00254F4A0C236B43D15AFE
:105A700039B1D11849680B68A34206D06D1C062DB8
:105A8000F3D3FFF79BFBFF2032BDFFF797FBE8B294
:105A900032BDE0B5ADF800008DF806100020494990
:105AA0000A68ADF802006846904710B99DF80700F3
:105AB0000EBDFF200EBD1078422801D10120704795
:105AC000002070470CB478B504460E4687B0FAF74C
:105AD000BDFD0CAD002814BF0128FFF796FE142071
:105AE0000021FF22ADF8100002918DF812200696D9
:105AF0000595FFF7ACFF05AB03222146FFF7A3FD99
:105B0000002001A901900091002300222E4941F2BA
:105B10008830FFF70CFF012805D020B9019820B18B
:105B2000FFF78FFD01E0FFF770FE0598006808B0F1
:105B300070BC5DF80CFB2DE9F8430D46062DBCBF8B
:105B400004460628164699466FF0020806DAFFF763
:105B50002AFB00F01CF819B9FFF730FB40460AE0B9
:105B6000FFF72CFB00F009F8786840684FF000510F
:105B7000FFF70AFB0020BDE8F283A9F108000470DA
:105B800045708670494678680830FFF7E1BC0C2202
:105B9000054B02FB05F7DF197968704708160020EE
:105BA000FF3F00206B2300209C150020855400003F
