:20000000F82C0020090700003D0700009F0600003B0700003B0700003B07000000000000DD
:200020000000000000000000000000003B0700003B070000000000003B0700003B070000B8
:200040003B0700003B0700003B0700003B0700003B0700003B0700003B0700003B07000090
:200060003B0700003B0700003B0700003B0700003B0700003B0700003B0700003B07000070
:200080003B0700003B0700003B0700003B0700003B0700003B0700003B0700003B07000050
:2000A0003B0700003B0700003B0700003B0700003B0700003B0700003B0700003B07000030
:0800C0003B0700003B070000B4
:2000C8002DE9FE4388468146254F38684169062088473868416B062088470128F9D13868A5
:2000E800C1694FF4A060884701251E4E1E4C356020688008FCD33868C1694FF48070884780
:20010800356020688008FCD3184CA4F10C01086820F00F000860032020600022082513461B
:20012800CDF800904FF080401149019500F066F9CDF800804FF0804009224FF0FF332946D5
:2001480000F0CCF81C3C206840F0020020604FF0804002A900F0B4F90028F8D1BDE8FE83F3
:20016800B8010010282008602820084020000040006CDC02F8B5104D2868016A4FF480708C
:20018800884701260D4F0E4C3E6020688008FCD32868016A4FF4A06088473E602068800873
:2001A800FCD328688169062088472868416B062088470228F9D1F8BDB801001028200860A6
:2001C8002820084038B50C4605469CB14FF08040002100F087F910B94FF0FF300BE04FF0BF
:2001E8008040694600F08CF99DF8000028706D1C641EEBD1002038BD38B50C46054664B16B
:2002080029784FF0804000F081F94FF08040694600F076F96D1C641EF2D1002038BD08B51F
:200228004FF08040694600F04BF90028F8D108BD1D4838B50468B4F1FF3F08BF002400F0A2
:2002480058F92448244B194A002501211038056003F15C000160164B11601868806C80475D
:200268001448006820B114480068204600F080F8124813490560134C0A686FF35B4244EA36
:200288000200086010490868C0F30130012806D10A680E48104040F400320A6008600C499A
:2002A80008680028FCD138BD1C13005008220443F001001080012843000120438C210840A6
:2002C800482003400000390104000940FFFFFCFC0C0068429404604200600C4070B51546D2
:2002E800224A049E04460846B4F1804F1CD0B0F1FF3F02D0212100F0EDF8B5F1FF3F05D06F
:20030800284622214FF4C04200F0E4F8B3F1FF3F05D0184623214FF4C04200F0DBF8B6F10B
:20032800FF3F22D024211BE0B0F1FF3F02D0092100F0D0F8B5F1FF3F05D028460A214FF41D
:20034800C04200F0C7F8B3F1FF3F05D018460B214FF4C04200F0BEF8B6F1FF3F05D00C21D1
:2003680030464FF4C04200F0B5F870BD006000201C4A2DE9F041804601251B481560076890
:20038800002FFCD0194CC0201A492060081F03689B0806D250F8040C154B000C40F0F00041
:2003A800187000204FF080571063D7F8F0010E68016830468847D7F8F001426831464046B9
:2003C8009047D7F8F001816830468847D7F8A001C1680220884740202060074E3560BDE857
:2003E800F081C046101009409402224300600C4056620840B43F00509404604210B5022BFF
:200408000CBF082400240BB144F004044460029BB1FBF3F400239B1CB4FBF3F1491EFF29F1
:20042800F9D8036102F003039C01039B5B1E43EA012302F0300119430C43046010BD000083
:20044800094801684BF69A120901B2EB114F07D100680B21B1EB107F14BF00200320704782
:200468004FF0FF307047C0461813005008B5044B1B689B699847034A0021116008BDC046B2
:20048800A801001084046042044908B5096849698847034A0021116008BDC046A801001012
:2004A8008404604208B500214FF4C04200F012F8024941EA80000121016008BD001A44420F
:2004C800C268D20803D380680860012070470020704700001143024A42F820107047C04674
:2004E80000100840C268920826BF816001200020704708B5FFF7A4FF032800D0FEE708BD1F
:16050800C268D208FCD3806808607047C2689208FCD381607047D8
:20052000002A4AD05FEA000C8B071CD1830722D1102A08D370B4103A78C978C0103AFBD213
:2005400070BC103238D0042A2CD3082A05D30C2A24BF08C908C008C908C008C908C0920771
:200560002AD0920F22E00B780370491C401C521E22D08B07F7D1C30714D18307D8D0121F59
:2005800012D308C903801B0C4380001D121FF8D20AE008C903701B0A43701B0A83701B0ADD
:2005A000C370001D121FF4D2121D05D00B780370491C401C521EF9D1604670470022134627
:2005C0000A46194671B510F0030F0BD0002A82BF00F8011BB2F1010210F0030FF6D1002A31
:2005E00008BF71BD11F0FF0141EA0121042A18D341EA0141082A0FD30E46102A08D30C4663
:200600000D46B2F10F0312F00F0272C0103BFCD812F0080F18BF42C012F0040F18BF40F858
:20062000041B12F0020F18BF20F8021B12F0010F18BF017071BDF8B5844640F6FF741CF8C0
:20064000013B002210E0481B401E10F8015B7F1E01F8015BF9D103E01CF8010B01F8010B63
:20066000521C5B08082AEADA5808F5D21CF8010B1CF8015B05F00F07FF1CC5F30315122FC5
:2006800045EA001508D11CF8016B300A24BF1CF8010B60F3DF16BF19AC42D4D1F8BDFEE733
:2006A000B0B50C480C4DA84210D00C480C4CA0420CD0001BC71054F8040B10F8011B55F836
:2006C000212054F8041B90477F1EF4D100BF00BFB0BDC0467C07000070070000A0070000A3
:2006E00090070000074880F3088800BF00BF00F020F808B1FFF7D4FF00201EF0ABFD012012
:2007000000F019F8F82C002008B5FFF795FDFFF7E9BFFFF7C4FF08BDD0F80320C31D08461A
:1E0720001946FFF7FDBED0F8032008460021FFF749BF0120704700BFFEE7FEE7FEE70D
:2007400000002000C215000000001000C214000000000800EF12000000000400EF110000AF
:0E076000000000000000000090FFFF000506F2
:200770003706000019070000270700000000000002000000141000000001000000FFF000C8
:1007900080070000000000208807000014100020DF
:020000040001F9
:20F000002DE9F84F00F03AF9B0F1FF3F4CD04FF4F028B8F5F22F45D8DFF890B0254DDFF8CF
:20F020009C90254CDFF888A05E4640465946102200F01AF9BBF800004FF6FF7181422CD00F
:20F04000378857B3B01C594600880988884224D19AF80000FF2820D12878012805D02878BC
:20F0600002281AD14FF4003000E000204946228809889200890000F071F82088801200216F
:20F080005A4600F0D0F80028E6D080208AF8000059461022404600F0ECF808F58058B8F56B
:20F0A000F22FC2D900F043FABDE8F88F001000200F1000200E1000200C100020061000201C
:20F0C0002DE9F8430C4605460026DFF888804FF4805229034046E1F723FA1F4908888012F7
:20F0E000098801EBA401A1EB802189001FFA81F94019C7B223E000240EE004EB0530B0F5F5
:20F10000805F01D1241DA4B218F80410304600F05FF80646641CA4B2B4F5805F03DAAF424E
:20F12000EBDCA145E9DCAF4207D0290340464FF4805201F58051E1F7F3F96D1CEDB2AF422A
:20F14000D9DA3046002100F043F8002100F040F8BDE8F88300000020061000202DE9F8432A
:20F16000154680462C0B6818401E060BC91C8F0815F0030F2AD1A64228D31E2E00D925E0AD
:20F18000A64223D34FF48069A64201D11FFA87F9A0B200F055F8C8B903E008F104082D1DD0
:20F1A0007F1E4846411E1FFA81F918B9641CA642E8D20BE040466946042200F055F828B9DB
:20F1C0000099284600F022F80028E6D0BDE8F883D0B50A460021082917DA41F22103C40BE2
:20F1E0000027E60300D001273E46400080B232F07F0701D040F001000EB1584080B252008C
:20F20000D2B2491CC9B20829E9DBD0BD08B50091014604226846E1F72DF910B14FF0FF3072
:20F2200000E0002008BD10B51446FFF749FF2188884203D120886080012000E0002010BDEF
:20F2400008B50003E1F724F910B14FF0FF3000E0002008BD08B5FFF7D3FE41F21000416895
:20F26000D0F800D0084708BD13460A46194600F00EB813460A46194600F012B808B500F0B5
:20F280000FF908B1002001E04FF0FF3008BD08B500F07EF808B1002001E04FF0FF3008BD69
:20F2A00008B500F007F808B1002001E04FF0FF3008BD00002DE9FC4116460F460546002F37
:20F2C00037D04FF0020800F08DF808B1002031E000F0FEF808B100202CE005F0FF04C4F503
:20F2E0008074BC4200D93C468DF80080280C8DF80100280A8DF802008DF803502D193F1BD1
:20F3000000F026F968460421E0F77AFF18B100F017F900200EE030462146E0F771FF18B1F7
:20F3200000F00EF9002005E0361900F009F9002FC9D10120BDE8FC8198B500F077F808B917
:20F3400000201DE010480F490860104A084602E00368083303600B681F685FB10B681C79D3
:20F3600013461B789C42F3D1541C036824785B79A342EDD100680068002200B101221046F5
:20F3800098BDC0461410002040070000101000207CB515460E46044600F024F808B1002038
:20F3A0001FE003208DF80000200C8DF80100200A8DF802008DF8034000F0CAF868460421F6
:20F3C000E0F71EFF18B100F0BBF8002009E028463146E0F7FBFE024600F0B2F8002002B952
:20F3E00001207CBD0EB5104800788DF8000000F0AFF8E0F718FF00F0A3F800F0A9F868464C
:20F400000121E0F7FDFE01A80121E0F7DFFE024600F096F812B16FF0010004E09DF8040013
:20F420004008EAD200200EBD6C07000008B50C480068009000F08CF804216846E0F7E0FE65
:20F4400018B100F07DF8002009E006480221E0F7BDFE024600F074F8002002B9012008BD0D
:20F4600068070000101000201CB5AB208DF8000000F06EF801216846E0F7C2FE002400B922
:20F48000012400F05DF84CB1C8210846411E002889B2FAD1FFF7A6FF00B1002420461CBD92
:20F4A00010B50A480A21E0F70FFE1420E0F7FEFF00F046F8FFF7D8FF041C02D100F037F811
:20F4C00002E0FFF739FF0446204610BD00093D0008B5094800788DF8000000F039F801210B
:20F4E0006846E0F78DFE024600F02AF812B16FF0020000E0002008BD6D07000008B5B920AF
:20F500008DF8000000F024F801216846E0F778FE00F016F808BD10B500240A2C06DAFFF785
:20F520000BFF18B1641CE4B20A2CF8DB10BD08B5FFF7E4FFFFF7EFFFE0F720FE08BD0000D8
:20F5400002484FF48011103801607047A020024002494FF4801008607047C046A0200240E6
:20FFA80000008001100082FFFDFF58003AFFBFF3FFFFFFFFFFFFFFFFFFFFFFFFFFFFFFFFF8
:20FFC800FFFFFFFFFFFFFFFFFFFFFFFFFFFFFFFFFFFFFF00FFFFFFFF00FFFFFFC500C5FFAA
:18FFE800000000FF00000000FFFFFFFFFFFFFFFFFFFFFFFFFFFFFFFF12
:00000001FF
