:020000040001F9
:20E000000044002025E8010079E8010013E8010063E8010063E8010063E80100000000004C
:20E0200000000000000000000000000063E8010063E801000000000063E8010063E80100B0
:20E0400063E8010063E8010063E8010063E8010063E8010063E8010063E8010063E8010060
:20E0600063E8010063E8010063E8010063E8010063E8010063E8010063E8010063E8010040
:20E0800063E8010063E8010063E8010063E8010063E8010063E8010063E8010063E8010020
:20E0A00063E8010063E8010063E8010063E8010063E8010063E8010063E8010063E8010000
:08E0C00063E8010063E80100C0
:20E0C800FEB54FF0805000F5DC77D0F8B8014169062088473868416B062088470128F9D1DA
:20E0E8003868C1694FF4A06088470124374E384D346028688008FCD33868C1694FF4807095
:20E108008847346028688008FCD34FF0804303F1140108680327002520F00F0008600C262A
:20E128001F6229465D60891CB6FBF1F0401EFF28F9D80002274A196140F0070009211860D7
:20E14800082000F063FB0A214FF4C042092000F05DFB31464FF4C0420A2000F057FB586878
:20E1680040F002005860684600F030FB0028FAD1142029464FF4C04200F048FB1648046014
:20E1880000F054FBAB208DF8040000F057FB01A8214600F0C9FA2F4600B9274600F046FB13
:20E1A8003C1C09D0C8210846411E002889B2FAD100F0F6F900B12C4614B900F04BF902E07D
:20E1C80000F0BAF904462046FEBDC046282008602820084000600020501A4442294838B515
:20E1E800001D0468B4F1FF3F08BF002400F086FA032832D12448254B184A00250121103855
:20E20800056003F15C00164B016018681160806C80471448006820B113480068204600F02D
:20E22800D1F8124812490560124C0A686FF35B4244EA0200086010490868C0F301300128B6
:20E2480006D10A680D48104040F400320A6008600B4908680028FCD138BDFEE7082204438C
:20E26800F001001080012843000120438C210840482003400000390104000940FFFFFCFC28
:20E288000C006842181300509404604200600C40002A4AD05FEA000C8B071CD1830722D1CA
:20E2A800102A08D370B4103A78C978C0103AFBD270BC103238D0042A2CD3082A05D30C2A60
:20E2C80024BF08C908C008C908C008C908C092072AD0920F22E00B780370491C401C521E2B
:20E2E80022D08B07F7D1C30714D18307D8D0121F12D308C903801B0C4380001D121FF8D27D
:20E308000AE008C903701B0A43701B0A83701B0AC370001D121FF4D2121D05D00B78037071
:20E32800491C401C521EF9D1604670472DE9F843FFF7C6FE00F092FA064600F059F94FF029
:20E348002009002541F6FE7833E006200121642200F016FA2C466FF30B04281B8DF800909E
:20E368004044000B1ED0074600F01AF9D0B900F0F1F9B8B9200C8DF801008DF80340200A50
:20E388008DF8020000F05AFA6846042100F0CCF930B900F04BFA04F580547F1EE4D101E004
:20E3A80000F044FA07200121642200F0E9F905F580553068A842C8D800F064F900F04AF816
:20E3C800BDE8F883204A2DE9F04180460124A2F13000046019480768002FFCD01B49184DBE
:20E3E800C0200B1F28601868800806D253F8040C144B000C40F0F000187000204FF08057FF
:20E408001060D7F8F0010E68016830468847D7F8F0014268314640469047D7F8F0018168B9
:20E4280030468847D7F8A001C1680220884740202860074E3460BDE8F081C046940222431D
:20E4480000600C405662084040100940B43F005094046042F8B5B9208DF8000000F0EEF910
:20E468000121684600F060F900F0E0F90A2400F063F8002818BFB4F10104F8D14FF08050B8
:20E4880000F5DC74D0F8B801016A4FF48070884701270D4E0D4D376028688008FCD320685E
:20E4A800016A4FF4A0608847376028688008FCD320688169062088472068416B06208847C9
:20E4C8000228F9D1F8BDC0462820086028200840F8B5844640F6FF741CF8013B002210E0C3
:20E4E800481B401E10F8015B7F1E01F8015BF9D103E01CF8010B01F8010B521C5B08082A28
:20E50800EADA5808F5D21CF8010B1CF8015B05F00F07FF1CC5F30315122F45EA001508D124
:20E528001CF8016B300A24BF1CF8010B60F3DF16BF19AC42D4D1F8BDBCB5184DD5F8020009
:20E54800009000F07BF90421684600F0EDF8F0B9114C0221204600F0B7F8024600F066F952
:20E56800BAB905F10800214607683FB102790B789A420AD142794B789A4206D14860006866
:20E58800002100B101210846BCBD0830ECE700F04DF90020BCBDC046000000207CE8010053
:20E5A80012480EB500788DF8040000F047F9684600F00CF90028FAD100F038F900F03EF927
:20E5C80001A8012100F0B0F802A8012100F07CF8024600F02BF9002A18BF6FF0010004D10E
:20E5E8009DF808004008E9D200200EBD7CE8010010B54FF0805000F5DC74D0F8B8014169DF
:20E60800042088472068416B042088470128F9D12068C1694FF4A060884701210548064A62
:20E62800016010688008FCD3044801604160816010BDC0462820086028200840141A4442AC
:20E64800B0B50C480C4DA84210D00C480C4CA0420CD0001BC71054F8040B10F8011B55F8AE
:20E66800212054F8041B90477F1EF4D100BF00BFB0BDC046B8E80100B0E80100C8E80100D1
:20E68800C0E8010010B54FF0805000F5DC74D0F8B801016A4FF4A0608847094901200860D7
:20E6A800084908688008FCD320688169042088472068416B042088470228F9D110BDC046E7
:20E6C80028200860282008407CB50B4C0B46064600256068800838BF4FF0FF300AD3256091
:20E6E800684600F07FF89DF800005B1E06F8010BEFD128467CBDC046080000400948016876
:20E708004BF69A120901B2EB114F07D100680B21B1EB107F14BF0020032070474FF0FF302B
:20E728007047C0461813005098B50F1C03460CD0074C5B1E13F8011F60688008FCD3216065
:20E74800684600F04FF87F1EF4D1002098BDC04608000040094808B500788DF8000000F0AC
:20E768006DF801216846FFF7DFFF024600F05EF8002A14BF6FF00200002008BD7DE8010051
:20E7880038B5144669B1074D01230A4683402B60204600F031F82B61204600F02DF8521E04
:20E7A800F5D138BD90200240074880F3088800BF00BF00F059F808B1FFF742FF0020FFF78D
:20E7C800B5FD012000F052F800440020044A5168C90803D311680160012070470020704789
:20E7E80008000040034A5168C908FCD3116801607047C04608000040014640F6AA70484322
:20E8080002D000BF401EFCD17047FEE71143024A42F820107047C0460010084008B5FFF7C6
:20E82800DDFCFFF7C1BFFFF7F0FF08BD02494FF4801008607047C0469020024002484FF415
:20E84800801110300160704790200240D0F80320C31D08461946FFF71BBDFEE701480068F9
:12E868007047C046040000200120704700BFFEE7FEE75C
:20E87C00050690FFFF00000000002000C215000000001000C214000000000800EF120000FD
:10E89C0000000400EF110000000000000000000068
:18E8B000D9E4010055E801000001000004FFF000B8E80100000000209F
:20FF5400014C0000B0177D511DEC108BD851BCA2ED3D9E19B733A52F33DA05404D13765069
:20FF74003D88DF5CD0E2F2583053C42AB92ABEEF665FECCF5616CC36EF2DC95E462B7C3B17
:0CFF940009C19956D9AF958163237BE722
:20FFA80000008001100082FFFDFF58003AFFBFF3FFFFFFFFFFFFFFFFFFFFFFFFFFFFFFFFF8
:20FFC800FFFFFFFFFFFFFFFFFFFFFFFFFFFFFFFFFFFFFF00FFFFFFFF00FFFFFFC500C5FFAA
:18FFE800000000FF00E00100FFFFFFFFFFFFFFFFFFFFFFFFFFFFFFFF31
:00000001FF
