:020000040000FA
:10000000F82C0020090700003D0700009F060000B3
:100010003B0700003B0700003B070000000000001A
:100020000000000000000000000000003B0700008E
:100030003B070000000000003B0700003B070000FA
:100040003B0700003B0700003B0700003B070000A8
:100050003B0700003B0700003B0700003B07000098
:100060003B0700003B0700003B0700003B07000088
:100070003B0700003B0700003B0700003B07000078
:100080003B0700003B0700003B0700003B07000068
:100090003B0700003B0700003B0700003B07000058
:1000A0003B0700003B0700003B0700003B07000048
:1000B0003B0700003B0700003B0700003B07000038
:1000C0003B0700003B0700002DE9FE4388468146C0
:1000D000254F38684169062088473868416B0620FB
:1000E00088470128F9D13868C1694FF4A060884772
:1000F00001251E4E1E4C356020688008FCD33868F0
:10010000C1694FF480708847356020688008FCD34F
:10011000184CA4F10C01086820F00F0008600320BF
:100120002060002208251346CDF800904FF0804053
:100130001149019500F066F9CDF800804FF080403C
:1001400009224FF0FF33294600F0CCF81C3C206810
:1001500040F0020020604FF0804002A900F0B4F9A6
:100160000028F8D1BDE8FE83B801001028200860FF
:100170002820084020000040006CDC02F8B5104D3B
:100180002868016A4FF48070884701260D4F0E4C95
:100190003E6020688008FCD32868016A4FF4A060A4
:1001A00088473E6020688008FCD328688169062063
:1001B00088472868416B062088470228F9D1F8BD96
:1001C000B8010010282008602820084038B50C46E7
:1001D00005469CB14FF08040002100F087F910B92E
:1001E0004FF0FF300BE04FF08040694600F08CF993
:1001F0009DF8000028706D1C641EEBD1002038BDF6
:1002000038B50C46054664B129784FF0804000F0BF
:1002100081F94FF08040694600F076F96D1C641E4C
:10022000F2D1002038BD08B54FF08040694600F09B
:100230004BF90028F8D108BD1D4838B50468B4F161
:10024000FF3F08BF002400F058F92448244B194A06
:10025000002501211038056003F15C000160164B98
:1002600011601868806C80471448006820B11448F9
:100270000068204600F080F8124813490560134CCE
:100280000A686FF35B4244EA02000860104908689C
:10029000C0F30130012806D10A680E48104040F42E
:1002A00000320A6008600C4908680028FCD138BD9B
:1002B0001C13005008220443F00100108001284361
:1002C000000120438C2108404820034000003901F0
:1002D00004000940FFFFFCFC0C00684294046042EB
:1002E00000600C4070B51546224A049E044608463C
:1002F000B4F1804F1CD0B0F1FF3F02D0212100F0BB
:10030000EDF8B5F1FF3F05D0284622214FF4C04259
:1003100000F0E4F8B3F1FF3F05D0184623214FF475
:10032000C04200F0DBF8B6F1FF3F22D024211BE0F1
:10033000B0F1FF3F02D0092100F0D0F8B5F1FF3F46
:1003400005D028460A214FF4C04200F0C7F8B3F1A7
:10035000FF3F05D018460B214FF4C04200F0BEF815
:10036000B6F1FF3F05D00C2130464FF4C04200F0FB
:10037000B5F870BD006000201C4A2DE9F0418046B0
:1003800001251B4815600768002FFCD0194CC020C0
:100390001A492060081F03689B0806D250F8040C15
:1003A000154B000C40F0F000187000204FF0805703
:1003B0001063D7F8F0010E68016830468847D7F817
:1003C000F0014268314640469047D7F8F001816815
:1003D00030468847D7F8A001C168022088474020EE
:1003E0002060074E3560BDE8F081C046101009401E
:1003F0009402224300600C4056620840B43F005013
:100400009404604210B5022B0CBF082400240BB1E9
:1004100044F004044460029BB1FBF3F400239B1CF2
:10042000B4FBF3F1491EFF29F9D8036102F003037D
:100430009C01039B5B1E43EA012302F03001194338
:100440000C43046010BD0000094801684BF69A1285
:100450000901B2EB114F07D100680B21B1EB107FFE
:1004600014BF0020032070474FF0FF307047C04694
:100470001813005008B5044B1B689B699847034A42
:100480000021116008BDC046A8010010840460422C
:10049000044908B5096849698847034A0021116081
:1004A00008BDC046A80100108404604208B50021C0
:1004B0004FF4C04200F012F8024941EA80000121E5
:1004C000016008BD001A4442C268D20803D38068A4
:1004D0000860012070470020704700001143024A65
:1004E00042F820107047C04600100840C2689208C9
:1004F00026BF816001200020704708B5FFF7A4FFE8
:10050000032800D0FEE708BDC268D208FCD380688B
:0E05100008607047C2689208FCD38160704793
:10052000002A4AD05FEA000C8B071CD1830722D136
:10053000102A08D370B4103A78C978C0103AFBD2A8
:1005400070BC103238D0042A2CD3082A05D30C2AC8
:1005500024BF08C908C008C908C008C908C0920754
:100560002AD0920F22E00B780370491C401C521EC7
:1005700022D08B07F7D1C30714D18307D8D0121F1D
:1005800012D308C903801B0C4380001D121FF8D230
:100590000AE008C903701B0A43701B0A83701B0A18
:1005A000C370001D121FF4D2121D05D00B7803700A
:1005B000491C401C521EF9D1604670470022134668
:1005C0000A46194671B510F0030F0BD0002A82BFFE
:1005D00000F8011BB2F1010210F0030FF6D1002A5E
:1005E00008BF71BD11F0FF0141EA0121042A18D3AF
:1005F00041EA0141082A0FD30E46102A08D30C46BF
:100600000D46B2F10F0312F00F0272C0103BFCD87E
:1006100012F0080F18BF42C012F0040F18BF40F8C4
:10062000041B12F0020F18BF20F8021B12F0010F7A
:1006300018BF017071BDF8B5844640F6FF741CF810
:10064000013B002210E0481B401E10F8015B7F1E9A
:1006500001F8015BF9D103E01CF8010B01F8010B73
:10066000521C5B08082AEADA5808F5D21CF8010B7C
:100670001CF8015B05F00F07FF1CC5F30315122FD3
:1006800045EA001508D11CF8016B300A24BF1CF89C
:10069000010B60F3DF16BF19AC42D4D1F8BDFEE701
:1006A000B0B50C480C4DA84210D00C480C4CA042E0
:1006B0000CD0001BC71054F8040B10F8011B55F8A0
:1006C000212054F8041B90477F1EF4D100BF00BFC7
:1006D000B0BDC0467C07000070070000A007000006
:1006E00090070000074880F3088800BF00BF00F0B3
:1006F00020F808B1FFF7D4FF00201EF0ABFD012069
:1007000000F019F8F82C002008B5FFF795FDFFF769
:10071000E9BFFFF7C4FF08BDD0F80320C31D08469A
:100720001946FFF7FDBED0F8032008460021FFF769
:0E07300049BF0120704700BFFEE7FEE7FEE76D
:1007400000002000C215000000001000C2140000CC
:1007500000000800EF12000000000400EF1100008C
:0E076000000000000000000090FFFF000506F2
:1007700037060000190700002707000000000000EE
:1007800002000000141000000001000000FFF00053
:1007900080070000000000208807000014100020DF
:10101000004C002095AA0000BDCA0000BDCA000017
:10102000BDCA0000BDCA0000BDCA0000BDCA0000A4
:10103000BDCA0000BDCA0000BDCA0000BDCA000094
:10104000BDCA0000BDCA0000E5CF000030B5ADF15B
:10105000540D1390139818B9AE480CF0F3F904E04E
:101060001398AC491DC881E81D00AB48007858B101
:10107000AA480068002105F0F3FA08B90920D6E271
:10108000A748006804F040F8A6480078B8B9A64818
:101090000CF000FAA548A44900680860A44800685C
:1010A00050B1A448006838B1A148BA490068086046
:1010B000A048B949006808609A4901200870B848FA
:1010C000B64900680860B7481C22002107F0B6FA4C
:1010D000B44943F605000880B3496FF04F0008702B
:1010E000B249087820F00F000870B148B049007884
:1010F00020F00F0040F003000870AE49087840F07F
:1011000001000870AB49087840F008000870A94950
:10111000087820F010000870A748A749007820F050
:101120000F0040F004000870A44944F620600860F5
:1011300001208DF8500000208DF8510000208DF81E
:1011400052009F490020087075E00CF0C1F810B9FA
:101150000BF06EFF10B100208DF8500001208DF8CB
:10116000510081E00CF0B4F800287DD10BF060FF55
:10117000002879D101208DF8500001208DF8510010
:1011800072E00CF0A5F800286ED10BF051FF00289A
:101190006AD10BF041FF002866D101208DF8500084
:1011A00001208DF851005FE00BF0D8F808285BD1E2
:1011B00000208DF8500001208DF8510054E00BF014
:1011C000CDF8052850D100208DF8500001208DF871
:1011D000510049E00BF0C2F8082845D100208DF8F5
:1011E000500001208DF851003EE00CF071F800280D
:1011F0003AD10BF01DFF002836D101208DF85000A8
:1012000001208DF851002FE00BF0A8F80C2807D032
:101210000BF0A4F80D2803D00BF0A0F80E2823D172
:1012200001208DF8500001208DF851001CE00020B5
:101230008DF8510018E0374800780728F7D802A148
:1012400051F820008746C0464B1100006511000090
:1012500083110000BF110000EB110000A911000074
:10126000D5110000091200009DF8510040B92B482B
:10127000006818B12948006808F038FA0220D6E161
:1012800000208DF8530028E022499DF853309D4AF4
:101290000978980000EB4310105C814218D19DF84A
:1012A0005330984A9849980000EB43108018086022
:1012B0009DF853209549900000EB4210085818B94A
:1012C00001208DF852000EE03D49012008700AE02F
:1012D0009DF85300401C8DF853008D489DF8531025
:1012E00000788842D0DC8848006840B90B48006824
:1012F00018B10A48006808F0F9F9022097E19DF852
:101300005000C8B1804800688068C149026808463A
:1013100002601AE0DC1E002042380020441E00203B
:10132000401E002045380020C41D002050380020F9
:10133000E01E0020E41E002073480068B449806865
:101340003CC83CC11DC881E81D006F480068B94910
:10135000C0681CC81CC10DC881E80D006A4800683F
:10136000B54940681DC881E81D0067480068B34959
:1013700080693CC83CC13CC83CC11DC881E81D0017
:101380009DF85200F0B1604800680169AC4808F06F
:1013900051FB20E0D81D0020DC1D00203C1E002059
:1013A000E81E0020541D0020651D0020601D002047
:1013B000611D0020641D00206B1D00206C1D00209D
:1013C00044380020504800689D4940693CC83CC1F1
:1013D0001DC881E81D009B4897498D4AB44B02F017
:1013E000A7F8B44908609849002008809749002070
:1013F00008609749002008609649087820F00F009F
:1014000008709449087820F0100008709149087815
:1014100020F0600008708F49087820F08000087084
:101420008D488D49007820F00F0040F001000870D1
:101430008949087820F0F00008708849087820F081
:10144000010008708549087820F00200087083497F
:10145000087820F0040008708049087840F00800FF
:1014600008707E49087820F0100008707B490878E1
:1014700020F0400008707949087820F0800008705A
:101480007749087820F0010008707549087820F045
:10149000020008707249087840F00800087070492E
:1014A000087820F0100008706D49087820F02000BE
:1014B00008706B49087820F0400008706849087887
:1014C00020F0800008706749002008606649882085
:1014D000088079480078E8B1654864490860654843
:1014E0006449007820F03F0040F010000870624925
:1014F0006FF0030008705949087820F02000087048
:101500001BE0C046403200204C38002054320020FE
:101510001706010059485549086056485549007852
:1015200020F03F0040F00800087053490020087088
:101530004A49087840F02000087051485049007826
:1015400020F0F80040F0400008704A49088820F474
:10155000F86008804B49087820F0010008704A487C
:1015600001784848007861F34500464908704549CC
:10157000088820F4F860088044484449007820F046
:10158000F80040F00800087041484149007820F018
:101590000F0040F0010008703D49087820F010006D
:1015A00008703B49087820F06000087038490878D6
:1015B00020F080000870374900200860374836491D
:1015C00008603848364908603848374908600220C2
:1015D0004FF0E2418DE803003648164900680022CA
:1015E00000230AF00BFF02A80BF0EBFE0BA80BF098
:1015F00057FE3248006890B9002002A90BAA0AF0F1
:1016000067F92E4908602D48006818B903200EE0DC
:10161000B41C00202948006808F068F803E0274857
:10162000006808F063F8264801210170002015B019
:1016300030BDC0464C1E0020CC1E0020E81B002000
:10164000D41C0020B8160020EA1B0020EC1B002050
:10165000F01B0020F41B0020F51B0020F61B0020CF
:10166000F71B0020FC1B0020001C0020F81B0020A2
:101670004E905500021C0020061C0020DE510B93EA
:10168000031C0020041C002040380020051C002002
:10169000071C0020081C00200C1C00202434002003
:1016A000101C00206C1F0020141C0020381F00207C
:1016B000C41D0020401E002044380020441E00208D
:1016C000423800202DE9F04FDFF854B30F460446AE
:1016D000F80BADF1140D80F00182D84DDFF8608376
:1016E000B80F80F0AF81B80880F09C81DFF84883A4
:1016F000F80A80F0FA80380B80F0D180380907D2E0
:10170000F80FC0F01D8227F0804707F09DFE17E21A
:101710000CF00DFB81460BF061F9002800F0B98058
:1017200008200CF057F9002840F0B38080200CF01E
:1017300051F9002840F0AD8004A805F087FF01288A
:1017400003D10498002800F0A4805846C9300078DE
:10175000002840F09E8000240126E0B20BF0AEFE8F
:1017600048B1837A3BB1867290F9090006FA00F01D
:10177000C0B209F041FE641C032CEED344460320A2
:10178000207504F1B4000CF0CEFA48460CF0A7FA2C
:10179000D0480168002398461A46036050F8081C98
:1017A000CD4940F8088C04F138000CF0C6FA4046E8
:1017B00005F0FDF92868006B8047A168401A010B0D
:1017C000E069C1F1FF3282422CBF08444FF0FF3084
:1017D000E06194F8200020B12069E169B1EBC02FED
:1017E00026D90BF00BF9414600B13146081C1BD03D
:1017F000D74840F60901018043464380417B06F00B
:101800000F0221F00F010A434273017B03F00F0521
:1018100021F00F0145EA0102027343600BF06AFFF9
:10182000418811F4406FFBD084F820604346E361A7
:1018300009F0A2FCC74845464146056002200AF06F
:10184000E7FE022009F040FF112005F0F5F82078AE
:1018500018B9606848300CF078FABF48007810B9C1
:101860000E2005F0E9F894F8210020B184F8215009
:10187000052009F029FFB948A0612575B4F98C004D
:10188000B4F98E10884214BF0220072006F00EFD26
:1018900002E048460CF023FA27F0080735E74446F3
:1018A000201D066809F08CFD38B13046F6696FF4EA
:1018B000807100224FF00073B047E06850B1286893
:1018C000006B8047E2686168801AC860000BC860DE
:1018D0000026E660A24904F1380000220CF02DFA3F
:1018E00027F40067022020750FE70CF020FA8146EC
:1018F0000BF074F84446266F0028B04600F089804B
:10190000002E00F086809749042604F1380000225A
:1019100026750CF012FA48460CF0E1F904F1B40017
:101920000CF001FA2868006B8047E060D8F81000DE
:101930006060D8F81000416AC90803D3036A3146D1
:1019400000229847012008F087FA87480BF0D2FE62
:1019500065684FF0010985F81590606807F06AFA2C
:10196000D5F808A040F60A02D01F564600F1010C37
:1019700000E01E46736833B119888A4203D088425A
:1019800018BF8C45F5D100217160727B09F00F03FF
:1019900022F00F0213437373D8F80C201288904280
:1019A00025D06046904222D02C8E0CB3696305F19D
:1019B0003002518095F83C0001F00F0320F00F0039
:1019C000034385F83C3095F83D0009F00F0420F002
:1019D0000F0044EA000385F83D307260707B01F02F
:1019E0000F0420F00F0044EA0001717300E0E16091
:1019F000504669460AF092FF68460BF06BFE0BF00A
:101A000053FD50460BF076FE514648460AF000FE64
:101A100002E048460CF063F927F4806790E0C04686
:101A2000280E002003F05AFA40467030006808B9CA
:101A300027F0020784E0C046200D00208C01001032
:101A4000280D00200CF073F9AA468146DAF85400FC
:101A5000016804208847D0B1207DC0B140460068AD
:101A6000A8B10646DAF800002569006B8047801BA4
:101A70002061000B2061A84202D240194008206179
:101A800040F6C41181422CBFB0F5967F21614846D3
:101A90000CF025F909F094FC88B1E56920466FF453
:101AA000807100224FF00073A847404668300068FC
:101AB000002808BF47F0020701D007F0C5FC204608
:101AC000A46900214FF080630A46A04727F0005721
:101AD00036E0C04614100440999B00000CF027F932
:101AE00022490E6846B306F1280106C90A234FF0C1
:101AF000E0450B40154008BF002B1DD106F1280121
:101B000091E8300006F1280393E8060006F1280367
:101B1000AA43A14383E806000CF0E1F8B16869B17B
:101B2000002D08BF002C09D030692246B6F93C10C0
:101B3000B4682B46A04701E00CF0D1F827F48047A9
:101B40001FB1584639460CF008F905B0BDE8F08FD2
:101B50007C1E002000000460B2040100055B000050
:101B6000CD6D0000BDC9000001010E04A80D0020CC
:101B70002DE9F04F09AFADF13C0D08900A9238887D
:101B800009911E46ADF81800101C08BF002000F097
:101B90007581017800274FF0010B401C4FF0FF3991
:101BA000B846DA460A9061E1252940F0568101786D
:101BB000401C0A902D2918BFADF8068004D1017889
:101BC000ADF806B0401C0A9030291CBF424643467F
:101BD00004D10178401C5A465B460A902A29CDF868
:101BE00000804D4617D1049330680A9BCDF80890C9
:101BF000C01C20F00300001D306050F8044C197820
:101C0000002C009403F101000A9018D5ADF806A04D
:101C10006442009413E044460AE0600000EBC40014
:101C20004018A0F130040A9801780094401C0A90F2
:101C3000302901DB3A29F0DBCDF8089004932E29F6
:101C400029D10178401C2A290A9011D13168CDF898
:101C50000880C91C21F00301091D316051F8045CA2
:101C6000002D48BF454601782B46401C0A9011E0E4
:101C7000454643460AE0680000EBC5004018A0F165
:101C800030050A9801782B46401C0A90302901DB68
:101C90003A29F0DB02930AB1224604926C2904D05F
:101CA0004C2918BFADF8048004D10178ADF804A028
:101CB000401C0A900BA8CDF80C800FAB079064294C
:101CC000059300F0828069297FD0BDF818C075297E
:101CD0006DD0782969D06F2965D070294ED06329DD
:101CE0003ED0732922D00A98401E0A9009980128F4
:101CF0001AD966490C68B5F1FF3F03D0A84288BFE6
:101D00006D1C05D86FF00041814294BF0D1C099DE8
:101D1000029508A80AA932466B46A04709993F18C0
:101D2000091A0398099165E0454617E03068C01C20
:101D300020F00300001D306050F8040CBCF1010FCE
:101D4000014608B94FA0014607910BF025FC03900E
:101D5000B5F1FF3F4FD0A8424DD9039528464AE040
:101D60003068C01C20F00300001D306010F8040C27
:101D70008DF82C005D46039558463CE008203568F8
:101D80000490E81C20F00300001D306050F8041C93
:101D9000082210230FA806F0A9FF401E079040213B
:101DA0000170079823E0082302E0102300E00A23D3
:101DB0003068C01C20F00300001D306050F8041C87
:101DC000AA42BCBF2A1C04920DE03068C01C20F05F
:101DD0000300001D306050F8041CAA42BCBF2A1C3E
:101DE00004926FF009030FA806F080FF0790059991
:101DF000081A0390009C241ABDF8065000945DB99F
:101E000006E008A8202109AA0AF07EFA7F1C009C9F
:101E1000641E0094F5D50398401EB0F1FF3F039077
:101E20000FD1BDF8060001281CD10098401E00907B
:101E300018D408A8202109AA0AF066FA00987F1C85
:101E4000F4E70798017809AA08A80AF05DFA07984C
:101E5000401C079003987F1CDEE708A809AA0AF037
:101E600053FA7F1C0A980178401C0A9000297FF4DD
:101E70009BAE089808B14146017038460FB0BDE8E6
:101E8000F08FC046286E756C6C2900C0F405010007
:101E9000BB482DE9F84F0025BA4CB849056094F8C5
:101EA000E200002800F06581012800F02F81B64E85
:101EB00002283CD0032840F05C8151F8250CD4F86E
:101EC000B8100029A0F5C060C4F8D400B8BF4942DA
:101ED0000028B8BF4042814226DA4FF08057D7F839
:101EE000A4014568B4F8BC0030214FF47F420823B8
:101EF00000903046A847D7F8A4014568B4F8C00060
:101F000004214FF4F802122300903046A847D7F876
:101F1000A401B4F8D070456820214FF440620A2330
:101F200030460097A847012584F8D8501CE151F8A5
:101F3000258C0BF025FD2F4600B901273946934F1C
:101F400038680028FCD0B146012609F10409D9F807
:101F50002CA03E6009B10BF019FDCAF30720C4F8AC
:101F6000BC000BF00DFDAA4600B9B2463B68002B41
:101F7000FCD0D9F800B0BAF1000F3E6001D00BF0F0
:101F800005FDCBF38440C4F8C0000BF0F9FCAA4671
:101F900000B9B2463B68002BFCD0D9F81C90BAF1CE
:101FA000000F3E6001D00BF0F1FCC9F38120C4F8B2
:101FB000D000B8F5C061C4F8B81000F09C8094F867
:101FC000D80068B9C4F8D410D4F8C000C4F8C80068
:101FD000D4F8BC70C4F8C470D4F8D030C4F8CC3095
:101FE000D4F8D400D4F8BC30002854BF02226FF0DB
:101FF000010204F1C8010F6800EB40008018421094
:1020000000EB927207EBA2000860D4F8C810C4F885
:10201000C43000291CDD1E293CDDD4F8CC0030B9C9
:102020003429B4BF15391E21C4F8C81025E02A2967
:10203000BABFD4F8C8000B381E20C4F8C800D4F8C2
:10204000C4003F28B4BF401C3F20C4F8C4001FE0B8
:10205000D4F8CC00032812D011F10B0FC6BFD4F86E
:10206000C8000B30301CC4F8C800D4F8C4000028E5
:10207000C4BF401E051CC4F8C450032508E011F17C
:10208000150FC6BFD4F8C8001530301CC4F8C800FE
:10209000C4F8CC504FF08057D7F8A401B4F8C4303E
:1020A00030214FF47F424568374800930823A84702
:1020B000D7F8A40104214FF40032112345683248B7
:1020C0000096A847B4F8C860D7F8A40104214FF4DB
:1020D000F802122345682C480096A847D7F8A401B7
:1020E00020214FF440620A23B4F8CC6045682648AA
:1020F0000096A84701E084F8D85040F2FF504045D0
:1021000002D8801C40452FD2082030E051F8251C11
:102110001F4F4BF2F5204843060A3868C0F3814050
:1021200001280CD11B4800680068804709F006F8B8
:102130000BF032FC3111C010484306EBE03694F846
:10214000E50030B91448006820F07F403618760862
:1021500001E084F8E5501148310C06600127416028
:102160000F4D8760287808B90B2000E0052084F81F
:10217000E40001F039FEBDE8F88FC0462D400C4068
:102180002C500C40A430002000A00C4000800C40DB
:10219000B43F0050EC010010102009403C600C409E
:1021A000590301002DE9F04F044609AF9A469146C4
:1021B0008846ADF1140D01940BF0B9FD98490D68F6
:1021C0000290A54208BF4D68974C6FF0010B35B1E6
:1021D00005F180000BF066FA002840F00F810AF04C
:1021E00005FA061C00F0158104F1B4000BF09BFD0C
:1021F000C6F80C80B4F98C0099F80430401C86F8BD
:102200003E306FF31F30A4F88C00C6F808A0B4F875
:102210008C00019AB0878348326197E80C004FF038
:10222000000B2021DC4606F118071940104087E812
:10223000030006F1200383E80018C6F834B06246B4
:102240003263D9F80800B06386F83F20D9F80070EF
:10225000009207B1776398F80C0000F00F00022895
:1022600004BFD8F808003063082740464368002BB5
:1022700018BF002F40F0BE8000886FF30900B0F552
:10228000305F18BF022006D196F83F0040F01000E2
:1022900086F83F00082006F1180191E8800106F158
:1022A000180342EA080240EA070183E80600D4F86E
:1022B000F8000199814207D194F80401410824BF34
:1022C00000F0FE0084F80401002D70D0039504F1A5
:1022D000700101980D68884609F0BEFDB1465F4661
:1022E0005FEA000A0FD1D8F800202AB1D4F8801094
:1022F000304606F021F918B9BAF1000F03D103E016
:1023000001275D4630E0554645B12A6830462946EA
:1023100006F012F938BB002A1546F6D1039831466B
:1023200007F060F8051C02D0A9451AD1E5B9D9F823
:102330000C10D8F80450087B00F00F00022813D1CD
:10234000087BC01140080FD2002D4AD1D4F880007C
:1023500050B1D4F8801030463A4606F0EDF818B97E
:102360003FE0082700E00227BB46BBF1010F04D184
:1023700004F1700049460AF08CFABBF1020F0BD150
:102380002F682A6804F170001FB949460AF070FAF4
:1023900002E049460AF05BFABBF1080F04D196F857
:1023A0003E1028460AF078FC3BF0080004D104F106
:1023B000700031460AF05CFA1BF1030F11D096F859
:1023C0003F00B6F93CB0009940F0800086F83F002D
:1023D000019F87F8A410206F86421AD107F034F8C5
:1023E00017E0B4F98C0000F6FF706FF31F30A4F80B
:1023F0008C0003E07F1E1846FFB237E794F8040113
:1024000040F0040084F8040101986FF0020BC4F856
:10241000F80002980BF063FC584605B0BDE8F08F59
:10242000F80D0020FFEFFF9F200D002030B5ADF12B
:102430002C0D0691059001A80BF004F801A8FEF7F9
:1024400005FE10B164A00AF0A5FD01208DF81C0066
:102450009DF81C00C8B1082004F006FC0BF0CCFA73
:102460000BF0D0FA4008FBD373480068406801467F
:10247000022088476F4908706E4800780028EFD026
:102480000BF0B4FA082004F0D7FA6A4801210122BF
:1024900003F048FA10B156A00AF07CFD6548674980
:1024A000007808706649022008700AF067FB6549E9
:1024B00008606548006800214FF0FF324FF0FF339D
:1024C00003F080FC08900898400845D30AF056FBBA
:1024D00009905C480999006888420ED2594A5C49C3
:1024E0005A4B099815685B4C09681A68401B4143B0
:1024F000B1FBF4F012181A600DE052485449534BE6
:10250000099D544C006809681A68401B4143B1FB9F
:10251000F4F012181A6009984A4908600AF088FF16
:102520004D4908804E484D49008808800D200AF02A
:102530009DFF0022002100B1012101B9012249487B
:102540000270142241493D480092434A00680968DC
:102550001268022301F010FD0898800811D3424848
:10256000007858B14149032003F044FB4048002162
:1025700001F0CAF810B127A00AF00CFD00200AF003
:102580004DFA0898000907D33A480078032803D188
:1025900039483A4906F08AFF0898C00813D33248F0
:1025A000007840B93748364900780978884202DD1A
:1025B00006F030F907E02C48007820B9224800687E
:1025C000102106F0B3FA08984009FFF472AF012019
:1025D0000AF024FA6DE7C046456173794C696E6B69
:1025E0005F696E6974206661696C656400C046C08D
:1025F000456173794C696E6B5F656E61626C6552A3
:10260000784164647246696C746572206661696CB5
:10261000656400C0456173794C696E6B5F72656378
:10262000656976654173796E63206661696C65647E
:1026300000C046C057380020CC010010081F002001
:10264000091F0020741E0020681E00200C1F00209F
:1026500074050100A0860100101F00200A1F002041
:10266000701E0020121F0020781E002080380100FC
:102670007D6E000012180020111800201318002091
:10268000F0170020F117002000B5ADF1140D8DF802
:10269000080004208DF809007048007810B17048D7
:1026A000007808B10120D6E09DF80800042809D080
:1026B0009DF80800052805D09DF80800062801D0DF
:1026C0000220C8E06748B0F90000002801D40920C2
:1026D000C1E065480068002103F0C2FF08B9092085
:1026E000B9E09DF80800042803D09DF808000528EB
:1026F0006ED15E4940F6080008805D49087820F0F8
:102700000F0008705A49087840F080000870594955
:10271000002008605849087840F0020008705848C6
:1027200056490068086054485349007820F00C006E
:1027300040F0080008709DF80800042809D15149AC
:102740004FF6FF7008804C49087840F0010008708F
:1027500008E04C494AF6AA2008804749087820F04A
:102760000100087048484849007820F00F0040F008
:1027700001000870464B02204FF0E2418DE8030053
:1027800042483A490068002204F012FA35490880AC
:102790000020ADF80C000FE03E48006842F21071D6
:1027A000B1FBF0F006F0FAF9BDF80C00411CB0F5F1
:1027B000FA7FADF80C1003DC374800880228EBD113
:1027C00035480088022844D100208DF8090040E0F7
:1027D000324940F6070008803149087820F00F00A0
:1027E00008702F49087840F0800008702D490020BB
:1027F00008602D49087840F0020008702A490878DE
:1028000040F0040008702A482849006808602948F8
:102810002849007820F00F0040F0010008701C4BA0
:1028200002204FF0E2418DE8030018481B49006880
:10283000002204F0BDF90B4908800A48B0F90000F5
:10284000002803D400208DF8090002E004208DF850
:1028500009009DF8090005B000BDC04642380020BF
:102860004338002054380020441E00207C370020CC
:1028700088370020843700208A37002090370020D6
:10288000EC1C00208C3700208F370020401E0020D9
:10289000FDC00000740501007E370020F8370020DD
:1028A00004380020003800200638002008380020B6
:1028B000F81B0020073800202DE9FE4F05467B4815
:1028C000002400680094C00905D37948007810B945
:1028D000202008F02DFF012D40F0E280DFF800926B
:1028E000D9F8DC00012840F0D8800220C9F8DC00CB
:1028F0000AF0F2FB012008F01BFF5FEA000805D098
:102900000120C9F8DC000AF0F3FBCBE00BF021FA60
:10291000A34602906748684DC0F800B0A86A0168F5
:1029200001208847012804D1584606F0B9FA012051
:1029300000906248624FC0F800B0386811200BF078
:1029400043F800B1012410200BF03EF808B144F028
:1029500002040F200BF038F808B144F004040B20F7
:102960000BF032F820B12868564E016B308888474A
:102970000A200BF029F820B12868534E016B3088EB
:1029800088475248012606602868816944F0200083
:1029900088474F4806600BF011F800F001010191E3
:1029A000400814D2286A81684A4888478246BAF1AA
:1029B000040FF7D0BAF1010F04D1286A42684548E4
:1029C000032190474449086820F0030008605846F6
:1029D00000F088F82B683868986B804701980128C8
:1029E0000CD0BAF1010F04D1286A42683948314647
:1029F00090473949086840F0030008602F48066096
:102A000028684169204688470B200AF0DDFF20B185
:102A100028682C4BC16A188888470A200AF0D4FF1E
:102A200020B12868284BC16A188888472748066063
:102A30000322C9F8DC20264BC3F800B02868416B9C
:102A4000204688470128F9D13868042008F070FE34
:102A50000446184806603868144800688009FBD3AB
:102A60000098012802D1304606F01AFA0AF08EFFCB
:102A7000082008F05DFE07460298C9F8DC6008F0FF
:102A800041FF1648008805F039FF0AF031FB57EA8C
:102A9000040018BF4FF0FF3804E06FF0040801E0B5
:102AA0006FF001084046BDE8FE8FC0461410094093
:102AB0008C3100200C400940B80100100002224374
:102AC0002C20094006FE000002FE000028200860BD
:102AD00080010443004003402422084054030100C5
:102AE000A43000202DE9F84FDFF804B20746ABF11F
:102AF0003500DFF8F0810068800880F0E2807548DA
:102B00000068006880477E490831D1F800900025B0
:102B10004FEA29715FEA995201F101010AD2C0F12D
:102B20003E0210F10A0F4FEAE202D8BF082291429A
:102B3000B8BF111C684BD3F87C21C2F30462162A7B
:102B4000A8BF203A1B68C3F30443162BA8BF203B41
:102B50009A465218162A05DA12F10A0FB8BF6FF01A
:102B6000090200E015225D4B5D4E02F01F0141F4A9
:102B7000F8511980316811F0030F18BF0125C908F9
:102B800028BF45F002050FB145F00405434693F90F
:102B90000710411A052904DA9979A94208BF9988D2
:102BA0006FD0DFF844E10F28A0F10F0829DB08EB14
:102BB0000011A1F1F0084FEA28210091072984BFF4
:102BC00007210091062988BF06215EF821600424B0
:102BD000774604EB81043C594FEA950CA41BEE08A0
:102BE00004F0FF0124BFC4F3072631446F08AE0888
:102BF00024BFC4F3074631446E0828BF01EB1461BB
:102C000004E000214FEA950C6F080091009C5EF8EB
:102C100024E05FEA5C060EF0FF0424BFCEF3072633
:102C200034447E0824BFCEF3074634446E0828BFE0
:102C300004EB1E64009E89B2A8EB06267143803126
:102C400004EB1124AAEB02010029D8BF0121342290
:102C500009F0FF074A4391B24FF6FF727943B1FB87
:102C6000F4F18A4238BF111C802889B2998005DAB4
:102C700010F1800FB8BF6FF07F0000E07F20D871A7
:102C80009D711A4800681F2918604FF0000008D392
:102C900040F2FF128A4206D24908401C8A42FBD306
:102CA00001E01F219980134F0F39090940EAC10043
:102CB00047EA0001CBF8FB1F0026CBF8FF6FBDE809
:102CC000F88F0D490D4F434608200F609B1D18706B
:102CD000BDE8F88FEC0100103C1100506E62084016
:102CE000242208407C1F00209C130050082009402B
:102CF0003500094000E7A48030100940FDFDA40024
:102D0000AC3F00502DE9FE4F0E46074630687C6808
:102D1000D7F808B0F8B1B5680DB97368DBB194F8AD
:102D200094100020012908BF0120284202D17168B7
:102D3000084205D0012080F00100C0B201280AD16C
:102D40000AF0F5FF8146D4F8880038B148460AF009
:102D5000C6FF032030740020BDE8FE8F01253574C6
:102D6000C4F8886000200190C4F88C00C4F890007A
:102D700048460AF0B4FF94F8AC0038B194F89520B6
:102D80006649D4F8A400114308F0E2FAD6F80480AA
:102D90000AF0CDFF824694F8E00080B918F0704F39
:102DA00008D1B8F1000F05D0042008F075FE062008
:102DB00008F072FE022008F06FFE84F8E0505046E2
:102DC0000AF08DFFDBF80010486840F00200486010
:102DD000207800287BD1DBF81C003168884276D946
:102DE000207B18B16068B0F1FF3F70D148460AF00F
:102DF00076FFB0685D4600280CBF04F1AE0880463F
:102E0000706828B9E88904F1AE07A4F8AE0000E0C4
:102E10000746606909282CBF4FF0020A4FF0010AEB
:102E2000D6F80090B9F1000F24D0606909280CD3BE
:102E3000286839880AF0B7FE286869460AF0B2FDAA
:102E4000BDF80000A8F800000BE0286839780AF007
:102E5000AAFE286869460AF0A5FD9DF8000088F8DA
:102E60000000B36803B1D044736803B15744B9F1AB
:102E70000109DAD12968C8684008FCD3DBF80010E2
:102E8000486820F00200486077680AF050FF054665
:102E900094F8E00078B117F0704F06D12FB10620FA
:102EA00008F012FC042008F00FFC022008F00CFCD3
:102EB000019884F8E00028460AF011FF0198D4F840
:102EC00088100874C4F888000120019022E0204690
:102ED000594602F027FADBF80010486940F001007B
:102EE000486120780028EFD1616804F16C00054644
:102EF0000AF0ABFB0028E7D0D4F88800017C012958
:102F000004BF03210174384603F044F801992846B0
:102F10000AF09BFB0198BDE8FE8FC04600000680CA
:102F200000B5ADF1140D0191009002A80AF0C5FEA4
:102F300003208DF808004FF0004002A906F066FC5F
:102F40006C4908604FF0804002A906F05FFC6A49B6
:102F500008606948006830B16748006800210022B5
:102F600039A309F0A7F96348006830B161480068E7
:102F7000002100223CA309F09DF96148614904F059
:102F800075FA5E4908605D48006810B93BA00AF018
:102F900001F84FF4803001214FF47F6206F0B0FF5A
:102FA00059480AF0A9FA0AF00DFE5A485849574AFA
:102FB0000068B1FBF0F110680AF0F3FE53480068B6
:102FC0000AF0DEF95548564904F050FA52490860B3
:102FD0005148006810B934A009F0DCFF4E4851494F
:102FE00000680AF0E5FC10B137A009F0D3FF4E48A5
:102FF000006800214FF0FF324FF0FF3302F0E2FE95
:1030000003900398400813D306200AF039FA0022EF
:10301000002100B1012101B90122384800680621D0
:1030200008F0B2F94148008806F0AAF900F084F9E6
:103030000398800801D300F07FF90398C008D6D325
:1030400003A801F0D7FFD2E757616974696E672062
:10305000666F72205343452041444320726561648A
:10306000696E672E2E2E00C057616974696E6720E5
:10307000666F72204144432E2E2E00C04572726F3F
:103080007220696E697469616C697A696E67206221
:103090006F61726420332E335620646F6D61696EE8
:1030A0002070696E730A00C04572726F7220696E7B
:1030B000697469616C697A696E6720627574746F8E
:1030C0006E2070696E730A004572726F72207265AD
:1030D000676973746572696E6720627574746F6E68
:1030E0002063616C6C6261636B2066756E637469EA
:1030F0006F6E00C0841D0020881D0020801D0020F0
:10310000141F0020DC3800207DC60000781D002040
:1031100080C3C901740501007C1D0020FC1E002035
:10312000AC380020FDB60000701D0020741D00208A
:1031300010B5ADF1300D079005208DF826006F48D1
:10314000007810B16E48007808B10120D3E00798EC
:10315000007B802801DD0220CDE06A480068002164
:1031600003F07EFA08B90920C5E067480078E0B1AD
:10317000664907980978007B4018801C00F0FF0022
:1031800040F4C050ADF82800614902200870BDF835
:103190002800604900F0FF000870BDF828005E4973
:1031A00000F47F40001208700AE0594901200870BD
:1031B000564907980A78007B564980180870FFE73F
:1031C0005348524A534B079900781278C01804F0BC
:1031D0008BFA4F494D48079A0C784E4B0078079967
:1031E000127B00190D31C01804F07EFA474A079887
:1031F00047491378007B0A784849C018801808802E
:10320000444847490860079806F0B0F908900798C5
:103210008068C8B143484349007820F00F0040F06F
:10322000020008703F49087840F080000870079855
:103230003D49806808603C48089900684FF47A620C
:1032400002FB0100049014E03649087820F00F00DA
:1032500008703449087840F0800008703249002036
:10326000086005F025FF08994FF47A6202FB01001F
:1032700004902E48007888B101208DF814004FF09A
:10328000E24102208DE8030029482A49006804AA87
:103290000023FEF787FFADF824000DE002204FF079
:1032A000E2418DE803002248224900680122002300
:1032B00003F07EFCADF824001D48BDF92410006821
:1032C00002224FF0E24303F095F802AA82E80300DD
:1032D00002A890E80C00022100201140184000D103
:1032E000002902D000208DF826000648006806F06C
:1032F000FDF99DF826000CB010BDC04642380020F4
:1033000043380020441E002044380020403800206C
:1033100041380020C4190020C5190020E41C0020F9
:10332000F01C0020E01C0020DC1C0020463800209F
:10333000401E0020D41C00200EB57448007818B937
:103340000AF078FB7149087071480078B8B9714883
:1033500000680AF003FB6D4800786E490090086829
:10336000002239A3002108F0A5FF6B4800886949B5
:1033700000900868002238A3012108F09BFF6348F1
:103380000078664900900868002236A3002108F002
:1033900091FF61480088614900900868002238A3C5
:1033A000002108F087FF5A480078B8B15C480088CF
:1033B0005C4900900888594901900868002236A3AA
:1033C000002108F077FF58480068544900900868C9
:1033D000002236A3002108F06DFF33E0534890F936
:1033E0000000B0F1FF3F2DD023E04C4800680021E1
:1033F000002234A308F05EFF484800680AF0B4FADF
:1034000020E0464800680021002235A308F052FF62
:1034100018E0424800680021002235A308F04AFF66
:1034200010E03E4800680021002235A308F042FF6A
:1034300008E03E4800780028D7D0401EE9D0401E62
:10344000DFD0EEE70EBDC0464E6F646549443A20BA
:1034500030782530327800C04144433A202530345A
:103460006400C0461B5B324A201B5B303B30484E39
:103470006F64652049443A2030782530327800C0A6
:103480004E6F6465204144432052656164696E67F4
:103490003A202530346400C04F414420426C6F63B1
:1034A0006B3A202564206F66202564004F4144203C
:1034B000426C6F636B20526574726965733A2025A4
:1034C0006400C0464F41443A20636F6D706C657470
:1034D0006564207375636365737366756C6C7900DE
:1034E0004F41443A20435243206661696C65640051
:1034F0004F41443A2061626F7274656400C046C0F7
:103500004F41443A206572726F7200C09D380020AE
:1035100090380020841D0020741D0020881D00208C
:103520009238002094380020983800209C380020E1
:103530002DE9F043044665480E4601681F461546CE
:10354000ADF12C0DBEB1B5B130784FF0010808FADD
:1035500000F001420FD01046002105F0DFFEA5600B
:1035600066600AF0E4FB5A4D81462878022804DBA5
:1035700048460AF0B4FB0020A5E0002861D101F024
:10358000F7FA5449086840F00200086007A80AF0FA
:10359000C1F8514E5149707807AA099005F5847019
:1035A00007F044FE4E4905F59E7007AA07F03EFE5F
:1035B00007A80AF07FF8192107AB3078494A08902C
:1035C00005F1380007F07CFD474A05F154001A2147
:1035D00007AB07F075FD4549002205F19000134641
:1035E00006F08AFD4249002205F1B400134606F0B8
:1035F00083FD404A05F124000421002308F0EAFE7F
:10360000B078012802D10E2003F02EFB05F17800DE
:1036100009F022FF05F1700009F01EFF002085F877
:1036200020002875E861072185F8D01185F8210070
:10363000314B1870A8600526E860304A2E61287862
:10364000AA6105EB8001401CC1F8D840C0B22870C7
:1036500048460AF044FB1FB9684609F01BFF6F4655
:1036600038684FF4FA76E6602060B86941466062D7
:10367000388A6175E082786800280CBF40F6C41073
:10368000002120611E48E06120622175A061F86878
:1036900000B1E061786900B12062B86800B1A06152
:1036A000782204F13000002104F0C8FF04F1480042
:1036B000002108F0E1FC1349002204F180001346C8
:1036C00006F01AFD20460BB0BDE8F083D421084077
:1036D000200D002000200940B004010021D100008D
:1036E000C9640000999B0000DD8900009DC90000AD
:1036F00065CD000099A10000791E0020055B000047
:10370000DB710000C7DC000000B5ADF1240D0691AF
:10371000059006208DF820005848007810B15848D0
:10372000007808B10120A7E05648B0F90000002851
:1037300001D40920A0E054480068002102F090FF65
:1037400008B9092098E0059850490860504807904A
:1037500007988921C1800798002101714D49079878
:1037600008604D49002008604A484C4908604D48AF
:103770004B490860069880B14B484B49007820F0CF
:103780000F0040F0020008704749087840F08000C0
:1037900008700698454908600CE04349087820F015
:1037A0000F0008704049087840F0800008703F49D9
:1037B000002008603E480068A0B13E483D490078BE
:1037C00020F00F0040F0020008703A49087840F0FD
:1037D0008000087005F06CFC3549374A09684018CC
:1037E00010600FE033483349007820F00F0040F0BC
:1037F000010008702F49087840F0800008702E49B9
:1038000000200860274800210C2204F017FF2B48F5
:103810000078A0B101208DF80C00274800680290C4
:10382000294B4FF0E24102208DE80300244825494E
:10383000006802AAFEF7B6FC124908800DE00220DB
:103840004FF0E2418DE803001F4B1D481D49006801
:10385000012203F0ADF90B4908800A48B0F90000D5
:10386000002803D400208DF8200003E006480068FB
:1038700005F03CFF9DF8200009B000BD4238002053
:103880004338002054380020441E0020381E0020F9
:10389000941800206C1F0020701F0020101C0020B6
:1038A000141C0020381F0020F41B0020F01B0020F7
:1038B00048380020071C0020081C00204638002043
:1038C000401E0020E81B0020853A00002DE9FC4F37
:1038D00083F0004301E02DE9FC4F1F03FF0847EA96
:1038E000D2574FEA42284FEA43095FEA595906D1B5
:1038F00047EA080A1CBF00210020BDE8FC8F57F0F2
:1039000000575FF4E06E1EF1FF0EF14505D14FF058
:103910000000190D0905BDE8FC8F002B05D55FF0EF
:10392000000AD8F100086AEB07070C03E40844EA30
:10393000D0544FEA40254FEA4106760D08D144EABB
:10394000050A19BF00210020191C101CBDE8FC8FBE
:1039500044F00054764504D10020090D0905BDE866
:10396000FC8F002904D55FF0000A6D426AEB040465
:10397000B6EB090E08D5A2463C465746AA46454630
:10398000D046CEF1000E4E46BEF1360F5CBF4FF072
:10399000000B23E0BEF1000F04BF4FF0000B1AE054
:1039A000CEF1390ABAF120092EBF08FA09FB07FA4D
:1039B0000AFB4BEA080BDEF1200A07FA0AFA38BFC5
:1039C000BA4647FA0EF72DBF28FA0EF8AEF1200ED0
:1039D0004AFA0EF8D04415EB08057C4154EA050A72
:1039E00002BF00210020BDE8FC8F002C58BF4FF023
:1039F000000A06D55FF0010A5FF0000E6D426EEB23
:103A00000404A6F101066D006441FAD515F4806E38
:103A100011D005F480794BEA090B15F5806554F156
:103A2000000428BF761C0BD205F400795BEA090B71
:103A300008BF25F4006525F4E0656D0044EB04043F
:103A4000B61CDEBF00210020BDE8FC8F5FF4E06EF5
:103A50001EF1FF0E76450AD34FF0000013F000432D
:103A6000FF21C900C91D09051943BDE8FC8F2705C1
:103A700047EA1530210B41EA065141EACA71BDE817
:103A8000FC8F704700B5ADF1140D8DE80C00ADF85A
:103A90001010029006208DF81200534803909DE804
:103AA0000C0002210020184001EA020100D1002987
:103AB00078D04E48006805F019FE4D494FF0FF30B0
:103AC00008804C480088B0F5505F5DD103980079BC
:103AD000032803D006208DF8120079E046480088BC
:103AE000012808D045480078C011400838D3444820
:103AF0000078012834D1444903980A78007A414972
:103B0000801A08704148007818B1414902200870B5
:103B100002E03F49012008703D483B4A0399007884
:103B2000127809183B48083103F0DEFD384B36485F
:103B3000344A03991B7800781278C9180918364856
:103B4000083103F0D1FD3648344990F9000008707F
:103B5000354834490068086000208DF8120037E0CD
:103B600032480078012803D108208DF812002FE098
:103B70002F480078012803D10A208DF8120027E091
:103B800006208DF8120023E01A48008843F2014114
:103B9000814203D107208DF8120019E006208DF82C
:103BA000120015E09DE80C004FF0E24000211840A3
:103BB00001EA020100D100290AD00C48006805F092
:103BC00095FD0B494FF0FF3008800A208DF8120058
:103BD0001848006830B117489DF812100068024676
:103BE0000C48904705B000BD94180020441E0020EA
:103BF00054380020EA1B0020381F0020F61B00204C
:103C00003C1F00204019002040380020443800208C
:103C1000413800202C1900204119002034190020BF
:103C20003F1F002038190020401F00203E1F0020A9
:103C30003D1F0020381E00202DE9F04FADF1240D6E
:103C4000079000F095FF5F48007808F087FB5E4D15
:103C50000024012806D90C3804D0401E0ED0401E86
:103C600009D006E009F0F0F9022804BF01210C1C7C
:103C700006D0696805E005211F2401E0032107241F
:103C80006960524A1068C0F38150012806D152F889
:103C90000C0C0127020E07FA02F0044309F022FD82
:103CA00005F1440AFF2253464018401E471C286075
:103CB0007F1E03F8012BFBD1079A1268002602F041
:103CC000FF03FE2B1DD0DDF81CC0964633460EF0D8
:103CD000FF07FF2F0ED0B84205D3B94203D8012207
:103CE000BA40144201D0022069E016430EF0FF02F0
:103CF0000AF802305CF804EF5B1C0EF0FF07FE2FA1
:103D0000E7D1092002F0B0FF07980121A86005F172
:103D1000280008F0B1F900274FF0010BB9462846FA
:103D2000804600F198050BFA07F0044216D10642CE
:103D300004BF07F0FF0141F4C04104D01AF80700A6
:103D4000079951F82010224801F064FEF8B24FF0B4
:103D5000FF3108F003FEC5F8009001E00420286060
:103D6000D8F800007F1C2D1D8742DCD904A809F07B
:103D7000A1FC184C184A2078102104AB059008F1DA
:103D80000C0007F09DF9684609F0C4FCCDF80C90D2
:103D90006A4660681149029008F1640007F046FA2B
:103DA0000F4951F80D0C20F4F85040F4005041F840
:103DB0000D0C0C4FC1F8FFBF4846C7F800B009B062
:103DC000BDE8F08F7A1E0020902F0020B43F0050F5
:103DD000007FC767E404010049CD000041AE000048
:103DE0000D300940080009402DE9F843614C5A4D57
:103DF0005A4EDFF870815E4F94F8E4100846401E7A
:103E00000B2864D8DFE800F07B2C4306234306230D
:103E100043067664042907D001220A2945F8212C9B
:103E200014BF0220032004E0202045F8210C0120CB
:103E3000024684F8E200002045F8390C0827C5F84E
:103E4000FF7FC5F8F37F45F8392CBDE8F8830529D5
:103E500014BF09200620002784F8E400376075E0CD
:103E600094F8E170383D0120002FC5F81B0004BF15
:103E70000620002102D00021F160032084F8E40034
:103E8000032045F8010C3160306880085ED294F858
:103E9000E4103348012703290ED00068456800214B
:103EA0006022052300914046A84794F8E4000628C4
:103EB00014BF0A200720CFE7006845680021602270
:103EC0000523022000904046A8470420C4E7FEE7EF
:103ED0002548264F0026012506600E203D6002F091
:103EE000ABFD022007F0F0FB84F8E45084F8E360B7
:103EF000BDE8F883002038600C25786024E04FF09E
:103F00008059D9F8A0010168202088472C3D0F2056
:103F100045F8010C41F61D56C5F80360D9F8A40117
:103F2000466800214FF4C0720723022540460095E1
:103F3000B047D9F8A401C66800214FF4C072072326
:103F40004046B0470120386084F8E45004F178001E
:103F500009F0E7FEBDE8F88339400C4038600C40BA
:103F6000A401001000A00C402C500C4004800C4018
:103F700034600C40A430002007B401B400B5ADF1AA
:103F8000040D8DF80030454900200870454844492B
:103F9000007808704548444900780870454844490D
:103FA000008800F47F4000120870424842490088AF
:103FB00000F0FF00087042484049008800F47F404C
:103FC000001208703E483F49008800F0FF0008706A
:103FD0003E483D49006800F07F40000E08703B48B5
:103FE0003B49006800F47F00000C087037483949ED
:103FF000006800F47F40000A0870344836490068C1
:1040000000F0FF00087036483449007808703549E0
:104010000C20087034499DF8000008703349069858
:10402000086033490020087006984FF47A614143D4
:10403000032001F0DFFD1948FFF77AF810B108A05E
:1040400008F0A8FF2B480021FFF75EFB10B10BA082
:1040500008F0A0FF01B05DF804EB04B07047C04663
:10406000456173794C696E6B5F7472616E736D69D3
:1040700074206661696C656400C046C045617379EF
:104080004C696E6B5F726563656976654173796EC5
:1040900063206661696C656400C046C060170020DB
:1040A0006D170020081F00206E170020091F002038
:1040B0006F1700200A1F00207017002071170020C2
:1040C000101F002072170020731700200C1F002003
:1040D000741700207517002076170020771700202E
:1040E000121F00206C170020F1170020F417002089
:1040F000F01700207D6E00002DE9F84F064693462C
:104100000868DBF8005007784FF000081C46C246EC
:10411000421C242F0A602DD110F8017F531C532F0D
:104120000B6027D1ED1C25F003052D1D55F8040C5F
:10413000E061CBF80050208B0090A168E269306804
:104140005B46FDF715FD8246306848B1A06800283F
:1041500003DD5045D8BFA0F1010A306850443060FB
:10416000DBF80050206846464FF00108E660A0EBFF
:104170000A002060662F06D0B8F1000F64D1E16913
:1041800001200F705FE0208B40B9ED1D25F0070581
:104190000835A5F1080090E8000309E0ED1C25F0C2
:1041A00003052D1D55F8040C07F096F98046894645
:1041B0002AA20CCA4946404603F0B0FF28BF002798
:1041C00005D2206989F000490127401E206125A2FF
:1041D0000CCA4946404603F0E4FF31D3404606F09E
:1041E000AFFA064607F07DFE0B46024649464046BA
:1041F000FFF76CFB1DA20CCA01F09AFA06F0B0FCA6
:104200000146606904220A2304F070FD401EE0614B
:104210002E21017063692269E06931461B1AE3604F
:10422000D21A0A2304F062FD002F08BFE06104D017
:10423000401EE0612D210170E0696169081A02E009
:1042400004A0E0610720E060CBF800505046BDE8D4
:10425000F88FC046286572726F7229000000000056
:10426000000000000000C0FFFFFFDF410000000071
:104270000088C3402DE9FF470646880FC0F09980AB
:10428000002005F0E9FD4C4809F034FA012002F065
:104290008EFC4A4C40F60A09A4F80090002565807F
:1042A000207B05F00F0120F00F00014321736560B2
:1042B000607B4FF0010808F00F0720F00F0047EA7D
:1042C00000013046617304F0B5FDD6F808A04A46F7
:1042D0002146D01F574600F1010C00E027467C68BC
:1042E00034B123889A4203D0984218BF9C45F5D137
:1042F00079607A7B354C05F00F0322F00F021343EF
:104300007B73236F33B1DA681288904224D0604601
:10431000904221D0338E03B3756306F1300255808D
:1043200096F83C0005F00F0320F00F00034386F8D9
:104330003C3096F83D0008F00F0320F00F000343D7
:1043400086F83D304A60487B05F00F0620F00F00EC
:1043500046EA00054D7300E0A5605046694608F046
:10436000DDFA684609F0B6F909F09EF81448A06134
:1043700094F8210080B913480068016840468847D6
:1043800001280FD0787B08F00F0120F00F000143C7
:1043900079730D4EA66105E006F072FD0028FBD092
:1043A00009F0CFFC504609F0A5F95146404608F007
:1043B0002FF90090BDE8FF8701010E047C1E00204C
:1043C000C5160000E0010010419B0000200D0020F8
:1043D0002DE9FF4104466668A7680D4609F0A7FC71
:1043E0003178012903D109F07AFC00208EE0012107
:1043F000317009F074FC287870706878B070686863
:104400007060A868B060E868F06028693061287D55
:104410003075687D7075A87DB075A869B061287F1A
:104420003077687F7077A87F4FF0000843461D46BD
:1044300086F82851B07786F82951C6F82080336372
:1044400075627563B562B56386F82C5086F82D5099
:10445000786802F009FC204603F0E0F9204603F0FA
:1044600029FA60B9386808F069FA786802F0E4FA65
:1044700009F05DFC357009F032FC2C4645E06846D9
:1044800009F018F90094387B224A0190B9686B460C
:1044900006F17C0006F014FE684609F03BF9009432
:1044A0001D4938696A46029006F1980006F0BEFE82
:1044B000B07830B906F1CC00294607F0DDFD174889
:1044C0003061707830B906F1E800294607F0D4FD74
:1044D0001348F060684609F061FB01958DF80050C3
:1044E0001049029406F582700A226B4605F004FE1C
:1044F000B969FA6906F13C0009F09EF80A4A06F12A
:1045000068000421234607F065FF20460090BDE8BF
:10451000FF81C04685460000AD970000A7DC000083
:104520006FDC0000A9A8000035D80000B0B54568D0
:1045300084684F48297BADF1180D012916D0217EE2
:10454000627E4C4B2F7E0143009143EA02010191B0
:10455000494937F0010718BF081CA27E104302909A
:1045600095F895000322FF2811D00DE0677E217E8B
:104570003843A37E019041F00041009143F0004098
:104580003E49029095F89500014304220391FE20D4
:104590004DF82200694605F1980002F067FFC5F862
:1045A000A400002808BF00205FD0287B344951F8C0
:1045B000200001282BD02068B0F1804F14BF2222A8
:1045C0000A22217ED5F8A40007F04EFA2068B0F147
:1045D000804F14BF21220922617ED5F8A40007F084
:1045E00043FA2068B0F1804F14BF24220C22A17E30
:1045F000D5F8A40007F038FA95F89510FF2933D0C4
:104600002068B0F1804F14BF23220B2228E02068DD
:10461000B0F1804F14BF21220922217ED5F8A400D9
:1046200007F022FA2068B0F1804F14BF22220A223C
:10463000617ED5F8A40007F017FA2068B0F1804F2A
:1046400014BF24220C22A17ED5F8A40007F00CFA96
:104650002068B0F1804F14BF23220B2295F89510EB
:10466000D5F8A40007F000FA012006B0B0BDC0469E
:10467000000480A0004000800004C0A00020008052
:104680002CFF00002DE9F84F8046D8F8086030680C
:10469000D8F80450076CDFF830B14764AB6B6A6C34
:1046A000286C17F4F06F1946A0EB020934D1F80911
:1046B0001ED2780974D3B1B196F821205846801DD6
:1046C000845C601E814294BF1C1C641E40462146CF
:1046D00007F0F0FBA86B001BA86361D105F19800FF
:1046E000012109F03AFB4046494607F0D7FE57E062
:1046F0000029F8D0404607F0DDFB95F82D10A8639F
:1047000011B900284CD101E00020A86305F1980000
:10471000012109F022FB43E0F80A20D24FF0000A01
:10472000544602E0AB6B5B1EAB6393B14046012184
:1047300007F0C0FB3068446814F00F04C0F804A010
:10474000F0D0286B401E2863686B401E6863A86B1E
:10475000E8B905F19800012109F0FFFA13E030688B
:1047600044680022202904F00F044260CCBF4FF0BF
:10477000200A9A464046514607F09CFBCAF12000A9
:104780008145C8BF81464946404607F087FEEC7721
:10479000404605F01EFF726A12B14046214690471E
:1047A000B8090FD3A96A69B10F46404607F0F5FB77
:1047B000A86238B996F820205946895C4046C91944
:1047C00005F012FDBDE8F88F78FE000000B5ADF1F0
:1047D0001C0D0020ADF8080008F09AFA009000982F
:1047E00080090190444801990088B0FBF1F08DF8F0
:1047F0000D004148019A9DF80D10008802FB110040
:104800008001ADF80A003D48008838B13B49BDF849
:104810000A00098840184038ADF80A0038499DF868
:104820000D00098840188DF80D00354800788DF886
:104830000C0049E032489DF80C100088884201D1F4
:10484000042000E00020ADF8100027E09DF80C00E7
:10485000BDF8101005AA042307F0A4FE00208DF86F
:1048600018009DF81800042813DA9DF818000DEBC5
:104870000001BDF80800097D03F0C6FBADF8080093
:104880009DF81800401C8DF818009DF818000428A9
:10489000EBDBBDF81000001DADF810000098BDF86E
:1048A000101088420BD99DF80D009DF80C1088421D
:1048B000CCDCBDF80A00BDF810108842C6DC9DF8BB
:1048C0000C00401C8DF80C009DF80D009DF80C109C
:1048D0008842AFDABDF80800002103F095FBADF87F
:1048E0000800BDF80800002103F08EFBADF80800B9
:1048F000BDF8080007B000BD54390020563900202B
:10490000241F00202DE9FC4705466E68D5F8088075
:1049100037780FB1B76B1FB14FF0FF30BDE8FC87A0
:1049200031630024F477171C74631BD006F13C0933
:1049300009F0FDF982466946484606F0E0FB00288A
:104940001ED4504609F0CBF99DF80000316B087079
:10495000306B736B7F1E00F10100306303F10100C7
:104960007063E5D17078726B316B0128A1EB0201A5
:10497000316303D1F36828469847726B144659E0B7
:10498000B763D8F80010086B40F400700863D8F8DB
:104990000010886B40F4FA608863504609F09FF974
:1049A00006F5947008F05AF8707806F5947768BBAD
:1049B00009F0BDF996F82D1069B1716B59B1B16B61
:1049C00049B1B46309F08BF906F5947008F036F834
:1049D000706BBDE8FC8709F082F9716806F1E805A3
:1049E000284608F032FE0028F2D0B463284621465B
:1049F00008F02BFE0028EBD0384608F01FF81027EF
:104A0000716B306BF777401A3063E1E709F08FF98B
:104A100096F82D1061B1716B51B1B16B41B1B463B6
:104A200009F05DF906F19800012109F096F901E01D
:104A300009F055F92046BDE8FC8770472DE9FE4F87
:104A40000CAF1D468B465FEA02083E78009014BF0B
:104A50004FF080494FF0005909F069F90324DFF85D
:104A600000A10190BBF1FF3F14D152460098D2F84B
:104A7000801008F047FE50B9D2F88410009808F072
:104A800041FE00280CBF176FD2F8847008E0D2F8FE
:104A9000807005E000985946002206F08BFB07461F
:104AA000002F56D097F83F0030F07F0050D054468A
:104AB000D4F88000B84217D0D4F88400B84213D09C
:104AC00000982A463346394602F0D8FF00283FD0E6
:104AD000207D01283AD0207D042837D0214904F5D3
:104AE000847009F03AF931E0D4F880004B46002296
:104AF00006F07EFBD4F884004B46002206F078FBDB
:104B0000B8F1000F14BF1848184807F03BFCB6B1C5
:104B1000D4F8800000224FF0807306F069FBD4F8CF
:104B2000840000224FF0807306F062FB3869C4F8FD
:104B3000F80094F8040140F0010084F804012DB15C
:104B4000216F00982A46334602F098FF832400E044
:104B50000424019809F0C3F82046BDE8FE8FC04642
:104B6000200D0020020000400100020401000104A9
:104B70002DE9FF47484C94F8E700002876D13E4ED7
:104B800001273C48F57C84F8E770736884F8E650A8
:104B90000068C4F81031C0F3801084F8E80068465B
:104BA00008F0FCFF002504F10C0001956B468DF820
:104BB0000050324902952A4605F09EFA304904F128
:104BC00030006B462A4605F097FA2E4904F154004E
:104BD0006B4681462A4605F08FFAB1683846884709
:104BE000DFF8B0802848327D08F104030078284EB1
:104BF0001868C0F3815A22B1BAF1030F04D184F8C6
:104C0000E170BAF1030F17D0BAF1020F14D0BAF164
:104C1000010F0ED0022006F03FFF1C48006801681B
:104C200004208847012804D030683221B1FBF0F11C
:104C30000DE006F019FB12E0022006F02DFFBAF19C
:104C4000030F0CBF4FF47A7142F210713068B1FB60
:104C5000F0F1484609F063F8484609F062F840462A
:104C60000068C00802D2284606F016FF0020009017
:104C7000BDE8FF8714100940440301009380000041
:104C8000C97300004D8A00007A1E0020E001001068
:104C9000881F0020B03F0050A4300020F8B5474CDA
:104CA000241F04F17005286800260746E0B1D4F8F7
:104CB0008400F0B9D4F88000E8B1D4F880103869E5
:104CC0000969884215D197F83F00400911D3D4F8FB
:104CD0008000C06840880028F9D0D4F88000C068FF
:104CE00040880128F3D006E004F58470022109F021
:104CF00034F8002E5ED060683969884254D1684625
:104D000004F0E0FD58B1009848B1D4F8800030B903
:104D1000D4F8840018B9082006F06EFBF8BD08200E
:104D200008F02EF897F83F0004F58476C0F30010E1
:104D300028B9284607F07AFDC4F8800004E0284628
:104D400007F074FDC4F8840007F1180003C81A497D
:104D5000C4430B1F1C601A681042FBD10A68104341
:104D60000860F869C04341F80C0CF86951F8082C48
:104D7000104341F8080CF868044607F003FB20884C
:104D8000A0F6020040B141F21E01401A04D041F6E3
:104D9000E671401A012803D80120214607F038FCAB
:104DA0004FF08041304603E004F584704FF4806199
:104DB00008F0D3FFF8BDC04614100440240D0020B5
:104DC0002DE9F04304466568A7680E46ADF1140D61
:104DD00008F0ADFF95F8E11019B108F080FF002050
:104DE0006EE04FF0010985F8E19008F078FF4FF090
:104DF0000008C5F888803069286170696861307E74
:104E00002876307B287330782870706885F8AC80FD
:104E1000686070694146092828BF494685F89410A2
:104E2000387B01F021FF204605F040F8F87E85F838
:104E300095002046FFF77AFB30B9387B01F0FCFD86
:104E4000444685F8E1803AE0684608F033FC009477
:104E500078791D4A019039796B4605F11C0006F0FE
:104E60002FF9684608F056FC00941849B8686A465D
:104E7000029005F1380006F0D9F904F07FFDC5F87D
:104E8000A800287B012808D1D5F8A400104908F013
:104E90008FFDD5F8A40000B184600E4A05F1CC0066
:104EA0000421234607F096FA287830B905F16C0002
:104EB000414607F0E1F8084800E0B068A8602046E5
:104EC00005B0BDE8F083C0460D750000D97D000037
:104ED00051AA000065DA00005FDC00002DE9F8430C
:104EE000424C183CA06FA56F04F1780900287BD0D4
:104EF0000646F06840F603020827531C02E04068AB
:104F00007F1EFFB260B15FB101888A4218BF8B4239
:104F1000F5D131694CC830314CC189C881E889006C
:104F200005F1280090E80C00002705F12806B84696
:104F300086E88001A96879B13E464FF0E24006EA72
:104F4000020110EA03070EBF002932400340B5F901
:104F50003C10AE682869B04708F0E9FE0646B4F98F
:104F60008E00401C6FF31F30A4F88E00484685F871
:104F70003F8007F05BFC304608F0B1FEB4F98C00CE
:104F8000B4F98E1088422FD16068D4F8D860D4F874
:104F9000DC7090F8A41000290CBF0520072003F056
:104FA00085F940462EB196F8A45005B9306886F8C8
:104FB000A48041462FB197F8A46006B9396887F8F4
:104FC000A480814238BF011C61B1B1F1FF3F0BD019
:104FD000074A126804F1B400B1FBF2F108F08EF94F
:104FE000BDE8F88307F0BEFEBDE8F883380D002069
:104FF000881F00200EB500903A49009809680068A3
:1050000001426DD03848007820B108F07FFA364967
:10501000002008703548007830B3364834490068BD
:105020000988884220D1344A1068411C0328116045
:1050300012D92E4900200870002006F075FD0020CE
:1050400006F08AFD08F007FE012005F07DF82949E9
:105050004FF0FF30086003E026490868401E0860F2
:1050600026490868401C086020480078002837D08E
:1050700023481F4900880988884219DD1C481D49BA
:10508000008808601A4802881E480123002102F0A7
:10509000A5F817481A49194A00880988126802F0C9
:1050A00055FE502006F058FDA02006F03DFD17E00B
:1050B00005F086FE8DF804009DF8040005F044F824
:1050C0000A49002008709DF8040030B90649012003
:1050D0000870A02006F028FD02E0002006F024FD64
:1050E0000EBDC046541F00206C3800205D380020E3
:1050F0005A380020683800206038002064380020CA
:10510000583800205C3800202DE9F041414C05461C
:10511000207800287AD0B4F98E00B4F98C10884237
:105120001DD004F1700128460E4606F095FE70B9B8
:10513000D4F88010284608F0E5FA28B906F10801ED
:10514000284606F089FE01E0D4F8800038B1B0F9B5
:105150003C100A224FF0E043284601F04BF908F0DA
:10516000E6FD804604F1D8000168A94219BF002677
:105170004660002606602078401EC0B22070A8BBA2
:105180006560207D02280ED1082006F035F94046E2
:1051900008F0A5FD05F148004FF0FF3108F055FA81
:1051A00008F0C5FD804604F5847008F0D0FD04F1D8
:1051B000380008F0BAFD04F59E7008F0C8FD04F14F
:1051C000540008F0B2FD04F1900008F0A2FD04F1D3
:1051D000B40008F09EFD04F1240007F0CFFB0C485A
:1051E0000078012802D10E2001F026FC606805F14C
:1051F0004807854208BF6660404608F070FD3846A3
:1052000008F0A1FD05F1800008F083FDBDE8F08104
:10521000B2040100200D002010B5ADF1180D009072
:1052200039480078082801D1002000E004208DF8DA
:10523000100007F06DFD35490860009802F0A2FAF1
:1052400001A802F01DF89DF810109DF81000009ABA
:10525000009B891CC01C515C185C2D4A00F0FF00AB
:1052600001F0FF0101EB002188B2C11000EB1170C9
:10527000001110809DF810109DF81000009C009BFC
:10528000234A891CC01C595C205C1388214A00F009
:10529000FF0001F0FF0101EB002188B28000A0EBCC
:1052A000831010801B48008818B119490888401CD9
:1052B0000880194900200870154A00989DF81010C0
:1052C0001288401801A901F033FFB0B19DF8101009
:1052D0000098401806F08CF91049086007F018FD96
:1052E0000E490A680E49B2FBF0F0088007F048F951
:1052F00030B907490020088002E0054900200880F5
:105300000348008806B010BD59390020281F00202E
:10531000543900205639002058390020201F002021
:10532000241F00202DE9F84FD0F88890D0F88CB0D9
:10533000D9F80020A2EB0B02B2F5806F88BF4FF4C2
:105340008062C0F89020D0F8908090F894C00C68EB
:105350001FFA88F2B4F1804F02FA0CF21FFA82FAB7
:1053600014BF314B314B2D4AD9F808703FB94FEA81
:105370008C050095AD18AE6900F1AE050AE04FEA64
:105380008C050095AD182E690CF101050BFB057518
:1053900055446D1E9E6096465D604FEA081643F6C2
:1053A000F07204F10805103E1D6032409E68B4F1B1
:1053B000804F42EA06069E600CBF194E194ED9F87E
:1053C00004706FB9CC89009BA0F8AE4073449B6910
:1053D000B36000F1AE0737600C6804F108050AE01D
:1053E000009B73449B68B3600CF101030BFB0373D8
:1053F00053445B1E33607560B3681A43B260D0F8E3
:10540000A8000A6940684969006811438162606ABE
:1054100040F003006062BDE8F88FC0462CFF00003A
:10542000400400201005002000050020300400206A
:10543000ADF1300D3C4800903C48019038200A9076
:10544000009850F8041B00900291009850F8041B3B
:1054500003910090009850F8041B0491009000986C
:1054600050F8041B05910090009850F8041B069119
:105470000090009850F8041B07910090009850F895
:10548000041B08910090009850F8041B09910090AB
:105490000198011D0191029901600198011D01917E
:1054A000039901600198011D01910499016001981F
:1054B000011D0191059901600198011D0191069955
:1054C00001600198011D0191079901600198011D7A
:1054D0000191089901600198011D019109990160EC
:1054E0000A98401E0A90ABD1009850F8041B009017
:1054F0000291009850F8041B03910090009850F816
:10550000041B049100900198011D01910299016012
:105510000198011D0191039901600198011D0191FC
:10552000049901600CB070474CEC000000C00021F1
:10553000ADF1300D3C4800903C48019038200A9075
:10554000009850F8041B00900291009850F8041B3A
:1055500003910090009850F8041B0491009000986B
:1055600050F8041B05910090009850F8041B069118
:105570000090009850F8041B07910090009850F894
:10558000041B08910090009850F8041B09910090AA
:105590000198011D0191029901600198011D01917D
:1055A000039901600198011D01910499016001981E
:1055B000011D0191059901600198011D0191069954
:1055C00001600198011D0191079901600198011D79
:1055D0000191089901600198011D019109990160EB
:1055E0000A98401E0A90ABD1009850F8041B009016
:1055F0000291009850F8041B03910090009850F815
:10560000041B049100900198011D01910299016011
:105610000198011D0191039901600198011D0191FB
:10562000049901600CB0704758F3000000C00021DD
:105630003EB500902D480068C00801D3022054E018
:1056400000992B483CC93CC03CC93CC01EC980E8FD
:105650001E002849FF2008602749012008602848CB
:10566000264902880968274802F03EF82648006863
:105670008047264942F22B000860254942F60B304C
:10568000086024494FF480700860234900200860B6
:105690002249012008602249012008602149012097
:1056A00008602048006808F0EEFA01900F49086889
:1056B00040F0040008601C481B49006820F07C5042
:1056C00040F034500860019808F0C6F917480068A7
:1056D00006F05AFA08F08FFA08F09CFA06F06CFA15
:1056E00008F08EFA08F0A0FA00203EBD1010094024
:1056F000181C002000600C4054600C40281C002046
:10570000261C002000000E40341C002000500C40DD
:1057100004500C4000100E4034500C4018500C4007
:1057200008600C4048600C40003009402C200940C3
:105730002DE9FC4191EA03084CBF4FF000484FF0BF
:1057400000084FEAC32545EA52554FEAC2264FEA00
:1057500043077F0D11BF45F0004500210020BDE843
:10576000FC815FF4E06E1EF1FF0E774555D04FEAE5
:10577000C12343EA50534FEAC0224FEA4104640D6B
:1057800011BF43F0004300210020BDE8FC817445B7
:1057900043D0E419A3FB0501A3FB06E7A2FB0663C4
:1057A0001EEB030E57F1000751F10001A2FB056348
:1057B0001EEB060E57F1000751F10001FF1851F1E1
:1057C0000001C01951F100014CBF4FF4806E4FF43D
:1057D000007E10EB0E0051F1000148BF641C01D4A3
:1057E000400049415FF44077FF37E41BDEBF0021F2
:1057F0000020BDE8FC8117F58067BC420DD24FEA5E
:10580000D02040EA41504FEA41014FEA113141EACC
:10581000045141EA0801BDE8FC810020FF21C900D4
:10582000C91D090551EA0801BDE8FC812DE9F84FC1
:1058300000298346009106DD024600980021401EA3
:1058400042F8041BFBD10098DFF8C880DFF8CC9049
:105850000028C8F800B012DD2F48009C076800251A
:1058600037F8020B38B1D9F80000AE0031580020EB
:1058700088474BF80600641E05F10105F0D1284F5A
:1058800041460120D7F80080C880B8F1000F22DD22
:105890004FF0000A00980127002817DDABF104063D
:1058A0000446002556F8040FB0F1FF3F04D0D9F8A4
:1058B00000106958884730600021B0F1FF3F08BFF1
:1058C00001212D1D641E01EA0707EBD137B90AF14A
:1058D000010AC245DEDB04A007F05CFB0D49002095
:1058E0000860BDE8F88FC0467864632E72756E74E8
:1058F000696D652E537461727475703A20276D61FD
:105900007850617373657327206578636565646596
:105910006400C0463C390020D0050100D4050100D8
:10592000CC0501000EB58DF805208DF8041000900F
:1059300002208DF806002F48007810B12E4800781C
:1059400008B1012054E09DF8040006F0A9FE08B952
:1059500002204DE029480068002100F081FE08B9CE
:10596000092045E00098002832D09DF80400002866
:105970002ED09DF8050058B321489DF804100078FA
:10598000884225D19DF80500082821DC9DF80400F7
:105990009DF80520009942431A4801F0A5FE1A48D7
:1059A0009DF804201849007862F3450008701748F4
:1059B0009DF805201549007862F3C7000870144966
:1059C000087820F08000087000208DF8060009E0BB
:1059D000009838B90E49087840F08000087000201F
:1059E0008DF806000548006803F080FE9DF806006B
:1059F0000EBDC0464238002043380020441E00201F
:105A00004038002024340020041C0020051C002005
:105A1000F61B00202DE9F84F0C4605465FFA84F886
:105A2000200824BF3148444031494FEA8803C85810
:105A300084EA00022A40C2F300672E4A05EA0406FF
:105A4000A843324005F4E0260243B6F5E02F01D129
:105A5000500E14D305F4E020074310D002F4E027E1
:105A6000B7F5A02707D0B7F5803704BF22F400327E
:105A700042F4A02203E022F4803242F4C022DFF894
:105A800078B01E4F012000FA08FACBF800A0DFF82A
:105A90007090CA500146386801FA08F6002706429D
:105AA00018BF0F1C37B9E80D04D34946C4F3805022
:105AB00001F80800280E0DD308F039F9210E34BF83
:105AC0000021311C0D4A1268B24311430B4A116088
:105AD00008F005F937B1E80D04D34846C4F3805106
:105AE00000F80810CBF800A0BDE8F88F006000A017
:105AF00000100840007F077FE0200260D0200240B5
:105B00000020024038B5324C0D46A8084ED2E808B5
:105B10005CD330480068006B8047A060606804F187
:105B200070050146286878B10069054651B18D427B
:105B300008D0696AC90803D3036A04210022984780
:105B4000012068752946616048682349007808602B
:105B5000022005F0A1FF112001F086F801201F4D61
:105B60002075287810B90E2001F07EF86068416831
:105B7000886808B9C86810B1194807F0BBFD194911
:105B8000194D072000230860296818482B606A68AF
:105B90006B60174B2A68A36140EA02011A20296052
:105BA00008F0C7F8192008F0C4F838BDFFF796F9D7
:105BB000204600F17801096811B903F045FC38BDB1
:105BC00000F5847045F0020108F0C7F838BDC04602
:105BD000200D00208C010010D0210840B2040100EB
:105BE0005100070600000460141004400200004049
:105BF000754200000EB500918DF8040002208DF86A
:105C0000050049E09DF8000006F04AFD002853D049
:105C10009DF800002A4908702A482949294A007835
:105C2000097861F34500107000208DF8050043E00D
:105C30002548007830B12548006800216A4600F008
:105C400075FD02E000982249086000208DF80500EB
:105C500032E00098002100B101211E4801700020AF
:105C60008DF8050028E000981B49086000208DF899
:105C7000050021E00420FCF707FD8DF805001BE07E
:105C80000520FCF701FD8DF8050015E00620FCF766
:105C9000FBFC8DF805000FE09DF804000028B1D052
:105CA000401EC5D0401ED4D0401EDCD0401EE1D0E6
:105CB000401EE5D0401EE9D09DF805000EBDC0464F
:105CC00040380020041C002042380020401E0020E4
:105CD000503800204638002048380020F8B507F03A
:105CE0004FFE03F049F907F069FE054605F00C0088
:105CF0000C2854D0E80826D206F042FA2A4E37681B
:105D000004460120014606F0B8FF3168614388422D
:105D100019D22649F020B0FBF7F0241A887C18B17C
:105D2000C868A04238BF041C214D2146284608F00F
:105D300038F8284607F024FB0120FCF7BDFD284673
:105D400006F02CFF2DE0280929D21A4CA4F12006D8
:105D500020688168184888470746042FF8D01748FC
:105D6000690905D227B101460A6822F0010203E061
:105D700001460A6842F001020A6098310A6842F05E
:105D800003020A6030688169202088470C4C37681C
:105D90002068B86B804701202060206801E007F090
:105DA000B6FF07F0F3FDF8BD7405010044030100E0
:105DB000B0300020D8010010004003408C21084082
:105DC0002C2009402DE9F0471E469046894607469B
:105DD000B6F1FF3FADF1480D09D046B1314909ABED
:105DE0006846324606F06EFB0220694601E000215B
:105DF00003200C918DF834002B4DCDF83C902C688D
:105E0000CDF8408007F0A6FEEFF3118A2025E419B3
:105E10000B9085F3118842464946384606F0CEFE7F
:105E2000031C33D1002E04BF8AF31188002036D022
:105E300007F0F8FC0B99064609A88861204609A9D5
:105E400007F05EFE0B9805F091FD9DF834000024EC
:105E5000022802D10C9803F019FC8AF3118830460D
:105E600006F044FBEFF3118385F311880C9810B111
:105E700007F095FF0C940B98846183F311889DF8CB
:105E80003400002814BF0E9B231C07E00C9818B1A7
:105E900007F085FF00200C908AF31188184612B095
:105EA000BDE8F087D9C100007C0501002DE9F04371
:105EB0000D46334A314906462B46ADF1240D06F016
:105EC00027F80028306108BF012053D04FF00108A7
:105ED000002486F814802B48B461A84203D1684698
:105EE00007F0DEF96D46A946274D2868274601E0F0
:105EF0007F1C2868B84229DC2448B168244A00681D
:105F000000291AD4B168404617468840F060B1684D
:105F1000B86907F0E9FD306407F084FCEFF3118500
:105F20000746202080F31188304607F0ADF985F34D
:105F30001188384606F0DAFA06E01146F460401897
:105F40003064314606F0C4FF204613E0B06B40F8E1
:105F500027406968FB0003EB071040184268002ADD
:105F6000C6D0304649469047484606F0E9FF00282B
:105F7000BED0B81C09B0BDE8F083C04625CF0000F4
:105F80004D970000403700200405010094050100F2
:105F9000E03300202DE9F04106467468B56807F04B
:105FA000C6FED4F8881000295ED00F4607F097FE91
:105FB0002968486820F0020048602968486A20F093
:105FC000030048626869D4F8A83029690843596811
:105FD0000968C1F804052968486920F00100486192
:105FE000286801210162304606F01CFA7E6807F03D
:105FF0009EFE804694F8E00078B116F0704F06D10E
:106000002EB1062005F060FB042005F05DFB0220A8
:1060100005F05AFB002084F8E000404607F05FFEE0
:10602000387C012804BF02203874D4F8A86029699C
:106030006869084371680968C8622868B0F1804FD0
:1060400014BF0B490B49D4F89020D4F88C00896810
:1060500080188904A0EB9150401E386004F138008C
:1060600007F07DFEBDE8F08107F039FEBDE8F08164
:1060700000050020300400202DE9F04707467D6828
:10608000BE6890468A4607F052FE81463068006B33
:1060900000F48071287800B119B1484607F01FFE5E
:1060A00057E005F5827007F03EFE0024EC77C5F856
:1060B00020A06C623168086B40F480700863484629
:1060C00007F00DFE05F2291006F0C8FC41463846DF
:1060D00005F063FF05F22919A862A8B938464146C0
:1060E00004F082F8A878D0B9A96805F1CC0007F0CF
:1060F000ACFAE8B1AC621020E8773146284602F0ED
:10610000DBF905F2291022E007F011FE3268916BED
:1061100041F02001916307F0E2FDA87810B120461C
:10612000BDE8F087A96805F1CC0007F08EFA10B938
:10613000686ABDE8F0873846414604F055F81020FB
:10614000AC623146E877284602F0B6F9484606F0D8
:1061500075FC4FF0FF30BDE8F08770470EB5019138
:10616000009005F0F7FF08B901205CE001984008B5
:106170000CD32E492C48009A0968008809880843E6
:10618000024203D007F05CFC02204CE02848006883
:10619000400807D3274901200860254800684008C7
:1061A000FBD203E007F04CFC01203CE001984008E2
:1061B0000AD31E49BDF80000096888801A49009872
:1061C0000A881043088003E0184800680021818095
:1061D0000198800805D31549BDF800000968C880FA
:1061E00003E0124800680021C1800198C00805D36F
:1061F0000E49BDF800000968088103E00B480068FB
:106200000021018107F0F7FC07F004FD0A49086846
:1062100040F0400008600849086820F0400008602D
:1062200007F00EFC00200EBD241C00201C1C0020CA
:106230000C500C403C500C4000500C40F8B50F1C6A
:10624000054637D107F0EEFAEFF311840646202019
:1062500080F31188287D012811D1284607F077FBAB
:10626000286C07F06DFB20B12849EA684868904324
:106270004860A86918B1C06808B107F090FD287D92
:10628000022808D1A86930B107F061FBA869C0688D
:1062900008B107F084FD287D032803D0284605F0C7
:1062A000ABFD02E0284607F052FB84F3118830462C
:1062B00006F01CF9012F27D0686AB0F1FF3F03D028
:1062C000296AEA6907F0C6FA022F1DD0104C20682F
:1062D000032F19D0002817DD002F14BF3F1F071C04
:1062E000002F0BDD002660688019416909B128463E
:1062F00088477F1E06F11806F5D120688200054800
:10630000A96B006807F0A6FAF8BDC046E03300208C
:10631000040501009C0501002DE9F04115460446E5
:10632000A869A060686A98460E4608B92C480068BB
:106330006062286A002806BF2A480768071C07F021
:10634000A3FBEB6983B918B1C1194742491E0F403D
