:2000000000500020D9030000FF0300006F030000FD030000FD030000FD0300000000000020
:20002000000000000000000000000000FD030000FD03000000000000FD030000FD030000C0
:20004000FD030000FD030000FD030000FD030000FD030000FD030000FD030000FD030000A0
:20006000FD030000FD030000FD030000FD030000FD030000FD030000FD030000FD03000080
:20008000FD030000FD030000FD030000FD030000FD030000FD030000FD030000FD03000060
:2000A000FD030000FD030000FD030000FD030000FD030000FD030000FD030000FD03000040
:0800C000FD030000FD03000038
:2000C8001D4838B50468B4F1FF3F08BF002400F0B7F82448244B194A0025012110380560BB
:2000E80003F15C000160164B11601868806C80471448006820B114480068204600F036F865
:20010800124813490560134C0A686FF35B4244EA0200086010490868C0F30130012806D1A7
:200128000A680E48104040F400320A6008600C4908680028FCD138BD1C13005008220443C8
:20014800F001001080012843000120438C210840482003400000390104000940FFFFFCFC29
:200168000C0068429404604200600C401C4A2DE9F041804601251B4815600768002FFCD000
:20018800194CC0201A492060081F03689B0806D250F8040C154B000C40F0F0001870002096
:2001A8004FF080571063D7F8F0010E68016830468847D7F8F0014268314640469047D7F8BD
:2001C800F001816830468847D7F8A001C1680220884740202060074E3560BDE8F081C04688
:2001E800101009409402224300600C4056620840B43F005094046042094801684BF69A12C3
:200208000901B2EB114F07D100680B21B1EB107F14BF0020032070474FF0FF307047C04640
:200228001813005008B5044B1B689B699847034A0021116008BDC046A8010010840460423C
:0E02480008B5FFF7D9FF032800D0FEE708BD78
:20025800002A4AD05FEA000C8B071CD1830722D1102A08D370B4103A78C978C0103AFBD2DE
:2002780070BC103238D0042A2CD3082A05D30C2A24BF08C908C008C908C008C908C092073C
:200298002AD0920F22E00B780370491C401C521E22D08B07F7D1C30714D18307D8D0121F24
:2002B80012D308C903801B0C4380001D121FF8D20AE008C903701B0A43701B0A83701B0AA8
:2002D800C370001D121FF4D2121D05D00B780370491C401C521EF9D16046704700221346F2
:2002F8000A46194671B510F0030F0BD0002A82BF00F8011BB2F1010210F0030FF6D1002AFC
:2003180008BF71BD11F0FF0141EA0121042A18D341EA0141082A0FD30E46102A08D30C462D
:200338000D46B2F10F0312F00F0272C0103BFCD812F0080F18BF42C012F0040F18BF40F823
:20035800041B12F0020F18BF20F8021B12F0010F18BF017071BDFEE7B0B50C480C4DA842DE
:2003780010D00C480C4CA0420CD0001BC71054F8040B10F8011B55F8212054F8041B9047DA
:200398007F1EF4D100BF00BFB0BDC0460C04000008040000140400000C040000074880F3EC
:2003B800088800BF00BF00F019F808B1FFF7D4FF00201EF08DFE012000F012F80050002050
:2003D80008B5FFF775FEFFF7E9BFFFF7C4FF08BDD0F8032008460021FFF784BF0120704758
:0803F80000BFFEE7FEE7FEE78F
:140400000000000000100000E90300000004000000000020C8
:020000040001F9
:20F000002DE9F84F0F4604464FF0000B234D4FF4805221032846E1F71FF92846011D7A1885
:20F02000A04651888912528802EBA702A2EB812292001FFA82FA4144CEB2254681460BE08D
:20F04000AE4207D0290348464FF4805201F58051E1F702F96D1CEDB2AE4207DA58460021C8
:20F0600000F065F8002100F062F815E0A84501D0002401E0381D84B2B4F5805FE0DAAE4263
:20F0800001DCA245DCDD19F80410584600F04FF88346641CA4B2EFE7BDE8F88F0000002038
:20F0A000ADF1080D0F490988684601809DF800309DF8012041F20401098801809DF800002B
:20F0C0009DF80110984201DA012008E0984201DD002004E091424FF0000000DC012002B04F
:20F0E0007047C0460400010038B51020002100F03CF805460021012000F037F8041C03D04D
:20F1000015B1FFF7CDFF0546012D07D074B141F210004168D0F800D0084707E041F2010004
:20F120004FEA00104168D0F800D0084738BDD0B50A460021082917DA41F22103C40B00279C
:20F14000E60300D001273E46400080B232F07F0701D040F001000EB1584080B25200D2B2CF
:20F16000491CC9B20829E9DBD0BD98B501EB00331B686A461360BDF800304FF6FF749C42A0
:20F180000ED0BDF800705FB1BDF80230BDF80040A34203D089B200F005F808B1012000E0E6
:20F1A000002098BD70B514460D460646FFF728FF2188884208D120886080214605EB06303E
:18F1C00000F004F8012000E0002070BD0A46014610460422E1F72AB830
:20FFA80000008001100082FFFDFF58003AFFBFF3FFFFFFFFFFFFFFFFFFFFFFFFFFFFFFFFF8
:20FFC800FFFFFFFFFFFFFFFFFFFFFFFFFFFFFFFFFFFFFF00FFFFFFFF00FFFFFFC500C5FFAA
:18FFE800000000FF00000000FFFFFFFFFFFFFFFFFFFFFFFFFFFFFFFF12
:00000001FF
