:020000040001F9
:20001000004C0020397E010071980100719801007198010071980100719801007198010070
:1C003000719801007198010071980100719801007198010071980100119D0100C9
:20004C002DE9F04FDFF854B30F460446F80BADF1140D80F00182D84DDFF86083B80F80F0F7
:20006C00AF81B80880F09C81DFF84883F80A80F0FA80380B80F0D180380907D2F80FC0F094
:20008C001D8227F0804706F055FD17E20AF082FB814609F087FB002800F0B98008200AF06A
:2000AC003DFA002840F0B38080200AF037FA002840F0AD8004A805F0ABF8012803D1049845
:2000CC00002800F0A4805846C9300078002840F09E8000240126E0B209F0DCFF48B1837AAC
:2000EC003BB1867290F9090006FA00F0C0B208F049FA641C032CEED344460320207504F13A
:20010C00B4000AF043FB48460AF01CFBD0480168002398461A46036050F8081CCD4940F849
:20012C00088C04F138000AF03BFB404605F087FA2868006B8047A168401A010BE069C1F19A
:20014C00FF3282422CBF08444FF0FF30E06194F8200020B12069E169B1EBC02F26D909F0E5
:20016C0031FB414600B13146081C1BD0D74840F60901018043464380417B06F00F0221F089
:20018C000F010A434273017B03F00F0521F00F0145EA0102027343600AF064F8418811F42F
:2001AC00406FFBD084F820604346E36108F0AAF8C748454641460560022009F053F9022047
:2001CC0008F0DAFA112004F077FC207818B9606848300AF0EDFABF48007810B90E2004F0BB
:2001EC006BFC94F8210020B184F82150052008F0C3FAB948A0612575B4F98C00B4F98E1027
:20020C00884214BF0220072005F0AAFD02E048460AF098FA27F0080735E74446201D0668DD
:20022C0008F094F938B13046F6696FF4807100224FF00073B047E06850B12868006B804745
:20024C00E2686168801AC860000BC8600026E660A24904F1380000220AF0A2FA27F40067CC
:20026C00022020750FE70AF095FA814609F09AFA4446266F0028B04600F08980002E00F094
:20028C0086809749042604F13800002226750AF087FA48460AF056FA04F1B4000AF076FAF2
:2002AC002868006B8047E060D8F810006060D8F81000416AC90803D3036A31460022984779
:2002CC00012007F07FF8874809F0CCFF65684FF0010985F81590606806F020FAD5F808A06B
:2002EC0040F60A02D01F564600F1010C00E01E46736833B119888A4203D0884218BF8C4572
:20030C00F5D100217160727B09F00F0322F00F0213437373D8F80C201288904225D06046BF
:20032C00904222D02C8E0CB3696305F13002518095F83C0001F00F0320F00F00034385F801
:20034C003C3095F83D0009F00F0420F00F0044EA000385F83D307260707B01F00F0420F044
:20036C000F0044EA0001717300E0E1605046694609F054F8684609F065FF09F081FE50468B
:20038C0009F070FF5146484609F06CF802E048460AF0D8F927F4806790E0C046282E00203E
:2003AC0003F092F940467030006808B927F0020784E0C046202D00208C010010282D00205B
:2003CC000AF0E8F9AA468146DAF85400016804208847D0B1207DC0B140460068A8B10646DB
:2003EC00DAF800002569006B8047801B2061000B2061A84202D240194008206140F6C411CC
:20040C0081422CBFB0F5967F216148460AF09AF908F09CF888B1E56920466FF480710022DC
:20042C004FF00073A847404668300068002808BF47F0020701D006F07DFB2046A469002187
:20044C004FF080630A46A04727F0005736E0C04614100440117101000AF09CF922490E6852
:20046C0046B306F1280106C90A234FF0E0450B40154008BF002B1DD106F1280191E83000AE
:20048C0006F1280393E8060006F12803AA43A14383E806000AF056F9B16869B1002D08BFD9
:2004AC00002C09D030692246B6F93C10B4682B46A04701E00AF046F927F480471FB1584651
:2004CC0039460AF07DF905B0BDE8F08F7437002000000460DABF0100ED3C0100A14D010066
:2004EC009197010001010E04A82D00202DE9F04FDA4C071CADF1540D04D104F1540009F00A
:20050C0081FE05E097E82E0004F1540080E82E00A07858B1A06A002104F068FA002808BF4E
:20052C00092000F02182A06903F05AF96079012811D004F1940009F099FDA16D606AC4F815
:20054C00940029B1E06D18B1C4F8A810C4F8AC000126667100E00126D4F82880206E002107
:20056C001C22606104F1B00005F0C2FD43F6050AA4F8B0A06FF04F0084F8C10094F8BC00B0
:20058C00002565F3030084F8BC0094F8BD0020F00F0040F0030084F8BD0094F8C00066F31E
:2005AC00000084F8C00094F8C00066F3C30084F8C00094F8C00084F8545065F3041084F8FB
:2005CC00C00094F8C700257120F00F0040F0040084F8C70044F62067C4F8C87008F056FCD1
:2005EC002B4600B9334629461491181C05D108F04DFC032818BFB44600D1AC4694F854202E
:20060C00DB4B284610E0870007EB4017D95D8A4208D1FF187B692762002B08BF14960FD0A0
:20062C00267104E0401CC0B20028ECD0276A3FB9B8F1000F02D0404606F00EFB022093E153
:20064C00BCF1010F04F1940B0BD0B868B0E80C5004F1E801A1E80C5090E80D1081E80D1070
:20066C0004E0B968096804F1E800016004F164001390F868B0E80C1004F16401A1E80C10AB
:20068C000DC881E80D00786890E80D1004F1440181E80D10B869B0E80C5004F59471A1E832
:2006AC000C50B0E80C50A1E80C5090E80D1081E80D10149804F1E80904F1440801280AD008
:2006CC007869B0E88C1004F58471A1E88C108DC881E88D0025E03F6904F584702946202250
:2006EC0005F006FDAAF102000C22A4F80801B91C04F5857004F0DAFD94F81611B87B60F3BF
:20070C00000184F8161194F81611B87BC01060F3C30184F81611F87BA4F818013869C4F834
:20072C00200104F5567041464A465B4601F008FCA4F82A51A846C4F82C81C4F8308194F8B9
:20074C00341165F3030184F8341194F8341165F3041184F83411277994F8341165F346110C
:20076C0084F8341194F8341165F3C71184F8341194F8351166F3030184F8351194F8351127
:20078C0065F3071184F8351194F8361165F3000184F8361194F8361165F3410184F83611FC
:2007AC0094F8361165F3820184F8361194F8361166F3C30184F8361194F8361165F30411C9
:2007CC0084F8361194F8361165F3861184F8361194F8361165F3C71184F8361194F837112B
:2007EC0065F3000184F8371194F8371165F3410184F8371194F8371166F3C30184F83711E9
:20080C0094F8371165F3041184F8371194F83711882365F3451184F8371194F83711A06101
:20082C0065F3861184F8371194F83711A4F8403165F3C71184F83711C4F83C8187B94D49D5
:20084C00C4F8381194F8422194F836110827434667F3050266F3451112E0C046681000206D
:20086C004549C4F8381194F8422194F836116FF00303082722F03F0265F3451142F010023E
:20088C0084F8422184F8361184F8463194F8431167F3C701237884F84311B4F8421165F3F3
:2008AC008A11A4F8421194F8441165F3000184F8441194F8442163F3450284F84421B4F87C
:2008CC00441165F38A11A4F8441194F8451166F3C70184F8451194F8471166F3030184F841
:2008EC00471194F8471165F3041184F8471194F8471165F3461184F8471194F8471165F3CC
:20090C00C71104F13005C4F8505184F8471104F5AC73C4F84C3104F13803C4F854314FF097
:20092C00E242C4F8488102218DE80600139943461A4608F09BFC02A8414624223B4609F04F
:20094C004DFE0BA809F024FBA06A48B9404602A90BAA07F0E1FFA062002808BF032003D0C6
:20096C0006F07AF9A670404615B0BDE8F08FC046441B0020DE510B934E9055002DE9F84F9B
:20098C00684609F0B5FE032069468DF800004FF0004006F0F1F9C04D694628624FF08040F6
:2009AC0006F0EAF9686220B10021C0A30A4608F0CDFB286A20B10021C4A30A4608F0C6FB2F
:2009CC0005F13C0005F1280104F032FBA86110B9C3A009F089F907F00DFEDFF8CC82AF4CC7
:2009EC00AF48B04FA8F11D06206030686760C0084FD2E149CCC904F15C00CCC0CCC9CCC0B4
:200A0C004EC9012780E84E00FF23DC4EE16EB4F86A20C6F8AB3FDA48C6F8FF7F04F046FCC8
:200A2C00A06F804742F60B3442F22B0046F8550CD44946F8514C4FF480730B60002246F866
:200A4C00212C46F83D7CC6F8B37FC6F8F37FD6F8F30F09F093FD4746A7F11D02116841F0DF
:200A6C0004011160C84A116821F0F05141F03451116009F067FED7F8FF0F07F0E5FE09F0E2
:200A8C004CFE09F053FE07F0F9FE09F049FE09F053FE09F073FDBD49A1F10C031A685B68E9
:200AAC00120442EA13420832CA604FF480370F610A6842F4A0220A60D1F8F02F22F01F02D6
:200ACC0042F02502C1F8F02F09F03CFE002007F0EFFE4FF0010B4FF47F61AE4E0180AC49C2
:200AEC00A0F802B058460E6004F0FEF9AF49AA4A28690968B2FBF1F109F086FE286909F025
:200B0C008BFA05F1300005F1480104F091FA686118B97EA009F0E8F86869A04909F0EBFC35
:200B2C0010B182A009F0E0F8A14C9E4F4FF000086CE000286AD0A269E1888A4219D1A168F3
:200B4C00491CA160491E032998BF521E0DD984F80180404608F034FA404608F047FA5846DD
:200B6C0007F042FF4FF0FF326078E168A261491CE16000284AD0E688A088B0423CDD884844
:200B8C0000680168A661A9B106208847011C11D00420087081F801808E703312CB7081F897
:200BAC0004B07F4A81F805801068436813B12046062298472878B4F806A0B4F80490E668DA
:200BCC0001280CD04146286A85F800B062A30A4608F0BCFA286A41460A4609F06EFCA5F852
:200BEC0006A0A5F80890E868EE61022105F04AFC502008F0FBF906E0404607F0F5FE84F8E3
:200C0C00018084F802B0A02008F0DAF9E8684FF0FF324146134603F0C7F90646700826D37E
:200C2C00D5F818A0062009F017FAC14600B9D94606214A46504607F06DFC7868B5F8049046
:200C4C004FF0FF3103F0D2FE5946B868A7F8029005F018FCF8684FF0FF3103F0C7FE7878E6
:200C6C00012802D0786805F0F7FF01F0D1FCB00801D301F0CDFCF008C8D3A06A0642C5D024
:200C8C00A178607800293FF454AF09F01CFC4648C0F800B0FEE7C0464C0B00202017002038
:200CAC006F610100197201002D10094057616974696E6720666F7220534345204144432008
:200CCC0072656164696E672E2E2E00C057616974696E6720666F72204144432E2E2E00C078
:200CEC004572726F7220696E697469616C697A696E6720626F61726420332E335620646F8E
:200D0C006D61696E2070696E730A00C04572726F7220696E697469616C697A696E672062C7
:200D2C007574746F6E2070696E730A004572726F72207265676973746572696E67206275C5
:200D4C0074746F6E2063616C6C6261636B2066756E6374696F6E00C057616974696E67203C
:200D6C00666F72204E6F6465204657207570646174652E2E2E00C046A4BA010055500C403A
:200D8C0000000E4000100E400030094014200940B8370020DDA0010080C3C901F192010087
:200DAC00EC19002020050020FC00204388C00100901600202DE9F04F09AFADF13C0D0890C3
:200DCC000A92388809911E46ADF81800101C08BF002000F07581017800274FF0010B401CB0
:200DEC004FF0FF39B846DA460A9061E1252940F056810178401C0A902D2918BFADF806805A
:200E0C0004D10178ADF806B0401C0A9030291CBF4246434604D10178401C5A465B460A905D
:200E2C002A29CDF800804D4617D1049330680A9BCDF80890C01C20F00300001D306050F87E
:200E4C00044C1978002C009403F101000A9018D5ADF806A06442009413E044460AE060001D
:200E6C0000EBC4004018A0F130040A9801780094401C0A90302901DB3A29F0DBCDF8089035
:200E8C0004932E2929D10178401C2A290A9011D13168CDF80880C91C21F00301091D316023
:200EAC0051F8045C002D48BF454601782B46401C0A9011E0454643460AE0680000EBC500D7
:200ECC004018A0F130050A9801782B46401C0A90302901DB3A29F0DB02930AB122460492B5
:200EEC006C2904D04C2918BFADF8048004D10178ADF804A0401C0A900BA8CDF80C800FABBD
:200F0C0007906429059300F0828069297FD0BDF818C075296DD0782969D06F2965D070298E
:200F2C004ED063293ED0732922D00A98401E0A90099801281AD966490C68B5F1FF3F03D02E
:200F4C00A84288BF6D1C05D86FF00041814294BF0D1C099D029508A80AA932466B46A0475F
:200F6C0009993F18091A0398099165E0454617E03068C01C20F00300001D306050F8040CC1
:200F8C00BCF1010F014608B94FA00146079109F0BDF80390B5F1FF3F4FD0A8424DD90395C6
:200FAC0028464AE03068C01C20F00300001D306010F8040C8DF82C005D46039558463CE09B
:200FCC00082035680490E81C20F00300001D306050F8041C082210230FA805F0FBFA401E24
:200FEC00079040210170079823E0082302E0102300E00A233068C01C20F00300001D306059
:20100C0050F8041CAA42BCBF2A1C04920DE03068C01C20F00300001D306050F8041CAA42A4
:20102C00BCBF2A1C04926FF009030FA805F0D2FA07900599081A0390009C241ABDF806509B
:20104C0000945DB906E008A8202109AA08F0A8F87F1C009C641E0094F5D50398401EB0F107
:20106C00FF3F03900FD1BDF8060001281CD10098401E009018D408A8202109AA08F090F84C
:20108C0000987F1CF4E70798017809AA08A808F087F80798401C079003987F1CDEE708A807
:2010AC0009AA08F07DF87F1C0A980178401C0A9000297FF49BAE089808B1414601703846A4
:2010CC000FB0BDE8F08FC046286E756C6C2900C008C10100BB482DE9F84F0025BA4CB849F9
:2010EC00056094F8E200002800F06581012800F02F81B64E02283CD0032840F05C8151F88F
:20110C00250CD4F8B8100029A0F5C060C4F8D400B8BF49420028B8BF4042814226DA4FF06B
:20112C008057D7F8A4014568B4F8BC0030214FF47F42082300903046A847D7F8A4014568AD
:20114C00B4F8C00004214FF4F802122300903046A847D7F8A401B4F8D070456820214FF4FA
:20116C0040620A2330460097A847012584F8D8501CE151F8258C09F0A6F92F4600B90127E9
:20118C003946934F38680028FCD0B146012609F10409D9F82CA03E6009B109F09AF9CAF3EB
:2011AC000720C4F8BC0009F08EF9AA4600B9B2463B68002BFCD0D9F800B0BAF1000F3E60F0
:2011CC0001D009F086F9CBF38440C4F8C00009F07AF9AA4600B9B2463B68002BFCD0D9F844
:2011EC001C90BAF1000F3E6001D009F072F9C9F38120C4F8D000B8F5C061C4F8B81000F07F
:20120C009C8094F8D80068B9C4F8D410D4F8C000C4F8C800D4F8BC70C4F8C470D4F8D030BD
:20122C00C4F8CC30D4F8D400D4F8BC30002854BF02226FF0010204F1C8010F6800EB400071
:20124C008018421000EB927207EBA2000860D4F8C810C4F8C43000291CDD1E293CDDD4F80B
:20126C00CC0030B93429B4BF15391E21C4F8C81025E02A29BABFD4F8C8000B381E20C4F81A
:20128C00C800D4F8C4003F28B4BF401C3F20C4F8C4001FE0D4F8CC00032812D011F10B0F15
:2012AC00C6BFD4F8C8000B30301CC4F8C800D4F8C4000028C4BF401E051CC4F8C45003254C
:2012CC0008E011F1150FC6BFD4F8C8001530301CC4F8C800C4F8CC504FF08057D7F8A40164
:2012EC00B4F8C43030214FF47F424568374800930823A847D7F8A40104214FF400321123D2
:20130C00456832480096A847B4F8C860D7F8A40104214FF4F802122345682C480096A84790
:20132C00D7F8A40120214FF440620A23B4F8CC60456826480096A84701E084F8D85040F2AB
:20134C00FF50404502D8801C40452FD2082030E051F8251C1F4F4BF2F5204843060A3868F4
:20136C00C0F3814001280CD11B4800680068804706F0AAFF09F0B3F83111C010484306EB1C
:20138C00E03694F8E50030B91448006820F07F403618760801E084F8E5501148310C0660E4
:2013AC00012741600F4D8760287808B90B2000E0052084F8E40001F063F8BDE8F88FC046A6
:2013CC002D400C402C500C407C15002000A00C4000800C40B43F0050EC010010102009405E
:2013EC003C600C4095BE01002DE9F04F044609AF9A4691468846ADF1140D019409F0CAF9B9
:20140C0098490D680290A54208BF4D68974C6FF0010B35B105F1800008F0ECFE002840F091
:20142C000F8108F00DF8061C00F0158104F1B40009F0ACF9C6F80C80B4F98C0099F80430DC
:20144C00401C86F83E306FF31F30A4F88C00C6F808A0B4F88C00019AB0878348326197E812
:20146C000C004FF0000B2021DC4606F118071940104087E8030006F1200383E80018C6F81B
:20148C0034B062463263D9F80800B06386F83F20D9F80070009207B1776398F80C0000F065
:2014AC000F00022804BFD8F808003063082740464368002B18BF002F40F0BE8000886FF3D0
:2014CC000900B0F5305F18BF022006D196F83F0040F0100086F83F00082006F1180191E878
:2014EC00800106F1180342EA080240EA070183E80600D4F8F8000199814207D194F80401EA
:20150C00410824BF00F0FE0084F80401002D70D0039504F1700101980D68884607F014FCD6
:20152C00B1465F465FEA000A0FD1D8F800202AB1D4F88010304604F059FD18B9BAF1000F5E
:20154C0003D103E001275D4630E0554645B12A683046294604F04AFD38BB002A1546F6D16B
:20156C000398314605F0B4FA051C02D0A9451AD1E5B9D9F80C10D8F80450087B00F00F00AD
:20158C00022813D1087BC01140080FD2002D4AD1D4F8800050B1D4F8801030463A4604F0D9
:2015AC0025FD18B93FE0082700E00227BB46BBF1010F04D104F17000494608F05EF8BBF155
:2015CC00020F0BD12F682A6804F170001FB9494608F042F802E0494608F02DF8BBF1080F9A
:2015EC0004D196F83E10284608F02AFA3BF0080004D104F17000314608F02EF81BF1030F84
:20160C0011D096F83F00B6F93CB0009940F0800086F83F00019F87F8A410206F86421AD15A
:20162C0005F088FA17E0B4F98C0000F6FF706FF31F30A4F88C0003E07F1E1846FFB237E70C
:20164C0094F8040140F0040084F8040101986FF0020BC4F8F800029809F074F8584605B02D
:20166C00BDE8F08FF82D0020FFEFFF9F202D00202DE9F04FADF11C0D684608F0C3FDFEF785
:20168C0035FF10B16DA008F02FFB082003F028FB884E0120884C894F894D306038684008EB
:2016AC00FCD32868416802208847C0B200282070F4D000250820356003F0FEF9814EB07874
:2016CC0060B3B26A012008F0D0FE38B31046294603F08CF910B33078012818BF022719D142
:2016EC00217806F5AC70017096F8440196F8362101232F4620F03E0040F0020086F8440129
:20170C0022F0800096F8451186F8360163F3C70186F84511B06A05F09FFA17B14DA008F04B
:20172C00E3FA207820750227677508F0FBF804F1F808AB4604F20F17DFF89491206108F12B
:20174C00150361480593D0F800A0A0684FF0FF325946134602F028FC064670081FD308F088
:20176C00E1F82169A369524681422CBF091A411A4A43B2FBF9F15B18A36162882061554D82
:20178C00E2822868A0830D2008F05CFC5D4600B90125A577A169E269606902F0F3FFB00851
:2017AC000CD365783DB108F035FD01F06FFE10B131A008F099FA584608F07CFD300915D39E
:2017CC0098F81600032811D1404DCDF810B0083D387815F8081F884203D16A680598394683
:2017EC0090470498401C05280490F1D96078F1081DD301281BD094F8211294F82022A06819
:20180C00914211DD01F086F810B123A008F06CFA01F03CFE10B118A008F066FA94F8200200
:20182C00401C84F8200202E0102104F02BFE70098BD3012008F03EFD87E7C0464561737941
:20184C004C696E6B5F696E6974206661696C656400C046C0456173794C696E6B5F656E61DD
:20186C00626C6552784164647246696C746572206661696C656400C0456173794C696E6B19
:20188C005F726563656976654173796E63206661696C656400C046C0456173794C696E6B91
:2018AC005F7472616E736D6974206661696C656400C046C0A80250422005002008800240B5
:2018CC00CC0100106810002088C00100F4190020A0860100285009402DE9FE4F05467B48B8
:2018EC00002400680094C00905D37948007810B9202006F08FFF012D40F0E280DFF800922C
:20190C00D9F8DC00012840F0D8800220C9F8DC0008F02AFA012006F07DFF5FEA000805D0C9
:20192C000120C9F8DC0008F02BFACBE008F044FFA34602906748684DC0F800B0A86A016818
:20194C0001208847012804D1584604F01DFF012000906248624FC0F800B03868112008F0A2
:20196C00D7FD00B10124102008F0D2FD08B144F002040F2008F0CCFD08B144F004040B20B7
:20198C0008F0C6FD20B12868564E016B308888470A2008F0BDFD20B12868534E016B308886
:2019AC0088475248012606602868816944F0200088474F48066008F0A5FD00F0010101916D
:2019CC00400814D2286A81684A4888478246BAF1040FF7D0BAF1010F04D1286A426845484B
:2019EC00032190474449086820F003000860584600F088F82B683868986B8047019801289B
:201A0C000CD0BAF1010F04D1286A42683948314690473949086840F0030008602F480660D9
:201A2C0028684169204688470B2008F071FD20B128682C4BC16A188888470A2008F068FDA1
:201A4C0020B12868284BC16A18888847274806600322C9F8DC20264BC3F800B02868416B3D
:201A6C00204688470128F9D13868042006F0D2FE0446184806603868144800688009FBD3DD
:201A8C000098012802D1304604F07EFE08F021FD082006F0BFFE07460298C9F8DC6006F0F5
:201AAC0055FF1648008804F00DFC08F069F957EA040018BF4FF0FF3804E06FF0040801E0C7
:201ACC006FF001084046BDE8FE8FC04614100940641600200C400940B80100100002224308
:201AEC002C20094046B9010042B901002820086080010443004003402422084090BE010071
:201B0C007C1500202DE9F84FDFF804B20746ABF13500DFF8F0810068800880F0E280754839
:201B2C000068006880477E490831D1F8009000254FEA29715FEA995201F101010AD2C0F1FC
:201B4C003E0210F10A0F4FEAE202D8BF08229142B8BF111C684BD3F87C21C2F30462162A54
:201B6C00A8BF203A1B68C3F30443162BA8BF203B9A465218162A05DA12F10A0FB8BF6FF0BA
:201B8C00090200E015225D4B5D4E02F01F0141F4F8511980316811F0030F18BF0125C90821
:201BAC0028BF45F002050FB145F00405434693F90710411A052904DA9979A94208BF998880
:201BCC006FD0DFF844E10F28A0F10F0829DB08EB0011A1F1F0084FEA28210091072984BFC7
:201BEC0007210091062988BF06215EF821600424774604EB81043C594FEA950CA41BEE082F
:201C0C0004F0FF0124BFC4F3072631446F08AE0824BFC4F3074631446E0828BF01EB146141
:201C2C0004E000214FEA950C6F080091009C5EF824E05FEA5C060EF0FF0424BFCEF307263E
:201C4C0034447E0824BFCEF3074634446E0828BF04EB1E64009E89B2A8EB06267143803146
:201C6C0004EB1124AAEB02010029D8BF0121342209F0FF074A4391B24FF6FF727943B1FB77
:201C8C00F4F18A4238BF111C802889B205DA10F1800FB8BF6FF07F0000E07F209980D871DB
:201CAC009D711A4800681F2918604FF0000008D340F2FF128A4206D24908401C8A42FBD338
:201CCC0001E01F219980134F0F39090940EAC10047EA0001CBF8FB1F0026CBF8FF6FBDE80C
:201CEC00F88F0D490D4F434608200F609B1D1870BDE8F88FEC0100103C1100506E62084061
:201D0C0024220840B03700209C130050082009403500094000E7A48030100940FDFDA40002
:201D2C00AC3F00502DE9FE4F0E46074630687C68D7F808B0F8B1B5680DB97368DBB194F8D6
:201D4C0094100020012908BF0120284202D17168084205D0012080F00100C0B201280AD164
:201D6C0008F018FD8146D4F8880038B1484608F0E9FC032030740020BDE8FE8F01253574F3
:201D8C00C4F8886000200190C4F88C00C4F89000484608F0D7FC94F8AC0038B194F8952093
:201DAC006649D4F8A400114306F098FBD6F8048008F0F0FC824694F8E00080B918F0704FB1
:201DCC0008D1B8F1000F05D0042006F055FE062006F052FE022006F04FFE84F8E050504611
:201DEC0008F0B0FCDBF80010486840F002004860207800287BD1DBF81C003168884276D919
:201E0C00207B18B16068B0F1FF3F70D1484608F099FCB0685D4600280CBF04F1AE08804630
:201E2C00706828B9E88904F1AE07A4F8AE0000E00746606909282CBF4FF0020A4FF0010AD1
:201E4C00D6F80090B9F1000F24D0606909280CD32868398808F003FC2868694608F045FBD3
:201E6C00BDF80000A8F800000BE02868397808F0F6FB2868694608F038FB9DF8000088F86D
:201E8C000000B36803B1D044736803B15744B9F10109DAD12968C8684008FCD3DBF800100F
:201EAC00486820F002004860776808F073FC054694F8E00078B117F0704F06D12FB10620E3
:201ECC0006F05AFC042006F057FC022006F054FC019884F8E000284608F034FC0198D4F8E5
:201EEC0088100874C4F888000120019022E02046594601F0FDFCDBF80010486940F0010016
:201F0C00486120780028EFD1616804F16C00054608F055F90028E7D0D4F88800017C0129F7
:201F2C0004BF03210174384602F026F90199284608F045F90198BDE8FE8FC0460000068015
:201F4C002DE9F043044665480E4601681F461546ADF12C0DBEB1B5B130784FF0010808FA1A
:201F6C0000F001420FD01046002104F037F9A560666008F00FFC5A4D81462878022804DBC3
:201F8C00484608F0DFFB0020A5E0002861D101F055F95449086840F00200086007A808F049
:201FAC0071F9514E5149707807AA099005F5847006F002FA4E4905F59E7007AA06F0FCF925
:201FCC0007A808F02FF9192107AB3078494A089005F1380006F03AF9474A05F154001A21FA
:201FEC0007AB06F033F94549002205F19000134605F0E4FA4249002205F1B400134605F0FA
:20200C00DDFA404A05F124000421002307F01AF9B078012802D10E2002F062FE05F17800D5
:20202C0008F005F805F1700008F001F8002085F820002875E861072185F8D01185F8210081
:20204C00314B1870A8600526E860304A2E612878AA6105EB8001401CC1F8D840C0B2287099
:20206C00484608F06FFB1FB9684607F0FFFF6F4638684FF4FA76E6602060B86941466062B1
:20208C00388A6175E082786800280CBF40F6C410002120611E48E06120622175A061F8689B
:2020AC0000B1E061786900B12062B86800B1A061782204F13000002104F01AF804F1480019
:2020CC00002106F03BFF1349002204F18000134605F074FA20460BB0BDE8F083D42108407E
:2020EC00202D002000200940D8BF0100BD9D01006148010011710100416301007197010030
:20210C00359B010019760100C4370020ED3C0100375A01000FA701002DE9FC4F83F00043AD
:20212C0001E02DE9FC4F1F03FF0847EAD2574FEA42284FEA43095FEA595906D147EA080A91
:20214C001CBF00210020BDE8FC8F57F000575FF4E06E1EF1FF0EF14505D14FF00000190D5B
:20216C000905BDE8FC8F002B05D55FF0000AD8F100086AEB07070C03E40844EAD0544FEAFD
:20218C0040254FEA4106760D08D144EA050A19BF00210020191C101CBDE8FC8F44F0005483
:2021AC00764504D10020090D0905BDE8FC8F002904D55FF0000A6D426AEB0404B6EB090EF0
:2021CC0008D5A2463C465746AA464546D046CEF1000E4E46BEF1360F5CBF4FF0000B23E0C1
:2021EC00BEF1000F04BF4FF0000B1AE0CEF1390ABAF120092EBF08FA09FB07FA0AFB4BEA0A
:20220C00080BDEF1200A07FA0AFA38BFBA4647FA0EF72DBF28FA0EF8AEF1200E4AFA0EF839
:20222C00D04415EB08057C4154EA050A02BF00210020BDE8FC8F002C58BF4FF0000A06D5CE
:20224C005FF0010A5FF0000E6D426EEB0404A6F101066D006441FAD515F4806E11D005F45B
:20226C0080794BEA090B15F5806554F1000428BF761C0BD205F400795BEA090B08BF25F4D7
:20228C00006525F4E0656D0044EB0404B61CDEBF00210020BDE8FC8F5FF4E06E1EF1FF0E2E
:2022AC0076450AD34FF0000013F00043FF21C900C91D09051943BDE8FC8F270547EA1530EA
:2022CC00210B41EA065141EACA71BDE8FC8F70472DE9F04FADF1240D079000F0AFFF5F48F7
:2022EC00007806F087FF5E4D0024012806D90C3804D0401E0ED0401E09D006E007F010FD92
:20230C00022804BF01210C1C06D0696805E005211F2401E0032107246960524A1068C0F3C5
:20232C008150012806D152F80C0C0127020E07FA02F0044307F08EFF05F1440AFF2253466A
:20234C004018401E471C28607F1E03F8012BFBD1079A1268002602F0FF03FE2B1DD0DDF820
:20236C001CC0964633460EF0FF07FF2F0ED0B84205D3B94203D80122BA40144201D0022002
:20238C0069E016430EF0FF020AF802305CF804EF5B1C0EF0FF07FE2FE7D1092002F0A0FCFE
:2023AC0007980121A86005F1280006F0C7FD00274FF0010BB9462846804600F198050BFA38
:2023CC0007F0044216D1064204BF07F0FF0141F4C04104D01AF80700079951F82010224825
:2023EC0001F006FCF8B24FF0FF3107F09BF9C5F8009001E004202860D8F800007F1C2D1DAB
:20240C008742DCD904A807F00DFF184C184A2078102104AB059008F10C0005F017FF6846F2
:20242C0007F030FFCDF80C906A4660681149029008F1640005F0C0FF0F4951F80D0C20F4C6
:20244C00F85040F4005041F80D0C0C4FC1F8FFBF4846C7F800B009B0BDE8F08FC53700208A
:20246C0068140020B43F0050007FC767FCBF0100199B0100998001000D3009400800094062
:20248C002DE9F843614C5A4D5A4EDFF870815E4F94F8E4100846401E0B2864D8DFE800F01C
:2024AC007B2C43062343062343067664042907D001220A2945F8212C14BF0220032004E08E
:2024CC00202045F8210C0120024684F8E200002045F8390C0827C5F8FF7FC5F8F37F45F807
:2024EC00392CBDE8F883052914BF09200620002784F8E400376075E094F8E170383D012015
:20250C00002FC5F81B0004BF0620002102D00021F160032084F8E400032045F8010C3160D9
:20252C00306880085ED294F8E4103348012703290ED000684568002160220523009140461B
:20254C00A84794F8E400062814BF0A200720CFE700684568002160220523022000904046F0
:20256C00A8470420C4E7FEE72548264F0026012506600E203D6002F09FFA022006F0FCF8B6
:20258C0084F8E45084F8E360BDE8F883002038600C25786024E04FF08059D9F8A0010168E8
:2025AC00202088472C3D0F2045F8010C41F61D56C5F80360D9F8A401466800214FF4C0729A
:2025CC000723022540460095B047D9F8A401C66800214FF4C07207234046B04701203860F2
:2025EC0084F8E45004F1780008F0CEF8BDE8F88339400C4038600C40A401001000A00C408A
:20260C002C500C4004800C4034600C407C1500201CB55F4CA07810B95E480078A070217861
:20262C00012913D0206A07F03CFFA0780090206A002126A30A4606F089FDA0880090206A9B
:20264C000121002225A306F081FDA0780090606A002125A30A4606F079FDA0880090606A55
:20266C00002128A30A4606F071FD2078E2882189D8B994F90100B0F1FF3F26D0616AC0B2D1
:20268C0048B1401E04D0401E14BF24A326A300E029A3084615E0084600212BA30A4606F0D0
:2026AC0055FD606A07F003FF1CBD00920191606A2CA300210A4606F049FDE0690090606A13
:2026CC002DA300210A4606F041FD1CBD4E6F646549443A2030782530327800C04144433ACA
:2026EC00202530346400C0461B5B324A201B5B303B30484E6F64652049443A2030782530C6
:20270C00327800C04E6F6465204144432052656164696E673A202530346400C04F41443AE6
:20272C00206572726F7200C04F41443A20435243206661696C6564004F41443A2061626F98
:20274C007274656400C046C04F41443A20636F6D706C657465642073756363657373667519
:20276C006C6C79004F414420426C6F636B3A202564206F66202564004F414420426C6F6328
:20278C006B20526574726965733A20256400C0464C0B0020200500202DE9F84F93460A6877
:2027AC00DBF8004017784FF0000806461D46C246501C242F08602DD112F8017F401C532FE0
:2027CC00086027D1E41C24F00304241D54F8040CE861CBF80040288B0090A968EA6930684A
:2027EC005B46FEF7E7FA8246306848B1A868002803DD5045D8BFA0F1010A30685044306061
:20280C00DBF80040286846464FF00108EE60A0EB0A002860662F06D0B8F1000F64D1E86921
:20282C00077001205FE0288B40B9E41D24F007040834A4F1080090E8000309E0E41C24F098
:20284C000304241D54F8040C05F0B8FE804689462AA20CCA4946404603F0FCF928BF0027DB
:20286C0005D2286989F000490127401E286125A20CCA4946404603F030FA31D3404605F0C5
:20288C002BF9064606F08EFA0B46024649464046FFF742FC1DA20CCA01F0B0F805F0E8FA57
:2028AC000146686904220A2303F094FE401EE8612E2101706B692A69E86931461B1AEB6006
:2028CC00D21A0A2303F086FE002F08BFE86104D0401EE8612D210170E8696969081A02E0BC
:2028EC0004A0E8610720E860CBF800405046BDE8F88FC046286572726F722900000000002A
:20290C00000000000000C0FFFFFFDF41000000000088C3402DE9F043564C1C3CA078ADF14A
:20292C00140D002808BF012000F09E80504800F5C87690F89C018028C8BF022000F3948004
:20294C00A06A002102F052F8002808BF092000F08B8020792178884640B9307B4FF0010904
:20296C0004F5CC774D46401838700CE0307B182302254044801C84F8980104F5CC7784F896
:20298C0099314FF00109657078193146424602F08DFC327B08EB050006F10D01C01902F0C3
:2029AC0085FC307BC4F8247140444019A4F8180105F016FF0546B06888B994F8141100207D
:2029CC0060F3030184F8141194F8141169F3C71184F81411C4F8100103F0AAFF0FE094F889
:2029EC00141121F00F0141F0020184F8141194F8141169F3C71184F81411C4F810014FF41A
:202A0C007A6101FB05000290A179A06959B902214FF0E24200238DE8060004F584714A4665
:202A2C0002F0A8F80CE08DF80C9002214FF0E24200238DE8060004F5847102AAFEF7D4FC68
:202A4C000146A06902224FF0E24301F031FE0025022215EA010702EA000204BF002A05251D
:202A6C00A06A04F0F9F8284605B0BDE8F083C04620050020841000202DE9FF470646880FE2
:202A8C00C0F09980002004F09DFC4C4807F0EAFB012002F0D4FD4A4C40F60A09A4F8009055
:202AAC0000256580207B05F00F0120F00F00014321736560607B4FF0010808F00F0720F063
:202ACC000F0047EA00013046617303F027FED6F808A04A462146D01F574600F1010C00E070
:202AEC0027467C6834B123889A4203D0984218BF9C45F5D179607A7B354C05F00F0322F07A
:202B0C000F0213437B73236F33B1DA681288904224D06046904221D0338E03B3756306F18D
:202B2C003002558096F83C0005F00F0320F00F00034386F83C3096F83D0008F00F0320F07D
:202B4C000F00034386F83D304A60487B05F00F0620F00F0046EA00054D7300E0A560504623
:202B6C00694606F05BFC684607F06CFB07F088FA1448A06194F8210080B913480068016859
:202B8C004046884701280FD0787B08F00F0120F00F00014379730D4EA66105E005F096FAB6
:202BAC000028FBD007F000FE504607F05BFB5146404606F057FC0090BDE8FF8701010E0409
:202BCC00743700204D000100E0010010B9700100202D00202DE9FF4104466668A7680D4678
:202BEC0007F0D8FD3178012903D107F0ABFD00208EE00121317007F0A5FD2878707068786D
:202C0C00B07068687060A868B060E868F06028693061287D3075687D7075A87DB075A86997
:202C2C00B061287F3077687F7077A87F4FF0000843461D4686F82851B07786F82951C6F82D
:202C4C002080336375627563B562B56386F82C5086F82D50786802F043F8204602F0C0FB3F
:202C6C00204602F009FC60B9386806F04BFD786801F022FF07F08EFD357007F063FD2C4612
:202C8C0045E0684607F0CEFA0094387B224A0190B9686B4606F17C0005F0D8FA684607F0A1
:202CAC00F1FA00941D4938696A46029006F1980005F082FBB07830B906F1CC00294606F006
:202CCC003DF917483061707830B906F1E800294606F034F91348F060684607F0BBFC0195E3
:202CEC008DF800501049029406F582700A226B4604F064FCB969FA6906F13C0007F056FAE7
:202D0C000A4A06F168000421234606F09BFA20460090BDE8FF81C046952E0100256D010063
:202D2C00E9A60100C9A601004D7C0100B1A30100B0B5456884684F48297BADF1180D012942
:202D4C0016D0217E627E4C4B2F7E0143009143EA02010191494937F0010718BF081CA27E4B
:202D6C001043029095F895000322FF2811D00DE0677E217E3843A37E019041F00041009172
:202D8C0043F000403E49029095F89500014304220391FE204DF82200694605F1980002F0C7
:202DAC0047F9C5F8A400002808BF00205FD0287B344951F8200001282BD02068B0F1804F83
:202DCC0014BF22220A22217ED5F8A40005F03CFE2068B0F1804F14BF21220922617ED5F880
:202DEC00A40005F031FE2068B0F1804F14BF24220C22A17ED5F8A40005F026FE95F89510E5
:202E0C00FF2933D02068B0F1804F14BF23220B2228E02068B0F1804F14BF21220922217E5E
:202E2C00D5F8A40005F010FE2068B0F1804F14BF22220A22617ED5F8A40005F005FE206807
:202E4C00B0F1804F14BF24220C22A17ED5F8A40005F0FAFD2068B0F1804F14BF23220B22F6
:202E6C0095F89510D5F8A40005F0EEFD012006B0B0BDC046000480A0004000800004C0A031
:202E8C00002000806CBA01002DE9F84F8046D8F808603068D8F80450076CDFF830B1476472
:202EAC00AB6B6A6C286C17F4F06F1946A0EB020934D1F8091ED2780974D3B1B196F8212038
:202ECC005846801D845C601E814294BF1C1C641E4046214605F04FFFA86B001BA86361D1E2
:202EEC0005F19800012107F06BFC4046494606F035FA57E00029F8D0404605F03CFF95F813
:202F0C002D10A86311B900284CD101E00020A86305F19800012107F053FC43E0F80A20D235
:202F2C004FF0000A544602E0AB6B5B1EAB6393B14046012105F01FFF3068446814F00F04C9
:202F4C00C0F804A0F0D0286B401E2863686B401E6863A86BE8B905F19800012107F030FC4A
:202F6C0013E0306844680022202904F00F044260CCBF4FF0200A9A464046514605F0FBFE1B
:202F8C00CAF120008145C8BF81464946404606F0E5F9EC77404604F032FD726A12B140461C
:202FAC0021469047B8090FD3A96A69B10F46404605F054FFA86238B996F820205946895C87
:202FCC004046C91904F072FBBDE8F88FB8B901002DE9FC4705466E68D5F8088037780FB140
:202FEC00B76B1FB14FF0FF30BDE8FC8731630024F477171C74631BD006F13C0907F0CAFB2D
:20300C0082466946484605F040F900281ED4504607F098FB9DF80000316B0870306B736B15
:20302C007F1E00F10100306303F101007063E5D17078726B316B0128A1EB0201316303D163
:20304C00F36828469847726B144659E0B763D8F80010086B40F400700863D8F80010886BFD
:20306C0040F4FA608863504607F06CFB06F5947006F0C8FB707806F5947768BB07F08AFB92
:20308C0096F82D1069B1716B59B1B16B49B1B46307F058FB06F5947006F0A4FB706BBDE8CE
:2030AC00FC8707F04FFB716806F1E805284607F086F80028F2D0B4632846214607F07FF85C
:2030CC000028EBD0384606F08DFB1027716B306BF777401A3063E1E707F05CFB96F82D101B
:2030EC0061B1716B51B1B16B41B1B46307F02AFB06F19800012107F063FB01E007F022FB98
:20310C002046BDE8FC8770472DE9FE4F0CAF1D468B465FEA02083E78009014BF4FF0804998
:20312C004FF0005907F036FB0324DFF800A10190BBF1FF3F14D152460098D2F8801007F043
:20314C0099F850B9D2F88410009807F093F800280CBF176FD2F8847008E0D2F8807005E093
:20316C0000985946002205F0EBF80746002F56D097F83F0030F07F0050D05446D4F88000FD
:20318C00B84217D0D4F88400B84213D000982A463346394602F09CFA00283FD0207D012890
:2031AC003AD0207D042837D0214904F5847007F007FB31E0D4F880004B46002205F0DEF8FE
:2031CC00D4F884004B46002205F0D8F8B8F1000F14BF1848184806F021F8B6B1D4F880000E
:2031EC0000224FF0807305F0C9F8D4F8840000224FF0807305F0C2F83869C4F8F80094F885
:20320C00040140F0010084F804012DB1216F00982A46334602F05CFA832400E0042401986C
:20322C0007F090FA2046BDE8FE8FC046202D00200200004001000204010001042DE9FF474B
:20324C00484C94F8E700002876D13E4E01273C48F57C84F8E770736884F8E6500068C4F8BF
:20326C001031C0F3801084F8E800684607F0F2F9002504F10C0001956B468DF8005032490D
:20328C0002952A4604F09AF9304904F130006B462A4604F093F92E4904F154006B4681461D
:2032AC002A4604F08BF9B16838468847DFF8B0802848327D08F104030078284E1868C0F36D
:2032CC00815A22B1BAF1030F04D184F8E170BAF1030F17D0BAF1020F14D0BAF1010F0ED0F8
:2032EC00022005F0C9FB1C480068016804208847012804D030683221B1FBF0F10DE005F068
:20330C0079F812E0022005F0B7FBBAF1030F0CBF4FF47A7142F210713068B1FBF0F1484657
:20332C0007F030FA484607F02FFA40460068C00802D2284605F0A0FB00200090BDE8FF874F
:20334C001410094080BE0100CF620100994F0100B1630100C5370020E0010010BC37002065
:20336C00B03F00507C150020F8B5474C241F04F17005286800260746E0B1D4F88400F0B9D7
:20338C00D4F88000E8B1D4F8801038690969884215D197F83F00400911D3D4F88000C068AE
:2033AC0040880028F9D0D4F88000C06840880128F3D006E004F58470022107F001FA002E0A
:2033CC005ED060683969884254D1684603F030FD58B1009848B1D4F8800030B9D4F884006D
:2033EC0018B9082005F0CEF8F8BD082006F0AAFB97F83F0004F58476C0F3001028B92846C2
:20340C0006F008F9C4F8800004E0284606F002F9C4F8840007F1180003C81A49C4430B1F7B
:20342C001C601A681042FBD10A6810430860F869C04341F80C0CF86951F8082C104341F818
:20344C00080CF868044605F0E9FE2088A0F6020040B141F21E01401A04D041F6E671401A2D
:20346C00012803D80120214605F0FCFF4FF08041304603E004F584704FF4806107F0A0F9CA
:20348C00F8BDC04614100440242D00202DE9F041434CA078ADF1180D002808BF01207CD07F
:2034AC00B4F90800002804D5A06A002101F09EFA08B9092071E004F1300104F50972394840
:2034CC00C4F8501104F138060A6089272061B046C4F8546194F83411A4F82A72012500203F
:2034EC000646666360F3030184F83411E76994F8341184F8280265F3C71184F83411C4F81F
:20350C00300167B994F8471165F3030184F8471194F8471165F3C71184F8471110E094F8D6
:20352C00470120F00F0040F0020084F8470194F8470165F3C71084F8470103F0F9F9C0199D
:20354C00C4F8480131460C22404602F0D1FD04F59471A779A069144B0A6A47B902274FF00D
:20356C00E2482A468DE8800101F004FB0CE002928DF80C5002214FF0E2428DE8060004F564
:20358C00947102AAFDF730FF0028208104D5A06A03F062FB062000E0304606B0BDE8F08107
:2035AC0068100020C1710100DD3D01002DE9F04304466568A7680E46ADF1140D07F0EAF8BE
:2035CC0095F8E11019B107F0BDF800206EE04FF0010985F8E19007F0B5F84FF00008C5F89E
:2035EC0088803069286170696861307E2876307B287330782870706885F8AC8068607069FF
:20360C004146092828BF494685F89410387B01F067FB204603F000FFF87E85F89500204603
:20362C00FFF786FB30B9387B01F046FA444685F8E1803AE0684606F0F5FD009478791D4A36
:20364C00019039796B4605F11C0004F0FFFD684606F018FE00941849B8686A46029005F161
:20366C00380004F0A9FE03F03FFCC5F8A800287B012808D1D5F8A400104906F03CFFD5F86B
:20368C00A40000B184600E4A05F1CC000421234605F0D8FD287830B905F16C00414605F00C
:2036AC004DFC084800E0B068A860204605B0BDE8F083C046DD500100AB590100F57D010086
:2036CC0071A50100B9A601002DE9F843424C183CA06FA56F04F1780900287BD00646F06884
:2036EC0040F603020827531C02E040687F1EFFB260B15FB101888A4218BF8B42F5D1316993
:20370C004CC830314CC189C881E8890005F1280090E80C00002705F12806B84686E88001FE
:20372C00A96879B13E464FF0E24006EA020110EA03070EBF002932400340B5F93C10AE68AB
:20374C002869B04707F026F80646B4F98E00401C6FF31F30A4F88E00484685F83F8005F043
:20376C0059FF304606F0EEFFB4F98C00B4F98E1088422FD16068D4F8D860D4F8DC7090F8D2
:20378C00A41000290CBF0520072002F0E9FA40462EB196F8A45005B9306886F8A4804146EE
:2037AC002FB197F8A46006B9396887F8A480814238BF011C61B1B1F1FF3F0BD0074A126818
:2037CC0004F1B400B1FBF2F106F005FCBDE8F88306F0AAF9BDE8F883382D0020BC3700203D
:2037EC002DE9F041414C0546207800287AD0B4F98E00B4F98C1088421DD004F17001284685
:20380C000E4605F0A1FA70B9D4F88010284606F031FD28B906F10801284605F095FA01E0ED
:20382C00D4F8800038B1B0F93C100A224FF0E043284600F03DFF06F0ADFF804604F1D800F5
:20384C000168A94219BF00264660002606602078401EC0B22070A8BB6560207D02280ED112
:20386C00082004F08FFE404606F06CFF05F148004FF0FF3106F0A3FC06F08CFF804604F52A
:20388C00847006F097FF04F1380006F081FF04F59E7006F08FFF04F1540006F079FF04F1C2
:2038AC00900006F069FF04F1B40006F065FF04F1240005F047FF0C480078012802D10E20C1
:2038CC0001F0FAF8606805F14807854208BF6660404606F037FF384606F068FF05F1800095
:2038EC0006F04AFFBDE8F081DABF0100202D00202DE9F84FD0F88890D0F88CB0D9F800202E
:20390C00A2EB0B02B2F5806F88BF4FF48062C0F89020D0F8908090F894C00C681FFA88F2DC
:20392C00B4F1804F02FA0CF21FFA82FA14BF314B314B2D4AD9F808703FB94FEA8C05009596
:20394C00AD18AE6900F1AE050AE04FEA8C050095AD182E690CF101050BFB057555446D1E8F
:20396C009E6096465D604FEA081643F6F07204F10805103E1D6032409E68B4F1804F42EACD
:20398C0006069E600CBF194E194ED9F804706FB9CC89009BA0F8AE4073449B69B36000F1D6
:2039AC00AE0737600C6804F108050AE0009B73449B68B3600CF101030BFB037353445B1E5A
:2039CC0033607560B3681A43B260D0F8A8000A6940684969006811438162606A40F0030010
:2039EC006062BDE8F88FC0466CBA0100400400201005002000050020300400202DE9FC413B
:203A0C0091EA03084CBF4FF000484FF000084FEAC32545EA52554FEAC2264FEA43077F0D14
:203A2C0011BF45F0004500210020BDE8FC815FF4E06E1EF1FF0E774555D04FEAC12343EAE5
:203A4C0050534FEAC0224FEA4104640D11BF43F0004300210020BDE8FC81744543D0E4193B
:203A6C00A3FB0501A3FB06E7A2FB06631EEB030E57F1000751F10001A2FB05631EEB060E37
:203A8C0057F1000751F10001FF1851F10001C01951F100014CBF4FF4806E4FF4007E10EB1A
:203AAC000E0051F1000148BF641C01D4400049415FF44077FF37E41BDEBF00210020BDE8C1
:203ACC00FC8117F58067BC420DD24FEAD02040EA41504FEA41014FEA113141EA045141EA08
:203AEC000801BDE8FC810020FF21C900C91D090551EA0801BDE8FC812DE9F84F00298346DD
:203B0C00009106DD024600980021401E42F8041BFBD10098DFF8C880DFF8CC900028C8F8CF
:203B2C0000B012DD2F48009C0768002537F8020B38B1D9F80000AE003158002088474BF8D4
:203B4C000600641E05F10105F0D1284F41460120D7F80080C880B8F1000F22DD4FF0000A5E
:203B6C0000980127002817DDABF104060446002556F8040FB0F1FF3F04D0D9F80010695892
:203B8C00884730600021B0F1FF3F08BF01212D1D641E01EA0707EBD137B90AF1010AC24553
:203BAC00DEDB04A006F0A0F80D4900200860BDE8F88FC0467864632E72756E74696D652E5F
:203BCC00537461727475703A20276D61785061737365732720657863656564656400C0462C
:203BEC00E81C0020E4C00100E8C00100E0C001002DE9F84F0C4605465FFA84F8200824BFCC
:203C0C003148444031494FEA8803C85884EA00022A40C2F300672E4A05EA0406A843324079
:203C2C0005F4E0260243B6F5E02F01D1500E14D305F4E020074310D002F4E027B7F5A027D0
:203C4C0007D0B7F5803704BF22F4003242F4A02203E022F4803242F4C022DFF878B01E4FEC
:203C6C00012000FA08FACBF800A0DFF87090CA500146386801FA08F60027064218BF0F1C76
:203C8C0037B9E80D04D34946C4F3805001F80800280E0DD306F07EFD210E34BF0021311C2E
:203CAC000D4A1268B24311430B4A116006F04AFD37B1E80D04D34846C4F3805100F8081001
:203CCC00CBF800A0BDE8F88F006000A000100840007F077FE0200260D020024000200240F6
:203CEC0038B5324C0D46A8084ED2E8085CD330480068006B8047A060606804F17005014680
:203D0C00286878B10069054651B18D4208D0696AC90803D3036A0421002298470120687576
:203D2C00294661604868234900780860022004F0A3FE112000F0D4FF01201F4D20752878DE
:203D4C0010B90E2000F0CCFF60684168886808B9C86810B1194806F085FA1949194D0720CD
:203D6C0000230860296818482B606A686B60174B2A68A36140EA02011A20296006F00CFDAC
:203D8C00192006F009FD38BDFFF79EFC204600F17801096811B902F0CDFE38BD00F58470B7
:203DAC0045F0020106F00CFD38BDC046202D00208C010010D0210840DABF0100510007068A
:203DCC00000004601410044002000040852A01002DE9F041394CA06A02254FF0000805EAE6
:203DEC00020118EA030708BF00290ED141464FF0E24711401F4008BF002956D002F02CFF07
:203E0C004FF0FF3020810A2150E002F025FF4FF0FF302081B4F82A01B0F5505F05D043F2D2
:203E2C000141814241D1072140E094F8280204F50977032839D1208F012813D094F8360135
:203E4C0010F0800003D094F83C0001280AD094F83E00012804D094F83D00012825D1D2E7D0
:203E6C00082123E023792678387A801B84F8D00203B90125791904F52F70324665700831A3
:203E8C0001F014FA94F8D0227619F1B204F2D1207918083101F00AFA94F93F00256C84F8E8
:203EAC00C4024146C4F8C85200E00621226912B104F52F709047BDE8F081C046681000205B
:203ECC00F8B506F000FB02F0CBFC06F01BFB054605F00C000C2854D0E80826D205F09CF85E
:203EEC002A4E376804460120014605F09AFD31686143884219D22649F020B0FBF7F0241A20
:203F0C00887C18B1C868A04238BF041C214D2146284606F079FC284606F07EF80120FDF702
:203F2C00DBFC284605F00EFD2DE0280929D21A4CA4F1200620688168184888470746042FB6
:203F4C00F8D01748690905D227B101460A6822F0010203E001460A6842F001020A6098313B
:203F6C000A6842F003020A6030688169202088470C4C37682068B86B8047012020602068FF
:203F8C0001E006F0F7FB06F0A4FAF8BD88C0010080BE010088150020D80100100040034052
:203FAC008C2108402C2009402DE9F0471E46904689460746B6F1FF3FADF1480D09D046B120
:203FCC00314909AB6846324605F0DCF90220694601E0002103200C918DF834002B4DCDF82E
:203FEC003C902C68CDF8408006F010FBEFF3118A2025E4190B9085F31188424649463846CF
:20400C0005F0B0FC031C33D1002E04BF8AF31188002036D006F0BEF90B99064609A888616C
:20402C00204609A906F0D4FA0B9804F0A9FC9DF834000024022802D10C9802F0DDFD8AF385
:20404C001188304605F0B2F9EFF3118385F311880C9810B106F0D6FB0C940B98846183F354
:20406C0011889DF83400002814BF0E9B231C07E00C9818B106F0C6FB00200C908AF3118812
:20408C00184612B0BDE8F0877D90010090C001002DE9F0430D46334A314906462B46ADF18B
:2040AC00240D04F096FE0028306108BF012053D04FF00108002486F814802B48B461A84287
:2040CC0003D1684605F064FF6D46A946274D2868274601E07F1C2868B84229DC2448B16857
:2040EC00244A006800291AD4B168404617468840F060B168B86906F05FFA306406F04AF95D
:20410C00EFF311850746202080F31188304605F033FF85F31188384605F048F906E01146E3
:20412C00F46040183064314605F07CFD204613E0B06B40F827406968FB0003EB0710401812
:20414C004268002AC6D0304649469047484605F0A1FD0028BED0B81C09B0BDE8F083C0468B
:20416C00859C0100C56C0100CC1B00201CC00100A8C00100681900202DE9F0410646746882
:20418C00B56806F007FBD4F8881000295ED00F4606F0D8FA2968486820F00200486029689A
:2041AC00486A20F0030048626869D4F8A8302969084359680968C1F804052968486920F0EC
:2041CC0001004861286801210162304605F062F87E6806F0DFFA804694F8E00078B116F039
:2041EC00704F06D12EB1062004F0C6FA042004F0C3FA022004F0C0FA002084F8E0004046BD
:20420C0006F0A0FA387C012804BF02203874D4F8A86029696869084371680968C86228680E
:20422C00B0F1804F14BF0B490B49D4F89020D4F88C00896880188904A0EB9150401E38603B
:20424C0004F1380006F0BEFABDE8F08106F07AFABDE8F08100050020300400202DE9F0471B
:20426C0007467D68BE6890468A4606F093FA81463068006B00F48071287800B119B1484659
:20428C0006F060FA57E005F5827006F07FFA0024EC77C5F820A06C623168086B40F480702E
:2042AC000863484606F04EFA05F2291005F0AAFA4146384604F0D2FD05F22919A862A8B986
:2042CC003846414603F0F2F9A878D0B9A96805F1CC0005F074FFE8B1AC621020E87731465E
:2042EC00284601F043FE05F2291022E006F052FA3268916B41F02001916306F023FAA8788F
:20430C0010B12046BDE8F087A96805F1CC0005F056FF10B9686ABDE8F0873846414603F082
:20432C00C5F91020AC623146E877284601F01EFE484605F057FA4FF0FF30BDE8F08770470F
:20434C002DE9FF410746324EDFF8C8803878324D32493070D8F8000014460C2200F00F006E
:20436C008002E860684600F0A1FFE179A07900EB0122131100EB01208000A0EB8310A880B2
:20438C00E279A07900EB0221091100EB02208000A0EB811082B20AB1491C8BB2241D207862
:2043AC000021420807D3BDF8002000F0010002F00102904203D0B3F5707F00DC03B981B1EB
:2043CC0006F09CF9D8F80020A86002F00F029202B0FBF2F0E88006F0E5F9002818BF6B8004
:2043EC0001D169800B46B380F1801BB9384604F013FB0AE001227270B1603846F160114687
:20440C0004F00AFBA02004F0DBFD0090BDE8FF819016002030240340681C00200400010050
:20442C00F8B50F1C054637D105F0B4FFEFF311840646202080F31188287D012811D1284670
:20444C0006F028F8286C06F01EF820B12849EA68486890434860A86918B1C06808B106F02A
:20446C00D1F9287D022808D1A86930B106F012F8A869C06808B106F0C5F9287D032803D083
:20448C00284604F031FC02E0284606F003F884F31188304604F08AFF012F27D0686AB0F1A3
:2044AC00FF3F03D0296AEA6905F08CFF022F1DD0104C2068032F19D0002817DD002F14BF3E
:2044CC003F1F071C002F0BDD002660688019416909B1284688477F1E06F11806F5D1206810
:2044EC0082000548A96B006805F06CFFF8BDC046681900201CC00100B0C001002DE9F04114
:20450C0015460446A869A060686A98460E4608B92C4800686062286A002806BF2A48076816
:20452C00071C06F031F8EB6983B918B1C1194742491E0F40E7610246E169606A434601F09D
:20454C00D9FF2062A8B90120BDE8F081002804BF2362391C09D04142C018401E084020623C
:20456C003F1AE8693F18E7613940E1614FF0FF306062A6622869E06268692063A86A6063F7
:20458C00A88D0128A08703D11149C868401CC86010480068002808DD81000C48006800227C
:2045AC00434606F045F8A06348B120464146FFF76FFD002814BF801C0020BDE8F0810220F9
:2045CC00BDE8F081B8C00100BCC00100B0C00100681900201CC001002F4970B50EC9ADF1C2
:2045EC00500D11A880E80E000021182208230BA805F0DCFF294D0BA905F15404204604F048
:20460C0021FD00212422082302A8EC6005F0C8FF05F168060024012230462149079402AB59
:20462C00ADF8184004F030FB3C2208232E61214605F18C06304605F0E3FF4FF480600321B7
:20464C00C5F8AC003246234605F1A400016074301449C5F8A80005F1C80003F085F9E86824
:20466C00124C0C2211A9119024340420129001201390204600F01AFE684606F013F8A4F1B3
:20468C00080100910C340849019405C881E8050002F0E4FF14B070BDC0BF01004C0B002056
:2046AC0021A7010089090100EC190020901600202DE9F8430446994690460E1C44BF00200A
:2046CC00011C5BD406F078F8054631468022204603F036FE071C04D097F83F1031F07F01B5
:2046EC0006D1284604F032F902200021BDE8F8834FF0E0400A2107F1200640EA090941EAD8
:20470C00080896E8030008EA000019EA010608BF00281CD0284604F019F907F1200003C8CE
:20472C0004F1780604F1780508EA000809EA010986E8000395E80C0007F1200696E80300F8
:20474C0007F120059943904385E8030013E00C48B968884202D0B9682167B86004F16800EF
:20476C0080E80003284604F0F1F804F148004FF0FF3105F024FD783494E80300BDE8F8836A
:20478C00996E010007B401B4314800B5017D80F89D11002380F8903180F82032417D80F867
:2047AC009E11C18A80F8A0110A1280F89F21818B80F8A2110A1280F8A121816980F8A611D0
:2047CC000A0E80F8A3210A0C80F8A4210A0A817F80F8A521ADF1040D80F8A7110C2180F850
:2047EC009C11022180F821121421C0F8241205F011FDFEF78FF810B106A005F075FAFEF7D0
:20480C0045FE10B10AA005F06FFA01B05DF804EB04B07047456173794C696E6B5F7472615A
:20482C006E736D6974206661696C656400C046C0456173794C696E6B5F7265636569766594
:20484C004173796E63206661696C656400C046C0200500202DE9FE4FDFF8C08098F8D101E2
:20486C0000284FD0002501212C4698F8D12101FA04F0104203D1641C032CF6D342E098F86B
:20488C00D1211020A040104218BF0D1C05F082FF98F8D1211121A1408A4388F8D12105F079
:2048AC0051FFE0B205F0F6FB60B3877A57B390F9099019490768012D446851F829600197CF
:2048CC0010D0017A02290DD100F1100191E8000C00274FF0805317EA0B0703EA0A0108BFD6
:2048EC00002901D101F0C2FB012D04D0009600224FF0006303E000224FF0007300920198C5
:20490C004946A04798F8D10120B108F59E70002105F056FFBDE8FE8F94300440202D0020C5
:20492C001EF0040F14BFEFF3098169468869EFF3118102B400B5DFF8A0E0F047294A116812
:20494C0001EA000010605DF804EB1EF0080F03D101BC80F31188704704BC1EF0040F14BF7F
:20496C00EFF309816946A1F1200114BF81F309888D464A604FF08070C8611B488861194B00
:20498C001868086040F201101860704702B401B4EFF3148100291CBF002282F3148802B4E2
:2049AC0002B4DFF838E0F04701BC01BC00281CBF022181F3148801BCDFF824E0F047054843
:2049CC004FF08051016001BC80F3118800BF00BFFEE7C04604ED00E079740100D1A60100F1
:2049EC004BA70100441A0020994901002DE9F0410E460746B6F1FF3FADF1380D09D046B1D7
:204A0C002B4909AB6846324604F0BCFC0220694601E000210320274C0C91EFF31188256882
:204A2C008DF834002024ED1984F31188788980BB002E04BF88F31188002036D005F0AAFC55
:204A4C00064605F0E3FD0B9009A9816103F098FF284609A905F0BCFD9DF83400002502288A
:204A6C0002D10C9802F0C8F888F31188304604F09DFCEFF3118384F311880C9810B105F00A
:204A8C00C1FE0C950B98856183F311889DF834000BE07889401E78810C9818B105F0B2FEF4
:204AAC0000200C9088F3118801200EB0BDE8F08101910100A0C001002DE9B043044605F0E9
:204ACC0069FE81462748221892F8F010491ECFB2002F82F8F0703FD1254901EB84014A88B7
:204AEC000C78904634F07F0718D1E1090FD24FF0805000F5DC75D0F8B8018169104688470D
:204B0C002868416B404688470228F9D11EE000EB8800D0F804110020884717E04FF08055BC
:204B2C00D5F8B801016A10468847D5F8B801816A40468847D5F8B801016B404688470A49F3
:204B4C0001200860094908688008FCD304F03F00132801DAFFF7B0FF484605F0F3FD002026
:204B6C00BDE8B0837C150020282008602820084018B901002DE9F84F984691468A46054661
:204B8C0005F008FE834604F05BFC0AAF061C40D0244C04F1B40005F0F9FDC6F80CA0B4F9F4
:204BAC008C0086F83E90401C6FF31F30A4F88C00C6F808803561B4F88C00B08797E806000C
:204BCC0002230B431849002040EA020720223A40194006F1180383E8060006F120020146AA
:204BEC0082E80300716331634FF0FF37B763802386F83F3004F1700085F8A410314604F0B4
:204C0C002BFD206F864201D101F094FFB6F93C4001E06FF00104584605F094FD2046BDE814
:204C2C00F88FC046202D0020FFEFFF9F1F4838B50468B4F1FF3F08BF002404F027F9032815
:204C4C0033D12448244B002501211038184A056003F15C00214B0160181D00681160806CFC
:204C6C0080471448006820B113480068204600F0BFFD124812490560124C0A686FF35B420E
:204C8C0044EA0200086010490868C0F30130012806D10A680D48104040F400320A60086074
:204CAC000B4908680028FCD138BDFEE71C1300500822044380012843000120438C21084020
:204CCC00482003400000390104000940FFFFFCFC0C0068429404604200600C40EC01001007
:204CEC00F8B5064605F056FD264D0746711991F8F000421C002881F8F0203ED1224C04EB29
:204D0C008604267806F03F00132801DAFFF7E8FF648836F07F0018D1F0090FD24FF08050D4
:204D2C0000F5DC75D0F8B8014169204688472868416B204688470128F9D11EE005EB8405E6
:204D4C00D5F804110120884717E04FF08055D5F8B801C16920468847D5F8B801416A2046EE
:204D6C008847D5F8B801C16A20468847074901200860074908688008FCD3384605F0E2FC31
:204D8C000020F8BD7C15002018B9010028200860282008402DE9FE4F2748284C002700F111
:204DAC0080010226ADF104098046BB46009100F18401019159F8045F286878B3286880694B
:204DCC0004F0BAFF824628680023524603F0D6FA1AF00A0F08D1BAF1000F1FD0286847F4D4
:204DEC008047C8F8880019E028688169236821F0020123EA0100124B20602868C16954F895
:204E0C00082C22EA010044F8080C296803F1080004F022FC47F00207C5F800B0761EC9D17B
:204E2C0027B108F58470394605F0CAFC00F00AF8FEF79AFABDE8FE8F202D002014100440E1
:204E4C00902D00202DE9F047DFF894A0DFF89480002501244FF002091126E8B205F01AF9B9
:204E6C00071C38D0B87A012835D197F90900AAF10401113004FA00F0C2430A604A681043BE
:204E8C00486097F9090004FA00F0C0B204F05AFE07F11000002104F03BF80146812909D1FE
:204EAC00B86918B1002104F033F80146812908BF87F80A9081290ED0404600F2D11297F978
:204ECC000910137806FA01F100F59E7019431170002105F075FC6D1C032DBED3BDE8F08763
:204EEC000C100440202D0020F8B5064605F046FB234A117819B105F025FC01243EE001246C
:204F0C00147005F01FFC1F49086EB1F86820730805D3038813435B0828BF02242CD21A4DD9
:204F2C0005F10C073B685B0826D3EC633B685B08FCD273083CBF0021818007D3848042F092
:204F4C00010201F16007A1F868203868B1083ABF0021C180C480F10838BF0024048105F042
:204F6C00DCFB05F0E3FB286840F0400028602868002420F04000286005F0EEFA2046F8BD6F
:204F8C00191D00202017002000500C402DE9F04105F000FC244D214E804605F1E000007890
:204FAC0048B93446A168022088470746102003F031FC77B31BE005F0A5FAC0091BD21B4801
:204FCC003C380068C4681648342101220023A04788B101F037FB34460020A16885F8E00081
:204FEC00022088470746102003F014FC8FB1A168032088470DE00B4800683221B1FBF0F171
:20500C0001B901213035284605F0BCFB284605F0BBFB404605F096FBBDE8F08180BE0100AF
:20502C0000A00C40BC3700207C150020E00100102DE9F0410E46071C14BF002E002040D0D4
:20504C00224C4FF0FF3104F12800804605F0B7F83078FE2811D022680021FF2808D08242C3
:20506C002AD31F2828DA04EB8000D0F898501DBB491C16F82100FE28EFD1002038607860DD
:20508C00B8603078FE2818D00125FF280FD01F280DDA7B6804EB800105FA00F0C1F89870D9
:2050AC001843094978603268384603F0FBF916F8040FFE28E9D100E00027404605F078FB6A
:2050CC003846BDE8F081C046007FC76768140020B0B501468B681C68E269486822625208E5
:2050EC0024D2D0F8A81049680A685D69D2F80415294206D01C68616A21F002016162C2F841
:20510C000455D2F8042519690A4230D01A68516A21F001015162D0F8A82052681969126820
:20512C003830C2F8041505F04DFBB0BD1C68626922F001026261D0F88870AFB9626822F053
:20514C00020262601C68626A22F003026262D0F8A8005A6940681C6900682243C0F8042544
:20516C00084604F097F8B0BD0846FFF705F8B0BDF0B520480127F84201D002F037FB204D66
:20518C00204F214EBD4206D203CD0478A4003459401CA047F6E71D48002800D08047164D2A
:2051AC00164FBD4202D210CDA047FAE7F0BD03251BE0416808300A1C2A400BD11A1C2A4049
:2051CC00AB4305D0046804300C600431043BF9D1131C05D0047801300C700131013BF9D151
:2051EC00021C2A4001D0A84304300368002BE0D17047C046FFFFFFFF00000000000000002B
:20520C0038C4010068C4010004C40100A97701002DE9F84F81460020C9F80000684601F0CA
:20522C0007FE204FDFF880A000264FF0FF354FF0190B34468046E0B204F02CFFB8B1837AA4
:20524C00ABB1017A0126022915D07968CA8A40690969891897F8D2210BFB021103F042FE75
:20526C0051460968B0FBF1F0854288BF051C641C032CE0D300E00025B8F1000F04D0012E3D
:20528C0005D0B8F1010F05D0012E04D005E00098854200D9009DC9F8005046EA0806F0B2F1
:2052AC00BDE8F88F202D0020BC370020002A4AD05FEA000C8B071CD1830722D1102A08D38C
:2052CC0070B4103A78C978C0103AFBD270BC103238D0042A2CD3082A05D30C2A24BF08C92D
:2052EC0008C008C908C008C908C092072AD0920F22E00B780370491C401C521E22D08B07C7
:20530C00F7D1C30714D18307D8D0121F12D308C903801B0C4380001D121FF8D20AE008C9B1
:20532C0003701B0A43701B0A83701B0AC370001D121FF4D2121D05D00B780370491C401CD7
:20534C00521EF9D16046704770B50125002124220823ADF1400D68468DF8185005F03EF91B
:20536C001D4C29466A4604F13406304603F0A4FC04F15005002128466A46666003F09CFC87
:20538C0000211822082309A8E56005F00FF904F12005284609A903F055FE00213C2208235E
:2053AC00A56004F16C05284605F02AF94FF480600321C4F88C0000232A4604F184000160F4
:2053CC0000F5D4700549C4F8880004F1A80002F0CBFA10B070BDC046200500207D160100D6
:2053EC00FEB584684668206804F08CF9216820488A6B1040886340F2F27120681D4D416406
:20540C0094F82000295C94F8210040198079084321684863684605F0B1F9317F05EB810162
:20542C002068B2690B6A717F05EB810189691943B37F05EB83052B6B0B43019904F02EF955
:20544C002168C86A40F01000C8622168086B40F001000863A07D0027FF2802D0E07DFF28C2
:20546C0000D11FB1086B40F440400863FEBDC0460DF8FFFFACB90100B0B545688468234959
:20548C00607DA27DADF1180D40F000400090207D0027FF2A41EA000001904FF0020002D085
:2054AC00E27DFF2A00D13FB1E37DA07D1943039140F0004002900420FE214DF8201005F17A
:2054CC0054006946FFF7B4FD2866002808BF381C1AD0617D0F2203F0B7FA286E217D102242
:2054EC0003F0B2FAA17D3846FF2902D0E27DFF2A00D140B1286E112203F0A6FA286EE17DD1
:20550C00122203F0A1FA012006B0B0BD0000C0A02DE9F0474FF02009EFF3118889F31188D4
:20552C00204CA068012105F065F94FF0010A0027226861696569A4F81CA0891A2268E783F4
:20554C00461B801A884228D388F3118838462D18361A5046294600F005FEB042F7D9EFF3BC
:20556C00118889F31188E18B012903D13846294600F0F8FDB0F1FF3F06D0A169801B814218
:20558C0038BF081C291801E0A069411904F02EFBA4F820A0A783256000E0A78388F3118819
:2055AC00BDE8F087181B00208B4208BF824204D90B1C021C002100207047002B08BF002AE2
:2055CC000BD10B1C021C00210020002B08BF002A1CBFC943C04300F0FCBFF0B51C4615464A
:2055EC000B46024600200021B4FA84F6202E04BFB5FA85F62036B3FA83F7202F04BFB2FA27
:20560C0082F72037F61BB6F1200727BF05FA07F400257F42B4403EBF25FA07F73C43B54087
:20562C00A34208BFAA4201D3521BA341404149416D0845EAC4756408761EF1D5F0BD70478F
:20564C0070B5ADF1200D02F0FFF92048083038C86A4638C209C8694682E8090005A8FFF784
:20566C00E7FC14210022044602F054FFB926002520460A21002202F04DFFC5F10700092179
:20568C0046FA00F2204602F0010202F043FF20460A21012202F03EFF082005F02CF86D1C90
:2056AC00082DE5DB20460A21002202F033FF20461421012202F02EFF4FF42F7005F01BF84B
:2056CC00204604F09FF908B070BDC04648BE01002DE9FE4F0190214800F170063768994698
:2056EC0092460D460024804600E03F6897B3BD42FBD1D7F800B00198394604F0BBFD18B3DF
:20570C00384600224FF0805302F038FE06F10800B9F1000F00900ED0384600224FF08073AB
:20572C0002F02CFE286998F80431C8F8F80043F0010088F804013046394603F04BFE0098B1
:20574C00394603F089FF641CBAF1000F18BF5FEA0B07CED12046BDE8FE8FC046202D00202D
:20576C00F8B50F4601468E684D683846203829D0401E33D0401E2ED1287B1478012814BF71
:20578C0019491A49FF2C41EA040119D0D5F8A40001F09AF8C8B93068B0F1804F14BF23225F
:2057AC000B22D5F8A400214603F04EF9D5F8A40095F8951001F04EFC85F895400020F8BD99
:2057CC00FF24F3E7287B012802D04FF0FF30F8BD0121002004E06FF00100F8BD0021084655
:2057EC0085F8AC10F8BDC0460004C0A000200080204A2DE9F04180460124A2F130000460E2
:20580C0019480768002FFCD01B49184DC0200B1F28601868800806D253F8040C144B000CB0
:20582C0040F0F000187000204FF080571060D7F8F0010E68016830468847D7F8F0014268C0
:20584C00314640469047D7F8F001816830468847D7F8A001C1680220884740202860074EB3
:20586C003460BDE8F081C0469402224300600C405662084040100940B43F005094046042AF
:20588C002DE9F8438146EFF31188202080F311881E4D1A4C184F012605F11C000660A4F1B1
:2058AC0014000660F86A016A14208847D9F81000810C14BF000C0420206038680268232153
:2058CC00002090470E480F4F0660386800280CBF311C03210C4807680FB141F00401183C9A
:2058EC00206820F4E02040EA014020602E6088F31188BDE8F883C046840100101820094037
:20590C00800224433CC0010040C00100000024432DE9F04106467468B56804F03BFF8046AD
:20592C00A06A58B928688169090907D2006B400A04D2404604F006FFBDE8F08104F58270D0
:20594C0004F024FF00274046A76204F0FBFEA97D3846FF2902D0E97DFF2900D118B1204655
:20596C00294600F003FB04F015FF2A68916B21F0200191632A68116B21F48071116304F086
:20598C00E1FE04F2291003F02DFF606A216A091A21622369626A30469847BDE8F0812DE9FA
:2059AC00F84305466C68A968D4F88870002F3AD0D4F88C203868801AB0F5806F29D8387C78
:2059CC00012804BF002038744FF00008D4F88860C4F88880776804F0DDFE814694F8E00063
:2059EC0070B117F0704F06D12FB1062002F0C4FE042002F0C1FE022002F0BEFE84F8E080A2
:205A0C00484604F09FFEA268284631469047BDE8F883D4F89020D4F88C008018C4F88C00C1
:205A2C002046FDF765FFBDE8F88370477FB5164604461D461E4A0898D269618252F82130C7
:205A4C001C4A12689A420CD0184A12680092164E0191002202923188AA2304F029F90120CB
:205A6C0020E0084602F026FAA66068696060286AB0F1FF3F08BFFF2020740026E660288B19
:205A8C0000280EBF301C0120E0600146A88C10B141F00200E060204601F0E4FB002814BF78
:205AAC00801C301C00907FBD8EBF010048C00100241A00205CC001002DE9F8431F4E4FF057
:205ACC000009A6F8089001E002F07CFA70680028FAD07068B5697469F827B0FA80F1A7EBC9
:205AEC00C1004019844223D2D6F81080706104F08DFE0746306189F31188114D29684C46A3
:205B0C000BE06A68E00000EB04108018C2681AB14046394690472968641CA142F1DC202073
:205B2C0080F3118807F1100108F1100004F0FAFB30890028C5D1BDE8F883C0466819002014
:205B4C001CC001002DE9F04100781F4C0E460321804606F8011C606815464FF0FF31FEF752
:205B6C0045FFAD1CB71EEDB2207884F89081B11E2A46387004F29D10FFF798FB84F89C51F7
:205B8C00002084F82102C4F8240284F82002FCF7C1FE10B105A004F0A7F8606801F05CF802
:205BAC00384604F029F90120BDE8F081456173794C696E6B5F7472616E736D697420666136
:205BCC00696C656400C046C0200500202DE9F0412026ADF1500D86F311881D4C01E002F03A
:205BEC00F1F960680028FAD06068F827B0FA80F1A7EBC100A1694018606104F007FE002361
:205C0C0020610220238104F06DFB984688F311880E4D29681F460BE06A68F80000EB0710DB
:205C2C008018C2681AB121694046904729687F1CB942F1DC86F3118804F086FA216904A834
:205C4C00103104F06FFB14B0BDE8F0811CC001006819002010B5994201D1904233D050EAC0
:205C6C00020404D141EA03046400002C2BD050EA410401D19C4226E04C006415641C07D12E
:205C8C005C006415641C03D1DC0FB4EBD1741AE0002B0CD4002916D4994214D190EA0204A8
:205CAC0001D490420FE0002A0DD101240BE0002909DC8B4207D190EA020401D4824202E07C
:205CCC00002800D10124EFF3008454BF44F0005424F0005484F3008810BD10B58B4201D101
:205CEC00824233D052EA000404D143EA01046400002C2BD052EA430401D18C4226E05C007A
:205D0C006415641C07D14C006415641C03D1CC0FB4EBD3741AE000290CD4002B16D48B42E7
:205D2C0014D192EA000401D482420FE000280DD101240BE0002B09DC994207D192EA000411
:205D4C0001D4904202E0002A00D10124EFF3008454BF44F0005424F0005484F3008810BD59
:205D6C00F8B5054604F016FD1D4C064604F582710878A84304F1D80508702868002808BF43
:205D8C00002706D02868803004F034FA002700B10127686838B1803004F02CFA0025384375
:205DAC0018BF01252F4694F80401A0B9012F12D0D4F8F80078B1416A89080CD3056A30467C
:205DCC0004F0C0FCD4F8F80002210022A8470020C4F8F800F8BD304604F0B4FCF8BDC046B1
:205DEC00202D002070B506467468B568206E03F009FE29681A488A6B104088630020207065
:205E0C003046FFF785FD304601F0F9FD2968C86A20F01000C862296812480A6B1040086303
:205E2C006868FEF749FE04F17C0004F0B1FC04F1980004F0BFFCA07818B904F1CC0004F05E
:205E4C00B5FC607818B904F1E80004F0AFFC04F5827004F091FC04F1680003F073FC70BD08
:205E6C000DF8FFFFFEFCFFFFB0B504F0B9FC002808BF002030D01948194C0768226800251A
:205E8C0009E06168E80000EB0510095811B12846884722686D1CAA42F3DC002F0BDD3C4695
:205EAC0000250020294604F06DFA0021FEF7F0F86D1C641EF5D10B48006858B10A4D074690
:205ECC000024286B50F824000021FEF7E1F8641C7F1EF6D14FF0FF30B0BDC046ACC0010072
:205EEC001CC00100C0C0010068190020B0B51E48164AC1691648C2F8081D07681548D2F86F
:205F0C00083D98420ED06FB1134B1B6800240F2C2CBF1D1C0568001D641C0D607F1E01F1EE
:205F2C000401F4D10D48D2F80C7D0D4D0168202427F47F4000EB01204019C2F80C0D094B76
:205F4C0082F8224D1868C2F8140DB0BD00E000E04CC00100100001005CC0010060C0010068
:205F6C000000FA0554C00100241A002038B50C46054604F00FFC2268916B21F0200191636E
:205F8C0004F0E0FB286E217D012201F081FD286E217D012202F0BEFA286E217D002202F017
:205FAC0053FD286EA17D002202F04EFDA878012806D005F1CC004FF0FF3104F000F903E052
:205FCC00216888690009FCD2286E217D102202F03BFDA17D0020FF2902D0E27DFF2A00D143
:205FEC0018B1286E112202F02FFD38BDF8B507460024081C08BF0124002302B90123002F91
:20600C0030D012B17E6B002E2CD070B1466B66B1396B8D08394604F013FAA5EB96052D1A8A
:20602C00B5F1704F04DB002D02DC012C01D019E00124BAB1D068007B00F00F00022811D1C0
:20604C00116B786B8D081146A5EB9005384604F0F7F901262D1AB5F1704F02DB002DD8BFEE
:20606C00002633431C40E0B2F8BD7047F8B5074604F090FB04467FB3B87A68B397F9092023
:20608C0003F0A0FB012303FA02F1CDB248B1144E113203FA02F0326882433260C34346F811
:2060AC00043C0020B8610346BB723B7207F110063B60024686E80C000A4A7B6002F5E8704F
:2060CC0003781943017092F8D20110B1401E82F8D201284602F056FA204604F033FBF8BDB6
:2060EC000C100440202D0020002213460A46194671B510F0030F0BD0002A82BF00F8011B0B
:20610C00B2F1010210F0030FF6D1002A08BF71BD11F0FF0141EA0121042A18D341EA014101
:20612C00082A0FD30E46102A08D30C460D46B2F10F0312F00F0272C0103BFCD812F0080FFF
:20614C0018BF42C012F0040F18BF40F8041B12F0020F18BF20F8021B12F0010F18BF01709E
:20616C0071BD70472DE9F0470E46804619491A480C682418204604F049FB4FF0FF374FF001
:20618C00000A814621E04D46284604F041FB8146A88A012819D1B8F1010F0ED1E868864234
:2061AC000BD12B69002B08BFA5F814A002D0E868C018E860A969E8698847A88A012804D17C
:2061CC00E868801B874288BF071C4C45DBD13846BDE8F08784C00100181B0020FEB50188EA
:2061EC00B1F5C15F18BF01202DD14169C6698769154DADF1040C03220091144B02962868C1
:20620C000197C0F3036E5CF8047FCFB100213E1F05200D4656F8044FB4F1FF3F10D0A34220
:20622C0006D0401E01F1040105F10105F2D107E0052D05DA785820F4702040EA0E407850BC
:20624C00521EE0D10020FEBD541300500200F844F8B50B4601464C69601E024218BF221C70
:20626C001846631E10EA03071CBF2044C01BCF6801F10C0C77B1531E796803EA070613EA63
:20628C00070518BF561B84198C4205D9BC463F68002FF1D10020F8BD091ABA198D1B3EB951
:2062AC008E4204BF3868674608D03968674602E07E6025B139681018016045603860104679
:2062CC00F8BD7047B0B51A4C0546241D20680004070C27D01448006800688047134991F980
:2062EC000720824205DD10F1800FB8BF6FF07F00C871BD422CBF01277F1B8D88BD4210D8FF
:20630C000A68D4F8D40F801A801C1F2888BF1F207F1B4008C7404FF6FF70EF19B84238BFB7
:20632C00071C8F80B0BDC046EC010010B0370020301009402DE9D841DFF864801648D8F807
:20634C00806003F077FF1549044608680F6800F02000204007F460270DD066B10300C8F8B0
:20636C0088600022304602F009F808F584704FF4804104F025FA17EA04000AD098F8D11145
:20638C0041EA504088F8D101002108F59E7004F017FABDE8D881C04620000E000C10044021
:2063AC00202D0020174810B50068016804208847022821D003281FD001281AD01248006872
:2063CC00C0F38150032805D002280CBF41F28832322201E04FF47A720C490D4C09684C3448
:2063EC002046B2FBF1F104F0CDF9204604F0CCF910BD01F0FFFF10BD01F0FCFF022002F03A
:20640C00BBF910BDE0010010B43F0050BC3700208415002019491A482DE9F041382751F83C
:20642C00048B51F804EB51F804CB51F8046B51F8045B40F8048B51F8044B40F804EB51F842
:20644C00043B40F804CB51F8042B40F8046B40F8045B40F8044B40F8043B7F1E40F8042B32
:20646C00DDD151F8043B40F8043B51F8042B40F8042B09680160BDE8F081C04620A90100CC
:20648C0000C00021034670B52020EFF3118580F3118818680143164800681960C418C01826
:2064AC0003F0F1FF00BB03F075FF0646204604F0ADF90446A169E269184603F053FA606181
:2064CC0060B1204603F0E6FF01202074E06808B103F038FAA068294601F01CF885F31188F9
:2064EC00304602F063FF70BD85F3118870BDC04690C001002DE9FF411D4607460C46134653
:20650C00284603F0C7FB804613B904F097F80346002F12BF381C104800681A4621462B46A2
:20652C0004F0B6F8061C12D1B8F1010F03D0284603F0B0FB58B90A48006800900197074BCB
:20654C000294198800222846342303F0B1FB30460090BDE8FF81C046D8C0010022C10100C4
:20656C00C4C00100F8B505461446A969EA691F462046FEF79BFE64602FB1EA69204639469E
:20658C00082301F081FBE668E8686969AA68079B04F04EF8071C08BF002019D004F042F8D8
:2065AC0069683960696849687960696849680F6069684F6003F0FEFE286807F10804B0F175
:2065CC00FF3F18BFB860286908B1716821502046F8BD70472DE9F8430024002B16460F46CB
:2065EC008046254606D5002FC3F1000302D57F42761E2D2599463846494601F0E7FD0CA0B2
:20660C00405CB7FBF9F7002F04F1010408F8010DF1D1A64205DD3021301B401E08F8011D55
:20662C00FBD10DB108F8015D4046BDE8F883C0463031323334353637383961626364656658
:20664C000000FEE738B54FF08055D5F8E001016801208847012822D0D5F8A401C46811482F
:20666C00342101220023A047002808BF002017D0D5F8800002F022FED5F88C01C06A8047EC
:20668C000A4A094C93681168D060C01AA1EB910104FB00F3180C884228BF011C1160012033
:2066AC0038BDC04600A00C4040420F008837002098B5164C94F8E100002710B91448007897
:2066CC0060B104F067F894F8E310002906BF012184F8E310012704F035F80FB1002098BDCE
:2066EC00022002F0C9F90E20FEF7FAFA094A106848B909494020C86008600127D761002013
:20670C0084F8E20098BD012098BDC0467C15002095BE010004800C402C500C4038B501466D
:20672C0000238A684C7D53801088A0F60200C8B141F21E05401B15D041F6E675401B012847
:20674C0020D8507E012C63F38200507606D0108B20F47C7040F43470108313E0108B63F3DC
:20676C000910F9E7507C012C63F38200507405D0108A20F47C7040F4347002E0108A63F366
:20678C00091010824B7538BD012898B527D116480068016801208847012820D002F02CFECB
:2067AC00134C012104F1D800017003F0ABFE800917D20E4800683222B2FBF0F707B90F4645
:2067CC00083C04F1300003F0E1FF04F13000394603F0D8FF04F1300003F0D6FF01E001F044
:2067EC00BFFA002098BDC046E0010010BC3700208415002018492DE9F8431E46CB8893425E
:20680C0027D1487828B3154C002095015B1C8860E268A068CB804019B0FBF2F15143471AEA
:20682C0011D1B0FBF2F0C7B201F020FE814603F0A5FE8046380303F04DF9404603F082FFC4
:20684C00484603F055F9A07929463246402300F0D5FBBDE8F883C04690160020681C0020AA
:20686C00164880B507683FB315498B6803EA5300C00E21D2134A106880081DD24868800842
:20688C001AD21068096810F0050F4FEA114101F0F00101F5E0710AD1B9420DD2190F38BF7B
:2068AC0040F00100D90E38BF40F0040003E0B94202D920F00500106080BDC0462850094047
:2068CC00AC3F0050000009402DE9F041071C0E4606D0164C2068F5B2A84201D31F2D02DB1C
:2068EC000220BDE8F08104F128004FF0FF31804603F065FC04EB85049834206860B97968E8
:20690C000120A84027603246084307497860384601F0C8FD002400E00124404603F048FFD3
:20692C002046BDE8F081C046007FC7676814002010B503F02FFF1349097802291AD003F0B5
