:020000041000EA
:1049400014F04EBF10B5DFF89C4CE168C96D0E3015
:1049500080B2884730B1E268126EBDE810406FF057
:104960000801104710BD000010B5DFF8784CE16871
:10497000C96D401D80B2884730B1E268126EBDE853
:1049800010406FF00401104710BD0000DFF8581C04
:104990000A7802704A7842708A788270CA78C27047
:1049A0000A790271497941710020704710B50400FD
:1049B00002D100F0B9FE8847DFF8400D2178017080
:1049C00061784170A1788170E178C17021790171BD
:1049D00061794171002010BD10B5DFF8084CE06826
:1049E000D0F8B403804730B9E168DFF8000CD1F8A3
:1049F000C0128847002010BD70B500F029F880472C
:104A000070B9002D18BF012D01D0122070BD2146B4
:104A1000F468DFF8D80BD4F8BC4201232A46A0473B
:104A200070BD000070B500F013F8804778B9002D14
:104A300018BF012D01D0122070BD2A462146F3680F
:104A4000DFF8A80BD3F8DC32BDE87040184770BD22
:104A5000DFF8906B0446F068D0F8B4030D46704759
:104A6000DFF8801B10B5C968D1F8D4120446DFF80E
:104A70007C0B88470AE00000DFF8681B10B5C968A6
:104A8000D1F8D0120446DFF8640B8847207000206C
:104A900010BD000080B5002818BF002900D00AB959
:104AA000122002BDDFF83C3BDB68D3F81032984798
:104AB000002002BDDFF82C2BD268D2F8302210473C
:104AC000F8B504000D4618BF002D01D11220F2BD2B
:104AD0000026DFF8107BF868D0F82C0280473055AC
:104AE000761CF6B2AE42F6D30020F2BD70B5017866
:104AF00041F08F010170FF260379C27844798578EF
:104B0000467043F0C003037142F0200243F03F03BC
:104B1000C270037144F00104447145F03F0542F056
:104B2000CC0244F002038570C270437141F0700101
:104B3000017042F01001C17045F0C00241F0030164
:104B40008270C170002070BD18B1DFF8401C497838
:104B5000017000207047000010B5040002D100F081
:104B6000E3FD88470020DFF8281C421852780255E0
:104B7000401C0828F9DB002010BD0000F8B5040037
:104B80000D461646DFF85C7A03D1F968D1F89C101F
:104B900088471DB9F96800F0CAFD88471EB9F96851
:104BA00000F0C5FD8847DFF84C0D01782170418881
:104BB0002980808830800020F2BD0000012803D1C8
:104BC000DFF8341D02F044B90028F9D012207047F4
:104BD00070B5DFF8105A82B0E968D1F83811044690
:104BE0008847C8B900F0B8FBE0B28847417909B9F5
:104BF000022076BD00F20516317801290DD100F5AD
:104C00008570418800912146EC680388F278D4F8D9
:104C1000B4410020A047002076BD717831B900F082
:104C200097FB0C21904701207070F4E73A2076BD85
:104C300010B5140021D0DFF8AC0911B101290AD058
:104C40001BE0C068D0F80404804710F1800F20708A
:104C500011D1302010BDC168C06840694969406BFE
:104C6000496B806889680079096800EB400040184A
:104C700010F8030C2070002010BD122010BD0000A1
:104C800070B5DFF860690C4601F0B4FA0546884754
:104C900078B901F0ABFA2846884710F8611F2170F7
:104CA000417861708178A170C178E17000792071DC
:104CB000002070BD70B5054601F048F90C280C467F
:104CC00008D1DFF8381CDFF8380C09680068096C77
:104CD000884712E00A2803D1DFF8280C80790CE01D
:104CE000DFF8006901F086FA2846884788B901F0A4
:104CF0007DFAE8B2884790F87400C0B2802818BFE7
:104D000081280FBF7F20DFF8F41C0978401A20703B
:104D1000002070BD70B50C46052C18BF132C06463C
:104D20000AD0142C18BF152C06D01A2C1CBF292C05
:104D30003B2C01D0122070BD00F012FB8847C0B997
:104D400000F0B2FE884700F176010A78012A0AD104
:104D50004978022901D13A2070BD00F00BF800F02B
:104D600087FA904704E000F005F800F0F1FA904768
:104D7000002070BD80F810410021C18302217047DE
:104D80002DE9F0470C0082B0054692461E4603D03E
:104D9000002E18BF012E01D0122051E0DFF84C8CFC
:104DA000DFF8407898F80000504506D2F968D1F84D
:104DB000B8108A208847302042E0F968D1F83811CD
:104DC0002846884700283BD101F090FAE8B288478E
:104DD000DFF82C5C8146287830B9F968D1F8AC103E
:104DE0000120884707202BE001F0ACF82978491E04
:104DF000297001F0A5F98847B9F87A015246904226
:104E000024BF98F8001088420BD2FB68D3F8E03337
:104E100021464846984798B9F968896B20468847E3
:104E200008E02146FC68102000903346D4F8C444C2
:104E30004846A047F968D1F89C13484688470020A7
:104E4000BDE8F6872DE9F04F282883B080468A46D2
:104E500016460FDA002E18BF012E0DD0022E18BFF5
:104E6000032E09D0042E18BF052E05D0062E18BF1C
:104E7000072E01D01220B5E0DFF8881B097809B1B0
:104E80002120AFE0DFF8807BDFF8804BDFF8809BEC
:104E9000DFF850577F6041F60A0139804000002159
:104EA0007980B9606630397BB87301F0600139737D
:104EB0008020797BF87301F0F00141F002017973F1
:104EC0003C61C7F814900020208084F802A01846A6
:104ED000E670012818BF0228514640F6C41B22D1B3
:104EE000EB68D3F8143300229847B0F5BC7FD8BFE5
:104EF000C4F804B033DDB0F57A7FD8BF41F2883012
:104F00002CDDB0F5CB6FD8BF41F64C5026DD40F616
:104F100049018842B8BF42F210701FDBE96800F017
:104F200006FC88471BE003280CBF082002204143F1
:104F3000C9001B2202FB001000F5BC7080B2F930E2
:104F400040F2712190FBF1F140F27122616002FBAD
:104F5000110000B1012040180BFB00F06060207AC6
:104F600000F0FE00207200206072E060E07A01F044
:104F700041FDE0720020A9F80000DFF88049DFF869
:104F8000940A016881F80080016881F801A0016835
:104F90008E70002100688180C18080210172DFF85D
:104FA000780ADFF8781A007808700920DFF8541AB8
:104FB0000870E868D0F834048047DFF8640A0021FC
:104FC000CDE90001E868D0F8E0322468DFF8300964
:104FD000D4F80880006803223946C047DFF8441A35
:104FE00008800020BDE8FE8F30B5282883B001DBA3
:104FF00012203EBDDFF80C1A0A780AB121203EBD0E
:10500000DFF8042A41F60904148043000024548088
:1050100094606633147B937304F0600414738023EC
:10502000547BD37304F0F00444F0020454735260D0
:10503000DFF8F439DFF8CC481361546100251D60B6
:105040000F251D7101255D71DFF8E0599D60552523
:105050001D735D739D7300251D61DD7B05F0F005FB
:1050600045F00105DD73002323806380A380802346
:10507000A3710023A360DFF89C391C682070002016
:105080001C686070FF201C68A0701868DFF86C480E
:1050900000238380C380802303720A2008700C21C0
:1050A000DFF88C09018041F2A40141804FF40163D3
:1050B0004FF6FF714160DFF87C190B804A60086190
:1050C0000023DFF85C29DFF81C054B808B60CB6088
:1050D0004B61CDE90023C068D0F8E032246801F0CC
:1050E000E3FCA04701F0DABC38B5DFF818492078B6
:1050F000092818BF0A2801D0212032BDDFF8E45466
:1051000000F028FF88472078092814D1DFF8041917
:10511000DFF8FC08096800888880E968DFF8FC0887
:10512000D1F8501400788847EA68D2F85421002159
:105130000020904724E00A2822D1DFF8D80801682F
:10514000DFF8C007028843889A1883889A188A80F3
:105150004288CA808279802A18BF812A0FBF7F22A5
:10516000DFF8983893F90030D21A0A720121EA6800
:105170000088D2F854219047E868D0F8340480477A
:105180000020207032BD00002DE9F047DFF85454B4
:1051900086B08946E968D1F83811044692469846A7
:1051A000884700283CD100F0D7F8E0B2884706468F
:1051B00006F5A67006F5A0770490434678890E9C04
:1051C000D5F80CC003905246387A0290494630898F
:1051D000019000943046DCF8BCC4E04708B11224CA
:1051E0000EE0A7F80090A7F802A0A7F8048006F147
:1051F0008A00FC808480A0F800A0A0F8028000242F
:1052000030680078802805D100F032F8002130465F
:10521000904704E000F02CF81021304690472046DB
:1052200006B0BDE8F087000070B501F08BFD88473F
:10523000E8B900F039FC8847064606F1FD00017820
:10524000490707D40F210175072100F011F83046F6
:1052500090470BE0E968D1F8D01330468847EB68F7
:10526000D3F8483422460F2130469847002070BDBD
:10527000EA68D2F8302470472DE9F8438146884621
:1052800040F67B40A8F10601164681423CBFB11FA3
:1052900081421F4611D246450FD3B7F5FA7F0CDA8B
:1052A000089CA4F10A0140F6774291423FBF781C66
:1052B00071004843B0EBC40F01D3122045E000F069
:1052C0004FF84846884700283FD100F045F85FFA7C
:1052D00089F0884700F177010A792AB10A78002A13
:1052E0001CBF0F2A102A02D0C97A012901D13A2005
:1052F0002BE00268127890F8FD10402A03D18A074B
:1053000058BF112021D500F5A072A2F80080568068
:105310009780D48000F1840202239370002393804D
:10532000838ED680DB1D138017815481012289076B
:1053300080F83B2104D400F00BF80021904703E0F3
:1053400000F006F80F2190470020BDE8F28300002E
:10535000EA68D2F8D4237047E968D1F8CC137047D3
:10536000A04DE968D1F83811704700002DE9F94DDA
:10537000DFF81C4C82B01646226800201071BDF880
:105380000820DDF830801F4686B1012E05D0032E9F
:1053900018BF022E0ED0042E5DD10D9B002B5AD0CB
:1053A000B8F1000F18BFB8F1010F54D1032E18BF88
:1053B000022E09D143F66173A2F1A00098423CBFCE
:1053C000A1F1A000984246D2002E18BF042E08D1A9
:1053D00043F6E173203A9A423CBFA1F12000984283
:1053E00039D2BDF80800814235D3002F18BF012FF4
:1053F00003D0022F18BF032F2DD1DDF83CA0BAF146
:10540000000F18BFBAF1010F05D0BAF1020F18BF93
:10541000BAF1030F1FD19DF83800072108421AD0B6
:1054200020684079012808BF0C2015D0012E18BF34
:10543000042E6C4DDFF810BC36D1022F18BF032F9D
:1054400028D1EB680D9AD3F8703308F00101584663
:105450009847FF2801D1122088E01D2101FB00B0F0
:1054600000900D30E968D1F87C13884790B9EA685C
:105470000098D2F87423C11D0D3090472168012097
:10548000887606220098EB68DB6BC11D206814301B
:10549000984709E0206880F81A800622EB682068A7
:1054A0000D99DB6B143098479DF838002168DFF8C0
:1054B000388100F00700487220680672206880F882
:1054C0000AA03FB92168002000F05AF841460C308C
:1054D000984741E0012FDFF824A207D1216801207D
:1054E00000F04EF851460C30984735E0E968D1F8A5
:1054F0007C13022F0BF10D0017D1884738B100F053
:1055000041F8062241460C309847002003E000F0A5
:105510003DF8984703202168C872002000F02AF85F
:1055200041460BF10100984716E0884738B100F07A
:1055300029F8062251460C309847012003E000F07C
:1055400025F8984703202168C872012000F012F85E
:1055500051460BF1010098472168012E0CBF002035
:10556000BDF80800C88001200871002004B0BDE823
:10557000F08D00008BF800000622EB68DB6B7047B3
:10558000C8720622EB682068DB6B7047EB68206806
:10559000DB6B06220BF107010C30704710B5202899
:1055A00005DADFF8EC2913685877B0B109B9122091
:1055B00010BD1068037F83F001030377002008E02B
:1055C0001C7FC4EB4414E318C318445C9C77401C54
:1055D000C0B213685C7FA042F2DB11680120C8767C
:1055E000002010BDF84400202C4E0020CC470020A5
:1055F0002DE9F041DFF80C442178092918BF0A2968
:105600004AD00B291CBF0C290D2945D0DFF8805941
:1056100029680A79002A6FD00028DFF8CC6C39D0CD
:10562000012869D14879012836D0087A00281CBFA2
:105630000128042814D1DFF8C80C007800285BD0BA
:10564000524A5278824208BF092021D0F3688A7EEC
:10565000D3F8BC3314318020984708B10B2017E0F1
:10566000F168D1F894130120884729680860012067
:105670004871F068D0F854048047207838B9296818
:10568000DFF8AC0C097A085C00F0DCF980470020F8
:10569000BDE8F081487908B92120F9E700F052FC13
:1056A0008046F068D0F8F0038047012807D0F06802
:1056B000D0F8EC03804729680968884204D100F0DB
:1056C000BBF98847012700E0002700F0C1F98847AF
:1056D00000F0D4FB28B1F168DFF83C0DD1F88C1351
:1056E00088472078002818BF002F02D000F0ABF9BF
:1056F000804700F07DF9CAE71220C9E7344E002048
:1057000038B50400DFF8E05B03D1E96800F00FF87A
:105710008847E868D0F804048047207010F1800FB3
:105720000CBF3020002032BDDFF8BC1BC968D1F8A7
:105730009C1000207047000030B50246202A06DA8F
:10574000DFF84C381C6884F85E00C0B109B912203B
:1057500030BD186890F85D4084F0010480F85D4029
:1057600000200AE01C6894F85D50C5EB45152C1923
:105770000419455C84F85F50401C9042F2DB1968C4
:10578000012081F85C00002030BD0000684E002040
:10579000EC4D00202DE9F047DFF8806C914632682F
:1057A000884600211171002818BF01281CD11A0059
:1057B00018BF012B03D0022B18BF032B14D143F6C3
:1057C000FD71A8F104078F423CBFA9F104078F4285
:1057D0000AD2C84508D30899002918BF012905D065
:1057E000022918BF032901D0122081E037687A7995
:1057F000012A08BF0C207BD0B872DFF84C793068E2
:1058000081749BB931680020C87231683878087398
:105810003168787848733168B87888733168F87877
:10582000C873316838790874787916E0012BDFF88D
:10583000F04B15D131680120C872316820780873A7
:105840003168607848733168A07888733168E0788F
:10585000C8733168207908746079316848743FE012
:10586000DFF8845ADFF8E0A7E968D1F87C13022B4F
:105870000AF10D001AD1884740B1EB683068DB6B44
:10588000062239460C309847002003E000F03CF82F
:10589000984703203168C87200208AF80000FFF79B
:1058A0006BFE39460AF10100984719E0884740B17C
:1058B000EB683068DB6B062221460C3098470120EC
:1058C00003E000F021F8984703203168C8720120F6
:1058D0008AF80000FFF750FE21460AF101009847C0
:1058E00030680121A0F80680A0F80890017100201E
:1058F000BDE8F087604E0020794F0020F04E002078
:10590000EC4E0020E04D0020EB683068DB6B062297
:105910000AF107010C3070472DE9F041394C0F4670
:105920002178092918BF0A292CD00B291CBF0C2962
:105930000D2927D0DFF8E45A29680A79002A53D0C4
:10594000DFF8A469E0B101284ED14879012819D0C7
:10595000F168D1F894130220884729680860012073
:1059600048712868C774F068D0F898048047207898
:1059700018B9052000F066F880470020BDE8F081E6
:10598000487908B92120F9E700F0DCFA8046F06890
:10599000D0F8F0038047012807D0F068D0F8EC0376
:1059A000804729680968884204D100F045F8884793
:1059B000012700E0002700F04BF8884700F05EFA6E
:1059C00038B1DFF8F00CF1684069D1F88C13001F92
:1059D00088472078002818BF002F02D000F033F845
:1059E000804700F005F8C8E71220C7E76B4F00209A
:1059F000DFF8C41C0968404608470000704F0020CB
:105A00007A4F00206F4F0020CC4C0020C44D002066
:105A1000944E00201C4F0020724F0020714F002038
:105A200002000080424F0020704D00202941767115
:105A3000444E0020144D0020F168D1F8081440F2C3
:105A4000024070472070F068D0F8400470470000B2
:105A5000296800204871F1682868D1F8E41370477C
:105A600070B50C00064601D1122070BDFFF778FC1E
:105A70008847C0B900F018F88847016809784029BC
:105A800001D00C2070BD00210A5D431A491C102969
:105A900083F8E620F8DB012180F8E8100521FFF704
:105AA000E7FB9047002070BDE968D1F8CC13F0B255
:105AB0007047000038B500F07DFB8847E8B900F07A
:105AC00073FB884701680978402901D00C2032BD5A
:105AD00000F1F4010A78012A07D106220A7702218F
:105AE000E268D2F83024904706E006224A700D2181
:105AF000E268D2F830249047002032BD2DE9F84FFB
:105B0000054600F0B7F940790128894617469846BE
:105B100015D0DFF8D467F168D1F8F4130420884772
:105B200001281EBFDFF82C0D0078092807D00A28AD
:105B300018BF0B2803D00C2818BF0D2801D1212035
:105B400095E143F6FD70291F81423CBFA9F1040194
:105B5000814280F000814D45C0F0FD801FB1012FD2
:105B600040F0F98003E00A98002800F0F480B8F1D2
:105B7000000F18BFB8F1010F05D0B8F1020F18BF20
:105B8000B8F1030F6ED10B9C002C18BF012C03D071
:105B9000022C18BF032C65D111991098814261D352
:105BA0000C9840F67B41821F8A423EBFBDF83420EC
:105BB000921F8A4256D2BDF83410814252D3BDF8AA
:105BC0003800B0F5FA7F4DDABDF83C100A3940F6DE
:105BD0007742914246D2BDF83410401C49004843F8
:105BE000BDF83C10B0EBC10F3CD2F068D0F81C04FB
:105BF0008047012808BF3A2022D0002F04BF0A980E
:105C000000282FD0F068D0F8A00380475FEA000B8F
:105C100008BF092014D0DFF8241D09689BF806008E
:105C20008874424600F026F9C580A0F80890877273
:105C30004020F3680A99D3F8BC33984708B10B2089
:105C400015E1F268D2F820240BF161015846904723
:105C50000BF12405A87D022805DAF168D1F82C148F
:105C60005846884777E0DFF8D40CDFF8DC9300680B
:105C7000C47200F0FFF83CB9F368DFF8CC14DB6BBA
:105C800006220C3098474AE0012C07D1F368DFF870
:105C90009017DB6B06220C30984740E0F168D1F892
:105CA0007C1309F10D00884770B1DFF8900C022CCD
:105CB0000CBFDFF89414DFF86817F3680068DB6B3B
:105CC00006220C30984711E0F268D2F8742309F1EB
:105CD000070109F10D009047DFF8600CF3680068D8
:105CE000DB6B062209F107010C309847022C0BD11F
:105CF000002089F800000622F368DFF84C14DB6B03
:105D000009F1010098470AE0012089F80000062205
:105D1000F368DFF80C17DB6B09F101009847DFF837
:105D2000F846D7B98BF826810622F3680A99DB6B0F
:105D30000BF590709847B8F1020F18BFB8F1030F38
:105D400042D1F3680A9AD3F8703308F0010148464B
:105D50009847FF2838D1122089E0002704EBC700BC
:105D60004179CA0744BF01F0EF0141717F1C102F38
:105D7000F4DBB8F1020F18BFB8F1030F24D10127EB
:105D80001D2000FB07F818F80900FF2819D0F1685A
:105D9000D1F87C1308EB090A0AF10D00884780B995
:105DA000F36818F80920D3F8CC320AF10101204633
:105DB0009847102805D004EBC000417941F010014C
:105DC00041717F1C0B2FDBDBF068D0F8E8038047C4
:105DD0006860F068D0F8F80380472860BDF83400A8
:105DE000E881BDF83C006882BDF83800288200F0E8
:105DF00041F8C07C28720220A8720020A881F068B7
:105E0000D0F82C0280470C2190FBF1F10C2202FB10
:105E10001100401DE8750420F168D1F894138847FB
:105E2000DFF8181B0968086001204871F1689BF8C9
:105E30000600D1F87814884700F088F8B0B900F06F
:105E40001DF820B1F168D1F8841320468847DFF8A7
:105E5000EC0AF1680068D1F85C14807C8847DFF8B0
:105E6000F41906200870FFF7EEFD80470020BDE81A
:105E7000F28F0000DFF8C40A00687047DFF8080DF1
:105E800000787047F8B5DFF8B44A2068407938B137
:105E9000DFF85454E968D1F890130420884708B912
:105EA0000C20F2BD00F04EF80646E868D0F8F0038A
:105EB0008047012807D0E868D0F8EC0380472168C4
:105EC0000968884204D100F045F88847012700E0BE
:105ED0000027216800204871E9682068D1F8E413A0
:105EE00088472068E968807CD1F8CC138847E96846
:105EF000D1F82C148847EA68DFF8F40A926D00782C
:105F000010219047FFF7BAFF58B1E968DFF8D84988
:105F1000D1F88C1320468847E968D1F8C81220468A
:105F2000884700F013F8002818BF002F03D0E86856
:105F3000D0F84004804700F003F93046884700203D
:105F4000F2BD0000DFF8D00C00680047DFF804095C
:105F500000787047E968D1F8081440F202407047B1
:105F60000146B1F5706F04DADFF89423127890429D
:105F700001D312207047DFF88C0340684FF4C072E1
:105F800002FB0100407900280CBF0220002070476E
:105F9000104F00202DE9F04104000BD02079E021C2
:105FA000084207D1D04DE968D1F8A41320468847AC
:105FB000012801D0122044E00027DFF84883D04EAA
:105FC00000E07F1C3078FFB2874217D2D8F8040077
:105FD0004FF4C07101FB070040790128F1D1FFF7B0
:105FE000BBF9384688477730017911B1017801292A
:105FF00002D0407E0128E4D13A2022E000271BE0B5
:10600000FFF7AAF9384688474179012902BF01689C
:10601000097880290FD100210A5D0B18491C052938
:1060200083F86120F8DB818EC91DA0F89210012150
:10603000FFF78EF990477F1C3078FFB28742DFD39D
:106040000020BDE8F0810000AC4500202DE9F047BC
:106050005FEA0108154699461CBF002DB9F1000FF3
:10606000044601D1122069E000F044F98847002875
:1060700064D100F03BF9E0B288470446206800781C
:10608000802818BF0C2059D104F1E706B07DC00765
:1060900058BF112052D5B07C012808BF3A204DD0FE
:1060A000FFF750FF82460120B074002010F808105E
:1060B0000219401C082882F8B010F7DB04F1B80080
:1060C0002978017069784170002010F80910221AAF
:1060D000401C102882F8E610F7DBF968D1F824128A
:1060E00004F1A8008847F968D1F8201204F19C0057
:1060F0008847FA68DFF8EC0CD2F830220C21904780
:10610000002084F866003070707094F894000128C4
:1061100007D170730A21FA68D2F8D4232046904739
:1061200007E0002070730321FA68D2F8D4232046D8
:10613000904700F005F8504688470020BDE8F087FA
:10614000DFF87415096870472C4E002038B500F050
:1061500031F8884738BB00F027F8884700F1FC0188
:106160000A78022A08D1E3688179D3F8AC3100F1CA
:10617000FD020020984715E002681278802A05D1B8
:10618000E268D2F8D423082190470BE0402A09D1D5
:106190004978090701D4112032BDE268D2F8D4232E
:1061A0000E219047002032BDE168D1F8CC13E8B24F
:1061B000704700004C4CE168D1F838110546704733
:1061C000F8B5494E0C4600F011F80546C0B28847B4
:1061D00000F010F807462846884730B9D7F8340150
:1061E0000A21B0FBF1F020800020F2BDF168D1F867
:1061F000CC137047F168D1F83811704770B5DFF8EB
:10620000F44C0D46E168D1F838110646884750BB7A
:10621000E168D1F8CC13F0B288474DB100F13201FA
:10622000EA004B8809885B1C490059438A4201D225
:10623000122070BD00F59A760A216943316090F80A
:10624000940078B1FFF77EFE054600207071E26889
:106250003068D2F894204108B0799047FFF770FF7A
:1062600028468847002070BDF8B506460C46A4F1C4
:106270001B00E12815460ED2A5F5A470B0F5E06F1D
:1062800009D8DFF8640B0088A04222BFDFF8B40B06
:106290000088A84201D21220F2BD00F02BF830464F
:1062A0008847F8B900F022F8F0B2884790F8FD105E
:1062B000890601D41120F2BD00F5AF718A7ED206A5
:1062C00001D51A20F2BD0A78012A01D13A20F2BD87
:1062D00001224C80CD800A701421FA68D2F8D423B0
:1062E00090470020F2BD0000F8440020F968D1F882
:1062F000CC137047DFF8FC7BF968D1F83811704790
:106300007B4F0020684E0020002202800A80DFF8C8
:10631000382B5278920601D411207047DFF82C2BCD
:1063200012880280DFF8D00B0088088000207047B8
:10633000289A0110A0F11B02E12A0ED2A1F5A47245
:10634000B2F5E06F09D8DFF8A02A1288824222BF96
:10635000DFF8F02A12888A4201D212207047DFF853
:10636000E82A5278920601D411207047DFF8DC2A1F
:106370001080DFF8840B01800020704710B50024E6
:1063800004800C8014801C80DFF8BC4A6478A4066A
:1063900001D4112010BDDFF8504A24880480DFF8B2
:1063A000A40A00880880DFF8540B00881080DFF80A
:1063B000500B00881880002010BD000010B5DFF8D9
:1063C000444B64780CB10C2010BDDFF87C4A647833
:1063D000A40601D4112010BDA0F11B04E12C3CBF88
:1063E000DFF8044A208040F20170A1F5A4748442D1
:1063F0003CBFDFF8504A2180A2F11B01E1293CBFDC
:10640000DFF8F81A0A80A3F5A47181423CBFDFF8D7
:10641000F00A0380002010BDCC470020144F00205C
:10642000344E00202DE9F041064630000C4618BFDE
:10643000012E9046194646D1B8F1000F02D0002C2B
:1064400041D003E0002C3ED100293CD0DFF8B80A4F
:10645000DFF8B82A0068DFF830374079012818BF24
:10646000002000F07BF918BF0022104300F074F9FF
:1064700018BF00221B781BB1104318BF0C2048D155
:10648000DFF8705ADFF8887A99B1EB68DB6B10227D
:1064900007F10D009847EA68D2F83822102107F179
:1064A0000D009047EA68D2F87423F91D07F10D003A
:1064B0009047B8F1000F2BD0012E06D1607900F083
:1064C000C000C02801D0122023E001201D2141433B
:1064D000CA5DFF2A1FD1CE55CE19EB68DB6B0622B1
:1064E0002146701C9847EB68DB6B1022414606F191
:1064F0000D00984700F03EF9884748B9EA68D2F89D
:106500003822102106F10D00904700F02BF990473A
:106510000020BDE8F081401C0B28D7DB0720F8E7FE
:106520002DE9F843040018BF012C884602D1B8F1C8
:10653000000F01D112202EE000F05EF818BF0020FD
:1065400000F067F818BF002100F060F818BF0021C4
:1065500012781AB1084318BF0C201CD10126DFF8AD
:106560009499DFF8AC591D2000FB06F7785DA04236
:106570000DD1D9F80C30D3F8843078190622414671
:10658000401C984718B1FF207855002003E0761C86
:106590000B2EE8DB0220BDE8F2830000F8B500F026
:1065A0002BF818BF002000F034F818BF002100F0CD
:1065B0002DF818BF002112781AB1084301D00C2021
:1065C000F2BD012400F058F81D206043FF218155E1
:1065D0008719EB685B6C06220021F81D9847EB6871
:1065E0005B6C1022002107F10D009847641C0B2CF6
:1065F000EADB0020F2BD0000DFF80C09DFF80C191F
:106600000068DFF810294079012870470843DFF857
:106610000819096849790129704700000A210170A9
:106620000020704770B5002818BF0128144603D118
:10663000002918BF002C01D1122070BD00F01CF8F9
:10664000EB68D3F870330A46014630469847FF2876
:106650000AD0EB68DB6B1D2101FB0060C11D062227
:1066600020469847002070BDEB685B6C0622002135
:1066700020469847022070BDDFF87858DFF8906810
:106680007047000080B5002818BF0128134603D1C9
:10669000002918BF002B01D1122002BD1846DFF8D7
:1066A0005438DFF87818DB68DB6B06229847002047
:1066B00002BD0000D04B002000450020F8B5DFF8F7
:1066C0004818DFF84828FFF7A4FF18BF002100F0A2
:1066D00045F818BF0022114300F03EF818BF002211
:1066E000114301D00C20F2BDC14FFFF7C5FFDFF809
:1066F0002448C0B101282CD12078B0B900F03AF874
:10670000884760B9EB68626838781B6F4FF4805136
:10671000984708B10320F2BD00F024F8904701200B
:1067200020700020F2BD207808B91E20F2BD00F0D4
:1067300021F8884758B9EA683878526F4FF4805189
:106740009047EA683878D26F4FF480519047002024
:10675000E6E71220F2BD0000DFF8BC27126852798C
:10676000012A7047EA68D2F87423F11D06F10D0082
:1067700070470000E968D1F87C1306F10D007047FE
:1067800038B518B14AF2B911884201DB302032BD68
:10679000DFF8F4134FF47A72504348600878012808
:1067A00016D1DFF85047DFF87807E168D1F87C139D
:1067B000884768B9E268DFF86C57526F28784FF461
:1067C00080519047E2682878926D4FF4805190474D
:1067D000002032BD30B5DFF81C47DFF84C5791B0D0
:1067E000E268D2F830222021284690472846DFF878
:1067F0003C57DFF83C372D68AD6808AA6946A847C2
:1068000000B11F20E368D3F8383308AA69469847D7
:10681000002011B030BD000010B592B0DFF81017A5
:10682000DFF808472468019100F120020AA90091CD
:106830000146E468DFF8F00602ABA04700B11F2074
:10684000DFF8B026D268D2F8302302A990470020A2
:1068500012B010BD6F4F002000290FBF1220012081
:1068600008700C207047000038B50D00044608D0B1
:10687000DFF88016C8684069406B80680079844200
:1068800001D3122032BDC968D1F850142046884780
:10689000DFF8A006047001202870002032BD00003F
:1068A000DFF894160A78002818BF012805D108706F
:1068B00082420CBFFF20002070471220704700006A
:1068C0000C2070470C20704780B5002818BF0029A5
:1068D00000D00AB9122002BDDFF81836DB68D3F801
:1068E0000C329847002002BDCC47002010B50400B0
:1068F00001D1122010BDDFF80C06407808B10C2041
:1069000010BDDFF8F005C068D0F810048047DFF84C
:1069100038052278417811404170627881781140C1
:106920008170002010BD0000002818BF012803BF9F
:10693000DFF808160870002012207047184F00205A
:10694000DFF8FC150978072901D00C2070470028D2
:1069500018BF012803BFDFF8EC15087000201220D3
:10696000704700007CB5282903DA050018BF012D07
:1069700001D0122076BDDFF8C845207808B121206B
:1069800076BDDFF87065F268D2F83C24480000F666
:10699000621081B201209047DFF8AC1540F6080084
:1069A00000F0C4F8012D087B00F06000087300F0CF
:1069B000C3F80CBF03200A2088730022DFF88C057F
:1069C0004861002008828861CDE90022C87C00F07F
:1069D00011F8C87403220B202070DFF87445F068AA
:1069E00000F0B2F8A047DFF86C150880002076BDF3
:1069F0006E4F002000F0F00040F0010070470000F2
:106A000030B5DFF83C0583B0017809B121203EBDE7
:106A1000DFF84415DFF844450B7B496003F0E003E1
:106A200043F085030B7341F60A024B7B0A8003F0A7
:106A3000F00343F002034B73002266238B734A80FA
:106A40008023CB7340F6C412DFF814358A600B61E3
:106A50004C615A6001251A7A1D8002F0FE021A72FA
:106A60002525DA7A9D7002F0F002002542F001023D
:106A7000DD705D72DD60DA7225800D220270DFF854
:106A80007404DFF8E024C068DFF8C4442468CDE96A
:106A90000025D0F8E03200F007F8A047DFF8B41482
:106AA000088000203EBD0000DFF8BC04A468006838
:106AB0000322704730B5282883B001DB12203EBD89
:106AC000DFF87C44217809B121203EBDDFF8245451
:106AD000EA68D2F83C24400000F6621081B200203F
:106AE0009047DFF8881440F6070000F01FF80022F6
:106AF000087B00F060000873CDE9002200F01CF86C
:106B0000032202208873DFF84404086100204861F2
:106B1000C87BFFF76FFFC8730C202070DFF830448C
:106B2000E86800F011F8A047B8E700000880496065
:106B30000020488088607047487B00F0F00040F0FB
:106B40000200487370470000D0F8E0322468DFF894
:106B50001804A4680068704710B5FFF7F7F90B2810
:106B60001CBF0C280D2801D0212010BDDFF8844364
:106B7000E168D1F8081440F201408847E068D0F895
:106B8000D8018047002010BD784E002008B912209F
:106B90007047DFF8AC13097809B10C20704703780F
:106BA000DFF8CC13DFF8CC23FF2B04BF4378FF2B97
:106BB00017D18378FF2B04BFC378FF2B11D1037942
:106BC000FF2B04BF4379FF2B0BD11078087050784E
:106BD000487090788870D078C870107908715079B2
:106BE00016E00B7813704B7853708B789370CB78DA
:106BF000D3700B7913714B79537102780A70427814
:106C00004A7082788A70C278CA7002790A714079B3
:106C10004871002070470000FC440020B0F5FA7F66
:106C200001DD12207047C6490978082918BF0729D5
:106C300001D10C207047B84909681528B8BF072250
:106C400022DBA0F115030A2B38BF06221CD3A0F1CA
:106C50001F03142B38BF052216D3A0F13303192BC1
:106C600038BF042210D3A0F14C03192B38BF0322E4
:106C70000AD3A0F16503322B38BF022204D3A0F15E
:106C80009702642A9241D20FCA749F4909684882C8
:106C9000002070470C2070470C2070479549C96848
:106CA0004969496B8968097988422FBF1220B24926
:106CB00008700020704700000C20704738B5FFF7BF
:106CC00079FA8847E0B9E068D0F8EC0380470078AB
:106CD000802806D0E068D0F8EC0380470078402890
:106CE00005D1E168D1F8081440F202408847FFF767
:106CF0005BFA8847E268D2F8C0231621904700204B
:106D000032BD000070B500F01DF8884770B9FEF77D
:106D1000CBFE884700F5897014B1012C07D00FE035
:106D20000021018041808180C180002070BDEC681D
:106D3000C388828841880088D4F88C42A047F4E751
:106D4000122070BD6B4D0C46E968D1F8381106462B
:106D50007047000070B5674E0D46FFF74BFA0446CA
:106D6000884730B9FFF742FAE0B28847C0F81C51B3
:106D7000002070BD0C2070470C2070474A1E114245
:106D800001D012207047604A136883F89D00106894
:106D9000A0F89E1000207047F8B5564F0C46F968D1
:106DA000D1F8381106461546884740B9FFF79EFAD4
:106DB000F0B2884700F59470047045800020F2BD61
:106DC0006E4B10B1012802D00AE019807047188874
:106DD00010701888000A507000209070D0707047B2
:106DE00012207047F84D0020484F002080B5010068
:106DF0004C48404B007802D0012908D00EE0DB68F7
:106E00001B6F64224FF400719847002002BDDB68BD
:106E10001B6F64224FF480619847F6E7122002BD91
:106E20000C20704758B1564A1278824207D3002985
:106E300018BF012903D1534A1170534908E01220A9
:106E4000704700004A4F0020EC4D0020444F0020C6
:106E500008700020704700002DE9F04114464B4DAA
:106E600008B12A78027011B1264840780870002CC9
:106E70003DD000270026DFF87C801BE0D2B200F571
:106E800090701155DBB201781955591C427800F009
:106E90007FF8827800F07CF8C27800F079F8027907
:106EA00000F076F8427900F073F88079C9B24F1C8F
:106EB0000855761CF6B22878864218D2D8F80C10FD
:106EC000D1F83811304688470028F2D1D8F80C1094
:106ED000D1F8CC1330468847FFB27A1C3E55531C7C
:106EE0000168097880290CBF00210121C6E7002034
:106EF000BDE8F081F8440020464F00204C4F0020B0
:106F00004E4F0020684E0020104F0020144F0020EC
:106F1000AC450020784E0020184F0020B3450020DB
:106F2000B94500206E4F0020144C0020F44E002084
:106F30007C4B0020714F0020734F0020774F0020C2
:106F40006F4F0020784F0020344C0020294176718B
:106F5000F04E0020424F0020CC4C0020944E0020E8
:106F6000C44D002001000080EC4E0020E44C0020C5
:106F70002C4E00203C4E0020724F00200C4F002071
:106F80006D4F0020764F0020754F00207B4F002072
:106F9000C9B20A55491C7047DFF8780CDFF8783C15
:106FA00040F602010180002141804160816001734F
:106FB0000121417300218173C173DFF8601C0988CE
:106FC0000182DFF85C1CCA685269526B92681B78B8
:106FD000126803EB43039A18B2F801204282C96891
:106FE0004969496B49684161704700007CB5DFF829
:106FF000304CDFF8306CE068DFF8185CD0F838040B
:1070000080470020CDE900003668DFF8C40C3669FF
:107010000068002303222946B047DFF8B82CC2E9F4
:1070200000016888B0F5806F08D0E16801F0B7FA18
:107030008847E168D1F80C1489208847E068DFF8B8
:10704000981C4069C068097840880843DFF8CC1B69
:107050000880E068DFF8E41C4069C06800788006BA
:1070600043BFDFF8780D0068400A0020087073BD48
:107070007047000080B540F20241884215D040F2CE
:107080000141884202D001F087FA88470022DFF8E8
:10709000B00CDFF8903BB0F900101B68DFF8300C43
:1070A0005B690068BDE8005018470122EFE7000067
:1070B00010B588B040F60302ADF80820ADF8161000
:1070C0000022ADF80A200392049200219DF81420BA
:1070D000DFF8504BADF8181002F060028DF8142064
:1070E0008DF81A008DF81B1000239DF81520DFF88D
:1070F000E00B02F0F00242F001028DF8152007913A
:10710000CDE90011246800682469032202A9A04780
:10711000DFF8C02BC2E90001BDF80A00B0F5806FAE
:107120000AD0DFF8FC4AE16801F039FA8847E168E3
:10713000D1F80C148820884708B010BD30B5DFF8AE
:10714000A04C83B0208810B34006DFF8D45A0FD586
:10715000EA68D2F83022082168469047E968D1F8F9
:107160008C116846884720884FF6BF710840208000
:10717000207800060BD5EA68DFF8E40DD2F830225B
:107180000C21904720884FF67F710840208037BD42
:1071900070B582B004461020ADF8000004EB440541
:1071A000DFF87C6ADFF87C2A00F018F812682818EB
:1071B0006946B0F80100ADF80200DFF8140B526A1E
:1071C00000689047DFF8500ADFF8481A047000F0B2
:1071D00005F82818B0F80100488273BDF0684069CE
:1071E000406B806800687047DFF8340ADFF8281ABF
:1071F000C0684069406B80680978006801EB410114
:1072000008567047DFF8FC0C0068417901290AD163
:10721000817C012918BF032916D0002912BF022939
:10722000C07C012810D0DFF83C0D006841790129AD
:1072300004BF807A012807D0DFF8600D006841792B
:10724000012903D1807A08B10C20704700207047D3
:107250002DE9F84F0024DFF8485DDFF8486DDFF8CE
:10726000C0A9DFF8448DDFF844BDDFF8309DD9F8C0
:107270000010182000FB0487487A0122A240104227
:107280000AD0087A3BF810003880DFF8240D205C23
:10729000B8730020F87302E040F601003880002047
:1072A000788007F118007860387B00F0EF0040F03C
:1072B00080003873097A01290ED141F28830B86014
:1072C000387B00F0F00040F005003873787B00F068
:1072D000F00040F0020016E0002C0CBF022100215B
:1072E00000F0F00008433873F4B9DAF80C00D0F875
:1072F000FC03804700F5C870C8F808000220797BBD
:1073000001F0F00108437873641C3E61032C7D6139
:10731000ADDBD9F80000007A01280EBFC8F8348030
:107320000020C8F8340005E00020022CB860E5D148
:107330000120E4E7DAF80C00D0F858048047306008
:10734000DAF80C00406980690078C0074CBF102053
:107350000020DAF80C1049698969097889074CBF5F
:1073600020210021DAF80C20526992691278520724
:107370004CBF40220022DAF80C305B699B691B7815
:107380001B074CBF8023002300F060F93071D9F84F
:107390000010737901F10802907860F301037371B2
:1073A00003F0FB00D37803F0010340EA830070711F
:1073B00000F0F700937C03F0010340EAC30040F0C3
:1073C000100070711378DFF8D80C012B18BF042B54
:1073D00006D10023B371F371B36001F1140417E017
:1073E000537DB37101F15D035C78F471547D24B178
:1073F000147DC4EB441464181E34B4605C782CB162
:107400001B78C3EB43135B185F3300E00023041DBC
:107410000C3131617461F360DFF8881C097879B14F
:1074200011780329DAF80C1003D1D1F88C138847AE
:1074300002E0D1F884138847307900F0FE00307103
:10744000F07E00F0E00040F08600F076DFF8580CA7
:10745000F06100202880A870E87028716871E880C9
:107460002881A872E872E860D9F800000068C0F8C6
:107470000480BDE8F18F00002DE9F843DFF82C4CC3
:10748000DFF89C57DFF87C8ADFF8247CDFF8246C77
:10749000DFF8109C41F6070020802520A073002013
:1074A000E07360806060E868D0F8FC03804700F516
:1074B0001C404030A060D8F80010CA880989207BA1
:1074C0008A420EBF00F0700000F0F00040F0820031
:1074D00020732761607B00F0F00040F001006073D2
:1074E0006661E868D0F89C0480473860E8684069C5
:1074F000C0690078C0074CBF10200020E9684969C6
:10750000C969097889074CBF20210021EA685269BE
:10751000D269127852074CBF40220022EB685B69A7
:10752000DB691B781B074CBF8023002300F08EF81B
:107530003871D8F800007A79817C61F300027A71A1
:1075400002F0FD01827A02F0010241EA4201797102
:1075500001F0FB01C07A00F0010041EA800040F038
:1075600010007871022101203881B87A00F0C00043
:10757000B872B81DEA68D2F830229047D8F80010E7
:107580007A7901F10C0038610020F872F860CB7C48
:10759000DFF80C0B012B17D142F020027A71897CA5
:1075A000012904D099F800202AB1032903D100F061
:1075B00047F888470EE0DFF8BC0D011D7961E968E6
:1075C000D1F8D812884705E002F0DF01797100F0A8
:1075D00037F88847B87E00F0E00040F08400B876C5
:1075E00040F6C411D8F8000000894843F861F87EDD
:1075F00000F0E00040F08100F8760020386299F851
:10760000000048B1787940F080007871E9687869C5
:10761000D1F88413001F8847002030807080B0802C
:10762000F08030817081B081F08130747074B074FA
:10763000F0747061D8F8000000684460BDE8F18320
:10764000011D7961E968D1F8C812704708431043F9
:10765000184340F00F0070472DE9F843DFF8C045AC
:10766000DFF8146DE168DFF8FC98D1F8CC13DFF88F
:107670000C5DDFF80C7D8847804641F608003080BD
:107680002520B0730020F07370807060E068D0F83F
:10769000FC03804700F51C404030B060D9F8000082
:1076A000C18800898142307B0EBF00F0700000F07D
:1076B000F00040F082003073707B00F0F00040F08A
:1076C0000100707335617761E068D0F87C04804711
:1076D0002860E0684069006A0078C0074CBF10204D
:1076E0000020E1684969096A097889074CBF2021AF
:1076F0000021E2685269126A127852074CBF402298
:107700000022E3685B691B6A1B781B074CBF802360
:107710000023FFF79BFF287100206871D9F8000053
:10772000817A01F0010141F002016971C07A0228F9
:107730000AD1E168DFF8380DD1F87C13884718B911
:10774000687940F0040009E0D9F800106879C97A36
:1077500000F0FB0001F0010140EA8100687198F837
:107760002611687900F0F70001F0010140EAC1003C
:1077700040F0100068711620E87108F12400DFF86D
:10778000F41C02680A6042680A714268120A4A716F
:107790004268120C8A710222CA7100220A81C289CF
:1077A0004A81028A8A81428ACA8108F16102137879
:1077B0000B7453784B7493788B74D378CB741279A1
:1077C0000A75027AC07D00F01F0040EA4210487539
:1077D000A96040F6C412D9F8000000F10C01E9607C
:1077E000817A00290CBF08F59071DFF89C1D296192
:1077F000A97E01F0E00141F08401A976018951439D
:10780000E961E97E01F0E00141F08101E9760021C2
:107810002962397079707980B980B971F971B9606C
:1078200000684660BDE8F18370B5DFF8F4530446A4
:10783000E868D0F8FC038047E968D1F8CC13064625
:107840002046884741F28831408E484306F57A61E8
:10785000B1FBF0F100FB010044F6206101FB0400E4
:10786000DFF8181B486170BDF8B501F03FF90C2036
:107870008847002843D0A0F1090604F18400017C68
:1078800001B104210D31C9B2F180002206F10803D3
:107890003260327172710321197003F8012F04F103
:1078A000080781785970818899708188090AD97090
:1078B000C1881971C188090A5971018999710189B1
:1078C000090AD971418919724189090A59723A889C
:1078D00001885118018099720188090AD972007CC7
:1078E00030B12046EC68D4F818420C220321A0479E
:1078F000EA68386ED2F89823314690470120F2BDED
:107900002DE9F843C64D00F0CBFF8046082088479C
:10791000002838D008F19207A0F10906B87800B124
:1079200004200930C0B2F080002106F10804316063
:1079300031717171032020700522012004F8010FBC
:1079400008F16101EB68DB6B601C984708F10809DE
:107950003888B9F8001008183880A0713888000AF3
:10796000E071B87838B12346EC684046D4F8188204
:1079700008220321C047EA68D9F86000D2F89823AA
:10798000314690470120BDE8F28300002DE9F8431D
:10799000804608F1680420680068002842D100F0A1
:1079A00097F81720884700283CD000F097F807F197
:1079B00008051820F88008220320287005F8010F18
:1079C00008F1B001F368DB6B681C9847F368DB6B68
:1079D000022208F1B80105F109009847F368DB6B52
:1079E00008F1A8090822494605F10B009847F368F9
:1079F000DB6B08F19C080422414605F1130098470F
:107A0000F268206800F060F8904700F055F8904761
:107A1000F268D2F83822042140469047A08AE082DA
:107A2000012000E00020BDE8F28300002DE9F047CE
:107A300000F0B6F800283CD100F04AF80D20884745
:107A4000002836D000F04AF807F108080E20F88028
:107A500004F1A009032088F800000822042008F897
:107A6000010F4946F368DB6B08F101009847F368A2
:107A7000DB6B04F1980A0422514608F1090098478B
:107A800000F020F8904700F017F89047F268D2F81D
:107A900038220421504690470020211A021991F8FB
:107AA0009F1082F8BF10401C0828F6DB00F0C0F8D9
:107AB00000E00020BDE8F087F268D2F83822082103
:107AC00048467047F2682868D2F8982339467047CC
:107AD000534EF168D1F8001270470000A0F1090779
:107AE00000203860387178717047000038B500F0B8
:107AF0002FF8884770B100F0BFF80220C88001F16C
:107B000008000270052200F8012F00F0AFF890473E
:107B100000F08EF832BD0000F8B500F019F8884783
:107B2000A0B100F08BFE062003F8010F2846E7689D
:107B3000D7F81872B84700F041F99047DFF8780D90
:107B40000078082804BFA88AE8820120F2BD00005E
:107B5000334CE168D1F8001205460120704700005F
:107B6000F8B500F01DF8C8B900F04EF88847A8B184
:107B7000FFF7B4FF07F108030620F8800122032075
:107B8000187003210A2003F8010F2046F468D4F886
:107B90001842A047FFF796FF904745E00020F2BD4E
:107BA000044604F16805286800687047F8B5FFF7D7
:107BB000F7FF30BB00F028F8884710B3DFF8F81C57
:107BC0000A78A0F109070220072A08BF0620F880DA
:107BD000002207F108033A603A717A7103201870A5
:107BE0000B2003F8010F0878072806D12046F46817
:107BF000D4F8184201220321A047FFF763FF904702
:107C000012E00020F2BD0000054EF168D1F800122C
:107C1000012070472C4D0020714F0020544F002050
:107C2000F8440020F04E002000F002F8F2BD000001
:107C3000A88AE8820120704738B500F0C7F8022012
:107C4000884788B100F018F80320C88001F10800C7
:107C500002700D2200F8012F95F8F520427000F017
:107C600005F89047FFF7E4FF32BD0000E26855F8E1
:107C7000680FD2F898237047A0F10901002008602E
:107C80000871487103227047F8B500F04FF8884733
:107C9000E8B100F0FBF800F055F807F8010B04F12B
:107CA000FD01DFF8140C0078082818BF0E2038708A
:107CB0000822EB68DB6B781C984794F8940010B1AD
:107CC00000F02CF8B84700F0B3FD90470120F2BD5A
:107CD000EC4E0020504E00206C4F0020F8B500F014
:107CE00025F88847C8B100F0D1F800F02BF83870BB
:107CF0000822092007F8010F04F1FD01EB68DB6B96
:107D0000781C984794F8940010B100F007F8B84731
:107D100000F08EFD904700F059FEF2BD3B46EF6843
:107D2000D7F818720922032120467047DFF8545D06
:107D3000E968D1F80012044609207047704F00200E
:107D4000424F00200A30C0B2F080002106F108073F
:107D5000316031717171032070470000F8B500F097
:107D600035F80620884740B3A0F1090695F894003D
:107D700000B10420C01D00F05CF80C2003F8010FD6
:107D8000DFF8780D01785970418899704188090AA7
:107D9000D970818819718088000A587195F894000B
:107DA00030B1E768D7F81872062203212846B84791
:107DB00000F004F89047FFF73BFFF2BDE26855F88A
:107DC000680FD2F89823314670470000DFF8B44CB2
:107DD000E168D1F80012054670470000801300509A
:107DE000524F0020F8B500F059F88847F0B100F084
:107DF0004DF800F01DF8022003F8010F94F810016F
:107E0000587094F8940010B100F038F8B847EA6858
:107E1000D2F8982304F1680731463868904704F196
:107E20000E00002101820088F8820120F2BD0000CE
:107E3000C01CC0B2F080002106F10803316031712E
:107E40007171032018707047F8B500F027F8884763
:107E500098B100F01BF8FFF7EBFF072003F8010FC4
:107E600094F81101587094F8940010B100F006F8DD
:107E7000B84700F0DDFC90470120F2BDEF68D7F86D
:107E8000187202220321204670470000A0F1090663
:107E900094F8940000B1042070470000DFF8E45B20
:107EA000E968D1F8001204460220704770B504005A
:107EB0000D46DFF8D06B03D1F168D1F89C108847EC
:107EC00094F87B00042803DBF16800F068FB884726
:107ED00000F060F8002100E0491C94F87B20C9B252
:107EE000914205D20A1992F87720AA42F4D107E00C
:107EF000111981F8775094F87B10491C84F87B1095
:107F000028E00000144F002070B50400DFF8746B07
:107F100003D1F16800F043FB884704F176056879E6
:107F200018B9F168D1F89C10884700F033F86979E6
:107F3000491E6971FF22C9B209B96A7008E00021BF
:107F40000B197733491C5E781E700329F8DB2A7100
:107F500000212970BDE87040DFF89C1C09680847C3
:107F6000F84D0020184F002038B504000D4602D10E
:107F700000F0A6F9884700F00DF8002204F1760120
:107F80000A704D704A790AB901224A71BDE834403D
:107F9000E2E70000DFF8640C00680047104F0020A3
:107FA000B44D0020F44B0020204A0020109A01100C
:107FB000409A011030B50A7902F01F020A710022BE
:107FC00080F83A200023545CDC40E4070BD590F89D
:107FD0003A502D1803EBC20485F83C4090F83A4023
:107FE000641C80F83A405B1C082BECDB521C052A11
:107FF000E8DB30BD38B50D00044602D100F0CCFA04
:10800000884704F138014878CA7805FB0200252228
:1080100090FBF2F2252303FB12000870002208787F
:1080200000E0521C8B78D2B29A4205D2131993F811
:108030003C309842F5D132BD90FBF3F103FB1100C7
:10804000001990F83C0032BDF8B5044604F1380040
:10805000DFF8305A0178417004F19007EA6821890D
:108060006089D2F8D823904706463878012801BFA6
:1080700078882189491C884208D1EA68D2F82024EE
:1080800004F1610120469047002038703146EA68CB
:10809000D2F8002420469047216849688873F1BDD2
:1080A000CC470020784E002000204E009C4C002041
:1080B000D04B0020B44C002010B5037903F01F030F
:1080C00003710021002200231C5C0CB1521CD2B2AF
:1080D000022A09DA04B121465B1C052BF4DB2AB124
:1080E000481E0140C8B210B1012010BD002010BDD3
:1080F0002DE9F843DFF8440CDFF8448C007898F859
:108100000010814200F0BE8000274FF4C07200E0F2
:108110007F1C874280F2B380D8F8041002FB07115D
:1081200009790029F4D1DFF85C19C968D1F8CC13BA
:10813000F8B28847814609F1040601203070B77013
:1081400000207070306209F161070120787101210F
:1081500009F16800002201710023002101608160A3
:10816000B180F180FF240121317309F1EC05002178
:1081700089F8391071613176718309F190010A70C3
:10818000827609F58E72137580230373002383733F
:10819000C37404766B76AB76EB762B77EB832B840C
:1081A00089F80F3109F1E7000B71037043702B6000
:1081B0006B60AB722B732B726B73AB7309F58970A9
:1081C000EB73038043808380C3801360147347F292
:1081D0003050D381906113775377947709F5AF705E
:1081E0009372137153719371D3711372537203703D
:1081F00083761B22DFF8441C09884180DFF8401C8D
:108200000988C180DFF8C41C09888180DFF8C01CA0
:108210000988018182811B21418142824FF4A4712E
:10822000C1810182C182018382820121828381779F
:10823000FF22042109F1770001F062F83C707C70A4
:10824000BC70FC701F2038710027DFF8040D39184E
:1082500007EB0902497882F8FD107F1C082FF6DB36
:108260000020287498F80000401C88F80000C0B274
:10827000012804BFB07888F80200484603E000F007
:108280008BF988470020BDE8F283000038B504462A
:10829000DFF8AC5A607948B100206071687810B995
:1082A00000F00EF888476878401E68702878401EF5
:1082B0002870C0B208B9FF20A8700020207131BD1D
:1082C000DFF8901CC968D1F89C10704730B50021C8
:1082D000DFF86C0ADFF8642A00240AE04FF4C07368
:1082E00045684B435D19491C6C71C9B245685B19FF
:1082F0001C7113789942F1DB0480FF21817030BD3D
:108300002DE9F8430446DFF8380ADFF8787740783B
:108310004FF6FF78464618B9F968D1F89C1088479F
:108320000025DFF8189A03E0B14298BF0E466D1C95
:1083300099F80000EDB2854216D2F968D1F8CC1355
:108340002846884741790029F1D000F1820146454D
:108350000A7804D1002A0CBF468E0E89E7E7002A6E
:1083600014BF0989418EDFE7B44288BF3446A0B20A
:10837000BDE8F283A84800206C4C0020AC4B0020E4
:10838000D44D00202DE9F84F0446802C18BF402C16
:108390000D469046DFF8EC7603D0F96800F0FFF860
:1083A0008847DFF89C09407878B1802C10D1DFF83D
:1083B000A40C0068017A012918BF04290FD021B943
:1083C000807A022818BF03280DD00020BDE8F28F64
:1083D000402CFAD1DFF8800C0068807A08B90126B9
:1083E00002E00128F1D100264FF00009DFF86CAC63
:1083F000DFF848B91BE0424502BF08782A7890426E
:1084000013D148786A78904202BF8878AA7890425F
:108410000BD1C878EA78904202BF08792A79904255
:1084200002BF4879697988421FD009F101099BF898
:1084300000005FFA89F98145C7D2F968D1F8CC13F9
:108440004846884741790029EFD001680978A14260
:10845000EBD100F59071002E8A79CCD1FB68D3F86E
:10846000CC32504698471028DFDA0120AEE70000F2
:10847000B9450020844C00202DE9F0475FEA000850
:1084800082B0DFF8005603D1E96800F088F8884729
:10849000DFF86807DFF8C87B00688047E968D1F833
:1084A0009010814698F83A01884708F168042068DE
:1084B00058B30AE0017A032902D0407900F066F847
:1084C000E9682068D1F8E8128847E9682068D1F89F
:1084D000EC1288470028EDD1E9682068D1F8F01245
:1084E000884706460AE0307A032802D0707900F007
:1084F0004DF83046E968896B88473668002EF2D11E
:10850000E9682068D1F8E4128847DFF8580BDFF8F3
:10851000581B00780870A068B8B1E968D1F8EC126F
:1085200088470646B246DAF8080028B1E968896B40
:1085300088470020CAF80800DAF800A0B245F2D156
:10854000E968A068D1F8E4128847387858B198F8FB
:108550000610EB68ADF80010ADF8020000F0FEF870
:108560009847002038704046E968D1F82C148847B5
:10857000E968D1F8E41340468847DFF87C160968BB
:1085800048468847BDE8F387D0470020C00602D59B
:108590003878401C38707047DFF8E814C968D1F8A3
:1085A0009C1000207047000070B505000E46DFF8F3
:1085B000F84C03D1E168D1F89C108847E268A879AB
:1085C000D2F8642131469047E168D1F8B8132846C3
:1085D0008847E068D0F84004BDE8704000470000DC
:1085E00070B50026DFF89C44DFF8505700E0761C99
:1085F0002878F6B2864210D2E168D1F8CC13304622
:108600008847417900291EBF773001790029EED0D3
:1086100000780028EBD1012070BD002070BD000063
:1086200010B5DFF82C490821601C00F09DFEFF20EA
:10863000607010BD10B582B000200090DFF8684C6B
:10864000E068D0F82C0280478DF80000E068D0F890
:108650002C0280478DF80100E068D0F82C0280479A
:108660008DF80200009816BD884208D2914203D3CB
:1086700090428941C90F00E00021084670479042AE
:1086800004D391428041C043C00F7047012070471E
:10869000421A90B2704700000A898B8892FBF3F26D
:1086A000C2810A89898892FBF1F301FB132111B180
:1086B000C189491CC1817047418E4FF47A4292FBB7
:1086C000F1F25143D1F57A41A0F87C2004D0B0F802
:1086D0007C10491CA0F87C10704700002DE9F04187
:1086E00082B006468846DFF88079DFF87449E54DA8
:1086F0000FE0027A032A07D04079C00604D5481C4F
:1087000020703878401C3870E968B06ED1F8E812F3
:108710008847E968B06ED1F8EC128847217810B12B
:108720000279032AE5D0B1B1DFF8800B00788142ED
:1087300006D2B8F1010F0ED1DFF8740B007850B1FA
:10874000B079EB68ADF80000ADF8021000F006F863
:10875000984700202070BDE8F38100000DF102026F
:10876000D3F8C83069460120704700002DE9F04178
:10877000DFF8347B1646FA68126E044608469846BF
:1087800009219047054605F10803B8F1000F0CBF19
:108790000221012103F8011B00202860287106989E
:1087A0006871EE8094F86620012A13D1701CE8806D
:1087B00094F894203AB13246001DE8802046FE68C5
:1087C000D6F81862B047FA68A06ED2F89823294606
:1087D00090470FE0F968A06ED1F8F012884718B9F9
:1087E000A06EC56006E0084601680029FBD105605F
:1087F000002028600020BDE8F0810000F8B500F0FE
:1088000053F803D0E968D1F89C10884700F048F885
:108810000120884750B100F011F8122000F038F81C
:10882000B84700F005F8904700F0D0F8F2BD00001E
:10883000EA68A06ED2F8982331467047A0F1090685
:10884000002030603071707106F108030620F0805E
:10885000012203201870032170470000F8B500F0D2
:1088600023F803D0E968D1F89C10884700F018F885
:108870000120884750B1FFF7E1FF132000F008F80E
:10888000B847FFF7D5FF904700F0A0F8F2BD000011
:1088900003F8010F2046EF68D7F818727047000000
:1088A000E968D1F8001270470446DFF8FC5994F8E3
:1088B00094000128704700006F4F0020F8B5DFF8E2
:1088C000E8590E46FFF7ECFF0446092088470028C8
:1088D00038D0A0F1090794F8940000B104200A30C0
:1088E000C0B2F880002107F108033960397179714D
:1088F0000320187003F8016F04F5B07041885970B7
:108900004188090A9970C188D970C188090A19710A
:10891000018859710188090A99718188D971808803
:10892000000A187294F8940030B1EE68D6F8186214
:10893000092203212046B047EA68A06EFFF7C4F879
:1089400090470120F2BD000070B500F1F503DFF89B
:1089500064491E7ADFF85059760710D500F5AC73DC
:1089600019705A70E968D1F894148847A8B920782A
:10897000EA68926DBDE870404FF4804110471A706C
:10898000E968D1F89014884738B92078EA68926D80
:10899000BDE870404FF48041104770BDF8B500F05D
:1089A00069F8884700280FD0FFF770FA00F06CF8DC
:1089B0000F2000F02FF810B100F024F8E04700F08D
:1089C00053F8904700F002F8F2BD00000020E08369
:1089D00001207047F8B500F04DF8884700280FD007
:1089E000FFF754FA00F050F8102000F013F810B11F
:1089F00000F008F8E04700F037F89047FFF7E6FF8F
:108A0000F2BD0000D5F80CC0DCF818C21822032112
:108A10002046704703F8010F788C5870788C000A54
:108A20009870788CD870788C000A1871B88C58714E
:108A3000B88C000A9871F88CD871F88C5972000AB9
:108A400018729972FF20187358739873D87318743A
:108A500058749874D874187558759875D875D972F3
:108A600094F8940070470000EA683868D2F89823B8
:108A700031467047DFF83058E968D1F800120446F3
:108A800018207047F84400201930C0B2F08000214F
:108A900006F108033160317171710320187004F11F
:108AA00068077047F8B500F021F803208847E0B167
:108AB000FFF7ECF9001DFFF7BCF9112003F8010FD7
:108AC00004F5AC70017859704078987094F894006F
:108AD00030B1EF68D7F81872032203212046B84757
:108AE000FFF7A6FE9047FFF771FFF2BDDFF8B8571A
:108AF000E968D1F80012044670470000604E00207B
:108B0000F8B5DFF8A457E968D1F838110446A07920
:108B1000884798BBFFF73EFA04F59A7706467879BE
:108B200001280CD1E968A079D1F82C11884738794F
:108B300001280ED0E968FFF732FD884709E038794F
:108B400038B9012038711221EA68D2F8D4232046BE
:108B50009047787980F00100787104F59D7338684A
:108B600042082146E868EC68D0F8AC03D4F88C40A1
:108B7000A0473046BDE8F440FFF7EEB9F1BD000074
:108B80002DE9F04782B080468A4616460025DFF878
:108B900018770CE029464D1CCBB203B101232246C5
:108BA00000904946FC68D4F8C4C44046E04706B388
:108BB000B8F87A41B44234BFE4B2F4B2F968D1F8FB
:108BC000A010204688475FEA00090CD0FB68DB6BE9
:108BD000224651469847361BB6B2002EA24414BF17
:108BE00000201020D6E700F0B7F881208847072042
:108BF00000E00020BDE8F68700450020FC4400208E
:108C00002DE9F84FD34FDFF8B066DFF83491DFF885
:108C1000ACA60C46F968D1F8CC1315469B46C0B2F9
:108C2000884780463078012802D0022838D07FE07B
:108C3000B068BBF1020F05D100F092F88847002020
:108C4000B06030E07388B188EA18914209DA00F028
:108C500087F888470020B0608B2000F07DF88847B7
:108C600066E01818FB68DB6B2A4621469847708837
:108C70002818708080B2B288904259D198F8740058
:108C8000FD68802817BF81287F209AF80010401ABD
:108C900000F058F8A8470020B0807080022041E022
:108CA000BBF1020F44D1042D04DA00F055F88C20FA
:108CB00088473DE021786078091D41EA0020DFF80F
:108CC0000016B08080B20978814204D200F044F8E6
:108CD0008A2088472CE0A84204D200F03DF88B207F
:108CE000884725E0F968D1F884118847B060D8B189
:108CF000FB68DB6B2A4621469847B28895420DD126
:108D000098F87400FD68802817BF81287F209AF8A2
:108D10000010401A00F016F8A84709E070882818DB
:108D200070800120307003E000F016F88120884741
:108D30002046F968896BBDE8F44F08477B4F002057
:108D4000684E002040B20090B16899F80200D5F852
:108D5000DC515B46D2B27047F968D1F8B810704761
:108D60000021B180718002213170F968896B7047F0
:108D70002DE9F04704462068007840285BD1E08B5D
:108D8000002858D0DFF83C050078012853D1B748B7
:108D9000704E006880478046F068D0F8FC0380473A
:108DA000618E40F6C419891C09FB010ADFF81825F9
:108DB0002068A17992784568914235D1F268A86817
:108DC000D2F8B4245146904780B3F068D0F8EC0351
:108DD0008047F168D1F80814074640F202408847FE
:108DE000F2683969D2F8B82450469047618E09FB81
:108DF00001F2B0FBF2F0228980B28218628148430E
:108E00002268126909FB0020A86004F1380041784B
:108E100001702046F168D1F84C148847F168D1F808
:108E200044143846884701E00069A8604046BDE820
:108E3000F047FFF791B8BDE8F0870000444F0020ED
:108E4000464F00202DE9F041079D002600274FF6F0
:108E5000FF7435F817C0A4451CBF761CF6B27F1C02
:108E6000062FF6DB00270DE00CF1010C5FFA8CFCFD
:108E7000E646B64505DA35F8178035F81EE0F045C8
:108E8000F2D17F1CB74208DA35F817C0A44504D0E8
:108E9000614528BF07F1010CE8D2B74211D196B164
:108EA000884202D06BB199420BD31146DFF8F82308
:108EB000D2680698D2F8D823904747F6FF718842C7
:108EC00001DB012000E00020BDE8F0814C4F0020D4
:108ED0004E4F0020F0B50C46114640F67B42A51FD0
:108EE00083B095423CBF8E1F96422CD2A1422AD31A
:108EF000B3F5FA7F27DA089AA2F10A0640F6774717
:108F0000BE423FBF5B1C4E005E43B6EBC20F1AD29F
:108F100090F894204AB1D0F834010A22B0FBF2F064
:108F2000C00001FB03F290420DD30C980A9B099AF2
:108F300001900B9800902046DB4CE468D4F8C044C4
:108F4000A047012801D10120FEBD0020FEBD000088
:108F5000EC4D0020F844002002B10422012804D086
:108F6000022806D004280AD00BE0C2EBD1000A3850
:108F700003E04800C2EBE0000B3880B270470020ED
:108F800070471B207047000002B10422012804D062
:108F9000022806D004280CD00DE050180A30C00476
:108FA00005E050180B30C00000EBD070C003000C7F
:108FB0007047002070474FF4A470704760B14107BC
:108FC00001D504207047C10701D5012070478007F3
:108FD00001D5022070470020704700002DE9F047BE
:108FE00004468846B04D4FF00009012628E0E968A4
:108FF000D1F8CC1306EB040A1AF8010C8847006874
:10900000E9684768305DD1F8CC138847006840684C
:10901000EA688168B868D2F8B424904701280ED174
:109020001AF8010C315D48400AF8010CB146315D77
:10903000484030551AF8011C48400AF8010C761CCB
:109040004645D4DB5FFA89F8B8F1000FCBD1BDE813
:10905000F0870000104F0020184F0020CC47002060
:10906000744F00206D4F00207A4F0020FC440020F8
:109070002DE9F24F044684B020688B4FD0F804806D
:10908000FA68D8F80800D2F8B4249047002804F50C
:10909000967940F0F3802068FA6801690498D2F864
:1090A000B824904704F1820683463078002804F102
:1090B0002E0540F6C41A79D0FA6821897088D2F852
:1090C000D8239047029030780299FA6802280CBFA2
:1090D000B9F83000A888484301900AFB00F00090DE
:1090E000206800990069D2F8B424091804989047C0
:1090F000002854D000983289ABEB00010AFB02F340
:10910000B1FBF3F003FB101101B1401C02FB00F1B5
:109110002289029B9A1880186081F28801981018A1
:1091200001EB000B3078012851D1FA68D2F8C8233E
:1091300004F18601204690477089E189608400200F
:109140002077E08360890818A081AA883089B189D6
:10915000904204BF2A89914202BF7289EB889A42E9
:109160000AD0D7F80CC00909009142087389A17987
:10917000DCF83CC10020E047A888A9F8300030792D
:1091800028703089A8807089E880B08928812046BD
:10919000F968D1F8C41388470220307017E030789E
:1091A000012803D0F968FFF7FAF98847A8880AFB75
:1091B00000F1BBFBF1F290B201FB12B109B1401C0E
:1091C00080B2218941186181A98801FB00FB2068D8
:1091D00001690AFB0B11C8F808100278802A0DD12A
:1091E000C160FA685269126BA98812680AFB01F122
:1091F000891AD8F81020A1F516715161017840291B
:1092000032D1618A01FB0BF14FF4C872B1FBF2F16C
:10921000491CC4F818B06161D8F80820511AC8F880
:1092200008106269D9F8001001EB4201D8F810204B
:109230005161264932780968022A07D1A2792E782D
:1092400001EB421253690AFB06335361FB685B6909
:10925000A2791B6B1B6801EB4211AA880AFB02F280
:10926000D21AA2F51672CA61D8F808108160E87A9D
:10927000A8722046F968D1F84C148847FA686189C9
:10928000A089D2F8D8239047E189814238BF0120D4
:10929000A9F82E0005B0BDE8F08F00000249C968AA
:1092A000D1F8B81008470000F8440020754F00209E
:1092B000764F00206E4F002078450020704F002030
:1092C0006B4F0020774F0020684E0020844E002016
:1092D00003E011F8013B00F8013B13465A1EDBB2D4
:1092E000002BF6D10846704703E011F8013B00F867
:1092F000013B13465A1EDBB2002BF6D1704700002B
:1093000062F30F2262F31F42401810F0030308D0EB
:10931000C91A1FD3DB0748BF00F8012D28BF20F86A
:10932000022D130030B414461546103928BF20E929
:109330003C00FAD8490728BF20E90C0048BF40F894
:10934000042D890028BF20F8022D48BF00F8012D08
:1093500030BC7047C91818BF00F8012DCB0728BFD3
:1093600000F8012D704700000022FFF7CDBF00007C
:1093700038B50C46A168C1B9DFF86019CA685269EE
:109380005269B0F872015278C968D1F88411101886
:10939000051DA8B28847A06030B1801EA060A81C3F
:1093A000E0800020207131BDE08031BDF8B5044679
:1093B000DFF82879206F05682E46F08800281CBF4A
:1093C000B068002805D1FA68D2F81023314620464B
:1093D00090473668AE42F0D1F1BD0000F8B50446C2
:1093E0000021206FDFF8F478056801602E4630799F
:1093F00038B9B06828B1F968896B88470020B06037
:10940000F0803668AE42F2D1206F05602046F968E0
:10941000D1F80C13BDE8F44008470000DFF8BC08A1
:10942000C1684969496800291CBF08460047704760
:109430007CB5DFF8AC58DFF8AC682A6801910446C7
:109440000A20ADF800008DF802403068526A694683
:1094500090472A68DFF89008926A40EA0421306851
:10946000904773BD704700007047000070470000D0
:109470007047000010B50020DFF86028DFF86C1896
:10948000382303FB001300241C715C71401CD4685A
:109490006469E46964782734DC80042803F13804C3
:1094A0001C60EDDBDFF84808C1F8A810002201605D
:1094B00042608160C26010BDDFF8381800208880EB
:1094C0000022DFF81808C0684069006A4078096027
:1094D0002730C880DFF8200810E00000DFF81C18F3
:1094E000002088800022DFF8F407C06840698069A6
:1094F000407809602430C880DFF8040801604260C9
:109500008160C260704700002DE9F84FDFF8CC475A
:10951000DFF8F057E168D1F8CC13834688478146DD
:109520003020002600FB0BF84FF00C0A28680AFBDD
:1095300006F7404438180021017102212868404490
:1095400038184171E268526952692868B9F8721195
:109550005278404451183A18891DD180711C4A1024
:1095600001EB92729210A1EB82010AFB01013950CA
:10957000E16849694969B9F8720149780818E168F0
:10958000D1F88411001D80B28847296841447A18B7
:10959000906008B1801E9060761C042EC6DBDFF858
:1095A0006807006800EB0B100022016081604260D8
:1095B000C260BDE8F28F0000F8B50446DFF81C7702
:1095C000A56E1DE0F0880246401CF08094F89410CF
:1095D00061B106F10803001D13F8011BF080D2B23F
:1095E000D7F80CC0DCF818C22046E0473068E860C5
:1095F000314600203060FA68A06ED2F89823904778
:10960000EE68002EDED1F1BD2DE9F04F0D4685B09C
:10961000804615F8010BDFF8C4668DF8000008F5E8
:1096200098749DF80010DFF8E406152908F1E70B9F
:1096300008F1660A08F2071908F5AC7700F22B83E7
:10964000DFE811F0160066008B018500290329036D
:1096500009010A03220135010D011E013B01290305
:109660002903A901290392016A01140382028202DB
:1096700015F8010B88F8860000F058FB08F1880007
:10968000984700F025FF08F18A00984700F020FF76
:1096900008F18C00984700F01BFF08F18E009847F6
:1096A000054698F88600400088F8860008F1860193
:1096B00008F18600022240884000488008F18600B8
:1096C00080884000888008F18600008900010881B8
:1096D00000F0F2FE08F18400984708F10601BAF89C
:1096E0001E0000F015FB25DA08F1860008F186015E
:1096F000C0888988401C4900484308F186010989CF
:10970000884228BF3B2016D201208AF81C0017E0AF
:1097100000F0D3FE0522294608F16100984700F0C9
:10972000D7FE08F19200984700F0FAFA808900F01D
:10973000EFFA01DB282011E108F18601012088728F
:1097400008F106010020088301202070B1E29BF897
:109750001600C00715D41A208BF80E009BF80D00D8
:10976000012807D100F08DFE404605B0BDE8F04F5E
:109770000D21104700F0A6FA05B0BDE8F04F0D210D
:10978000104700F0D9FA082201208BF8110000F0F0
:1097900093FE08F1B000984700F09AFE08F1B80077
:1097A0009847F36808F1A8040146D3F81434082256
:1097B0002046984700F060FE054608212046904765
:1097C00000F07BFE08F19C040422294620469847BD
:1097D00000F052FE042120469047F168D1F824128F
:1097E00008F1A0008847F168D1F8201208F198002C
:1097F0008847DFF8E40D018841F0800101809BF883
:109800000D00012807D100F03CFE404605B0BDE840
:10981000F04F042110479AF81000012804BF9AF86D
:1098200011000F2810D1F168D1F8D01340468847B5
:1098300000F030FE04214046904700F027FE05B0BE
:10984000BDE8F04FFD21104700F03CFA05B0BDE83F
:10985000F04F0421104701208BF80F0029E200F09F
:109860006BFA8BF800000B2101208BF80D00002013
:109870008BF8010000F00DFE05B0BDE8F04F104779
:1098800001208BF8100014E2002100F05BFAFCDBF1
:10989000F168D1F87414404688470028F3D100F0ED
:1098A00017FA05B0BDE8F04F4FF480411047002192
:1098B00000F048FAFCDB0220DFE19AF8060008B964
:1098C0003D204BE09BF81E00012809D10C2089F8AF
:1098D0000A0000F0DEFD05B0BDE8F04F072110479B
:1098E00015F8010B89F8010000F020FA08F58570E1
:1098F000984700F0EDFD08F58670984701208BF839
:109900001E0099F8000000282DD100F0DBF905B009
:10991000BDE8F04F0C2110479BF81600C0060DD48F
:10992000122000F0C8F9884700281CD100F0D0F9B7
:1099300005B0BDE8F04F4FF480411047F168D1F811
:109940008C144046884700280DD100F0C1F905B0BD
:10995000BDE8F04F4FF480411047287889F809009E
:10996000012089F80800A4E12878387068787870B8
:109970009AF81000012806D19AF811000F2801D199
:109980000120607395E1F168D1F89C1005B0BDE845
:10999000F04F002008479BF81600810719D41121C9
:1099A00008420CD100F086F988470028EAD100F07F
:1099B0008FF905B0BDE8F04F4FF480411047F368D0
:1099C000D3F84834404605B0BDE8F04F1A220F21C5
:1099D00018472878697800EB01202082E978A87878
:1099E00000EB012060826979287900EB0120A082D8
:1099F000E979A87900EB0120E082287A2076A97A1B
:109A0000687A00EB01206083297BE87A00EB012073
:109A1000A083A97B687B00EB0120E083297CE87BA5
:109A200000EB01202084A97C687C00EB012060848D
:109A3000297DE87C00EB0120A084A97D687D00EBF6
:109A40000120E08408F5A6700490608B0390207ECE
:109A5000029008F1060040880190E08A009040469C
:109A6000F568A38A628A218AD5F8BCC4E047D0B1E0
:109A70009BF8160040070CD400F01CF9884700281A
:109A80005AD100F025F905B0BDE8F04F4FF4804100
:109A90001047F368D3F84834404605B0BDE8F04FAE
:109AA0001E220F211847608A08F186018880A08A4B
:109AB000C880E08A0881022088F88600002048805B
:109AC00008F1060108F10600C08DC01DAAF81E00AD
:109AD00008F18600898D808888420BD100F020F93A
:109AE000C088C98D884205D100F01AF90089098E15
:109AF000884222D09AF81000012804BF9AF8110079
:109B00000F2809D09AF8150030B100F0BFFC05B05D
:109B1000BDE8F04FFE21104700F0BCFCFC214046A0
:109B20009047E08A0090A38A628A218AF46898F8B4
:109B30000600D4F8D081C047BBE000F0C3F805B000
:109B4000BDE8F04F102110472878697800EB01201C
:109B50007882E978A87800EB0120F8826979287981
:109B600000EB01203882E979A87900EB0120B88266
:109B7000F98AB889884288BF0846B98B884214BFE1
:109B800001210021B8837A8A3889904288BF104623
:109B90003A8B904214BF01220022388308F5BC7032
:109BA00000F082FCB98B012298470146388B88422D
:109BB00008D3F368B98BD3F8203308F5BC700122C1
:109BC0000079984708F5BC7148807889398A8842BD
:109BD00088BF0846798B884214BF012200222243A5
:109BE000788381429B41F889B98ADB0F884288BF1C
:109BF0000846F98B884214BF0121002141EA020482
:109C0000F88323B1F168D1F81813404688479DF8CE
:109C10000000142814D154B1F88B0090F4687B8BA9
:109C2000BA8B398B98F80600D4F8F4A2D047F268C2
:109C3000D2F81C23404605B0BDE8F04F152110476F
:109C40002CB198F8780140F0080088F8780198F86D
:109C5000780140F020001BE028780E280CD00F2857
:109C600007D0122802D014280AD022E00020207247
:109C70001FE0012020731CE003208BF8150018E082
:109C800098F8780140F0020088F8780140F0100060
:109C900088F878010DE089F80A1000F00EF888477E
:109CA00038B900F015F805B0BDE8F04F4FF4804129
:109CB0001047C9E30F2089F80A004046F168D1F83F
:109CC000AC147047F268D2F8D423404670470000C5
:109CD000F268DFF8000B926D00787047F8440020BE
:109CE000F04E0020EC4E002001000904EC4600205C
:109CF000944D0020AC4A0020844D0020E44A00200E
:109D0000A44D0020904E0020884E0020EC4D0020F5
:109D10004988401A80B247F6FF71884270470000B8
:109D200008F1860008F10601704700000222F3687E
:109D3000D3F814342946704700208AF800008AF8C6
:109D4000060070470A184B5D52781A4001EB080371
:109D5000491C082983F8FD20704700002DE9F04FC9
:109D60000F4685B0824617F8010BDFF8688ADFF8E6
:109D7000686A8DF800000AF1660B9DF80010DFF8A4
:109D80005C0A891E13290AF1F4040AF59C750AF588
:109D9000AC7900F24A83DFE811F0080148031400AF
:109DA00047004A002F034803B00048038400B7006F
:109DB00087008C0013012F028302E80037038C0216
:109DC0008C0200F07AFB0AF1A004082239462046F2
:109DD000984700F051FB074608212046904700F0C5
:109DE0006CFB0AF19805042239462846984700F092
:109DF00043FB0421284690470021AAEB010001EB18
:109E00000A0290F89F0082F8BF00491C0829F4DB81
:109E1000F368D3F810320AF1C70221460AF1D700DD
:109E200005B0BDE8F04F18470120A0710BE3217881
:109E3000607A012900F0100011D140B10020687053
:109E4000F268206CD2F894204108A8789047F26814
:109E50009AF80600D2F86C210021904714E058B11E
:109E6000206CF568D5F88C804208F068D0F8AC0317
:109E70000AF59D735146C047F3689AF80600D3F877
:109E8000683101220021984701208BF800005046DC
:109E9000F168D1F81814884701208BF80600A070EB
:109EA000D1E20120E070CEE2387860700120E071EC
:109EB000C9E2617A09070DD40E2000F0C9FA88477B
:109EC0000028F5D100F0EAFA05B0BDE8F04F4FF4F4
:109ED00080411047002100F001FBFCDBF168D1F864
:109EE00074145046884700280DD100F0D7FA05B009
:109EF000BDE8F04F4FF480411047002100F0EEFA2A
:109F0000FCDB022020729EE29BF8060020B93D2077
:109F100020770120E07696E2607C012809D10C20B0
:109F20006077504600F0B6FA05B0BDE8F04F072163
:109F3000104717F8010B2075022200F0BEFA3946CF
:109F40000AF58570984700F0C3FA0AF586709847BD
:109F500001206074E07C0028DDD100F09BFA5046BF
:109F600005B0BDE8F04F0C211047607AC0060DD453
:109F7000122000F06DFA88470028CCD100F08EFA4C
:109F800005B0BDE8F04F4FF480411047F168D1F8BB
:109F90008C14504688470028BDD100F07FFA05B0E8
:109FA000BDE8F04F4FF48041104738782077F0211A
:109FB0000020E07600F064FA05B0BDE8F04F1047ED
:109FC000607A810717D4112108420CD100F04CFAB5
:109FD000884700289FD100F061FA05B0BDE8F04F36
:109FE0004FF48041104700F06DFA05B0BDE8F04F26
:109FF0001A220F2118479BF81010012904BF9BF863
:10A0000011100F2918D09BF8151011B19BF81120D1
:10A010001AB19BF81C20012A16D140070CD400F07D
:10A0200023FA884700281FD100F038FA05B0BDE8B0
:10A03000F04F4FF48041104700F044FA05B0BDE8FE
:10A04000F04F23220F21184719B19BF81110012955
:10A0500004D00AF18601897A012917D140070DD46D
:10A0600000F002FA8847002840F0ED8100F016FA6F
:10A0700005B0BDE8F04F4FF48041104700F022FAE0
:10A0800005B0BDE8F04F2A220F21184738787978BB
:10A0900000EB01202881F978B87800EB0120688175
:10A0A0007979387900EB0120A881F979B87900EB4A
:10A0B0000120E881387A2874B97A787A00EB012097
:10A0C0006882397BF87A00EB0120A882B97B787B23
:10A0D00000EB0120E882397CF87B00EB012028832B
:10A0E000B97C787C00EB01206883397DF87C00EB3B
:10A0F0000120A883B97D787D00EB0120E8830AF573
:10A10000A6700490688A0390287C00F0A7F9E8897B
:10A1100000905046F768AB896A892989D7F8BCC492
:10A12000E047B8B1607A40070CD400F09DF9884749
:10A13000002858D100F0B2F905B0BDE8F04F4FF457
:10A140008041104700F0BEF905B0BDE8F04F1E2277
:10A150000F21184768890AF186018880A889C8807C
:10A16000E889088102208AF88600002048800AF1E8
:10A1700006010AF10600C08DC01DABF81E000AF1F1
:10A180008600898D808888420FD10AF186000AF105
:10A190000601C088C98D884207D10AF186000AF1FC
:10A1A00006010089098E88421ED09BF8150050B127
:10A1B0000F208BF81A00504600F06CF905B0BDE88E
:10A1C000F04FFE21104700F065F9FC215046904702
:10A1D000E889F4680090AB896A8929899AF80600B1
:10A1E000D4F8D041A0472EE100F054F9504605B014
:10A1F000BDE8F04F00211047B878F97800EB012B4B
:10A200003879797900EB0125B879F97900EB0129E2
:10A2100007F10B000490ABB2787AB97A00EB012019
:10A2200080B203901FFA8BF2387A00F017F91FFA08
:10A2300089F0009079783878F768D7F8BCC400EBDB
:10A24000012081B25046E047E0B1607A40070CD46B
:10A2500000F00AF9884700282AD100F01FF905B05C
:10A26000BDE8F04F4FF480411047F168D1F8D013AA
:10A270005046884700F026F905B0BDE8F04F1E2291
:10A280000F2118470AF186000021A0F804B0C5800C
:10A29000A0F8089000F0F4F805B0BDE8F04F1047C2
:10A2A000387889F80000787889F801000120687111
:10A2B000C9E03878797800EB0120A9F81200F97824
:10A2C000B87800EB0120A9F816007979387900EB0D
:10A2D0000120A9F81000F979B87900EB0120A9F85C
:10A2E0001400B9F81610B9F80C00884288BF084667
:10A2F000B9F81C10884214BF01210021A9F81C00E4
:10A30000B9F81220B9F80800904288BF1046B9F891
:10A310001820904214BF01220022A9F818000AF563
:10A32000BC7000F0C1F8B9F81C1001229847B9F8C8
:10A33000181081420AD3F368B9F81C10D3F82033FF
:10A340000AF5BC7001220079984701460AF5BC70F5
:10A350004180B9F80A00B9F81010884288BF084651
:10A36000B9F81A10884214BF012200222243A9F82A
:10A370001A0081429B41B9F80E00B9F81410DB0FA6
:10A38000884288BF0846B9F81E10884214BF0121D0
:10A39000002141EA0204A9F81E0023B1F168D1F8B6
:10A3A0001813504688479DF80000142818D174B13E
:10A3B000B9F81E00F4680090B9F81A30B9F81C20FA
:10A3C000B9F818109AF80600D4F8F442A047F268D9
:10A3D000D2F81C23504605B0BDE8F04F15211047B8
:10A3E0002CB19AF8780140F008008AF878019AF8C0
:10A3F000780140F0200015E038780F2807D01228A7
:10A4000002D0142806D01EE0002028701BE0012096
:10A41000287118E09AF8780140F002008AF8780173
